:03000000028D6FFF
:0C8D6F00787FE4F6D8FD758135028DB6E2
:10A0E600D2BCD2AC758DF4D28EE490018DF0A3F083
:01A0F6002247
:10A0F70090018DE0FFA3E0B507037F00227F0122D7
:109E3E00C2AC90008FE0243EF582E43400F583E05E
:109E4E00FF90008FE004F0E0C39450748094804043
:059E5E0002E4F0D2ACAB
:019E630022DC
:080003003099FD8F99C299228A
:03002300029978C7
:10997800C0E0C083C082C0D075D008309825C29896
:1099880090008EE0FF04F0743E2FF582E43400F579
:1099980083E599F090008EE0C394507480948040E1
:0C99A80002E4F0D0D0D082D083D0E032B6
:109CE100C291D2917590F6C2B6C2B722E490010C2E
:109CF100F0A3F022C390010CE09400229000A2E0B6
:0F9D0100FBA3E0FAA3E0F92290010CE004F022AA
:109FA000E49000CFF07EFFC2AF129CE58E80D2938A
:0C9FB000C2938F80129CE17580FFD2AF3D
:019FBC002282
:109F6000C2AFAF05129FA0129CE5AF038F80D293C2
:109F7000C2939000CEE0F580129CE17580FFD2AFD5
:019F800022BE
:108DFB00AC03C2AFAF05129FA0129CE5129CED1203
:108E0B009CF5500BA3E004F070F5129D0980F0AFB8
:108E1B00040C8F80D293129CED129CF5500BA3E0A7
:108E2B0004F070F5129D0980F0C2939000A0E0FB56
:108E3B00A3E475F00112342CA9F0FA1233ACF580CF
:108E4B00C291129CED129CF5500BA3E004F070F54F
:108E5B00129D0980F0D2919000A3E014F070B01233
:088E6B009CE57580FFD2AF22E7
:029ED500AC07D8
:109ED700C2AFAF05129FA0129CE5AF038F80D2934C
:109EE700C2937580FFC292AF80D292129CE5D2AF27
:019EF7002248
:109413009000A2EBF0A3EAF0A3E9F0129CFD123452
:1094230042F47003E5F0F46038123442FBAAF0EA28
:10943300FDE4FF129ED5129CFD9000021233C5FC81
:109443006F6012123442FBAAF0EAFD9000CEECF0FA
:10945300E4FF129F609000A3E475F00312341680BA
:02946300BA222B
:01A19D00229F
:099E6400900095EFF0AA03A90596
:109E6D00129ED5AE07900098E0F45EFFA3E04FFE82
:0D9E7D00900095E0FF9000CEEEF0029F6097
:1061E4002562782025627820256278000A3C523E98
:1061F40025303262785B25303262785D3D2530325D
:10620400627800256278202562780025627820254E
:106214006278202562782025627820002531627812
:10622400202531627820253162782000526561642E
:106234004173696342797465203D3D20256278206D
:106244000A0063682562643A256264200063682555
:1062540062643A2562642063682562643A25626454
:10626400200063682562643A2562642063682562BD
:10627400643A2562642063682562643A2562642076
:106284000063682562643A25626420636825626459
:106294003A2562642063682562643A256264206357
:1062A400682562643A256264200063682562643A62
:1062B4002562642063682562643A25626420636809
:1062C4002562643A2562642063682562643A256223
:1062D400642063682562643A256264200025626450
:1062E40020000A203D3D3D3D3D3D3D3D2050414780
:1062F400452025623278203D3D3D3D3D3D3D3D3DBF
:106304003D3D3D3D0A002562327809000A002531F1
:1063140062782025316278206368253162782063B1
:1063240068253162782063682531627820636825A6
:106334003162782000656E726563616C6C00656E15
:10634400667265657A6500656E686D6972726F72F2
:1063540000656E766D6972726F7200656E656E6847
:10636400616E636500656E626C616E6B00656E6282
:106374006F756E6400656E626C696E6B0064697340
:10638400726563616C6C00646973667265657A65D5
:1063940000646973686D6972726F72006469737600
:1063A4006D6972726F7200646973656E68616E63A1
:1063B4006500646973626C616E6B00646973626F1B
:1063C400756E6400646973626C696E6B003D3D3D7B
:1063D4003D3D20466F726D6174203A206368303D04
:1063E4005B2562785D206368313D5B2562785D20C2
:1063F4006368323D5B2562785D206368333D5B25CD
:1064040062785D203D3D3D3D3D0A002562782025B2
:1064140062782063682562783A256278206368256B
:1064240062783A2562782063682562783A25627832
:106434002063682562783A2562782000333335007A
:106444002600280029006275737700627573720054
:10645400616D697800616D757465006164756D7056
:1064640000616761696E00616C69766500627573CD
:10647400727400766D697800766D69786572720061
:1064840076617474720079766D697800696E6974E6
:106494000076646574007673657466007373747251
:1064A400006873636F6D006D6F6465006469737376
:1064B40063726F6C6C00766572000D0A414343454C
:1064C40053533D30000D0A4143434553533D31007E
:0564D4000102040810A4
:048E730041017F003A
:106C4E00A3F0A3E4F0A37400F0A37427F0A3E4F080
:106C5E00A37400F0A3742CF0A3E4F0A37400F0A3CB
:106C6E007428F0A3E4F0A37400F0A3742DF0A3E451
:106C7E00F0A37400F07429A3F0A3E4F0A322A3F010
:106C8E00A3E4F0A37400F0A37427F0A3E4F0A374BC
:106C9E0000F0A3742CF0A3E4F0A37400F0A3742806
:106CAE00F0A3E4F0A37400F0A3742DF0A3E4F0A31A
:106CBE007400F07429A3F0A3E4F0A322900095E0F1
:106CCE00FBA3E0FAA3E0F922A3F0A3E4F0A374007F
:106CDE00F0A37427F0A3E4F0A37400F0A3742BF0D8
:106CEE00A3E4F0A37400F07428A3F0A3E4F0A322AD
:106CFE009000A474FFF0A37462F07446A3F0A3E4B2
:106D0E00F0A3227400F0A3742EF0A3E4F0A3740099
:106D1E00F0742AA3F0A3E4F0A3227400F0A3742E5F
:106D2E00F0A3E4F0A37400F0742AA3F0A3E4F0A39C
:106D3E00227400F0A3742CF0A3E4F0A37400F0749A
:106D4E0029A3F0A3E4F0A3229000A474FFF0A3748F
:106D5E0062F07451A3F0A3E4F0A3229000A474FF98
:106D6E00F0A37462F074E1A3F0A3E4F0A322740024
:106D7E00F07427A3F0A3E4F0A3227400F07427A309
:106D8E00F0A3E4F0A3229000A474FFF0A322EBF092
:106D9E00A3EAF0A3E9F09000A47401F0A322A3F0FB
:106DAE00A37401F0A37401F0746AA3F0A37401F04C
:106DBE00A322A3F0A3E4F0A322A3F0A3E4F0A32262
:106DCE00A3F0A3E4F0A322A3F0A3E4F0A322A3F084
:106DDE00A3E4F0A322FFE02473F582E43401F583EB
:106DEE00EFF022E0FF90009F7401F0A37401F0A376
:106DFE00746FF07B017A01796A22A3F0A3E4F0A309
:106E0E0022A3F0A3E4F0A322EBF0A3EAF0A3E9F0AF
:106E1E0022900001E475F00102346D7BFF7A6179F6
:106E2E00F09000A1F022A3F0A3E4F0A322E054011D
:106E3E00FB7D2022252AF52AA3E0540322E5289083
:106E4E0064D493FFE527932F221236590233ACA355
:066E5E00F0A3E4F0A32202
:108FCA009000A1126E16A3126CCD126E577002FF9A
:108FDA00229000A4126CCD126E57B4200B9000A4FC
:108FEA00126CCD126E1F80E99000A4126CCD12365D
:108FFA0059C003C002C0019000A1126CCD1236798B
:10900A0080239000A4126CCD126E57FEB42010E497
:10901A001233F29000A4126CCD126E1F7F0122EE61
:10902A0070037F01229000A4126CCD126E1F80D2B1
:0698FE009000A1126E169D
:10990400E4F531F5329000A1126CCD1233AC602233
:109914009000A1A3E475F00112342CA9F0FA1233DB
:10992400ACFF3395E0FEEF2532F532EE3531F531FB
:0699340080D3AE31AF321A
:01993A00220A
:0FA107007F411200037F431200037F4B020003CE
:10969100E4F52A90016AE05403126E4225E025E0C8
:1096A100126E42C454F0126E42C4333354C0252AA0
:1096B100F52A900169E0B5070D90016EE0B52A0623
:1096C100E4900179F0229001797401F090016EE546
:0796D1002AF0900169EFF09F
:0196D800226F
:10976900126D947461F074E4126C857400F07427BE
:10977900126CC37400F07428126CF77400F0A374AF
:1097890029F0125F4BAB28AD27E4FF129ED590005C
:10979900A3EFF0E527126E29A3E528F0129D100525
:0697A90028E528B529DFC8
:0197AF002297
:109A6400126D947462F07407126D0A7400F0742716
:109A7400126D217400F0A37428F0125F4BAB28AD73
:109A840027E4FF129ED59000A3EFF0E527126E297C
:079A9400A3E528F0029D107C
:109C1600126D947461F074E4126D387400F0742758
:109C2600126D4F7400F07428126D627400F0A37404
:109C360029F0125F4B9000CEE529F0AB28AD27E462
:049C4600FF029F601A
:1095F700E4F527F528F529F52AC003C002126D9472
:109607007462F0740F126D757400F07427126D8117
:109617007400F07428126D8D7400F07429126DC0F7
:109627007400F0A3742AF0D002D003125F4B9000AD
:0D963700CEE52AF0AB29AD28E4FF029F60CC
:1096D900E4F527F528F529F52A126D947462F074DA
:1096E90020126DC07400F07427126DC77400F074F5
:1096F90028126DC77400F0A37429F0125F4BAB29CF
:10970900AD28E4FF129ED58F2A7BFF7A62793090CB
:0897190000A1E52AF0029D10F9
:0375400090009B1D
:10754300126D9C7400F0A3749BF07B017A00799E0A
:10755300128FCAE4FB7D1FFF129A9B90009E126C50
:10756300CD12889FEE6003027681EF24FE603E1405
:10757300606714700302760114700302762A2404F0
:107583006003027681126CFE126D7C7400F0A374AA
:107593002CF090009B126CCD125F4BAB2CAD27E40B
:1075A300FF128F59E5279064D493027679126D56B2
:1075B300126D7C7400F0742C126DCE7400F074287C
:1075C300126DCE7400F0A3742DF090009B126CCD5D
:1075D300127682126E4B027679126D947462F07495
:1075E30066126C4E7400F0A3742EF090009B126C24
:1075F300CD127682AB2EAD29127698027679126D72
:10760300947462F07485126C4E126D117400F0A3C1
:10761300742FF090009B126CCD1276AE127698FF09
:10762300E52A932F027679126D947462F0A374AEF7
:10763300126C4F126D117400F0742F126DD574001B
:10764300F0742B126DD57400F0A37430F090009B8E
:10765300126CCD1276AEE4FF128F59AB30AD2BE432
:10766300FF128F59126E4BFFE529932FFFE52A93E3
:0E7673002FFFE52B932FFD7B01E4FF129A9B66
:1076810022125F4BAB2CAD27E4FF128F59AB2DAD0E
:1076910028E4FF128F5922E4FF128F59E5289064E4
:1076A100D493FFE527932FFFE529932F22125F4BF8
:1076B100AB2CAD27E4FF128F59AB2DAD28E4FF129F
:1076C1008F59AB2EAD29E4FF128F59AB2FAD2A2272
:0FA11600E4FB7D1FFF129A9B7DFFE4FF029D6C0F
:037DCA0090009B8B
:107DCD00126D9C7400F0A3749BF07B017A00799E78
:107DDD00128FCA90009E126CCD12889FEE60030226
:107DED007ED8EF24FE603014605614607114700359
:107DFD00027E8F24046003027ED8126CFE126D8801
:107E0D007400F0A3742CF090009B126CCD125F4B9C
:107E1D00AB2CAD27027ED3126D56126D887400F017
:107E2D00742C126DDC7400F07428126DDC7400F08B
:107E3D00A3742DF090009B126CCD127EF3027ED3B5
:107E4D00126D947462F07466126C8C7400F0A374ED
:107E5D002EF090009B126CCD127ED9027ED3126D46
:107E6D00947462F07485126C8C126D287400F0A3FA
:107E7D00742FF090009B126CCD127ED9127F0402EC
:107E8D007ED3126D947462F0A374AE126C8D126D6C
:107E9D00287400F0742F126E087400F0742B126E9B
:107EAD00087400F0A37430F090009B126CCD127E1C
:107EBD00F3E4FF129112AB2EAD29127F04E4FF12F1
:0B7ECD009112AB30AD2BE4FF129112BC
:107ED80022125F4BAB2CAD27E4FF129112AB2DADF4
:107EE80028E4FF129112AB2EAD2922125F4BAB2C66
:107EF800AD27E4FF129112AB2DAD2822E4FF1291B9
:067F080012AB2FAD2A228E
:10A04D00126D697400F0A37427F0125F4BAD27E415
:04A05D00FF029D6CF5
:1094B700E4F528C3E52894037480948050427BFF29
:1094C7007A6279E69000A1E528F0129D10E4F5276D
:1094D700AB27AD28E4FF129ED59000A1EFF07BFFEC
:1094E7007A63790A129D100527E527540F70097BC7
:1094F700FF7A637910129D10E52770D4052880B391
:019507002241
:10936900C003C002C001126D947463F07412126ECE
:109379000F7400F07427126E0F7400F07428126DC8
:10938900AC7401F0746B126DB87401F0A3746C12B3
:109399006DB97401F0A3746DF0D001D002D003123D
:1093A9005F4BE527C454F0FFE528540F2FF527122A
:0693B9006E01FF0273A922
:066A370090009B126E1698
:106A3D00E4F52F7B019000A404F0A37400F0A3747F
:106A4D009BF07A00799E128FCA90009E126CCD1227
:106A5D00889F8F30126DA4126C2F90009E126CCDFA
:106A6D001298FE8E278F287A637939126C0CB5280F
:106A7D000AEEB52706752980026B0C7A63794212EE
:106A8D006C0CB5280AEEB52706752940026B0C7AF9
:106A9D0063794B126C13B52809EEB52705752920BE
:106AAD00805D7A637955126C13B52809EEB527050B
:106ABD00752910804A7A63795F126C1AB52809EE30
:106ACD00B5270575290880377A637969126C1AB56F
:106ADD002809EEB5270575290480247A637971128A
:106AED006C21B52809EEB5270575290280117A6349
:106AFD007979126C21B5280DEEB527097529017527
:106B0D002A01026BB67A637981126C28B5280AEED8
:106B1D00B52706752980026B997A63798B126C28DB
:106B2D00B52809EEB5270575294080607A637995FA
:106B3D00126C40B52809EEB52705752920804D7AD0
:106B4D006379A0126C40B52809EEB527057529109B
:106B5D00803A7A6379AB126C47B52809EEB52705F3
:106B6D0075290880277A6379B6126C47B52809EE26
:106B7D00B5270575290480147BFF7A6379BF1298B8
:106B8D00FEEFB5280CEEB52708752902E4F52A802D
:106B9D00187BFF7A6379C81298FEEF65287003EEB3
:106BAD006527705A752901F52A126DA4126C2FEF05
:106BBD00603390009E126CCD1233ACB477EB900025
:106BCD00011233C5B469E29000021233C5B46ED917
:106BDD00E92403F9E43AFA12889F742B252FF8A6BD
:106BED0007052F80C4E52F6015242AF8E6FFC3950D
:0E6BFD00305007AB2AAD29129BE1152F80E71F
:106C0B00227BFF1298FEEF227BFF1298FEEF227B76
:106C1B00FF1298FEEF227BFF1298FEEF227BFF12F2
:106C2B0098FEEF227400F0A3749BF07B017A00793D
:106C3B009E128FCA227BFF1298FEEF227BFF1298C7
:036C4B00FEEF2237
:10A0B000126D697400F0A37427F0125F4BAF270292
:02A0C000A0619D
:1099F000E4FF129558C0077F01129558C0077F02F7
:109A0000129558C0077F031295589000A4EFF0906C
:109A100000A3D0E0F09000A2D0E0F09000A1D0E050
:0A9A2000F07BFF7A6379D1029D10FC
:0382980090009BB8
:10829B00126D9C7400F0A3749BF07B017A00799EA5
:1082AB00128FCA90009E126CCD12889FEE60030253
:1082BB00838AEF24FE602B146053146079240360CF
:1082CB000302838A126CFE7400F07427126E3474EE
:1082DB0000F0A3742BF090009B126CCD1283A902BB
:1082EB008385126D947462F07451126CD67400F025
:1082FB00A3742CF090009B126CCD1283A9E4FF1297
:10830B009DC4E52CC454F0FBAD28028385126D94FB
:10831B007462F07466126CD6126D3F7400F0A37425
:10832B002DF090009B126CCD12838BE52DC454F075
:10833B00FBAD29028385126D947462F0A3748512D0
:10834B006CD7126D3F7400F0742D126E347400F004
:10835B00742A126E5D7400F0A3742EF090009B12C1
:10836B006CCD12838BE52DC454F0FBAD29E4FF12C9
:0F837B009DC4E52EC454F0FBAD2AE4FF129DC44F
:10838A0022125F4BE52BC454F0FBAD27E4FF129D8C
:10839A00C4E52CC454F0FBAD28E4FF129DC422129C
:0B83AA005F4BE52BC454F0FBAD272215
:0392AC0090009B94
:1092AF00126D9C1292F9126CCD12889F8F27126D3E
:1092BF00A41292F9126CCD12889F8F287F0412A1ED
:1092CF00947F0312A1977F05129F8190009BE0F975
:1092DF00A3E0FAA3E09000A4C9126E17AB28AD2744
:0A92EF007F011291E47F05029B400D
:1092F9007400F0A3749BF07B017A00799E128FCAE7
:0493090090009E2210
:10964400752801E4F527C3E52794047480948050B9
:1096540028746F2527F582E43401F583E030E4159E
:10966400746A2527F582E43401F583E0FDE4FF12F2
:109674009D6CE4F528052780CDE528600FE4FB7D8B
:0C9684001FFF129A9B7DFFE4FF129D6CFB
:0196900022B7
:107B2F00C003C002C001126D947464F0740F126E22
:107B3F005D7400F0A37428F0A3E4F0A37400F07454
:107B4F0029126DAC7401F0A3746F126DB97401F04A
:107B5F00A3746B126DB97401F0A37470126DB974C4
:107B6F0001F0A3746C126DB97401F0A37471126DEE
:107B7F00B97401F0A3746D126DB97401F0A374722E
:107B8F00F0D001D002D003125F4BE528C454F0FFB0
:107B9F00900166E0FEC433333354802FFFE5295440
:107BAF000F2F900178F090016FE090016A126DE352
:107BBF00900170E090016B126DE3900171E0FF9006
:107BCF00016C126DE4900172E0FF90016D126DE493
:107BDF00900173126E3BE4FF1299B4900174126E10
:107BEF003B7F011299B4900175126E3B7F0212997F
:107BFF00B4900176126E3B7F031299B47B017A0128
:107C0F007973127C83900178126DF112548E90016A
:107C1F0078E0FF126E011273A9E4F527C3E52794EC
:107C2F0004748094805017746F2527F582E4340113
:107C3F00F583126E3BAF27129BE1052780DEE4F53B
:107C4F0010F511F5127513057F0112A170900178CF
:107C5F00E0FF1296917F08129C4AE4FF129FBD121B
:107C6F0097B07B017A01796F1250F4900178E09010
:037C7F00017FF092
:017C820022DF
:108EE8007F03129558EFFD3395E0FCED64024C705A
:108EF80002C322900166E0B50702D322900166EF13
:108F0800F0E0C43333335480FF900169E0547F4F5D
:108F1800F07F01129B40900166E0FF1292487B01AE
:108F28007A017973127C83900169126DF112548E63
:108F3800900169E0FF126E011273A9E4FF129FBD50
:108F48001297B07B017A01796F1250F4129DEED31B
:018F580022F6
:10A03700126D947462F0A374E1126DB97401F0A308
:06A047007467F0025F4B9C
:05A18F007F01029B406E
:109D9900E490009BF07F4D120003906440129DBA3D
:109DA900A3129DBAA3A3E493FF1200037F500200FC
:019DB90003A6
:0A9DBA00E493FF12000390644022BE
:0364D9009000959B
:1064DC00126D9C7400F0A37495F07B017A0079988E
:1064EC00128FCA900098126CCD1298FE8E258F26B2
:1064FC007A64794412673CB5260DEEB52509126C09
:10650C00CA1297690267397A64794612673CB526D4
:10651C000DEEB52509126CCA129A640267397A64B9
:10652C007948126743B5260DEEB52509126CCA12CF
:10653C009C160267397A64794A126743B5260DEEC8
:10654C00B52509126CCA1295F70267397A64794F2E
:10655C0012674AB5260DEEB52509126CCA1296D9EA
:10656C000267397A64795412674AB5260DEEB5255F
:10657C0009126CCA1275400267397A64795912672C
:10658C0051B5260AEEB5250612A1160267397A64B2
:10659C00795F126751B5260AEEB52506126E6402B4
:1065AC0067397A647965126758B5260DEEB52509F9
:1065BC00126CCA127DCA0267397A64796B126758F9
:1065CC00B5260DEEB52509126CCA12A04D0267391D
:1065DC007A64797112675FB5260AEEB525061294B6
:1065EC00B70267397A64797712675FB52615EEB50D
:1065FC0025117F401297F5126CCA12936912A107EC
:10660C000267397A64797C126766B5260DEEB5257A
:10661C0009126CCA1293690267397A647984126719
:10662C0066B5260DEEB52509126CCA126A370267DB
:10663C00397A64798A12676DB52610EEB5250C127D
:10664C00A107126CCA12A0B00267397A6479901251
:10665C00676DB5260AEEB525061298390267397AA8
:10666C00647995126774B5260AEEB525061299F071
:10667C000267397A64799A126774B5260DEEB525DE
:10668C0009126CCA1282980267397A6479A012676F
:10669C007BB5260DEEB52509126CCA1292AC0267B9
:1066AC00397A6479A512677BB5261AEEB5251612D0
:1066BC00A107126CCA127B2F129644129DEEE4FFB6
:1066CC0012A17080687A6479AB126782B5260FEEDE
:1066DC00B5250B12A107126CCA12A037804F7A6431
:1066EC0079B0126782B5260CEEB5250812A10712F7
:1066FC00A18F80397BFF7A6479BA1298FEEF6526F8
:10670C007003EE6525702612A107129D9990010E5B
:10671C00E064017009F07BFF7A6479BE800C900113
:0F672C000E7401F07BFF7A6479C9129D107F0112
:10673B00227BFF1298FEEF227BFF1298FEEF227B4B
:10674B00FF1298FEEF227BFF1298FEEF227BFF12C7
:10675B0098FEEF227BFF1298FEEF227BFF1298FE32
:10676B00EF227BFF1298FEEF227BFF1298FEEF22A7
:0E677B007BFF1298FEEF227BFF1298FEEF22AA
:10A020000D0A0044656275672050726F6772616D3A
:07A03000203E0050435400E4
:048E770041010E01A6
:0EA1430090010AE024E1F582E43400F5832265
:1095A80012A0C2EF6401704690010BE07040129E59
:1095B8003E8F25300003120003E52524F8601C24A3
:1095C800FB701F12A143E4F090010B04F0FB7A003A
:1095D80079E1129CB130001602A16790010AE014EB
:0E95E800F02212A143E525F090010AE004F004
:0195F6002252
:09A167007BFF7AA07920029F3EE3
:0B9BAC00900095EBF0A3EAF0A3E9F0B5
:109BB700900095E0FBA3E0FAA3E0F91233AC60193B
:109BC700900095A3E475F00112342CA9F0FA123332
:099BD700ACF525FF12000380D754
:019BE0002262
:109FF0003000097BFF7AA07923129BACE490010A20
:08A00000F0A3F09000E1F02252
:09A17000EF6003C20122D20122BA
:0CA15100C200C201C223E4900190F02281
:109CB100900095EBF0A3EAF0A3E9F02000219000D9
:109CC10095E0FBA3E0FAA3E0F8AC02AD037BFF7AD9
:109CD100A0793312386CEF3395E04F7002D2002235
:0895080090009BEEF0A3EFF0D0
:1095100090009BE07002A3E0603DE490009DF0A30A
:10952000F090009DE0FEA3E0FFE4FCFD7BD8FAF99B
:10953000F8D31235D7401090009EE004F070E2900E
:10954000009DE004F080DA90009CE024FFF09000A1
:079550009BE034FFF080B93D
:0195570022F1
:10897A00E4900092F0A374C8F0A37464F0129EF815
:10898A0012A15112A19D129839129FF09000CE7433
:10899A0030F07B57E4FDFF129F609000987408F056
:1089AA00A3F07B187D01E4FF129E6490009874087E
:1089BA00F0A3F07B287D01E4FF129E6490010EE093
:1089CA00640170211295A890010BE0640170097B83
:1089DA00017A0079E11264D990010BE06401701008
:1089EA00129FF0800B12A0C2EF600512580B80F59F
:1089FA00302307128EE85002C22312A0F7EF600953
:108A0A00900093E0751200F513E5136401451270A6
:108A1A000DF512F513900094E0751000F511E511AB
:108A2A00640145107096129A2A7510007511148007
:018A3A008BB0
:109EF800E4F5B8F5A8758780F5D0758921F58875DA
:109F08009852F5B175B21012A0E6129E8AD299D273
:039F1800AF002275
:100026001010FFFFFFFFFFFFFFFFFFFFFFFFFFFFB8
:10003600FFFFFFFFFFFFFFFFFFFFFFFFFFFFFFFFCA
:10004600FFFFFFFFFFFFFFFFFFFFFFFFFFFFFFFFBA
:10005600FFFFFFFFFFFFFFFFFFFFFFFFFFFFFFFFAA
:10006600FFFFFFFFFFFFFFFFFFFFFFFFFFFFFFFF9A
:10007600FFFFFFFFFFFFFFFFFFFFFFFFFFFFFFFF8A
:10008600FFFFFFFFFFFFFFFFFFFFFFFFFFFFFFFF7A
:10009600FFFFFFFFFFFFFFFFFFFFFFFFFFFFFFFF6A
:1000A600FFFFFFFFFFFFFFFFFFFFFFFFFFFFFFFF5A
:1000B600FFFFFFFFFFFFFFFFFFFFFFFFFFFFFFFF4A
:1000C600FFFFFFFFFFFFFFFFFFFFFFFFFFFFFFFF3A
:1000D600FFFFFFFFFFFFFFFFFFFFFFFFFFFFFFFF2A
:1000E600FFFFFFFFFFFFFFFFFFFFFFFFFFFFFFFF1A
:1000F600FFFFFFFFFFFFFFFFFFFFFFFFFFFFFFFF0A
:10010600FFFFFFFFFFFFFFFFFFFFFFFFFFFFFFFFF9
:10011600FFFFFFFFFFFFFFFFFFFFFFFFFFFFFFFFE9
:10012600FFFF1010FFFFFFFFFFFFFFFFFFFFFFFFB7
:10013600FFFFFFFFFFFFFFFFFFFFFFFFFFFFFFFFC9
:10014600FFFFFFFFFFFFFFFFFFFFFFFFFFFFFFFFB9
:10015600FFFFFFFFFFFFFFFFFFFFFFFFFFFFFFFFA9
:10016600FFFFFFFFFFFFFFFFFFFFFFFFFFFFFFFF99
:10017600FFFFFFFFFFFFFFFFFFFFFFFFFFFFFFFF89
:10018600FFFFFFFFFFFFFFFFFFFFFFFFFFFFFFFF79
:10019600FFFFFFFFFFFFFFFFFFFFFFFFFFFFFFFF69
:1001A600FFFFFFFFFFFFFFFFFFFFFFFFFFFFFFFF59
:1001B600FFFFFFFFFFFFFFFFFFFFFFFFFFFFFFFF49
:1001C600FFFFFFFFFFFFFFFFFFFFFFFFFFFFFFFF39
:1001D600FFFFFFFFFFFFFFFFFFFFFFFFFFFFFFFF29
:1001E600FFFFFFFFFFFFFFFFFFFFFFFFFFFFFFFF19
:1001F600FFFFFFFFFFFFFFFFFFFFFFFFFFFFFFFF09
:10020600FFFFFFFFFFFFFFFFFFFFFFFFFFFFFFFFF8
:10021600FFFFFFFFFFFFFFFFFFFFFFFFFFFFFFFFE8
:10022600FFFFFFFF1010FFFFFFFFFFFFFFFFFFFFB6
:10023600FFFFFFFFFFFFFFFFFFFFFFFFFFFFFFFFC8
:10024600FFFFFFFFFFFFFFFFFFFFFFFFFFFFFFFFB8
:10025600FFFFFFFFFFFFFFFFFFFFFFFFFFFFFFFFA8
:10026600FFFFFFFFFFFFFFFFFFFFFFFFFFFFFFFF98
:10027600FFFFFFFFFFFFFFFFFFFFFFFFFFFFFFFF88
:10028600FFFFFFFFFFFFFFFFFFFFFFFFFFFFFFFF78
:10029600FFFFFFFFFFFFFFFFFFFFFFFFFFFFFFFF68
:1002A600FFFFFFFFFFFFFFFFFFFFFFFFFFFFFFFF58
:1002B600FFFFFFFFFFFFFFFFFFFFFFFFFFFFFFFF48
:1002C600FFFFFFFFFFFFFFFFFFFFFFFFFFFFFFFF38
:1002D600FFFFFFFFFFFFFFFFFFFFFFFFFFFFFFFF28
:1002E600FFFFFFFFFFFFFFFFFFFFFFFFFFFFFFFF18
:1002F600FFFFFFFFFFFFFFFFFFFFFFFFFFFFFFFF08
:10030600FFFFFFFFFFFFFFFFFFFFFFFFFFFFFFFFF7
:10031600FFFFFFFFFFFFFFFFFFFFFFFFFFFFFFFFE7
:10032600FFFFFFFFFFFF1010FFFFFFFFFFFFFFFFB5
:10033600FFFFFFFFFFFFFFFFFFFFFFFFFFFFFFFFC7
:10034600FFFFFFFFFFFFFFFFFFFFFFFFFFFFFFFFB7
:10035600FFFFFFFFFFFFFFFFFFFFFFFFFFFFFFFFA7
:10036600FFFFFFFFFFFFFFFFFFFFFFFFFFFFFFFF97
:10037600FFFFFFFFFFFFFFFFFFFFFFFFFFFFFFFF87
:10038600FFFFFFFFFFFFFFFFFFFFFFFFFFFFFFFF77
:10039600FFFFFFFFFFFFFFFFFFFFFFFFFFFFFFFF67
:1003A600FFFFFFFFFFFFFFFFFFFFFFFFFFFFFFFF57
:1003B600FFFFFFFFFFFFFFFFFFFFFFFFFFFFFFFF47
:1003C600FFFFFFFFFFFFFFFFFFFFFFFFFFFFFFFF37
:1003D600FFFFFFFFFFFFFFFFFFFFFFFFFFFFFFFF27
:1003E600FFFFFFFFFFFFFFFFFFFFFFFFFFFFFFFF17
:1003F600FFFFFFFFFFFFFFFFFFFFFFFFFFFFFFFF07
:10040600FFFFFFFFFFFFFFFFFFFFFFFFFFFFFFFFF6
:10041600FFFFFFFFFFFFFFFFFFFFFFFFFFFFFFFFE6
:10042600FFFFFFFFFFFFFFFF1010FFFFFFFFFFFFB4
:10043600FFFFFFFFFFFFFFFFFFFFFFFFFFFFFFFFC6
:10044600FFFFFFFFFFFFFFFFFFFFFFFFFFFFFFFFB6
:10045600FFFFFFFFFFFFFFFFFFFFFFFFFFFFFFFFA6
:10046600FFFFFFFFFFFFFFFFFFFFFFFFFFFFFFFF96
:10047600FFFFFFFFFFFFFFFFFFFFFFFFFFFFFFFF86
:10048600FFFFFFFFFFFFFFFFFFFFFFFFFFFFFFFF76
:10049600FFFFFFFFFFFFFFFFFFFFFFFFFFFFFFFF66
:1004A600FFFFFFFFFFFFFFFFFFFFFFFFFFFFFFFF56
:1004B600FFFFFFFFFFFFFFFFFFFFFFFFFFFFFFFF46
:1004C600FFFFFFFFFFFFFFFFFFFFFFFFFFFFFFFF36
:1004D600FFFFFFFFFFFFFFFFFFFFFFFFFFFFFFFF26
:1004E600FFFFFFFFFFFFFFFFFFFFFFFFFFFFFFFF16
:1004F600FFFFFFFFFFFFFFFFFFFFFFFFFFFFFFFF06
:10050600FFFFFFFFFFFFFFFFFFFFFFFFFFFFFFFFF5
:10051600FFFFFFFFFFFFFFFFFFFFFFFFFFFFFFFFE5
:10052600FFFFFFFFFFFFFFFFFFFF1010FFFFFFFFB3
:10053600FFFF00000000FFFFFFFFFFFFFFFFFFFFC1
:10054600FF000000000000FFFFFFFFFFFFFFFFFFAF
:100556000000020202020000FFFFFFFFFFFFFFFF95
:100566000000020202020000FFFFFFFFFFFFFF0084
:10057600000202000002020000FFFFFFFFFFFF0073
:10058600000202000002020000FFFFFFFFFF000062
:1005960002020000000002020000FFFFFFFF000051
:1005A600020200FFFF0002020000FFFFFF00000240
:1005B600020000FFFF000002020000FFFF00000231
:1005C6000200000000000002020000FF000002021C
:1005D60002020202020202020202000000000202FD
:1005E60002020202020202020202000000000202ED
:1005F60000000000000000000202000000000202ED
:100606000000FFFFFFFF00000202000000000202E0
:100616000000FFFFFFFF00000202000000000000D4
:100626000000FFFFFFFF00000000000010100000A8
:10063600000000000000000000000000FFFF0002B4
:1006460002020202020202020202000000FF00028F
:10065600020202020202020202020200000000007E
:100666000002020000000000020202020000FF0079
:1006760000020200FFFFFF00000202020000FF006E
:1006860000020200FFFFFF00000202020000FF005E
:1006960000020200000000000202020000FFFF004C
:1006A600000202020202020202020000FFFFFF0035
:1006B600000202020202020202020000FFFFFF0025
:1006C60000020200000000000202020000FFFF001C
:1006D60000020200FFFFFF00000202020000FF000E
:1006E60000020200FFFFFF000002020200000000FD
:1006F60000020200000000000202020200000002E6
:1007060002020202020202020202020000000002CB
:1007160002020202020202020202000000FF0000C0
:10072600000000000000000000000000FFFF1010A5
:10073600FFFFFF00000000000000000000FFFFFFB9
:10074600FFFF00000202020202020202000000FF96
:10075600FF00000202020202020202020200000080
:100766000000000202000000000000020202000079
:1007760000000202020000FFFFFF0000020200006C
:10078600000002020000FFFFFFFFFF000202000060
:10079600000002020000FFFFFFFFFFFF0000000055
:1007A600000002020000FFFFFFFFFFFFFFFFFFFF49
:1007B600000002020000FFFFFFFFFFFFFFFFFFFF39
:1007C600000002020000FFFFFFFFFF000000000024
:1007D600000002020000FFFFFFFFFF000202000010
:1007E60000000202000000FFFFFF000002020000FE
:1007F60000000202020000000000000202020000E7
:10080600FF000002020202020202020202000000CF
:10081600FFFF00000202020202020202000000FFC5
:10082600FFFFFF0000000000000000000000FFFFC7
:100836001010000000000000000000000000FFFF94
:10084600FFFF00000202020202020202020000FF93
:10085600FFFF000002020202020202020202000080
:10086600FFFF00000202000000000002020200007A
:10087600FFFF000002020000FFFF0000020200006E
:10088600FFFF000002020000FFFF0000020200005E
:10089600FFFF00000202000000000002020200004A
:1008A600FFFF00000202020202020202020000FF33
:1008B600FFFF00000202020202020202000000FF25
:1008C600FFFF000002020000020202000000FFFF1C
:1008D600FFFF000002020000000202020000FFFF0C
:1008E600FFFF00000202000000000202020000FFFB
:1008F600FFFF000002020000FF00000202020000EB
:10090600FFFF000002020000FFFF000002020200DB
:1009160000FF000002020000FFFFFF0000020202CB
:1009260000FF000000000000FFFFFFFF00000000C6
:1009360000FF101000000000FFFFFFFFFFFFFFFF9A
:10094600000000000000000000FFFFFFFFFFFF00A7
:100956000000000000000C0C0000FFFFFFFF00007D
:100966000C0C000000000C0C0C0000000000000C39
:100976000C0C000000000C0C0C0C000000000C0C11
:100986000C0C000000000C0C0C0C0C0C0C0C0C0CD1
:100996000C0C000000000C0C0C0C0C0C0C0C0C0CC1
:1009A6000C0C000000000C0C0C000C0C0C0C000CC9
:1009B6000C0C000000000C0C0C00000C0C00000CD1
:1009C6000C0C000000000C0C0C0000000000000CD9
:1009D6000C0C000000000C0C0C0000000000000CC9
:1009E6000C0C000000000C0C0C0000FFFF00000CBB
:1009F6000C0C000000000C0C0C0000FFFF00000CAB
:100A06000C0C000000000C0C0C0000FFFF00000C9A
:100A16000C0C000000000C0C0C0000FFFF00000C8A
:100A26000C0C000000000000000000FFFF000000AA
:100A3600000000001010FF00000000000000000091
:100A46000000000000FFFF00000202020202020294
:100A56000202020000FFFF0000020202020202027E
:100A66000202020000FFFF00000000000000020278
:100A76000200000000FFFFFFFFFFFFFF0000020271
:100A8600020000FFFFFFFFFFFFFFFFFF0000020263
:100A9600020000FFFFFFFFFFFFFFFFFF0000020253
:100AA600020000FFFFFFFFFFFFFFFFFF0000020243
:100AB600020000FFFFFFFFFFFFFFFFFF0000020233
:100AC600020000FFFFFFFFFFFFFFFFFF0000020223
:100AD600020000FFFFFFFF00000000FF000002020F
:100AE600020000FFFFFFFF000202000000000202FA
:100AF600020000FFFFFFFF000202020000020202E6
:100B0600020000FFFFFFFF000002020202020202D3
:100B1600000000FFFFFFFFFF0000020202020200CA
:100B26000000FFFFFFFFFFFFFF00000000000000C6
:100B360000FFFFFFFFFF1010FFFFFFFFFFFFFFFF9C
:100B4600FFFFFFFFFFFFFFFFFFFFFFFFFF000000AC
:100B560000000000FFFFFFFFFFFFFFFF0000010195
:100B660001010000FFFFFFFFFFFFFF000001010181
:100B760001010000FFFFFFFFFFFF0000010101016F
:100B8600010000FFFFFFFFFFFF000001010101015F
:100B96000000000000000000000001010101010149
:100BA6000101010101010000000101010101010132
:100BB6000101010101010000000101010101010122
:100BC6000101010101010000000001010101010113
:100BD6000101010101010000FF0000010101010105
:100BE6000000000000000000FFFF000001010101FD
:100BF600010000FFFFFFFFFFFFFFFF0000010101F3
:100C060001010000FFFFFFFFFFFFFFFF00000101E2
:100C160001010000FFFFFFFFFFFFFFFFFF000000D5
:100C260000000000FFFFFFFFFFFFFFFFFFFFFFFFCA
:100C3600FFFFFFFFFFFFFFFF1010FFFFFFFFFFFF9C
:100C4600FFFFFFFFFFFFFFFFFFFFFFFFFFFF0000AC
:100C56000000000000FFFFFFFFFFFFFFFFFF000097
:100C6600010101010000FFFFFFFFFFFFFFFF000082
:100C760001010101010000FFFFFFFFFFFFFFFF0071
:100C86000001010101010000FFFF0000000000005B
:100C9600000001010101010000FF00000101010146
:100CA6000101010101010101000000000101010132
:100CB6000101010101010101010000000101010121
:100CC6000101010101010101010000000000000015
:100CD600000001010101010000FF0000000000000A
:100CE600000001010101010000FFFFFFFFFFFF00FF
:100CF6000001010101010000FFFFFFFFFFFF0000EF
:100D060001010101010000FFFFFFFFFFFFFF0000DF
:100D1600010101010000FFFFFFFFFFFFFFFF0000D1
:100D26000000000000FFFFFFFFFFFFFFFFFFFFFFC8
:100D3600FFFFFFFFFFFFFFFFFFFF1010FFFFFFFF9B
:100D46000000000000000000FFFFFFFFFFFFFFFFA5
:100D56000000010101010000FFFFFFFFFFFFFFFF91
:100D66000000010101010000FFFFFFFFFFFFFFFF81
:100D76000000010101010000FFFFFFFFFFFFFFFF71
:100D86000000010101010000FFFFFFFF000000005D
:100D96000000010101010000000000000000010147
:100DA6000000010101010000010100000000010135
:100DB6000100010101010001010100000000010123
:100DC6000101010101010101010100000000010111
:100DD600010101010101010101010000FF00000103
:100DE6000101010101010101010000FFFFFF0000F7
:100DF60001010101010101010000FFFFFFFFFF00EA
:100E0600000101010101010000FFFFFFFFFFFFFFDD
:100E16000000010101010000FFFFFFFFFFFFFFFFD0
:100E2600FF000001010000FFFFFFFFFFFFFFFFFFC4
:100E3600FFFF00000000FFFFFFFFFFFF1010FFFF96
:100E4600FFFFFFFFFFFF0000000000000000FFFFA4
:100E5600FFFFFFFFFF000002020202020000FFFF89
:100E6600FFFFFFFF00000202020202020000FFFF76
:100E7600FFFFFF0000020202000002020000000065
:100E86000000000002020200000002020000000052
:100E96000202020202020200FF000202000000003B
:100EA6000202020202020200FF000202000000002B
:100EB6000202000000020200FF0002020000000021
:100EC600020200FF00020200FF0002020000000012
:100ED6000202000000020200FF0002020000000001
:100EE6000202020202020200FF00020200000000EB
:100EF60002020202020202000000020200000000DA
:100F06000000000000020202000002020000FFFFD3
:100F1600FFFFFFFF00000202020202020000FFFFC5
:100F2600FFFFFFFFFF000002020202020000FFFFB8
:100F3600FFFFFFFFFFFF0000000000000000101091
:100F46000000000000FFFFFFFFFFFF0000000000A1
:100F56000004040400FFFFFFFFFFFF000404040079
:100F66000004040400FFFFFFFFFFFF000404040069
:100F76000004040400FFFFFFFFFFFF000404040059
:100F86000004040400FFFFFFFFFFFF000404040049
:100F9600000404040000FFFFFFFF00000404040037
:100FA600000404040400FFFFFFFF0004040404001F
:100FB600000004040400FFFFFFFF00040404000017
:100FC60000000404040000FFFF0000040404000005
:100FD600FF0000040404000000000404040000FFF5
:100FE600FFFF000004040400000404040000FFFFE7
:100FF600FFFF000000040400000404000000FFFFDF
:10100600FFFFFF00000404040404040000FFFFFFC8
:10101600FFFFFFFF0000040404040000FFFFFFFFC2
:10102600FFFFFFFFFF00000404000000FFFFFFFFBB
:10103600FFFFFFFFFFFF0000000000FFFFFFFFFFB5
:10104600101000000000000000FFFFFFFFFFFFFF81
:10105600FFFF00000404040000FFFFFFFFFFFFFF87
:10106600FFFF00000404040000FFFFFFFFFFFFFF77
:10107600FFFF00000404040000FFFFFFFFFFFFFF67
:10108600FFFF00000404040000FFFFFFFFFFFFFF57
:10109600FFFF00000404040000FFFFFFFFFFFFFF47
:1010A600FFFF00000404040000FFFFFFFFFFFFFF37
:1010B600FFFF00000404040000FFFFFFFFFFFFFF27
:1010C600FFFF00000404040000FFFFFFFFFFFFFF17
:1010D600FFFF00000404040000FFFFFFFFFF000005
:1010E600000000000404040000FFFFFFFFFF0000F3
:1010F600000000000404040000FFFFFFFF000004DE
:1011060000000000040404000000000000000404C5
:101116000000000004040404040404040404040499
:101126000000000004040404040404040404040489
:1011360000000000000000000000000000000000A9
:1011460000001010FFFFFFFFFFFFFFFFFFFFFFFF85
:10115600FFFFFFFFFFFFFFFFFFFFFFFFFFFFFFFF99
:10116600FFFFFFFFFFFFFFFFFFFFFFFFFFFFFFFF89
:10117600FFFFFFFFFFFFFFFF00000000000000FF72
:10118600FFFFFFFFFFFFFF00000004040400000054
:10119600FFFFFFFFFFFF0000040404040404040033
:1011A60000FFFFFFFF000004040400000004040425
:1011B6000000FFFF00000004040000FF000004041C
:1011C600000000FF00000404040000FF0000040407
:1011D600040000FF00000404040000FF00000404F3
:1011E600040000FF00000404040000FF00000404E3
:1011F600040000FF00000004040000FF00000404D7
:10120600000000FFFF0000040404000000040404C2
:101216000000FFFFFFFF00000404040404040400B0
:1012260000FFFFFFFFFFFF000000040404000000B2
:10123600FFFFFFFFFFFFFFFF00000000000000FFB1
:10124600FFFFFFFF1010FFFFFFFFFFFFFFFFFFFF86
:10125600FFFFFFFFFFFFFFFFFFFFFFFFFFFFFFFF98
:10126600FFFFFFFFFFFFFFFFFFFFFFFFFFFFFFFF88
:10127600FFFFFFFFFFFFFFFFFFFF00000000000072
:101286000000FFFFFFFFFFFF00000000040404044E
:10129600000000FFFFFFFF00000004040404040434
:1012A60004040000FFFFFF00000404040000000027
:1012B6000404040000FFFF00000404040000FF0013
:1012C6000000000000FFFF0000000404040400000A
:1012D6000000FFFFFFFFFFFFFF00000404040404FB
:1012E600040000FFFFFFFFFFFFFF000000000404F3
:1012F60004040000FFFFFF0000000000FFFF0000E5
:101306000404040000FFFF000004040400000000C1
:101316000404040000FFFF000000040404040404A5
:1013260004040000FFFFFFFFFF00000004040404A4
:10133600000000FFFFFFFFFFFFFFFF0000000000AF
:101346000000FFFFFFFF101004040FFFFFFFFFFF69
:10135600FFFF0404FFFFFFFF040404FFFFFFFFFF7E
:10136600FFFF0404FFFFFFFF0404040FFFFFFFFF5E
:10137600FFFF0404FFFFFFFF040404040FFFFFFF49
:10138600FFFF0404FFFFFFFF0404FF0404FFFFFF49
:10139600FFFF0404FFFFFF040404FF04040FFFFF24
:1013A600FFFF0404FFFFFF040404FFFF0404FFFF24
:1013B600FFFF0404FFFFFF040404FFFF04040FFF04
:1013C600FFFF0404FFFFFF040404FFFFFF04040FF4
:1013D600FFFF0404FFFFFF040404FFFFFFFF0404F4
:1013E600FFFF0404FFFFFF040404FFFFFFFF0404E4
:1013F6000FFF0404FFFFFF040404FFFFFFFFFF04C9
:1014060004FF0404FFFFFF040404FFFFFFFFFFFFC8
:1014160004040404FFFFFFFF0404FFFFFFFFFFFFB8
:1014260004040404FFFFFFFF0404FFFFFFFFFFFFA8
:10143600FF040404FFFFFFFF0404FFFFFFFFFFFF9D
:10144600FF040404FFFFFFFF1010FFFFFF04040466
:101456000404040FFFFFFFFFFFFFFFFF0404040463
:1014660004040404040FFFFFFFFFFF040404FFFF4E
:10147600FFFFFF0404040FFFFFFF04040FFFFFFF3D
:10148600FFFFFFFF040404FFFFFF0404FFFFFFFF4D
:10149600FFFFFFFFFF04040FFFFF040FFFFFFFFF27
:1014A600FFFFFFFFFF040404FFFF04FFFFFFFFFF32
:1014B600FFFFFFFFFFFF0404FFFF04FFFFFFFFFF27
:1014C600FFFFFFFFFFFF0404FFFF04FFFFFFFFFF17
:1014D600FFFFFFFFFFFF0404FFFF04FFFFFFFFFF07
:1014E600FFFFFFFFFFFF0404FFFF040FFFFFFFFFE7
:1014F600FFFFFFFFFF040404FFFF0404FFFFFFFFDD
:10150600FFFFFFFFFF04040FFFFF04040FFFFFFFB1
:10151600FFFFFFFF040404FFFFFFFF040404FFFFB7
:10152600FFFFFF0404040FFFFFFFFFFF0404040492
:1015360004040404040FFFFFFFFFFFFFFFFF040482
:101546000404040FFFFFFFFFFFFF1010FFFFFFFF64
:10155600FF04040FFFFFFFFFFFFFFFFFFFFFFFFF7B
:10156600FF040404FFFFFFFFFFFFFFFFFFFFFFFF76
:10157600FFFF0404FFFFFFFFFFFFFFFFFFFFFFFF6B
:10158600FFFF04040FFFFFFFFFFFFFFFFFFFFFFF4B
:10159600FFFFFF0404FFFFFFFFFFFFFFFFFFFFFF4B
:1015A600FFFFFF04040FFFFFFFFFFFFFFFFFFFFF2B
:1015B600FFFFFF040404FFFFFFFFFF04FFFFFFFF21
:1015C600FFFFFFFF0404FFFFFFFFFF04FFFFFFFF16
:1015D600FFFFFFFF04040FFFFFFFFF04FFFFFFFFF6
:1015E600FFFFFFFF040404FFFFFF0404FFFFFFFFEC
:1015F600FFFFFFFFFF04040FFFFF0404FFFFFFFFD1
:10160600FFFFFFFFFF04040FFFFF0404FFFFFFFFC0
:10161600FFFFFFFFFFFF0404FF04040FFFFFFFFFB0
:10162600FFFFFFFFFFFF04040F0404FFFFFFFFFFA0
:10163600FFFFFFFFFFFF0404040404FFFFFFFFFF9B
:10164600FFFFFFFFFFFFFF0404040FFF1010FFFF63
:101656000404FFFF04040FFFFFFF04040404FF0457
:101666000404FFFF04040FFFFFFF04040404FF0447
:10167600040FFFFF04040FFFFFFF04040FFFFF0426
:1016860004FFFFFF04040FFFFFFF04040FFF040421
:101696000FFFFFFF04040FFFFFFF04040FFF040406
:1016A6000FFFFFFF04040FFFFFFF04040FFF0404F6
:1016B600FFFFFFFF04040FFFFFFF04040FFF040FEB
:1016C600FFFFFFFF04040FFFFFFF04040FFF04FFEB
:1016D600FFFFFFFF04040FFFFFFF04040FFF04FFDB
:1016E600FFFFFFFF04040FFFFFFF04040FFF0FFFC0
:1016F600FFFFFFFF04040FFFFFFF04040FFFFFFFC0
:10170600FFFFFFFF04040FFFFFFF04040FFFFFFFAF
:10171600FFFFFFFF04040FFFFFFF04040FFFFFFF9F
:10172600FFFFFFFF04040FFFFFFF04040FFFFFFF8F
:10173600FFFFFFFF04040FFFFFFF04040404FFFF85
:10174600FFFFFFFF04040FFFFFFF04040404101053
:1017560004040404040FFFFFFFFFFFFF0404040456
:1017660004040404040404FFFFFFFFFF040404044C
:10177600FFFFFFFFFF040404FFFFFFFF04040FFF4A
:10178600FFFFFFFFFFFF04040FFFFFFF04040FFF2F
:10179600FFFFFFFFFFFF040404FFFFFF04040FFF2A
:1017A600FFFFFFFFFFFFFF0404FFFFFF04040FFF1F
:1017B600FFFFFFFFFFFFFF04040FFFFF04040FFFFF
:1017C600FFFFFFFFFFFFFF04040FFFFF04040404F5
:1017D600FFFFFFFFFFFFFF04040FFFFF04040404E5
:1017E600FFFFFFFFFFFFFF04040FFFFF04040FFFCF
:1017F600FFFFFFFFFFFFFF0404FFFFFF04040FFFCF
:10180600FFFFFFFFFFFF040404FFFFFF04040FFFB9
:10181600FFFFFFFFFFFF04040FFFFFFF04040FFF9E
:10182600FFFFFFFFFF040404FFFFFFFF04040FFF99
:1018360004040404040404FFFFFFFFFF040404047B
:1018460004040404040FFFFFFFFFFFFF0404040465
:10185600101004040404040404040FFFFFFFFFFF38
:10186600FF0404040404040404040FFFFFFFFF0440
:101876000404FFFFFFFFFFFFFFFFFFFFFFFF04045E
:10188600040FFFFFFFFFFFFFFFFFFFFFFF0404043E
:10189600FFFFFFFFFFFFFFFFFFFFFFFFFF04040F38
:1018A600FFFFFFFFFFFFFFFFFFFFFFFFFF0404FF38
:1018B600FFFFFFFFFFFFFFFFFFFFFFFF04040FFF18
:1018C600FFFF040404040404040FFFFF04040FFFD5
:1018D600FFFF040404040404040FFFFF04040FFFC5
:1018E600FFFFFFFFFFFFFFFFFFFFFFFF04040FFFE8
:1018F600FFFFFFFFFFFFFFFFFFFFFFFFFF0404FFE8
:10190600FFFFFFFFFFFFFFFFFFFFFFFFFF04040FC7
:10191600FFFFFFFFFFFFFFFFFFFFFFFFFF040404C2
:10192600FFFFFFFFFFFFFFFFFFFFFFFFFFFF0404B7
:10193600040F04040404040404040FFFFFFFFF045F
:10194600040404040404040404040FFFFFFFFFFF5F
:10195600FF0410100404040404FFFFFFFFFFFFFF51
:10196600FFFFFFFF0404040404040FFFFFFFFFFF53
:10197600FFFFFFFFFFFFFFFF0404040FFFFFFFFF52
:10198600FFFFFFFFFFFFFFFFFFFF04040FFFFFFF47
:10199600FFFFFFFFFFFFFFFFFFFF040404FFFFFF42
:1019A600FFFFFFFFFFFFFFFFFFFFFF04040FFFFF27
:1019B600FFFFFFFFFFFFFFFFFFFFFF04040FFFFF17
:1019C600FFFFFFFFFFFFFFFFFFFFFF04040FFFFF07
:1019D600FFFFFFFFFFFFFFFFFFFFFF04040FFFFFF7
:1019E600FFFFFFFFFFFFFFFFFFFFFF04040FFFFFE7
:1019F600FFFFFFFFFFFFFFFFFFFFFF04040FFFFFD7
:101A0600FFFFFFFFFFFFFFFFFFFF040404FFFFFFD1
:101A1600FFFFFFFFFFFFFFFFFFFF04040FFFFFFFB6
:101A2600FFFFFFFFFFFFFFFF04040404FFFFFFFFAC
:101A3600FFFFFFFF0404040404040FFFFFFFFFFF82
:101A4600FFFFFFFF0404040404FFFFFFFFFFFFFF87
:101A5600FFFFFFFF1010FFFFFFFFFF040404040455
:101A6600040FFFFFFFFFFFFFFFFF0404040404044D
:101A7600040404FFFFFFFFFFFF040404FFFFFFFF52
:101A8600FF040404FFFFFFFF040404FFFFFFFFFF42
:101A9600FFFF04040FFFFFFF04040FFFFFFFFFFF1C
:101AA600FFFF04040FFFFFFFFF0404FFFFFFFFFF1C
:101AB600FFFFFFFFFFFFFFFFFF0404040404FFFF17
:101AC600FFFFFFFFFFFFFFFFFFFF04040404040402
:101AD6000404FFFFFFFFFFFFFFFFFFFFFF040404F7
:101AE6000404040FFFFFFFFFFFFFFFFFFFFFFFFFE1
:101AF600FF0404040FFFFF04040FFFFFFFFFFFFFB7
:101B0600FFFF04040FFFFFFF0404FFFFFFFFFFFFBB
:101B1600FFFF04040FFFFFFF04040FFFFFFFFFFF9B
:101B2600FFFF04040FFFFFFF04040404FFFFFFFF91
:101B3600FF040404FFFFFFFFFF040404040404047D
:101B4600040404FFFFFFFFFFFFFFFF040404040477
:101B5600040FFFFFFFFF1010FF04040FFFFFFFFF3E
:101B6600FFFFFF0404040404FF04040FFFFFFFFF4C
:101B7600FF04040404040404FF04040FFFFFFFFF32
:101B860004040404FFFFFFFFFF04040FFFFFFFFF31
:101B960004040FFFFFFFFFFFFF04040FFFFFFF0416
:101BA600040FFFFFFFFFFFFFFF04040FFFFFFF040B
:101BB60004FFFFFFFFFFFFFFFF04040FFFFFFF040B
:101BC60004FFFFFFFFFFFFFFFF04040FFFFF0404F6
:101BD60004FFFFFFFFFFFFFFFF04040FFFFF0404E6
:101BE6000FFFFFFFFFFF0404FF04040FFFFFFF04C6
:101BF60004FFFFFFFFFF0404FF04040FFFFFFF04C1
:101C060004FFFFFFFFFFFFFFFF04040FFFFFFF04BA
:101C1600040FFFFFFFFFFFFFFF04040FFFFFFFFF9F
:101C260004040FFFFFFFFFFFFF04040FFFFFFFFF8A
:101C360004040404FFFFFFFFFF04040FFFFFFFFF80
:101C4600FF04040404040404FF04040FFFFFFFFF61
:101C5600FFFFFFFF0404040410100404FFFFFFFF4E
:101C6600FFFFFF04040FFFFFFFFF0404040FFFFF45
:101C7600FFFFFF040404FFFFFFFFFF0404040FFF40
:101C8600FFFFFF0404040FFFFFFFFFFFFF0404FF35
:101C9600FFFFFF04040404FFFFFFFFFFFF04040F20
:101CA600FFFFFF040404040FFFFFFFFFFFFFFFFF1A
:101CB600FFFFFF0404FF04040FFFFFFFFFFFFFFF0A
:101CC600FFFFFF0404FFFF0404FFFFFFFFFFFFFF0A
:101CD600FFFFFF0404FFFF04040F040404040404CC
:101CE600FFFFFF0404FFFFFF0404040404040404CC
:101CF600FFFFFF0404FFFFFF0404FFFFFF040404CB
:101D0600FFFFFF0404FFFFFFFF04FFFFFF040404BF
:101D1600FFFFFF0404FFFFFFFFFFFFFFFF040404B4
:101D2600FFFFFF0404FFFFFFFFFFFFFF040404049F
:101D3600FFFFFF0404FFFFFFFFFF040404040FFF7F
:101D4600FFFFFF0404FFFFFFFFFF0404FFFFFFFF89
:101D5600FFFFFF0404FFFFFFFFFF1010FFFFFF045C
:101D660004FFFFFFFFFFFFFFFF040404FFFFFF0464
:101D760004FFFFFFFFFFFFFF04040404FFFFFF044F
:101D860004FFFFFFFFFFFFFF04040404FFFFFF043F
:101D960004FFFFFFFFFFFF040404FF04FFFFFF042F
:101DA60004FFFFFFFFFFFF04040FFF04FFFFFF0414
:101DB60004FFFFFFFFFFFF0404FFFFFFFFFFFF0419
:101DC60004FFFFFFFFFF04040FFFFFFFFFFFFF04F9
:101DD60004FFFFFFFFFF04040FFFFFFFFFFFFF04E9
:101DE60004FFFFFFFF040404FFFFFFFF0FFFFF04D4
:101DF60004FFFFFFFF04040404040404040FFF04AB
:101E060004FFFFFFFF040404040404040404FF04A5
:101E160004FFFFFF04040FFFFFFFFFFF04040F048E
:101E260004FFFFFF0404FFFFFFFFFFFFFF0404049E
:101E360004FFFF040404FFFFFFFFFFFFFFFF04048E
:101E460004FFFF04040FFFFFFFFFFFFFFFFF040473
:101E560004FFFF0404FFFFFFFFFFFFFF1010FFFF5B
:101E6600FFFFFFFFFFFF0404FFFFFFFFFFFF0FFF62
:101E7600FFFFFFFFFFFF0404FFFFFFFFFFFF0FFF52
:101E8600FFFFFFFFFFFF0404FFFFFFFFFFFF04FF4D
:101E9600FFFFFFFFFFFF0404FFFFFFFFFFFF040F2D
:101EA600FFFFFFFFFFFF0404FFFFFFFFFFFF040428
:101EB600FFFFFFFFFFFF0404FFFFFFFFFFFF040418
:101EC6000FFFFFFFFFFF0404FFFFFFFFFFFF0404F8
:101ED6000FFFFFFFFFFF0404FFFFFFFFFFFFFF04ED
:101EE60004FFFFFFFFFF0404FFFFFFFFFFFF0404E3
:101EF600040FFFFFFFFF0404FFFFFFFFFFFF0404C3
:101F06000404FFFFFFFF0404FFFFFFFFFFFFFFFFC7
:101F160004040FFFFFFF0404FFFFFFFFFFFFFFFFA7
:101F260004040FFFFFFF0404FFFFFFFFFFFFFFFF97
:101F3600FF0404FFFFFF0404FFFFFFFFFFFFFFFF97
:101F4600FF04040FFFFF0404040404040404FFFF59
:101F5600FFFF0404FFFF0404040404040404101037
:101F6600FFFFFFFFFF000000000000FFFFFFFFFF75
:101F7600FFFFFF00000002020202000000FFFFFF59
:101F8600FFFF000002020202020202020000FFFF3F
:101F9600FF0000020202000000000002020000FF33
:101FA600FF0002020200FFFFFFFF0000020200FF27
:101FB600FF00020202020000FFFFFF00000000FF18
:101FC600FF000002020202020000FFFFFFFFFFFF08
:101FD600FFFF0000000002020202000000FFFFFFF8
:101FE600FFFFFFFFFF00000002020202020000FFE7
:101FF600FFFFFFFFFFFFFF0000000202020200FFDB
:10200600FF00000000FFFFFFFF000000020200FFCC
:10201600FF0002020000FFFFFFFF0000020200FFB8
:10202600FF0000020200000000000002020000FFA4
:10203600FFFF000002020202020202020000FFFF8E
:10204600FFFFFF00000002020202020000FFFFFF86
:10205600FFFFFFFFFF00000000000000FFFFFFFF83
:10206600101000000000000000000000000000004A
:10207600000000010101010101010101010101014D
:10208600010000010101010101010101010101013C
:10209600010000010101010101010101010101012C
:1020A6000100000000000000010101010000000025
:1020B6000000FFFFFFFFFF000101010100FFFFFF1E
:1020C600FFFFFFFFFFFFFF000101010100FFFFFF10
:1020D600FFFFFFFFFFFFFF000101010100FFFFFF00
:1020E600FFFFFFFFFFFFFF000101010100FFFFFFF0
:1020F600FFFFFFFFFFFFFF000101010100FFFFFFE0
:10210600FFFFFFFFFFFFFF000101010100FFFFFFCF
:10211600FFFFFFFFFFFFFF000101010100FFFFFFBF
:10212600FFFFFFFFFFFFFF000101010100FFFFFFAF
:10213600FFFFFFFFFFFFFF000101010100FFFFFF9F
:10214600FFFFFFFFFFFFFF000101010100FFFFFF8F
:10215600FFFFFFFFFFFFFF000000000000FFFFFF83
:10216600FFFF1010FFFFFFFFFFFFFFFFFFFFFFFF57
:10217600FFFFFFFFFFFFFFFFFFFFFFFFFFFFFFFF69
:10218600FFFFFFFFFFFFFFFFFFFFFFFFFFFFFFFF59
:10219600FFFFFFFFFFFFFFFFFFFFFFFFFFFFFFFF49
:1021A600FFFFFFFFFFFFFFFFFFFFFFFFFFFFFFFF39
:1021B600FFFFFFFFFFFFFFFFFFFFFFFFFFFFFFFF29
:1021C600FFFFFFFFFFFFFFFFFFFFFFFFFFFFFFFF19
:1021D600FFFFFFFFFFFFFFFFFFFFFFFFFFFFFFFF09
:1021E600FFFFFFFF1010FFFFFFFFFFFFFFFFFFFFD7
:1021F600FFFFFFFFFFFFFFFFFFFFFFFFFFFFFFFFE9
:10220600FFFFFFFFFFFFFFFFFFFFFFFFFFFFFFFFD8
:10221600FFFFFFFFFFFFFFFFFFFFFFFFFFFFFFFFC8
:10222600FFFFFFFFFFFFFFFFFFFFFFFFFFFFFFFFB8
:10223600FFFFFFFFFFFFFFFFFFFFFFFFFFFFFFFFA8
:10224600FFFFFFFFFFFFFFFFFFFFFFFFFFFFFFFF98
:10225600FFFFFFFFFFFFFFFFFFFFFFFFFFFFFFFF88
:10226600FFFFFFFFFFFF1010FFFFFFFFFFFFFFFF56
:10227600FFFFFFFFFFFFFFFFFFFFFFFFFFFFFFFF68
:10228600FFFFFFFFFFFFFFFFFFFFFFFFFFFFFFFF58
:10229600FFFFFFFFFFFFFFFFFFFFFFFFFFFFFFFF48
:1022A600FFFFFFFFFFFFFFFFFFFFFFFFFFFFFFFF38
:1022B600FFFFFFFFFFFFFFFFFFFFFFFFFFFFFFFF28
:1022C600FFFFFFFFFFFFFFFFFFFFFFFFFFFFFFFF18
:1022D600FFFFFFFFFFFFFFFFFFFFFFFFFFFFFFFF08
:1022E600FFFFFFFFFFFFFFFF1010FFFFFFFFFFFFD6
:1022F600FFFFFFFFFFFFFFFFFFFFFFFFFFFFFFFFE8
:10230600FFFFFFFFFFFFFFFFFFFFFFFFFFFFFFFFD7
:10231600FFFFFFFFFFFFFFFFFFFFFFFFFFFFFFFFC7
:10232600FFFFFFFFFFFFFFFFFFFFFFFFFFFFFFFFB7
:10233600FFFFFFFFFFFFFFFFFFFFFFFFFFFFFFFFA7
:10234600FFFFFFFFFFFFFFFFFFFFFFFFFFFFFFFF97
:10235600FFFFFFFFFFFFFFFFFFFFFFFFFFFFFFFF87
:10236600FFFFFFFFFFFFFFFFFFFF1010FFFFFFFF55
:10237600FFFFFFFFFFFFFFFFFFFFFFFFFFFFFFFF67
:10238600FFFFFFFFFFFFFFFFFFFFFFFFFFFFFFFF57
:10239600FFFFFFFFFFFFFFFFFFFFFFFFFFFFFFFF47
:1023A600FFFFFFFFFFFFFFFFFFFFFFFFFFFFFFFF37
:1023B600FFFFFFFFFFFFFFFFFFFFFFFFFFFFFFFF27
:1023C600FFFFFFFFFFFFFFFFFFFFFFFFFFFFFFFF17
:1023D600FFFFFFFFFFFFFFFFFFFFFFFFFFFFFFFF07
:1023E600FFFFFFFFFFFFFFFFFFFFFFFF1010FFFFD5
:1023F600FF0000FFFFFFFFFFF000000FFFFFFFFFE2
:1024060000222200FFFFFFFF00222200FFFFFFF055
:10241600022002200FFFFFF0022002200FFFFF0024
:102426002200002200FFFF00220FF02200FFF00230
:10243600200FF002200FF00220000002200F0022E1
:1024460022222222220000222222222222000022EE
:10245600000000002200002200FFFF0022000022F0
:1024660000FFFF002200000000FFFF000000101028
:1024760000000000000000FF022222222222000F9C
:102486000222222222222000000220000022220014
:10249600F00220FFF0022200F00220FFF0022200EC
:1024A600F00220000022200FF0022222222200FF4A
:1024B600F0022222222200FFF00220000022200F3A
:1024C600F00220FFF0022200F00220FFF0022200BC
:1024D60000022000002222000222222222222000C4
:1024E600022222222222000F00000000000000FF2C
:1024F60010101010101010101010101010101010D6
:062506001010101010106F
:10987D001233C5FF90018FE02F9000CEF0229000A3
:10988D00ADE0FBA3E0FAA3E0F922F09000ADE0FB20
:10989D00A3E475F00112342CA9F0FA0233AC900058
:1098AD00A4E0FF3395E0FED3EF9400EE6480948046
:0198BD002288
:06A18900E490018FF022BA
:0B7207009000A5EFF0A3ECF0A3EDF069
:107212009000A5E0FF25E0F0E02408F09000ACF03B
:107222009000A6E0FEA3E07803C333CE33CED8F9B4
:10723200F0EE9000A6F0A3E02408F09000A6E0345F
:1072420000F0AF037E007C017D0212340474262F0D
:10725200F974003EFA9000AD74FFF0A3EAF0A3E9DE
:107262001298979000A81298979000A9F0E4A3F0C2
:107272009000A8E0FF9000AAE0C39F400302734E73
:10728200E4A3F09000A9E0FF9000ABE0C39F4003AD
:1072920002732F12988B1233AC129880E4FB7D029A
:1072A200FF129F6012988B90000112987D7B011251
:1072B200737890000212987D7B021273789000031B
:1072C20012987D7B0312738B9000CE7480F07B0446
:1072D20012738B9000AEE475F0041234169000AC79
:1072E200E09000CEF07B05127393A3E09000CEF005
:1072F2007B07127393E07E007802C333CE33CED87D
:10730200F912734F12739E20E7FA9000A6E025E06F
:1073120025E0440812734F12739E20E7FA9000ACE6
:10732200E004F09000ABE02404F00272859000A526
:10733200E09000ACF09000A7E004F070069000A688
:0C734200E004F09000AAE004F002727277
:10734E00229000CEF07B097D02E4FF129F607B0A43
:10735E007D02E4FF129ED5EF543F44809000CEF0A4
:10736E007B0A7D02E4FF129F60227D02E4FF129FE2
:10737E00609000ADE0FBA3E0FAA3E0F9227D02E409
:10738E00FF129F60227D02E4FF129F609000A622F2
:0B739E007B0A7D02E4FF129ED5EF2267
:0B917D0090009EEFF0A3EDF0A3EBF0DC
:10918800A312988E12000E9000A4EFF03395E0C35E
:1091980064809480404590009EE0540164017033DF
:1091A80090009FE0FFA3E0FD7C00A312988E12338D
:1091B800ACFB1272079000A4E014F09000A2E475D2
:1091C800F00112341690009FE02402F01298AB5080
:0B91D800CF80051298AB50FB12A19D48
:0191E3002269
:109EB0000500000600000700000800000900000A75
:109EC00000001F000020000B000C000D000E000F12
:059ED000101112120048
:038E7B00012100D2
:1087BA0090016AE075F003A424B0F9749E35F0FACA
:1087CA009000A174FFF0A32290009BE0FBA3E0FAC3
:1087DA00A3E0F922900166E0FD7C007B0122749EF1
:1087EA00F074BCA3F0900166E0FB22900001123302
:1087FA00C554026402229000011233C55401640177
:10880A00229000011233C55410641022749EF0A302
:10881A0074BCF022749EF0A374CD221233AC5402BD
:10882A006402221233AC54016401221233AC541094
:10883A006410221233AC540C1313543FF527227BD5
:10884A00017D0F7C00227B017D127C0022EAF0A3CD
:10885A00E9F07B0F22EAF0A3E9F07B12229001668D
:10886A00E0FD7C007B02E422EAF0A3E9F07B01222E
:10887A00EBF0A3EAF0A3E9F022749EF0A374C522F8
:10888A00EAF0A3E9F0E4FB229000010233C57B0180
:05889A007A01796F2254
:10946500127F0E12A1897F0412A1947F0312A19786
:10947500E4F527C3E5279406748094805009AF2747
:109485001294A1052780EC7F01129B407FFF12A15A
:0B949500977F081294A1E4900167F09B
:1094A00022129F8190009FE4F0A37426F07B5AE47F
:0794B000FDFCFF128AF1220E
:1050F40090009B12887A7F0212A1947FFF12A197DD
:10510400900169E01236C8513911514D2151722272
:1051140051973151D333520C34524541529C9152E0
:10512400AFA152DDA25304B1534DB35388B453C05D
:10513400C10000541C1287D2128825600302541C3B
:105144001287BA12888A0252D81287D2128825701E
:10515400061287BA1254771287D21287F5600302B7
:10516400541C90016B1287BD1288570252D81287C3
:10517400D212882570061287BA12541D1287D212D1
:1051840087F5600302541C90016B1287BD12888A54
:105194000252FF1287D212882570061287BA12545F
:1051A400771287D21287F5700C90016B1287BD12AB
:1051B40088571254861287D29000021287F860032F
:1051C40002541C90016C1287BD1288570252FF12C0
:1051D40087D212882570061287BA12541D1287D2FC
:1051E4001287F5700990016B1287BD1254681287FB
:1051F400D29000021287F8600302541C90016C12D2
:1052040087BD1288570252FF1287D2128825700672
:105214001287BA12543B1287D21287F57009900193
:105224006B1287BD1254681287D29000021287F85D
:10523400600302541C90016C1287BD1288570253FC
:10524400BB1287D212882570061287BA12543B12F9
:1052540087D21287F5701090016B1287BD12888A6D
:105264007D3E7F0112917D1287D29000021287F851
:10527400700C90016C1287BD1288571254861287E5
:10528400D29000031287F8600302541C90016D123F
:1052940087BD1288570252FF1287D21288256003F5
:1052A40002541C1287BA12887280291287D212887B
:1052B40025700D1287BA1288727D297F0112917DA3
:1052C4001287D21287F5600302541C90016B128777
:1052D400BD12885F7D290254171287D21288257067
:1052E400061287BA12542C1287D21287F560030271
:1052F400541C90016B1287BD1288727D3E025417B4
:105304001287D2128825700D1287BA1288727D29ED
:105314007F0112917D1287D21287F5701090016B74
:105324001287BD12885F7D147F0112917D1287D28E
:105334009000021287F8600302541C90016C1287DB
:10534400BD12885F7D3E0254171287D212882570E1
:10535400061287BA12542C1287D21287F57009905C
:10536400016B1287BD12544A1287D2900002128731
:10537400F8600302541C90016C1287BD12885F7D93
:105384003E0254171287D212882570061287BA1269
:1053940054591287D21287F5700990016B1287BD98
:1053A40012544A1287D29000021287F8706A900150
:1053B4006C1287BD12885F7D140254171287D212B3
:1053C400882570061287BA1254591287D21287F5AB
:1053D400701090016B1287BD1288727D3E7F01129E
:1053E400917D1287D29000021287F8701090016CA0
:1053F4001287BD12885F7D147F0112917D1287D2BE
:105404009000031287F8701090016D1287BD128806
:105414005F7D3E7F0112917D22EAF0A3E9F0E4FB77
:105424007D147F0112917D22EAF0A3E9F07B017DD6
:10543400147F0112917D22EAF0A3E9F0E4FB7D14CC
:105444007F0112917D22EAF0A3E9F07B017D3E7F8A
:105454000112917D22EAF0A3E9F07B017D147F0122
:1054640012917D22EAF0A3E9F0E4FB7D3E7F011274
:10547400917D22EAF0A3E9F0E4FB7D297F011291FA
:0A5484007D227D147F0112917D222C
:08A17900900168E04480F0222F
:109A2A007B787D01E4FF129ED5EF540FFF900177FA
:109A3A00F0900168E06F6021D2237B31E4FDFF12D0
:109A4A009ED5EF547F9000CEF07B31E4FDFF129F4C
:0A9A5A0060900177E0900168F022AF
:0667890090009B12887ACB
:10678F007F4112A194900169E01236C867C3116767
:10679F00EF2168532268C231691F3369763467C3AA
:1067AF009167EFA16853A268C2B1691FB36976B44C
:1067BF00000069D490009B1287D512883D600302B8
:1067CF0068CD1287DE126A2E1287D51233AC30E5F0
:1067DF00030268FD900167E060030269D402691744
:1067EF0090009B1287D512883D60101269D51287D1
:1067FF00C9EAF0E91287ED7D1C801D1287DE126A4F
:10680F00251287D51233AC30E5151269F31287CAFA
:10681F001288831287EE7D017F0112917D800E9089
:10682F000167E070081287DE7F01128A3B90009BA0
:10683F001287D51288921288409001666003026910
:10684F00870268BA90009B1287D512883D6011129B
:10685F0069D51287C9EAF0A3E91287EE7D1C801D66
:10686F001287DE126A251287D51233AC30E5151266
:10687F0069F31287CA1288831287EE7D017F011296
:10688F00917D800E900167E070081287DE7F011204
:10689F008A3B90009B1287D512889212884060081D
:1068AF007B02E4FDFC02698A9001661287E17F4654
:1068BF000269D190009B1287D512883D6021126A20
:1068CF0002E52725E0FFE433FE74C52FF9749E3EE1
:1068DF001287C9EAF0A3E91287EE7D310269C1126E
:1068EF0087DE126A2E1287D51233AC30E511126A89
:1068FF00021287CA1288831287EE7D010269C19046
:10690F000167E060030269D41287DE7F010269D15B
:10691F0090009B1287D512883D6015128867126A06
:10692F00111287C9EAF0A3E91287EE7D1C0269C133
:10693F001287DE7F1C128A3B90009B1287D5123381
:10694F00AC30E515128867FF128A3B1287CA12888E
:10695F00831287EE7D010269C1900167E0706612B4
:10696F0087DE7F010269D190009B1287D512889232
:10697F00128840601790016612886A126A11128796
:10698F00C9EAF0A3E91287EE7D4680261287DE7FE3
:10699F0046128A3B90009B1287D51233AC30E51715
:1069AF00128867FF128A3B1287CA1288831287EEFA
:1069BF007D017F0102917D900167E070081287DEF3
:0569CF007F01128A3B6C
:1069D40022900166E0FD7C007B02E4FF128A3BE525
:1069E4002725E0FFE433FE74C52FF9749E3E229000
:1069F4000166E0FD7C007B02E4FF128A3B229001E9
:106A040066E0FD7C007B02E4FF128A3B22FF128ACF
:106A14003BE52725E0FFE433FE74C52FF9749E3E61
:106A2400227F1C128A3B90009B227F31128A3B906A
:036A3400009B22A2
:103E9C0090009B12887A7F0C12A194900169E01219
:103EAC0036C83EDC113EF9213F28223F5E313FAE41
:103EBC00333FF73440494140C49140E1A1411FA236
:103ECC004160B141C3B34222B44288C100004312E5
:103EDC0090009B1287D512882D700A1287CA1288FF
:103EEC0016E40240D97B01E4FDFC02411A90009BD0
:103EFC001287D512882D700D1287CA1288167D2C48
:103F0C00124366800312435190009B1287D512888E
:103F1C0000700302410A12884902411A90009B1258
:103F2C0087D512882D700B1287CA1288161243136C
:103F3C00800312432790009B1287D5128800700AC9
:103F4C001287CA128816E40241527B01E4FDFC027E
:103F5C00415B90009B1287D512882D700D1287CA79
:103F6C00128816E4FB124381800312435190009B8C
:103F7C001287D5128800700B1287CA12881612434A
:103F8C004780081288497F17128A3B90009B128742
:103F9C00D590000212880370030240B312884902C4
:103FAC00415B90009B1287D512882D700B1287CA2B
:103FBC00128816124313800312432790009B12871A
:103FCC00D5128800700B1287CA12881612433D80D6
:103FDC000312433290009B1287D590000212880383
:103FEC0070030240B312884902415B90009B128718
:103FFC00D512882D700B1287CA12881612431D8099
:10400C000312436E90009B1287D5128800700B121E
:10401C0087CA12881612433D800312433290009BCC
:10402C001287D5900002128803700B1287CA12886F
:10403C00167B0F0242787B017D0F02428190009B20
:10404C001287D512882D700B1287CA12881612434C
:10405C001D800312436E90009B1287D5128800704E
:10406C000D1287CA1288167D41124366800A7B01A5
:10407C00E4FDFC7F41128A3B90009B1287D5900097
:10408C0002128803700B1287CA12881612434780DB
:10409C00081288497F17128A3B90009B1287D59093
:1040AC000003128803700B1287CA1288167B0F024A
:1040BC00415312884902415B90009B1287D51288AC
:1040CC002D700D1287CA128816900166E0FB80369F
:1040DC001287DE803990009B1287D512882D700BC9
:1040EC001287CA1287E812438180081287DE7F2C60
:1040FC00128A3B90009B1287D5128800700D128794
:10410C00CA1288167B0F7D2C0243051288497F2C1E
:10411C0002430F90009B1287D512882D700B1287CB
:10412C00CA1287E812437980081287DE7F17128A39
:10413C003B90009B1287D512880070101287CA1210
:10414C008816900166E0FB7D410243051287DE7FF5
:10415C004102430F90009B1287D512882D700F12CD
:10416C0087CA1287E87D2C7F0112917D8008128707
:10417C00DE7F2C128A3B90009B1287D51288007030
:10418C000B1287CA12881612435C80081288507F63
:10419C0017128A3B90009B1287D59000021288035D
:1041AC00700D1287CA1288167B127D4102430512CC
:1041BC0088507F4102430F90009B1287D512882DA7
:1041CC00700B1287CA1287E812437980081287DEB7
:1041DC007F17128A3B90009B1287D5128800700BB8
:1041EC001287CA1287E812438980081287DE7F4142
:1041FC00128A3B90009B1287D590000212880370A4
:10420C000D1287CA1288167B127D41024305128853
:10421C00507F4102430F90009B1287D512882D705E
:10422C000F1287CA1287E87D177F0112917D8008D3
:10423C001287DE7F17128A3B90009B1287D512885B
:10424C0000700B1287CA1287E81243898008128704
:10425C00DE7F41128A3B90009B1287D590000212A0
:10426C008803700D1287CA1288167B127D170243C1
:10427C00057B017D127C007F1702430F90009B127F
:10428C0087D512882D700F1287CA1287E87D177F89
:10429C000112917D80081287DE7F17128A3B9000F5
:1042AC009B1287D5128800700F1287CA1287E87D7F
:1042BC00417F0112917D80081287DE7F41128A3B7B
:1042CC0090009B1287D5900002128803700B128706
:1042DC00CA12881612435C80081288507F17128A03
:1042EC003B90009B1287D5900003128803700F122D
:1042FC0087CA1288167B127D417F0102917D12883C
:10430C00507F41128A3B22E4FB7D177F0112917D85
:10431C0022E4FB7D177F0112917D227B01E4FDFCE1
:10432C007F17128A3B227B01E4FDFC7F41128A3B02
:10433C0022E4FB7D417F0112917D227B0F7D177F53
:10434C000112917D227B01E4FDFC7F2C128A3B2221
:10435C007B127D177F0112917D22E4FB7F0112916C
:10436C007D227B01E4FDFC7F17128A3B227D177FA7
:10437C000112917D227D2C7F0112917D227D417F46
:05438C000112917D22E9
:1043910090009B12887A7F0212A194900169E01229
:1043A10036C843CE1143E321441822444C31449A88
:1043B1003344E03445334145A69145CAA2460FB185
:1043C1004676B346E0B44745C1000047D690009B0E
:1043D1001287D51288357002802C7B01E4FDFC0226
:1043E10045C590009B1287D5128835700B1287CA7C
:1043F10012881E124853800312481F90009B128797
:10440100D5128835700B1287CA12881EF0E4024556
:10441100BC1288490245C590009B1287D512883588
:1044210070081287CA1247D780031247F390009B86
:104431001287D512880B700B1287CA12881EF0E4FE
:104441000246017B01E4FDFC02460A90009B1287B3
:10445100D5128835700B1287CA12881E12485380F4
:104461000312481F90009B1287D512880B700B1204
:1044710087CA12881E12481480081288497F1F12A9
:104481008A3B90009B1287D590000212880E700320
:1044910002459412884902460A90009B1287D51260
:1044A100883570081287CA1247D780031247F390E4
:1044B100009B1287D512880B700B1287CA12881EB7
:1044C10012480980031247FE90009B1287D5900085
:1044D1000212880E700302459412884902460A901E
:1044E100009B1287D5128835700B1287CA12881E5D
:1044F1001247E8800312484090009B1287D512882A
:104501000B700B1287CA12881E12480980031247CA
:10451100FE90009B1287D590000212880E700C123B
:1045210087CA12881EF07B0F0247357B017D0F027F
:10453100473E90009B1287D5128835700B1287CAAF
:1045410012881E1247E8800312484090009B128790
:10455100D512880B700B1287CA12881E12482A8046
:104561000312485E90009B1287D590000212880EBC
:10457100700B1287CA12881E1248148008128849CB
:104581007F1F128A3B90009B1287D59000031288EF
:104591000E700C1287CA12881EF07B0F024602129F
:1045A100884902460A90009B1287D51288357011FE
:1045B1001287CA12881EF0900166E0FB7D34024723
:1045C100C91287DE7F340247D390009B1287D51230
:1045D1008835700E1287CA12881E1287EE12484B58
:1045E10080081287DE7F1F128A3B90009B1287D5BD
:1045F10012880B70111287CA12881EF0900166E0B2
:10460100FB7D490247C91287DE7F490247D39000EB
:104611009B1287D512883570121287CA12881E1212
:1046210087EE7D347F0112917D80081287DE7F3411
:10463100128A3B90009B1287D512880B700B128750
:10464100CA12881E12483580081288507F1F128AAC
:104651003B90009B1287D590000212880E700E12BB
:1046610087CA12881EF07B127D490247C912885001
:104671007F490247D390009B1287D5128835700E6F
:104681001287CA12881E1287EE12484B80081287C1
:10469100DE7F1F128A3B90009B1287D512880B7018
:1046A100121287CA12881E1287EE7D497F0112916C
:1046B1007D80081287DE7F49128A3B90009B12871A
:1046C100D590000212880E700E1287CA12881EF051
:1046D1007B127D490247C91288507F490247D39016
:1046E100009B1287D512883570121287CA12881E54
:1046F1001287EE7D1F7F0112917D80081287DE7F78
:104701001F128A3B90009B1287D512880B700B12E7
:1047110087CA12881E12482A800312485E90009BA5
:104721001287D590000212880E700E1287CA128865
:104731001EF07B127D1F0247C97B017D127C007F29
:104741001F0247D390009B1287D512883570121231
:1047510087CA12881E1287EE7D1F7F0112917D800C
:10476100081287DE7F1F128A3B90009B1287D512A9
:10477100880B70121287CA12881E1287EE7D497F3C
:104781000112917D80081287DE7F49128A3B9000D9
:104791009B1287D590000212880E700B1287CA12E5
:1047A100881E12483580081288507F1F128A3B905C
:1047B100009B1287D590000312880E70101287CAD1
:1047C10012881EF07B127D497F0102917D12885073
:1047D1007F49128A3B22749EF0A374CDF0E4FB7DE5
:1047E1001F7F0112917D22F0E4FB7D1F7F01129159
:1047F1007D227B01E4FDFC7F1F128A3B227B01E4C9
:10480100FDFC7F49128A3B22F0E4FB7D497F0112C6
:10481100917D22F07B0F7D1F7F0112917D227B0113
:10482100E4FDFC7F34128A3B22F0E4FB7D497F01E9
:1048310012917D22F07B127D1F7F0112917D227BDF
:1048410001E4FDFC7F1F128A3B227D1F7F01129133
:104851007D22F0E4FB7D347F0112917D227B01E416
:08486100FDFC7F49128A3B2295
:1097B000E4FF129F81900167E024FE60110470298C
:1097C0001297EA1287CA749EF0A374BF800C129796
:1097D000EA1287CA749EF0A374C21287EE7D017FDD
:1097E0000112917D7FFF12A197227F0312A1977F23
:0597F0000412A1942207
:109DEE00E4FF129F8190016FE05402640270121220
:109DFE008898123E9C128898124391128898126786
:099E0E008912A179E4FF029B40D6
:10250C0000000000000000000000000000000000BF
:10251C0000000000000000000000000000000000AF
:10252C00003E007E00FE01CE038E7F8E7F8E738E6A
:10253C00738E738E7F8E7F8E01CE00FE007E003EEA
:10254C0000000000020006000E001E003FFE7FFE91
:10255C007FFE3FFE1E000E00060002000000000081
:10256C000000000000400060007000787FFC7FFEDF
:10257C007FFE7FFC007800700060004000000000CF
:10258C00000003C003C003C003C003C003C003C0EA
:10259C0003C03FFC1FF80FF007E003C001800000F0
:1025AC0003C003C007E007E00E700E701C381C3827
:1025BC00381C381C7FFE7FFE700E700E700E700E75
:1025CC007FF87FFC383E381E381E381E383C3FF8EA
:1025DC003FF8383C381E381E381E383E7FFC7FF8DA
:1025EC000FF81FFC3C1C380E780E700E700070003B
:1025FC0070007000700E700E380E3C1C1FFC0FF833
:10260C007FF07FF07078703C703C703C70787FF09D
:10261C007FE0778073C071E070F07078703C701E52
:10262C0000006006700E781E7C3E7FFE77EE73CE47
:10263C00718E700E700E700E700E700E700E700E1D
:10264C0000001FF81FF800E000E000E000E000E0F0
:10265C0000E000E000E070E079E03FC01F800F0078
:10266C0000000000000003C007800F001E003FFCAC
:10267C003FFC1E000F00078003C00000000000009C
:10268C0000000000000003C001E000F000783FFCF7
:10269C003FFC007800F001E003C0000000000000E7
:1026AC0000000000018001800180018011881998D0
:1026BC001DB81FF80FF007E003C0018000000000F8
:1026CC00003E007E00FE01CE038E7F8E7F8E738EC9
:1026DC00738E738E7F8E7F8E01CE00FE007E003E49
:1026EC00700E700E700E700E700E700E781E381C00
:1026FC00381C1C381C380E700FF007E003C001802A
:10270C000000380038003800380038003800380035
:10271C0038003800380038063806380E3FFE3FFEC9
:10272C000000000000000000000003800FE01C709F
:10273C00183038383838383818301C700FE00380AF
:10274C000000000000000000000003C00FF01C3867
:10275C001C000F0007E000F000381C380FF003C01D
:10276C00000000000000000000000000000000005D
:10277C00000000000000000000000000000000004D
:10278C00000000000000000000000000000000003D
:10279C00000000000000000000000000000000002D
:1027AC00000000000000000000000000000000001D
:1027BC00000000000000000000000000000000000D
:1027CC0000000000000000000000000000000000FD
:1027DC0000000000000000000000000000000000ED
:1027EC0000000000000000000000000000000000DD
:1027FC0000000000000000000000000000000000CD
:10280C0000000000000000000000000000000000BC
:10281C0000000000000000000000000000000000AC
:10282C00000000000000000000000000000000009C
:10283C00000000000000000000000000000000008C
:10284C00000000000000000000000000000000007C
:10285C00000000000000000000000000000000006C
:10286C00000000000000000000000000000000005C
:10287C00000000000000000000000000000000004C
:10288C00000000000000000000000000000000003C
:10289C00000000000000000000000000000000002C
:1028AC00000000000000000000000000000000001C
:1028BC00000000000000000000000000000000000C
:1028CC0000000000000000000000000000000000FC
:1028DC0000000000000000000000000000000000EC
:1028EC0000000000000000000000000000000000DC
:1028FC0000000000000000000000000000000000CC
:10290C0000000000000000000000000000000000BB
:10291C0000000000000000000000000000000000AB
:10292C00000007000F800F800F800F80070007004A
:10293C00070002000200000002000700070002006E
:10294C000000EE006600440088000000000000005B
:10295C00000000000000000000000000000000006B
:10296C00000008200820082008203FF80820082034
:10297C000820082008203FF80820082008200820FC
:10298C0000000FC01B603330333033001B000F00CE
:10299C0003C0036013303B3033301B600FC00300A7
:1029AC000000380844108420044004800900127090
:1029BC00E4880908120822084210822001C0000095
:1029CC0000000E001B00318031801B000E001C002B
:1029DC003678632061A060E0606030F01F9C0000DE
:1029EC0000000000000000000000000000000000DB
:1029FC00000000000000800060007000380018002B
:102A0C0000000004000800180010003000300030F6
:102A1C0000300030003000100018000800040002E4
:102A2C0000008000400060002000300030003000CA
:102A3C0030003000300020006000400080000000BA
:102A4C00000002004210222012400A800700FFFC06
:102A5C0007000A80124022204210020002000000EF
:102A6C0000000000030003000300030003007FF8D4
:102A7C007FF80300030003000300030000000000C4
:102A8C00000000000000000000000000000000003A
:102A9C00000018003C003C00180010002000400012
:102AAC0000000000000000000000000000007FF8A3
:102ABC007FF8000000000000000000000000000093
:102ACC0000000000000000000000000000000000FA
:102ADC00000000000000780084008400840078006E
:102AEC00000000180030006000C0018003000600E8
:102AFC000C00180030006000C000800000000000D6
:102B0C0000000FE0183030183038307830D8319859
:102B1C00331836183C183818301818300FE00000ED
:102B2C000000030007000F00030003000300030074
:102B3C000300030003000300030003001FE0000078
:102B4C0000000FE01830301830183038007001C019
:102B5C0003000E001800300830083FF83FF8000062
:102B6C00000007C0183030183018003000E003C0E7
:102B7C0000E00030001830183018183007C0000082
:102B8C00000000C001C003C006C00CC018C030C09B
:102B9C0060C0C0C0C0C0FFF800C000C003F000009F
:102BAC0000003FF03FF030003000300037C03830CC
:102BBC0030180018001830183018183007C00000F2
:102BCC00000007E01830303030003000300037E0C3
:102BDC003830301830183018301818300FC000004A
:102BEC0000003FF83FF8201820180030006000C0AB
:102BFC000180030003000300030003000300000036
:102C0C0000000780186030303030303018600FC052
:102C1C001860303060186018601830300FC0000039
:102C2C0000000780186030303018301830183038F9
:102C3C00187807980018303038301860078000007A
:102C4C0000000000000000000300078003000000EB
:102C5C0000000300078003000000000000000000DB
:102C6C0000000000000000000300078003000000CB
:102C7C0000000300078003800180070000000000B3
:102C8C0000000000001800600180060018006000C1
:102C9C008000600018000600018000600018000031
:102CAC00000000000000000000007FF87FF800002A
:102CBC0000007FF87FF8000000000000000000001A
:102CCC000000800060001800060001800060001801
:102CDC0000040018006001800600180060008000ED
:102CEC00000007800FC01CE038E038E011C0018004
:102CFC0003000300020002000000020007000700AE
:102D0C0000000FC030604010478888C890C890C839
:102D1C0090C890C888D84770400830700FC0000029
:102D2C00000003000300078007800CC00CC0186073
