:030000000289F77B
:0C89F700787FE4F6D8FD758126028A3EE8
:109A5000E004F0E0C394507480948022E02400F588
:079A600082E43400F58322CB
:109B0900D2BCD2AC758DF4D28EE4900050F0A3F0A3
:019B19002229
:109B1A00900050E0FFA3E0B507037F00227F0122F7
:109A3900C2AC900050129A5CE0FF900050129A500C
:069A49004002E4F0D2AC83
:019A4F0022F4
:080003003099FD8F99C299228A
:03002300029897A9
:10989700C0E0C083C082C0D0309815C298900051F4
:1098A700129A5CE599F0900051129A504002E4F048
:0998B700D0D0D082D083D0E03281
:1098C000C2AF9000D9E0640122AE038E80D293C271
:1098D0009322900062E0FBA3E0FAA3E0F9227590E6
:0998E000F69000D9E0FF640122BA
:10993900E490008FF07EFFC2AF7590F6C2B6C2B751
:109949001298CB8F80C291D2917590F6C2B6C2B7E8
:059959007580FFD2AF94
:01995E0022E6
:108E05001298C07005AF051299391298DE7006C226
:108E1500B6C2B78028EDF5827583007006C2B7C269
:108E2500B6801AE582640145837006C2B7D2B68062
:108E35000CE582640245837004D2B7C2B61298C9A4
:108E450090008EE0F580C291D2917590F6EF6401A5
:108E55007006C2B6C2B78004D2B6D2B77580FFD24B
:028E6500AF223A
:108A8300AC031298C07005AF051299397590F612B0
:108A930098C27006C2B6C2B78022EDFF7E00700690
:108AA300C2B7C2B68016EF64014E7006C2B7D2B623
:108AB300800AEF64024E7004D2B7C2B6AF040C8FC3
:108AC30080D293C293900060E0FBA3E475F001129F
:108AD30050E6A9F0FA125066F580C291D291900047
:108AE30063E014F070D67590F61298C27006C2B6A1
:0E8AF300C2B78004D2B6D2B77580FFD2AF22D0
:028E6700AC0756
:108E69001298C07005AF051299391298DE7006C2C2
:108E7900B6C2B78028EDF5827583007006C2B7C205
:108E8900B6801AE582640145837006C2B7D2B680FE
:108E99000CE582640245837004D2B7C2B61298C940
:108EA9007580FFC292AE80D2927590F6EF64017020
:0F8EB90006C2B6C2B78004D2B6D2B7D2AFAF06E8
:018EC8002287
:10903000900062EBF0A3EAF0A3E9F01298D212508C
:10904000FCF47003E5F0F460381250FCFBAAF0EA7F
:10905000FDE4FF128E671298D290000212507FFC3E
:109060006F60121250FCFBAAF0EAFD90008EECF04B
:10907000E4FF128E05900063E475F0031250D08077
:02908000BA2212
:019BBA002288
:1062B1002562782025627820256278000A3C523ECA
:1062C10025303262785B25303262785D3D2530328F
:1062D1006278002562782025627800256278202581
:1062E1006278202562782025627820002531627845
:1062F1002025316278202531627820005265616461
:106301004173696342797465203D3D20256278209F
:106311000A0063682562643A256264200063682587
:1063210062643A2562642063682562643A25626486
:10633100200063682562643A2562642063682562EF
:10634100643A2562642063682562643A25626420A8
:106351000063682562643A2562642063682562648B
:106361003A2562642063682562643A256264206389
:10637100682562643A256264200063682562643A94
:106381002562642063682562643A2562642063683B
:106391002562643A2562642063682562643A256255
:1063A100642063682562643A256264200025626482
:1063B10020000A203D3D3D3D3D3D3D3D20504147B2
:1063C100452025623278203D3D3D3D3D3D3D3D3DF1
:1063D1003D3D3D3D0A002562327809000A00253124
:1063E10062782025316278206368253162782063E4
:1063F10068253162782063682531627820636825D9
:106401003162782000656E726563616C6C00656E47
:10641100667265657A6500656E686D6972726F7224
:1064210000656E766D6972726F7200656E656E6879
:10643100616E636500656E626C616E6B00656E62B4
:106441006F756E6400656E626C696E6B0064697372
:10645100726563616C6C00646973667265657A6507
:1064610000646973686D6972726F72006469737632
:106471006D6972726F7200646973656E68616E63D3
:106481006500646973626C616E6B00646973626F4D
:10649100756E6400646973626C696E6B003D3D3DAD
:1064A1003D3D20466F726D6174203A206368303D36
:1064B1005B2562785D206368313D5B2562785D20F4
:1064C1006368323D5B2562785D206368333D5B25FF
:1064D10062785D203D3D3D3D3D0A002562782025E5
:1064E10062782063682562783A256278206368259E
:1064F10062783A2562782063682562783A25627865
:106501002063682562783A256278200033333600AB
:106511002600280029006275737700627573720086
:10652100616D697800616D757465006164756D7088
:1065310000616761696E00616C69766500627573FF
:10654100727400766D697800766D69786572720093
:1065510076617474720079766D697800696E697418
:106561000076646574007673657466007373747283
:10657100006873636F6D006D6F64650064697373A8
:0F65810063726F6C6C0076657200010204081083
:049B65004100D600E5
:106CED00A3F0A3E4F0A37400F0A3740AF0A3E4F0FE
:106CFD00A37400F0A3740FF0A3E4F0A37400F0A349
:106D0D00740BF0A3E4F0A37400F0A37410F0A3E4EB
:106D1D00F0A37400F0740CA3F0A3E4F0A322A3F08D
:106D2D00A3E4F0A37400F0A3740AF0A3E4F0A37439
:106D3D0000F0A3740FF0A3E4F0A37400F0A3740BA0
:106D4D00F0A3E4F0A37400F0A37410F0A3E4F0A397
:106D5D007400F0740CA3F0A3E4F0A322900055E0AE
:106D6D00FBA3E0FAA3E0F922A3F0A3E4F0A37400DF
:106D7D00F0A3740AF0A3E4F0A37400F0A3740EF072
:106D8D00A3E4F0A37400F0740BA3F0A3E4F0A3222A
:106D9D0090006474FFF0A37463F07413A3F0A3E484
:106DAD00F0A3227400F0A37411F0A3E4F0A3740017
:106DBD00F0740DA3F0A3E4F0A3227400F0A37411FA
:106DCD00F0A3E4F0A37400F0740DA3F0A3E4F0A31A
:106DDD00227400F0A3740FF0A3E4F0A37400F07418
:106DED000CA3F0A3E4F0A32290006474FFF0A3744D
:106DFD0063F0741EA3F0A3E4F0A32290006474FF6B
:106E0D00F0A37463F074AEA3F0A3E4F0A3227400B6
:106E1D00F0740AA3F0A3E4F0A3227400F0740AA3A3
:106E2D00F0A3E4F0A32290006474FFF0A322EBF032
:106E3D00A3EAF0A3E9F09000647401F0A322A3F09B
:106E4D00A37401F0A37400F074C1A3F0A37401F056
:106E5D00A322A3F0A3E4F0A322A3F0A3E4F0A322C2
:106E6D00A3F0A3E4F0A322A3F0A3E4F0A322A3F0E4
:106E7D00A3E4F0A322FFE024CAF582E43400F583F5
:106E8D00EFF022E0FF90005F7401F0A37400F0A317
:106E9D0074C6F07B017A0079C122A3F0A3E4F0A3BC
:106EAD0022A3F0A3E4F0A322EBF0A3EAF0A3E9F010
:106EBD0022900001E475F0010251277BFF7A62797F
:106ECD00BD90005EF022A3F0A3E4F0A322E05401F4
:106EDD00FB7D2022250DF50DA3E0540322E50B903B
:106EED00658B93FFE50A932F22125185025066A3FD
:066EFD00F0A3E4F0A32263
:108C5F00900061126EB5A3126D6C126EF67002FF6A
:108C6F0022900064126D6C126EF6B4200B900064AB
:108C7F00126D6C126EBE80E9900064126D6C125111
:108C8F0085C003C002C001900061126D6C1251A526
:108C9F008023900064126D6C126EF6FEB42010E407
:108CAF001250AC900064126D6C126EBE7F0122EEFA
:108CBF0070037F0122900064126D6C126EBE80D221
:06951B00900061126EB524
:10952100E4F514F515900061126D6C12506660221D
:10953100900061A3E475F0011250E6A9F0FA12500F
:1095410066FF3395E0FEEF2515F515EE3514F5149C
:0695510080D3AE14AF153B
:0195570022F1
:0F9B2A007F411200037F431200037F4B020003B1
:1092AE00E4F50D9000C1E05403126EE125E025E0D7
:1092BE00126EE1C454F0126EE1C4333354C0250D66
:1092CE00F50D9000C0E0B5070D9000C5E0B50D0698
:1092DE00E49000D0F0229000D07401F09000C5E52B
:0792EE000DF09000C0EFF04D
:0192F5002256
:10933E00126E337462F074B1126D247400F0740AFC
:10934E00126D627400F0740B126D967400F0A374BB
:10935E000CF0126018AB0BAD0AE4FF128E67900092
:10936E0060EFF0E50A126EC8A3E50BF0125C9505EE
:06937E000BE50BB50CDF4E
:0193840022C6
:10960B00126E337462F074D4126DA97400F0740A84
:10961B00126DC07400F0A3740BF0126018AB0BAD9D
:10962B000AE4FF128E67900060EFF0E50A126EC835
:07963B00A3E50BF0025C95B2
:10975000126E337462F074B1126DD77400F0740A33
:10976000126DEE7400F0740B126E017400F0A374AD
:109770000CF012601890008EE50CF0AB0BAD0AE413
:04978000FF028E0551
:10921400E4F50AF50BF50CF50DC003C002126E332C
:109224007462F074DC126E147400F0740A126E200E
:109234007400F0740B126E2C7400F0740C126E5FD8
:109244007400F0A3740DF0D002D0031260189000E3
:0D9254008EE50DF0AB0CAD0BE4FF028E05B6
:1092F600E4F50AF50BF50CF50D126E337462F07495
:10930600ED126E5F7400F0740A126E667400F074EB
:109316000B126E667400F0A3740CF0126018AB0C9E
:10932600AD0BE4FF128E678F0D7BFF7A6279FD909D
:08933600005EE50DF0025C95FC
:0376560090005B46
:10765900126E3B7400F0A3745BF07B017A00795ED3
:10766900128C5FE4FB7D1FFF12964290005E126D43
:107679006C128674EE6003027797EF24FE603E1465
:1076890060671470030277171470030277402404AB
:107699006003027797126D9D126E1B7400F0A3743C
:1076A9000FF090005B126D6C126018AB0FAD0AE41D
:1076B900FF128BEEE50A90658B9302778F126DF5B9
:1076C900126E1B7400F0740F126E6D7400F0740B5F
:1076D900126E6D7400F0A37410F090005B126D6C63
:1076E900127798126EEA02778F126E337463F07410
:1076F90033126CED7400F0A37411F090005B126DFD
:107709006C127798AB11AD0C1277AE02778F126EAF
:10771900337463F07452126CED126DB07400F0A3FF
:107729007412F090005B126D6C1277C41277AEFF81
:10773900E50D932F02778F126E337463F0A3747B78
:10774900126CEE126DB07400F07412126E74740043
:10775900F0740E126E747400F0A37413F090005B51
:10776900126D6C1277C4E4FF128BEEAB13AD0EE40D
:10777900FF128BEE126EEAFFE50C932FFFE50D93D6
:0E7789002FFFE50E932FFD7B01E4FF129642C9
:1077970022126018AB0FAD0AE4FF128BEEAB10ADEF
:1077A7000BE4FF128BEE22E4FF128BEEE50B9065E4
:1077B7008B93FFE50A932FFFE50C932F2212601896
:1077C700AB0FAD0AE4FF128BEEAB10AD0BE4FF126B
:1077D7008BEEAB11AD0CE4FF128BEEAB12AD0D22AD
:0F9B3900E4FB7D1FFF1296427DFFE4FF029816AA
:037D710090005B24
:107D7400126E3B7400F0A3745BF07B017A00795EB1
:107D8400128C5F90005E126D6C128674EE600302BA
:107D94007E7FEF24FE60301460561460711470030B
:107DA400027E3624046003027E7F126D9D126E27CC
:107DB4007400F0A3740FF090005B126D6C126018E5
:107DC400AB0FAD0A027E7A126DF5126E277400F0C5
:107DD400740F126E7B7400F0740B126E7B7400F0DF
:107DE400A37410F090005B126D6C127E9A027E7A7E
:107DF400126E337463F07433126D2B7400F0A37439
:107E040011F090005B126D6C127E80027E7A126E0D
:107E1400337463F07452126D2B126DC77400F0A3A7
:107E24007412F090005B126D6C127E80127EAB02B5
:107E34007E7A126E337463F0A3747B126D2C126D10
:107E4400C77400F07412126EA77400F0740E126EF0
:107E5400A77400F0A37413F090005B126D6C127E93
:107E64009AE4FF128CCFAB11AD0C127EABE4FF127F
:0B7E74008CCFAB13AD0EE4FF128CCFDF
:107E7F0022126018AB0FAD0AE4FF128CCFAB10AD1E
:107E8F000BE4FF128CCFAB11AD0C22126018AB0FAD
:107E9F00AD0AE4FF128CCFAB10AD0B22E4FF128CB6
:067EAF00CFAB12AD0D2265
:109A9400126E087400F0A3740AF0126018AD0AE4A0
:049AA400FF0298160F
:1090D400E4F50BC3E50B94037480948050427BFF4A
:1090E4007A6379B390005EE50BF0125C95E4F50ABF
:1090F400AB0AAD0BE4FF128E6790005EEFF07BFFCE
:109104007A6379D7125C95050AE50A540F70097BD6
:10911400FF7A6379DD125C95E50A70D4050B80B3A0
:019124002228
:108F8600C003C002C001126E337463F074DF126E48
:108F9600AE7400F0740A126EAE7400F0740B126EAA
:108FA6004B7400F074C2126E577400F0A374C312AF
:108FB6006E587400F0A374C4F0D001D002D003122E
:108FC6006018E50AC454F0FFE50B540F2FF50A129A
:068FD6006EA0FF0274BF53
:066AD60090005B126EB59A
:106ADC00E4F5127B0190006404F0A37400F0A3743D
:106AEC005BF07A00795E128C5F90005E126D6C1216
:106AFC0086748F13126E43126CCE90005E126D6C06
:106B0C0012951B8E0A8F0B7A647906126CABB50B3F
:106B1C000AEEB50A06750C80026BAB7A64790F121B
:106B2C006CABB50B0AEEB50A06750C40026BAB7A72
:106B3C00647918126CB2B50B09EEB50A05750C2008
:106B4C00805D7A647922126CB2B50B09EEB50A0538
:106B5C00750C10804A7A64792C126CB9B50B09EE5D
:106B6C00B50A05750C0880377A647936126CB9B59C
:106B7C000B09EEB50A05750C0480247A64793E1273
:106B8C006CC0B50B09EEB50A05750C0280117A6460
:106B9C007946126CC0B50B0DEEB50A09750C017572
:106BAC000D01026C557A64794E126CC7B50B0AEE66
:106BBC00B50A06750C80026C387A647958126CC769
:106BCC00B50B09EEB50A05750C4080607A647962E4
:106BDC00126CDFB50B09EEB50A05750C20804D7AE9
:106BEC0064796D126CDFB50B09EEB50A05750C10E6
:106BFC00803A7A647978126CE6B50B09EEB50A0521
:106C0C00750C0880277A647983126CE6B50B09EE53
:106C1C00B50A05750C0480147BFF7A64798C129587
:106C2C001BEFB50B0CEEB50A08750C02E4F50D80E4
:106C3C00187BFF7A64799512951BEF650B7003EE48
:106C4C00650A705A750C01F50D126E43126CCEEF7D
:106C5C00603390005E126D6C125066B477EB90004E
:106C6C000112507FB469E290000212507FB46ED9C9
:106C7C00E92403F9E43AFA128674740E2512F8A684
:106C8C0007051280C4E5126015240DF8E6FFC395C4
:0E6C9C00135007AB0DAD0C12971B151280E7BD
:106CAA00227BFF12951BEF227BFF12951BEF227BA3
:106CBA00FF12951BEF227BFF12951BEF227BFF121F
:106CCA00951BEF227400F0A3745BF07B017A0079C4
:106CDA005E128C5F227BFF12951BEF227BFF1295BF
:036CEA001BEF227B
:109AF700126E087400F0A3740AF0126018AF0A021D
:029B07009AA81A
:1095D100E4FF129175C0077F01129175C0077F02E8
:1095E100129175C0077F03129175900061EFF090A1
:1095F1000060D0E0F090005FD0E0F090005ED0E03D
:0A960100F07BFF7A64799E025C950D
:03823F0090005B51
:10824200126E3B7400F0A3745BF07B017A00795EDE
:10825200128C5F90005E126D6C128674EE600302E7
:108262008331EF24FE602B14605314607924036081
:1082720003028331126D9D7400F0740A126ED3747E
:1082820000F0A3740EF090005B126D6C128350022A
:10829200832C126E337463F0741E126D757400F0C9
:1082A200A3740FF090005B126D6C128350E4FF1206
:1082B2009843E50FC454F0FBAD0B02832C126E33CE
:1082C2007463F07433126D75126DDE7400F0A37472
:1082D20010F090005B126D6C128332E510C454F002
:1082E200FBAD0C02832C126E337463F0A374521232
:1082F2006D76126DDE7400F07410126ED37400F09D
:10830200740D126EFC7400F0A37411F090005B12F5
:108312006D6C128332E510C454F0FBAD0CE4FF1215
:0F8322009843E511C454F0FBAD0DE4FF129843EE
:1083310022126018E50EC454F0FBAD0AE4FF129856
:1083410043E50FC454F0FBAD0BE4FF129843221236
:0B8351006018E50EC454F0FBAD0A22DA
:038EC90090005BBB
:108ECC00126E3B128F16126D6C1286748F0A126E14
:108EDC0043128F16126D6C1286748F0B7F04129BCB
:108EEC00B47F03129BB77F051299CD90005BE0F91C
:108EFC00A3E0FAA3E0900064C9126EB6AB0BAD0A06
:0A8F0C007F01128DA17F050296B0CF
:108F16007400F0A3745BF07B017A00795E128C5FBB
:048F260090005E2237
:10926100750B01E4F50AC3E50A94047480948050F7
:109271002874C6250AF582E43400F583E030E4154C
:1092810074C1250AF582E43400F583E0FDE4FF12A0
:109291009816E4F50B050A80CDE50B600FE4FB7D24
:0C92A1001FFF1296427DFFE4FF1298169A
:0192AD00229E
:107AD600C003C002C001126E337464F074DC126E0F
:107AE600FC7400F0A3740BF0A3E4F0A37400F0742C
:107AF6000C126E4B7400F0A374C6126E587400F02C
:107B0600A374C2126E587400F0A374C7126E587430
:107B160000F0A374C3126E587400F0A374C8126EFA
:107B2600587400F0A374C4126E587400F0A374C99C
:107B3600F0D001D002D003126018E50BC454F0FF58
:107B46009000BDE0FEC433333354802FFFE50C5460
:107B56000F2F9000CFF09000C6E09000C1126E8209
:107B66009000C7E09000C2126E829000C8E0FF90BD
:107B760000C3126E839000C9E0FF9000C4126E83AA
:107B86009000CA126EDAE4FF1295959000CB126E41
:107B9600DA7F011295959000CC126EDA7F0212956B
:107BA600959000CD126EDA7F031295957B017A00CF
:107BB60079CA127C2A9000CF126E901254909000CF
:107BC600CFE0FF126EA01274BFE4F50AC3E50A9473
:107BD6000474809480501774C6250AF582E4340034
:107BE600F583126EDAAF0A12971B050A80DEE4F5FA
:107BF60019F51AF51B751C057F01129B909000CF95
:107C0600E0FF1292AE7F08129784E4FF129A0712E1
:107C160094117B017A0079C61258909000CFE090BB
:037C260000D6F095
:017C29002238
:108B7D007F03129175EFFD3395E0FCED64024C70AF
:108B8D0002C3229000BDE0B50702D3229000BDEFD5
:108B9D00F0E0C43333335480FF9000C0E0547F4F76
:108BAD00F07F011296B09000BDE0FF12895B7B0152
:108BBD007A0079CA127C2A9000C0126E90125490DD
:108BCD009000C0E0FF126EA01274BFE4FF129A076E
:108BDD001294117B017A0079C61258901298E9D33C
:018BED002265
:109A7E00126E337463F0A374AE126E587400F0A3BA
:069A8E0074BEF002601836
:059BAF007F010296B0E9
:1093CC00E490005BF07F4D12000390650D12940742
:1093DC00A3129407A3A3E493FF1200037F4E120081
:1093EC00039000D9E064017F3370071200037F37CC
:0A93FC0080051200037F3512000304
:0B94060022E493FF12000390650D228A
:03683E0090005572
:10684100126E3B7400F0A37455F07B017A00795805
:10685100128C5F900058126D6C12951B8E088F0977
:106861007A657911126A89B5090DEEB50809126DBB
:106871006912933E026A867A657913126A89B509AB
:106881000DEEB50809126D6912960B026A867A65DA
:106891007915126A90B5090DEEB50809126D6912E4
:1068A1009750026A867A657917126A90B5090DEEDA
:1068B100B50809126D69129214026A867A65791C0B
:1068C100126A97B5090DEEB50809126D691292F6B3
:1068D100026A867A657921126A97B5090DEEB508C3
:1068E10009126D69127656026A867A657926126AEC
:1068F1009EB5090AEEB50806129B39026A867A65C9
:10690100792C126A9EB5090AEEB508061272E602E2
:106911006A867A657932126AA5B5090DEEB508095C
:10692100126D69127D71026A867A657938126AA5DB
:10693100B5090DEEB50809126D69129A94026A86BD
:106941007A65793E126AACB5090AEEB5080612906D
:10695100D4026A867A657944126AACB50915EEB536
:1069610008117F40129456126D69128F86129B2A6C
:10697100026A867A657949126AB3B5090DEEB508DE
:1069810009126D69128F86026A867A657951126AD7
:10699100B3B5090DEEB50809126D69126AD6026A1E
:1069A100867A657957126ABAB50910EEB5080C12E4
:1069B1009B2A126D69129AF7026A867A65795D12CD
:1069C1006ABAB5090AEEB50806129385026A867A93
:1069D100657962126AC1B5090AEEB508061295D148
:1069E100026A867A657967126AC1B5090DEEB50842
:1069F10009126D6912823F026A867A65796D126A9F
:106A0100C8B5090DEEB50809126D69128EC9026A81
:106A1100867A657972126AC8B50924EEB508201222
:106A21009B2A126D69127AD61292611298E9E4FFDB
:106A3100129B90E4F51BF51CF519751A0580467A31
:106A4100657978126ACFB5090FEEB5080B129B2A4A
:106A5100126D69129A7E802D7A65797D126ACFB5A1
:106A6100090CEEB50808129B2A129BAF80177BFF19
:106A71007A65798712951BEFB5090AEEB5080612FA
:076A81009B2A1293CC7F0158
:106A8800227BFF12951BEF227BFF12951BEF227BC7
:106A9800FF12951BEF227BFF12951BEF227BFF1243
:106AA800951BEF227BFF12951BEF227BFF12951B94
:106AB800EF227BFF12951BEF227BFF12951BEF2223
:0E6AC8007BFF12951BEF227BFF12951BEF2226
:109A67000D0A0044656275672050726F6772616DF9
:079A7700203E0050435400A3
:0E9B57009000B9E02490F582E43400F58322FA
:1091C500129B1AEF640170469000BAE07040129A43
:1091D500398F08300003120003E50824F8601C24C9
:1091E500FB701F129B57E4F09000BA04F0FB7A0065
:1091F50079901297B8300016029B879000B9E01459
:0E920500F022129B57E508F09000B9E004F04B
:019213002238
:099B87007BFF7A9A796702986D60
:0B96E600900055EBF0A3EAF0A3E9F0C0
:1096F100900055E0FBA3E0FAA3E0F912506660196F
:10970100900055A3E475F0011250E6A9F0FA125049
:0997110066F508FF12000380D781
:01971A00222C
:109A21003000097BFF7A9A796A1296E6E49000B9D0
:089A3100F0A3F0900090F02278
:099B9000EF6003C20122D20122A0
:0C9B7100C200C201C221E49000D8F02222
:1097B800900055EBF0A3EAF0A3E9F0200021900017
:1097C80055E0FBA3E0FAA3E0F8AC02AD037BFF7A17
:1097D8009A797A125398EF3395E04F7002D20022AB
:0891250090005BEEF0A3EFF0F7
:10912D0090005BE07002A3E0603DE490005DF0A371
:10913D00F090005DE0FEA3E0FFE4FCFD7BD8FAF9C2
:10914D00F8D3125174401090005EE004F070E2907C
:10915D00005DE004F080DA90005CE024FFF0900008
:07916D005BE034FFF080B964
:0191740022D8
:108B0100E4900052F0A374C8F0A37464F01299AA1F
:108B1100129B71129BBA129385129A211291C590E0
:108B210000BAE0640170097B017A00799012683E15
:108B31009000BAE064017003129A21302107128B70
:108B41007D5002C221129B1AEF6009900053E0751B
:108B51001B00F51CE51C6401451B700DF51BF51C84
:108B6100900054E0751900F51AE51A640145197071
:0C8B7100AB129558751900751A1480A0FD
:1099AA00E4F5B8F5A8758780F5D0758921F588752D
:1099BA009852F5B175B210129B0912995FD299D2D9
:0399CA00AF0022C9
:100026001010FFFFFFFFFFFFFFFFFFFFFFFFFFFFB8
:10003600FFFFFFFFFFFFFFFFFFFFFFFFFFFFFFFFCA
:10004600FFFFFFFFFFFFFFFFFFFFFFFFFFFFFFFFBA
:10005600FFFFFFFFFFFFFFFFFFFFFFFFFFFFFFFFAA
:10006600FFFFFFFFFFFFFFFFFFFFFFFFFFFFFFFF9A
:10007600FFFFFFFFFFFFFFFFFFFFFFFFFFFFFFFF8A
:10008600FFFFFFFFFFFFFFFFFFFFFFFFFFFFFFFF7A
:10009600FFFFFFFFFFFFFFFFFFFFFFFFFFFFFFFF6A
:1000A600FFFFFFFFFFFFFFFFFFFFFFFFFFFFFFFF5A
:1000B600FFFFFFFFFFFFFFFFFFFFFFFFFFFFFFFF4A
:1000C600FFFFFFFFFFFFFFFFFFFFFFFFFFFFFFFF3A
:1000D600FFFFFFFFFFFFFFFFFFFFFFFFFFFFFFFF2A
:1000E600FFFFFFFFFFFFFFFFFFFFFFFFFFFFFFFF1A
:1000F600FFFFFFFFFFFFFFFFFFFFFFFFFFFFFFFF0A
:10010600FFFFFFFFFFFFFFFFFFFFFFFFFFFFFFFFF9
:10011600FFFFFFFFFFFFFFFFFFFFFFFFFFFFFFFFE9
:10012600FFFF1010FFFFFFFFFFFFFFFFFFFFFFFFB7
:10013600FFFFFFFFFFFFFFFFFFFFFFFFFFFFFFFFC9
:10014600FFFFFFFFFFFFFFFFFFFFFFFFFFFFFFFFB9
:10015600FFFFFFFFFFFFFFFFFFFFFFFFFFFFFFFFA9
:10016600FFFFFFFFFFFFFFFFFFFFFFFFFFFFFFFF99
:10017600FFFFFFFFFFFFFFFFFFFFFFFFFFFFFFFF89
:10018600FFFFFFFFFFFFFFFFFFFFFFFFFFFFFFFF79
:10019600FFFFFFFFFFFFFFFFFFFFFFFFFFFFFFFF69
:1001A600FFFFFFFFFFFFFFFFFFFFFFFFFFFFFFFF59
:1001B600FFFFFFFFFFFFFFFFFFFFFFFFFFFFFFFF49
:1001C600FFFFFFFFFFFFFFFFFFFFFFFFFFFFFFFF39
:1001D600FFFFFFFFFFFFFFFFFFFFFFFFFFFFFFFF29
:1001E600FFFFFFFFFFFFFFFFFFFFFFFFFFFFFFFF19
:1001F600FFFFFFFFFFFFFFFFFFFFFFFFFFFFFFFF09
:10020600FFFFFFFFFFFFFFFFFFFFFFFFFFFFFFFFF8
:10021600FFFFFFFFFFFFFFFFFFFFFFFFFFFFFFFFE8
:10022600FFFFFFFF1010FFFFFFFFFFFFFFFFFFFFB6
:10023600FFFFFFFFFFFFFFFFFFFFFFFFFFFFFFFFC8
:10024600FFFFFFFFFFFFFFFFFFFFFFFFFFFFFFFFB8
:10025600FFFFFFFFFFFFFFFFFFFFFFFFFFFFFFFFA8
:10026600FFFFFFFFFFFFFFFFFFFFFFFFFFFFFFFF98
:10027600FFFFFFFFFFFFFFFFFFFFFFFFFFFFFFFF88
:10028600FFFFFFFFFFFFFFFFFFFFFFFFFFFFFFFF78
:10029600FFFFFFFFFFFFFFFFFFFFFFFFFFFFFFFF68
:1002A600FFFFFFFFFFFFFFFFFFFFFFFFFFFFFFFF58
:1002B600FFFFFFFFFFFFFFFFFFFFFFFFFFFFFFFF48
:1002C600FFFFFFFFFFFFFFFFFFFFFFFFFFFFFFFF38
:1002D600FFFFFFFFFFFFFFFFFFFFFFFFFFFFFFFF28
:1002E600FFFFFFFFFFFFFFFFFFFFFFFFFFFFFFFF18
:1002F600FFFFFFFFFFFFFFFFFFFFFFFFFFFFFFFF08
:10030600FFFFFFFFFFFFFFFFFFFFFFFFFFFFFFFFF7
:10031600FFFFFFFFFFFFFFFFFFFFFFFFFFFFFFFFE7
:10032600FFFFFFFFFFFF1010FFFFFFFFFFFFFFFFB5
:10033600FFFFFFFFFFFFFFFFFFFFFFFFFFFFFFFFC7
:10034600FFFFFFFFFFFFFFFFFFFFFFFFFFFFFFFFB7
:10035600FFFFFFFFFFFFFFFFFFFFFFFFFFFFFFFFA7
:10036600FFFFFFFFFFFFFFFFFFFFFFFFFFFFFFFF97
:10037600FFFFFFFFFFFFFFFFFFFFFFFFFFFFFFFF87
:10038600FFFFFFFFFFFFFFFFFFFFFFFFFFFFFFFF77
:10039600FFFFFFFFFFFFFFFFFFFFFFFFFFFFFFFF67
:1003A600FFFFFFFFFFFFFFFFFFFFFFFFFFFFFFFF57
:1003B600FFFFFFFFFFFFFFFFFFFFFFFFFFFFFFFF47
:1003C600FFFFFFFFFFFFFFFFFFFFFFFFFFFFFFFF37
:1003D600FFFFFFFFFFFFFFFFFFFFFFFFFFFFFFFF27
:1003E600FFFFFFFFFFFFFFFFFFFFFFFFFFFFFFFF17
:1003F600FFFFFFFFFFFFFFFFFFFFFFFFFFFFFFFF07
:10040600FFFFFFFFFFFFFFFFFFFFFFFFFFFFFFFFF6
:10041600FFFFFFFFFFFFFFFFFFFFFFFFFFFFFFFFE6
:10042600FFFFFFFFFFFFFFFF1010FFFFFFFFFFFFB4
:10043600FFFFFFFFFFFFFFFFFFFFFFFFFFFFFFFFC6
:10044600FFFFFFFFFFFFFFFFFFFFFFFFFFFFFFFFB6
:10045600FFFFFFFFFFFFFFFFFFFFFFFFFFFFFFFFA6
:10046600FFFFFFFFFFFFFFFFFFFFFFFFFFFFFFFF96
:10047600FFFFFFFFFFFFFFFFFFFFFFFFFFFFFFFF86
:10048600FFFFFFFFFFFFFFFFFFFFFFFFFFFFFFFF76
:10049600FFFFFFFFFFFFFFFFFFFFFFFFFFFFFFFF66
:1004A600FFFFFFFFFFFFFFFFFFFFFFFFFFFFFFFF56
:1004B600FFFFFFFFFFFFFFFFFFFFFFFFFFFFFFFF46
:1004C600FFFFFFFFFFFFFFFFFFFFFFFFFFFFFFFF36
:1004D600FFFFFFFFFFFFFFFFFFFFFFFFFFFFFFFF26
:1004E600FFFFFFFFFFFFFFFFFFFFFFFFFFFFFFFF16
:1004F600FFFFFFFFFFFFFFFFFFFFFFFFFFFFFFFF06
:10050600FFFFFFFFFFFFFFFFFFFFFFFFFFFFFFFFF5
:10051600FFFFFFFFFFFFFFFFFFFFFFFFFFFFFFFFE5
:10052600FFFFFFFFFFFFFFFFFFFF1010FFFFFFFFB3
:10053600FFFF00000000FFFFFFFFFFFFFFFFFFFFC1
:10054600FF000000000000FFFFFFFFFFFFFFFFFFAF
:100556000000020202020000FFFFFFFFFFFFFFFF95
:100566000000020202020000FFFFFFFFFFFFFF0084
:10057600000202000002020000FFFFFFFFFFFF0073
:10058600000202000002020000FFFFFFFFFF000062
:1005960002020000000002020000FFFFFFFF000051
:1005A600020200FFFF0002020000FFFFFF00000240
:1005B600020000FFFF000002020000FFFF00000231
:1005C6000200000000000002020000FF000002021C
:1005D60002020202020202020202000000000202FD
:1005E60002020202020202020202000000000202ED
:1005F60000000000000000000202000000000202ED
:100606000000FFFFFFFF00000202000000000202E0
:100616000000FFFFFFFF00000202000000000000D4
:100626000000FFFFFFFF00000000000010100000A8
:10063600000000000000000000000000FFFF0002B4
:1006460002020202020202020202000000FF00028F
:10065600020202020202020202020200000000007E
:100666000002020000000000020202020000FF0079
:1006760000020200FFFFFF00000202020000FF006E
:1006860000020200FFFFFF00000202020000FF005E
:1006960000020200000000000202020000FFFF004C
:1006A600000202020202020202020000FFFFFF0035
:1006B600000202020202020202020000FFFFFF0025
:1006C60000020200000000000202020000FFFF001C
:1006D60000020200FFFFFF00000202020000FF000E
:1006E60000020200FFFFFF000002020200000000FD
:1006F60000020200000000000202020200000002E6
:1007060002020202020202020202020000000002CB
:1007160002020202020202020202000000FF0000C0
:10072600000000000000000000000000FFFF1010A5
:10073600FFFFFF00000000000000000000FFFFFFB9
:10074600FFFF00000202020202020202000000FF96
:10075600FF00000202020202020202020200000080
:100766000000000202000000000000020202000079
:1007760000000202020000FFFFFF0000020200006C
:10078600000002020000FFFFFFFFFF000202000060
:10079600000002020000FFFFFFFFFFFF0000000055
:1007A600000002020000FFFFFFFFFFFFFFFFFFFF49
:1007B600000002020000FFFFFFFFFFFFFFFFFFFF39
:1007C600000002020000FFFFFFFFFF000000000024
:1007D600000002020000FFFFFFFFFF000202000010
:1007E60000000202000000FFFFFF000002020000FE
:1007F60000000202020000000000000202020000E7
:10080600FF000002020202020202020202000000CF
:10081600FFFF00000202020202020202000000FFC5
:10082600FFFFFF0000000000000000000000FFFFC7
:100836001010000000000000000000000000FFFF94
:10084600FFFF00000202020202020202020000FF93
:10085600FFFF000002020202020202020202000080
:10086600FFFF00000202000000000002020200007A
:10087600FFFF000002020000FFFF0000020200006E
:10088600FFFF000002020000FFFF0000020200005E
:10089600FFFF00000202000000000002020200004A
:1008A600FFFF00000202020202020202020000FF33
:1008B600FFFF00000202020202020202000000FF25
:1008C600FFFF000002020000020202000000FFFF1C
:1008D600FFFF000002020000000202020000FFFF0C
:1008E600FFFF00000202000000000202020000FFFB
:1008F600FFFF000002020000FF00000202020000EB
:10090600FFFF000002020000FFFF000002020200DB
:1009160000FF000002020000FFFFFF0000020202CB
:1009260000FF000000000000FFFFFFFF00000000C6
:1009360000FF101000000000FFFFFFFFFFFFFFFF9A
:10094600000000000000000000FFFFFFFFFFFF00A7
:100956000000000000000C0C0000FFFFFFFF00007D
:100966000C0C000000000C0C0C0000000000000C39
:100976000C0C000000000C0C0C0C000000000C0C11
:100986000C0C000000000C0C0C0C0C0C0C0C0C0CD1
:100996000C0C000000000C0C0C0C0C0C0C0C0C0CC1
:1009A6000C0C000000000C0C0C000C0C0C0C000CC9
:1009B6000C0C000000000C0C0C00000C0C00000CD1
:1009C6000C0C000000000C0C0C0000000000000CD9
:1009D6000C0C000000000C0C0C0000000000000CC9
:1009E6000C0C000000000C0C0C0000FFFF00000CBB
:1009F6000C0C000000000C0C0C0000FFFF00000CAB
:100A06000C0C000000000C0C0C0000FFFF00000C9A
:100A16000C0C000000000C0C0C0000FFFF00000C8A
:100A26000C0C000000000000000000FFFF000000AA
:100A3600000000001010FF00000000000000000091
:100A46000000000000FFFF00000202020202020294
:100A56000202020000FFFF0000020202020202027E
:100A66000202020000FFFF00000000000000020278
:100A76000200000000FFFFFFFFFFFFFF0000020271
:100A8600020000FFFFFFFFFFFFFFFFFF0000020263
:100A9600020000FFFFFFFFFFFFFFFFFF0000020253
:100AA600020000FFFFFFFFFFFFFFFFFF0000020243
:100AB600020000FFFFFFFFFFFFFFFFFF0000020233
:100AC600020000FFFFFFFFFFFFFFFFFF0000020223
:100AD600020000FFFFFFFF00000000FF000002020F
:100AE600020000FFFFFFFF000202000000000202FA
:100AF600020000FFFFFFFF000202020000020202E6
:100B0600020000FFFFFFFF000002020202020202D3
:100B1600000000FFFFFFFFFF0000020202020200CA
:100B26000000FFFFFFFFFFFFFF00000000000000C6
:100B360000FFFFFFFFFF1010FFFFFFFFFFFFFFFF9C
:100B4600FFFFFFFFFFFFFFFFFFFFFFFFFF000000AC
:100B560000000000FFFFFFFFFFFFFFFF0000010195
:100B660001010000FFFFFFFFFFFFFF000001010181
:100B760001010000FFFFFFFFFFFF0000010101016F
:100B8600010000FFFFFFFFFFFF000001010101015F
:100B96000000000000000000000001010101010149
:100BA6000101010101010000000101010101010132
:100BB6000101010101010000000101010101010122
:100BC6000101010101010000000001010101010113
:100BD6000101010101010000FF0000010101010105
:100BE6000000000000000000FFFF000001010101FD
:100BF600010000FFFFFFFFFFFFFFFF0000010101F3
:100C060001010000FFFFFFFFFFFFFFFF00000101E2
:100C160001010000FFFFFFFFFFFFFFFFFF000000D5
:100C260000000000FFFFFFFFFFFFFFFFFFFFFFFFCA
:100C3600FFFFFFFFFFFFFFFF1010FFFFFFFFFFFF9C
:100C4600FFFFFFFFFFFFFFFFFFFFFFFFFFFF0000AC
:100C56000000000000FFFFFFFFFFFFFFFFFF000097
:100C6600010101010000FFFFFFFFFFFFFFFF000082
:100C760001010101010000FFFFFFFFFFFFFFFF0071
:100C86000001010101010000FFFF0000000000005B
:100C9600000001010101010000FF00000101010146
:100CA6000101010101010101000000000101010132
:100CB6000101010101010101010000000101010121
:100CC6000101010101010101010000000000000015
:100CD600000001010101010000FF0000000000000A
:100CE600000001010101010000FFFFFFFFFFFF00FF
:100CF6000001010101010000FFFFFFFFFFFF0000EF
:100D060001010101010000FFFFFFFFFFFFFF0000DF
:100D1600010101010000FFFFFFFFFFFFFFFF0000D1
:100D26000000000000FFFFFFFFFFFFFFFFFFFFFFC8
:100D3600FFFFFFFFFFFFFFFFFFFF1010FFFFFFFF9B
:100D46000000000000000000FFFFFFFFFFFFFFFFA5
:100D56000000010101010000FFFFFFFFFFFFFFFF91
:100D66000000010101010000FFFFFFFFFFFFFFFF81
:100D76000000010101010000FFFFFFFFFFFFFFFF71
:100D86000000010101010000FFFFFFFF000000005D
:100D96000000010101010000000000000000010147
:100DA6000000010101010000010100000000010135
:100DB6000100010101010001010100000000010123
:100DC6000101010101010101010100000000010111
:100DD600010101010101010101010000FF00000103
:100DE6000101010101010101010000FFFFFF0000F7
:100DF60001010101010101010000FFFFFFFFFF00EA
:100E0600000101010101010000FFFFFFFFFFFFFFDD
:100E16000000010101010000FFFFFFFFFFFFFFFFD0
:100E2600FF000001010000FFFFFFFFFFFFFFFFFFC4
:100E3600FFFF00000000FFFFFFFFFFFF1010FFFF96
:100E4600FFFFFFFFFFFF0000000000000000FFFFA4
:100E5600FFFFFFFFFF000002020202020000FFFF89
:100E6600FFFFFFFF00000202020202020000FFFF76
:100E7600FFFFFF0000020202000002020000000065
:100E86000000000002020200000002020000000052
:100E96000202020202020200FF000202000000003B
:100EA6000202020202020200FF000202000000002B
:100EB6000202000000020200FF0002020000000021
:100EC600020200FF00020200FF0002020000000012
:100ED6000202000000020200FF0002020000000001
:100EE6000202020202020200FF00020200000000EB
:100EF60002020202020202000000020200000000DA
:100F06000000000000020202000002020000FFFFD3
:100F1600FFFFFFFF00000202020202020000FFFFC5
:100F2600FFFFFFFFFF000002020202020000FFFFB8
:100F3600FFFFFFFFFFFF0000000000000000101091
:100F46000000000000FFFFFFFFFFFF0000000000A1
:100F56000004040400FFFFFFFFFFFF000404040079
:100F66000004040400FFFFFFFFFFFF000404040069
:100F76000004040400FFFFFFFFFFFF000404040059
:100F86000004040400FFFFFFFFFFFF000404040049
:100F9600000404040000FFFFFFFF00000404040037
:100FA600000404040400FFFFFFFF0004040404001F
:100FB600000004040400FFFFFFFF00040404000017
:100FC60000000404040000FFFF0000040404000005
:100FD600FF0000040404000000000404040000FFF5
:100FE600FFFF000004040400000404040000FFFFE7
:100FF600FFFF000000040400000404000000FFFFDF
:10100600FFFFFF00000404040404040000FFFFFFC8
:10101600FFFFFFFF0000040404040000FFFFFFFFC2
:10102600FFFFFFFFFF00000404000000FFFFFFFFBB
:10103600FFFFFFFFFFFF0000000000FFFFFFFFFFB5
:10104600101000000000000000FFFFFFFFFFFFFF81
:10105600FFFF00000404040000FFFFFFFFFFFFFF87
:10106600FFFF00000404040000FFFFFFFFFFFFFF77
:10107600FFFF00000404040000FFFFFFFFFFFFFF67
:10108600FFFF00000404040000FFFFFFFFFFFFFF57
:10109600FFFF00000404040000FFFFFFFFFFFFFF47
:1010A600FFFF00000404040000FFFFFFFFFFFFFF37
:1010B600FFFF00000404040000FFFFFFFFFFFFFF27
:1010C600FFFF00000404040000FFFFFFFFFFFFFF17
:1010D600FFFF00000404040000FFFFFFFFFF000005
:1010E600000000000404040000FFFFFFFFFF0000F3
:1010F600000000000404040000FFFFFFFF000004DE
:1011060000000000040404000000000000000404C5
:101116000000000004040404040404040404040499
:101126000000000004040404040404040404040489
:1011360000000000000000000000000000000000A9
:1011460000001010FFFFFFFFFFFFFFFFFFFFFFFF85
:10115600FFFFFFFFFFFFFFFFFFFFFFFFFFFFFFFF99
:10116600FFFFFFFFFFFFFFFFFFFFFFFFFFFFFFFF89
:10117600FFFFFFFFFFFFFFFF00000000000000FF72
:10118600FFFFFFFFFFFFFF00000004040400000054
:10119600FFFFFFFFFFFF0000040404040404040033
:1011A60000FFFFFFFF000004040400000004040425
:1011B6000000FFFF00000004040000FF000004041C
:1011C600000000FF00000404040000FF0000040407
:1011D600040000FF00000404040000FF00000404F3
:1011E600040000FF00000404040000FF00000404E3
:1011F600040000FF00000004040000FF00000404D7
:10120600000000FFFF0000040404000000040404C2
:101216000000FFFFFFFF00000404040404040400B0
:1012260000FFFFFFFFFFFF000000040404000000B2
:10123600FFFFFFFFFFFFFFFF00000000000000FFB1
:10124600FFFFFFFF1010FFFFFFFFFFFFFFFFFFFF86
:10125600FFFFFFFFFFFFFFFFFFFFFFFFFFFFFFFF98
:10126600FFFFFFFFFFFFFFFFFFFFFFFFFFFFFFFF88
:10127600FFFFFFFFFFFFFFFFFFFF00000000000072
:101286000000FFFFFFFFFFFF00000000040404044E
:10129600000000FFFFFFFF00000004040404040434
:1012A60004040000FFFFFF00000404040000000027
:1012B6000404040000FFFF00000404040000FF0013
:1012C6000000000000FFFF0000000404040400000A
:1012D6000000FFFFFFFFFFFFFF00000404040404FB
:1012E600040000FFFFFFFFFFFFFF000000000404F3
:1012F60004040000FFFFFF0000000000FFFF0000E5
:101306000404040000FFFF000004040400000000C1
:101316000404040000FFFF000000040404040404A5
:1013260004040000FFFFFFFFFF00000004040404A4
:10133600000000FFFFFFFFFFFFFFFF0000000000AF
:101346000000FFFFFFFF101004040FFFFFFFFFFF69
:10135600FFFF0404FFFFFFFF040404FFFFFFFFFF7E
:10136600FFFF0404FFFFFFFF0404040FFFFFFFFF5E
:10137600FFFF0404FFFFFFFF040404040FFFFFFF49
:10138600FFFF0404FFFFFFFF0404FF0404FFFFFF49
:10139600FFFF0404FFFFFF040404FF04040FFFFF24
:1013A600FFFF0404FFFFFF040404FFFF0404FFFF24
:1013B600FFFF0404FFFFFF040404FFFF04040FFF04
:1013C600FFFF0404FFFFFF040404FFFFFF04040FF4
:1013D600FFFF0404FFFFFF040404FFFFFFFF0404F4
:1013E600FFFF0404FFFFFF040404FFFFFFFF0404E4
:1013F6000FFF0404FFFFFF040404FFFFFFFFFF04C9
:1014060004FF0404FFFFFF040404FFFFFFFFFFFFC8
:1014160004040404FFFFFFFF0404FFFFFFFFFFFFB8
:1014260004040404FFFFFFFF0404FFFFFFFFFFFFA8
:10143600FF040404FFFFFFFF0404FFFFFFFFFFFF9D
:10144600FF040404FFFFFFFF1010FFFFFF04040466
:101456000404040FFFFFFFFFFFFFFFFF0404040463
:1014660004040404040FFFFFFFFFFF040404FFFF4E
:10147600FFFFFF0404040FFFFFFF04040FFFFFFF3D
:10148600FFFFFFFF040404FFFFFF0404FFFFFFFF4D
:10149600FFFFFFFFFF04040FFFFF040FFFFFFFFF27
:1014A600FFFFFFFFFF040404FFFF04FFFFFFFFFF32
:1014B600FFFFFFFFFFFF0404FFFF04FFFFFFFFFF27
:1014C600FFFFFFFFFFFF0404FFFF04FFFFFFFFFF17
:1014D600FFFFFFFFFFFF0404FFFF04FFFFFFFFFF07
:1014E600FFFFFFFFFFFF0404FFFF040FFFFFFFFFE7
:1014F600FFFFFFFFFF040404FFFF0404FFFFFFFFDD
:10150600FFFFFFFFFF04040FFFFF04040FFFFFFFB1
:10151600FFFFFFFF040404FFFFFFFF040404FFFFB7
:10152600FFFFFF0404040FFFFFFFFFFF0404040492
:1015360004040404040FFFFFFFFFFFFFFFFF040482
:101546000404040FFFFFFFFFFFFF1010FFFFFFFF64
:10155600FF04040FFFFFFFFFFFFFFFFFFFFFFFFF7B
:10156600FF040404FFFFFFFFFFFFFFFFFFFFFFFF76
:10157600FFFF0404FFFFFFFFFFFFFFFFFFFFFFFF6B
:10158600FFFF04040FFFFFFFFFFFFFFFFFFFFFFF4B
:10159600FFFFFF0404FFFFFFFFFFFFFFFFFFFFFF4B
:1015A600FFFFFF04040FFFFFFFFFFFFFFFFFFFFF2B
:1015B600FFFFFF040404FFFFFFFFFF04FFFFFFFF21
:1015C600FFFFFFFF0404FFFFFFFFFF04FFFFFFFF16
:1015D600FFFFFFFF04040FFFFFFFFF04FFFFFFFFF6
:1015E600FFFFFFFF040404FFFFFF0404FFFFFFFFEC
:1015F600FFFFFFFFFF04040FFFFF0404FFFFFFFFD1
:10160600FFFFFFFFFF04040FFFFF0404FFFFFFFFC0
:10161600FFFFFFFFFFFF0404FF04040FFFFFFFFFB0
:10162600FFFFFFFFFFFF04040F0404FFFFFFFFFFA0
:10163600FFFFFFFFFFFF0404040404FFFFFFFFFF9B
:10164600FFFFFFFFFFFFFF0404040FFF1010FFFF63
:101656000404FFFF04040FFFFFFF04040404FF0457
:101666000404FFFF04040FFFFFFF04040404FF0447
:10167600040FFFFF04040FFFFFFF04040FFFFF0426
:1016860004FFFFFF04040FFFFFFF04040FFF040421
:101696000FFFFFFF04040FFFFFFF04040FFF040406
:1016A6000FFFFFFF04040FFFFFFF04040FFF0404F6
:1016B600FFFFFFFF04040FFFFFFF04040FFF040FEB
:1016C600FFFFFFFF04040FFFFFFF04040FFF04FFEB
:1016D600FFFFFFFF04040FFFFFFF04040FFF04FFDB
:1016E600FFFFFFFF04040FFFFFFF04040FFF0FFFC0
:1016F600FFFFFFFF04040FFFFFFF04040FFFFFFFC0
:10170600FFFFFFFF04040FFFFFFF04040FFFFFFFAF
:10171600FFFFFFFF04040FFFFFFF04040FFFFFFF9F
:10172600FFFFFFFF04040FFFFFFF04040FFFFFFF8F
:10173600FFFFFFFF04040FFFFFFF04040404FFFF85
:10174600FFFFFFFF04040FFFFFFF04040404101053
:1017560004040404040FFFFFFFFFFFFF0404040456
:1017660004040404040404FFFFFFFFFF040404044C
:10177600FFFFFFFFFF040404FFFFFFFF04040FFF4A
:10178600FFFFFFFFFFFF04040FFFFFFF04040FFF2F
:10179600FFFFFFFFFFFF040404FFFFFF04040FFF2A
:1017A600FFFFFFFFFFFFFF0404FFFFFF04040FFF1F
:1017B600FFFFFFFFFFFFFF04040FFFFF04040FFFFF
:1017C600FFFFFFFFFFFFFF04040FFFFF04040404F5
:1017D600FFFFFFFFFFFFFF04040FFFFF04040404E5
:1017E600FFFFFFFFFFFFFF04040FFFFF04040FFFCF
:1017F600FFFFFFFFFFFFFF0404FFFFFF04040FFFCF
:10180600FFFFFFFFFFFF040404FFFFFF04040FFFB9
:10181600FFFFFFFFFFFF04040FFFFFFF04040FFF9E
:10182600FFFFFFFFFF040404FFFFFFFF04040FFF99
:1018360004040404040404FFFFFFFFFF040404047B
:1018460004040404040FFFFFFFFFFFFF0404040465
:10185600101004040404040404040FFFFFFFFFFF38
:10186600FF0404040404040404040FFFFFFFFF0440
:101876000404FFFFFFFFFFFFFFFFFFFFFFFF04045E
:10188600040FFFFFFFFFFFFFFFFFFFFFFF0404043E
:10189600FFFFFFFFFFFFFFFFFFFFFFFFFF04040F38
:1018A600FFFFFFFFFFFFFFFFFFFFFFFFFF0404FF38
:1018B600FFFFFFFFFFFFFFFFFFFFFFFF04040FFF18
:1018C600FFFF040404040404040FFFFF04040FFFD5
:1018D600FFFF040404040404040FFFFF04040FFFC5
:1018E600FFFFFFFFFFFFFFFFFFFFFFFF04040FFFE8
:1018F600FFFFFFFFFFFFFFFFFFFFFFFFFF0404FFE8
:10190600FFFFFFFFFFFFFFFFFFFFFFFFFF04040FC7
:10191600FFFFFFFFFFFFFFFFFFFFFFFFFF040404C2
:10192600FFFFFFFFFFFFFFFFFFFFFFFFFFFF0404B7
:10193600040F04040404040404040FFFFFFFFF045F
:10194600040404040404040404040FFFFFFFFFFF5F
:10195600FF0410100404040404FFFFFFFFFFFFFF51
:10196600FFFFFFFF0404040404040FFFFFFFFFFF53
:10197600FFFFFFFFFFFFFFFF0404040FFFFFFFFF52
:10198600FFFFFFFFFFFFFFFFFFFF04040FFFFFFF47
:10199600FFFFFFFFFFFFFFFFFFFF040404FFFFFF42
:1019A600FFFFFFFFFFFFFFFFFFFFFF04040FFFFF27
:1019B600FFFFFFFFFFFFFFFFFFFFFF04040FFFFF17
:1019C600FFFFFFFFFFFFFFFFFFFFFF04040FFFFF07
:1019D600FFFFFFFFFFFFFFFFFFFFFF04040FFFFFF7
:1019E600FFFFFFFFFFFFFFFFFFFFFF04040FFFFFE7
:1019F600FFFFFFFFFFFFFFFFFFFFFF04040FFFFFD7
:101A0600FFFFFFFFFFFFFFFFFFFF040404FFFFFFD1
:101A1600FFFFFFFFFFFFFFFFFFFF04040FFFFFFFB6
:101A2600FFFFFFFFFFFFFFFF04040404FFFFFFFFAC
:101A3600FFFFFFFF0404040404040FFFFFFFFFFF82
:101A4600FFFFFFFF0404040404FFFFFFFFFFFFFF87
:101A5600FFFFFFFF1010FFFFFFFFFF040404040455
:101A6600040FFFFFFFFFFFFFFFFF0404040404044D
:101A7600040404FFFFFFFFFFFF040404FFFFFFFF52
:101A8600FF040404FFFFFFFF040404FFFFFFFFFF42
:101A9600FFFF04040FFFFFFF04040FFFFFFFFFFF1C
:101AA600FFFF04040FFFFFFFFF0404FFFFFFFFFF1C
:101AB600FFFFFFFFFFFFFFFFFF0404040404FFFF17
:101AC600FFFFFFFFFFFFFFFFFFFF04040404040402
:101AD6000404FFFFFFFFFFFFFFFFFFFFFF040404F7
:101AE6000404040FFFFFFFFFFFFFFFFFFFFFFFFFE1
:101AF600FF0404040FFFFF04040FFFFFFFFFFFFFB7
:101B0600FFFF04040FFFFFFF0404FFFFFFFFFFFFBB
:101B1600FFFF04040FFFFFFF04040FFFFFFFFFFF9B
:101B2600FFFF04040FFFFFFF04040404FFFFFFFF91
:101B3600FF040404FFFFFFFFFF040404040404047D
:101B4600040404FFFFFFFFFFFFFFFF040404040477
:101B5600040FFFFFFFFF1010FF04040FFFFFFFFF3E
:101B6600FFFFFF0404040404FF04040FFFFFFFFF4C
:101B7600FF04040404040404FF04040FFFFFFFFF32
:101B860004040404FFFFFFFFFF04040FFFFFFFFF31
:101B960004040FFFFFFFFFFFFF04040FFFFFFF0416
:101BA600040FFFFFFFFFFFFFFF04040FFFFFFF040B
:101BB60004FFFFFFFFFFFFFFFF04040FFFFFFF040B
:101BC60004FFFFFFFFFFFFFFFF04040FFFFF0404F6
:101BD60004FFFFFFFFFFFFFFFF04040FFFFF0404E6
:101BE6000FFFFFFFFFFF0404FF04040FFFFFFF04C6
:101BF60004FFFFFFFFFF0404FF04040FFFFFFF04C1
:101C060004FFFFFFFFFFFFFFFF04040FFFFFFF04BA
:101C1600040FFFFFFFFFFFFFFF04040FFFFFFFFF9F
:101C260004040FFFFFFFFFFFFF04040FFFFFFFFF8A
:101C360004040404FFFFFFFFFF04040FFFFFFFFF80
:101C4600FF04040404040404FF04040FFFFFFFFF61
:101C5600FFFFFFFF0404040410100404FFFFFFFF4E
:101C6600FFFFFF04040FFFFFFFFF0404040FFFFF45
:101C7600FFFFFF040404FFFFFFFFFF0404040FFF40
:101C8600FFFFFF0404040FFFFFFFFFFFFF0404FF35
:101C9600FFFFFF04040404FFFFFFFFFFFF04040F20
:101CA600FFFFFF040404040FFFFFFFFFFFFFFFFF1A
:101CB600FFFFFF0404FF04040FFFFFFFFFFFFFFF0A
:101CC600FFFFFF0404FFFF0404FFFFFFFFFFFFFF0A
:101CD600FFFFFF0404FFFF04040F040404040404CC
:101CE600FFFFFF0404FFFFFF0404040404040404CC
:101CF600FFFFFF0404FFFFFF0404FFFFFF040404CB
:101D0600FFFFFF0404FFFFFFFF04FFFFFF040404BF
:101D1600FFFFFF0404FFFFFFFFFFFFFFFF040404B4
:101D2600FFFFFF0404FFFFFFFFFFFFFF040404049F
:101D3600FFFFFF0404FFFFFFFFFF040404040FFF7F
:101D4600FFFFFF0404FFFFFFFFFF0404FFFFFFFF89
:101D5600FFFFFF0404FFFFFFFFFF1010FFFFFF045C
:101D660004FFFFFFFFFFFFFFFF040404FFFFFF0464
:101D760004FFFFFFFFFFFFFF04040404FFFFFF044F
:101D860004FFFFFFFFFFFFFF04040404FFFFFF043F
:101D960004FFFFFFFFFFFF040404FF04FFFFFF042F
:101DA60004FFFFFFFFFFFF04040FFF04FFFFFF0414
:101DB60004FFFFFFFFFFFF0404FFFFFFFFFFFF0419
:101DC60004FFFFFFFFFF04040FFFFFFFFFFFFF04F9
:101DD60004FFFFFFFFFF04040FFFFFFFFFFFFF04E9
:101DE60004FFFFFFFF040404FFFFFFFF0FFFFF04D4
:101DF60004FFFFFFFF04040404040404040FFF04AB
:101E060004FFFFFFFF040404040404040404FF04A5
:101E160004FFFFFF04040FFFFFFFFFFF04040F048E
:101E260004FFFFFF0404FFFFFFFFFFFFFF0404049E
:101E360004FFFF040404FFFFFFFFFFFFFFFF04048E
:101E460004FFFF04040FFFFFFFFFFFFFFFFF040473
:101E560004FFFF0404FFFFFFFFFFFFFF1010FFFF5B
:101E6600FFFFFFFFFFFF0404FFFFFFFFFFFF0FFF62
:101E7600FFFFFFFFFFFF0404FFFFFFFFFFFF0FFF52
:101E8600FFFFFFFFFFFF0404FFFFFFFFFFFF04FF4D
:101E9600FFFFFFFFFFFF0404FFFFFFFFFFFF040F2D
:101EA600FFFFFFFFFFFF0404FFFFFFFFFFFF040428
:101EB600FFFFFFFFFFFF0404FFFFFFFFFFFF040418
:101EC6000FFFFFFFFFFF0404FFFFFFFFFFFF0404F8
:101ED6000FFFFFFFFFFF0404FFFFFFFFFFFFFF04ED
:101EE60004FFFFFFFFFF0404FFFFFFFFFFFF0404E3
:101EF600040FFFFFFFFF0404FFFFFFFFFFFF0404C3
:101F06000404FFFFFFFF0404FFFFFFFFFFFFFFFFC7
:101F160004040FFFFFFF0404FFFFFFFFFFFFFFFFA7
:101F260004040FFFFFFF0404FFFFFFFFFFFFFFFF97
:101F3600FF0404FFFFFF0404FFFFFFFFFFFFFFFF97
:101F4600FF04040FFFFF0404040404040404FFFF59
:101F5600FFFF0404FFFF0404040404040404101037
:101F6600FFFFFFFFFF000000000000FFFFFFFFFF75
:101F7600FFFFFF00000002020202000000FFFFFF59
:101F8600FFFF000002020202020202020000FFFF3F
:101F9600FF0000020202000000000002020000FF33
:101FA600FF0002020200FFFFFFFF0000020200FF27
:101FB600FF00020202020000FFFFFF00000000FF18
:101FC600FF000002020202020000FFFFFFFFFFFF08
:101FD600FFFF0000000002020202000000FFFFFFF8
:101FE600FFFFFFFFFF00000002020202020000FFE7
:101FF600FFFFFFFFFFFFFF0000000202020200FFDB
:10200600FF00000000FFFFFFFF000000020200FFCC
:10201600FF0002020000FFFFFFFF0000020200FFB8
:10202600FF0000020200000000000002020000FFA4
:10203600FFFF000002020202020202020000FFFF8E
:10204600FFFFFF00000002020202020000FFFFFF86
:10205600FFFFFFFFFF00000000000000FFFFFFFF83
:10206600101000000000000000000000000000004A
:10207600000000010101010101010101010101014D
:10208600010000010101010101010101010101013C
:10209600010000010101010101010101010101012C
:1020A6000100000000000000010101010000000025
:1020B6000000FFFFFFFFFF000101010100FFFFFF1E
:1020C600FFFFFFFFFFFFFF000101010100FFFFFF10
:1020D600FFFFFFFFFFFFFF000101010100FFFFFF00
:1020E600FFFFFFFFFFFFFF000101010100FFFFFFF0
:1020F600FFFFFFFFFFFFFF000101010100FFFFFFE0
:10210600FFFFFFFFFFFFFF000101010100FFFFFFCF
:10211600FFFFFFFFFFFFFF000101010100FFFFFFBF
:10212600FFFFFFFFFFFFFF000101010100FFFFFFAF
:10213600FFFFFFFFFFFFFF000101010100FFFFFF9F
:10214600FFFFFFFFFFFFFF000101010100FFFFFF8F
:10215600FFFFFFFFFFFFFF000000000000FFFFFF83
:10216600FFFF1010FFFFFFFFFFFFFFFFFFFFFFFF57
:10217600FFFFFFFFFFFFFFFFFFFFFFFFFFFFFFFF69
:10218600FFFFFFFFFFFFFFFFFFFFFFFFFFFFFFFF59
:10219600FFFFFFFFFFFFFFFFFFFFFFFFFFFFFFFF49
:1021A600FFFFFFFFFFFFFFFFFFFFFFFFFFFFFFFF39
:1021B600FFFFFFFFFFFFFFFFFFFFFFFFFFFFFFFF29
:1021C600FFFFFFFFFFFFFFFFFFFFFFFFFFFFFFFF19
:1021D600FFFFFFFFFFFFFFFFFFFFFFFFFFFFFFFF09
:1021E600FFFFFFFF1010FFFFFFFFFFFFFFFFFFFFD7
:1021F600FFFFFFFFFFFFFFFFFFFFFFFFFFFFFFFFE9
:10220600FFFFFFFFFFFFFFFFFFFFFFFFFFFFFFFFD8
:10221600FFFFFFFFFFFFFFFFFFFFFFFFFFFFFFFFC8
:10222600FFFFFFFFFFFFFFFFFFFFFFFFFFFFFFFFB8
:10223600FFFFFFFFFFFFFFFFFFFFFFFFFFFFFFFFA8
:10224600FFFFFFFFFFFFFFFFFFFFFFFFFFFFFFFF98
:10225600FFFFFFFFFFFFFFFFFFFFFFFFFFFFFFFF88
:10226600FFFFFFFFFFFF1010FFFFFFFFFFFFFFFF56
:10227600FFFFFFFFFFFFFFFFFFFFFFFFFFFFFFFF68
:10228600FFFFFFFFFFFFFFFFFFFFFFFFFFFFFFFF58
:10229600FFFFFFFFFFFFFFFFFFFFFFFFFFFFFFFF48
:1022A600FFFFFFFFFFFFFFFFFFFFFFFFFFFFFFFF38
:1022B600FFFFFFFFFFFFFFFFFFFFFFFFFFFFFFFF28
:1022C600FFFFFFFFFFFFFFFFFFFFFFFFFFFFFFFF18
:1022D600FFFFFFFFFFFFFFFFFFFFFFFFFFFFFFFF08
:1022E600FFFFFFFFFFFFFFFF1010FFFFFFFFFFFFD6
:1022F600FFFFFFFFFFFFFFFFFFFFFFFFFFFFFFFFE8
:10230600FFFFFFFFFFFFFFFFFFFFFFFFFFFFFFFFD7
:10231600FFFFFFFFFFFFFFFFFFFFFFFFFFFFFFFFC7
:10232600FFFFFFFFFFFFFFFFFFFFFFFFFFFFFFFFB7
:10233600FFFFFFFFFFFFFFFFFFFFFFFFFFFFFFFFA7
:10234600FFFFFFFFFFFFFFFFFFFFFFFFFFFFFFFF97
:10235600FFFFFFFFFFFFFFFFFFFFFFFFFFFFFFFF87
:10236600FFFFFFFFFFFFFFFFFFFF1010FFFFFFFF55
:10237600FFFFFFFFFFFFFFFFFFFFFFFFFFFFFFFF67
:10238600FFFFFFFFFFFFFFFFFFFFFFFFFFFFFFFF57
:10239600FFFFFFFFFFFFFFFFFFFFFFFFFFFFFFFF47
:1023A600FFFFFFFFFFFFFFFFFFFFFFFFFFFFFFFF37
:1023B600FFFFFFFFFFFFFFFFFFFFFFFFFFFFFFFF27
:1023C600FFFFFFFFFFFFFFFFFFFFFFFFFFFFFFFF17
:1023D600FFFFFFFFFFFFFFFFFFFFFFFFFFFFFFFF07
:1023E600FFFFFFFFFFFFFFFFFFFFFFFF1010FFFFD5
:1023F600FF0000FFFFFFFFFFF000000FFFFFFFFFE2
:1024060000222200FFFFFFFF00222200FFFFFFF055
:10241600022002200FFFFFF0022002200FFFFF0024
:102426002200002200FFFF00220FF02200FFF00230
:10243600200FF002200FF00220000002200F0022E1
:1024460022222222220000222222222222000022EE
:10245600000000002200002200FFFF0022000022F0
:1024660000FFFF002200000000FFFF000000101028
:1024760000000000000000FF022222222222000F9C
:102486000222222222222000000220000022220014
:10249600F00220FFF0022200F00220FFF0022200EC
:1024A600F00220000022200FF0022222222200FF4A
:1024B600F0022222222200FFF00220000022200F3A
:1024C600F00220FFF0022200F00220FFF0022200BC
:1024D60000022000002222000222222222222000C4
:1024E600022222222222000F00000000000000FF2C
:1024F60010101010101010101010101010101010D6
:062506001010101010106F
:10949A0012507FFF9000D7E02F90008EF0229000AC
:1094AA006DE0FBA3E0FAA3E0F922F090006DE0FB87
:1094BA00A3E475F0011250E6A9F0FA025066900092
:1094CA0064E0FF3395E0FED3EF9400EE648094806D
:0194DA00226F
:069BA900E49000D7F02259
:0B6F0300900065EFF0A3ECF0A3EDF0B0
:106F0E00900065E0FF25E0F0E02408F090006CF0C2
:106F1E00900066E0FEA3E07803C333CE33CED8F9FB
:106F2E00F0EE900066F09000D9E064017049900098
:106F3E0066E0FEA3E0FF4E602EEF7803CEC313CEC5
:106F4E0013D8F9FF64074E601EEF640D4E6018EF04
:106F5E0064154E6012EF64084E600CEF64104E60C4
:106F6E0006EF64194E7008900067E0240A800E90B8
:106F7E000067E024068006900067E02408F0900089
:106F8E0066E03400F0AF037E007C017D021250BE3D
:106F9E0074262FF974003EFA90006D74FFF0A3EA88
:106FAE00F0A3E91294B49000681294B4900069F0C2
:106FBE00E4A3F0900068E0FF90006AE0C39F4003F6
:106FCE0002709DE4A3F0900069E0FF90006BE0C3B7
:106FDE009F400302707E1294A812506612949DE494
:106FEE00FB7D02FF128E051294A890000112949A56
:106FFE007B011270C790000212949A7B021270C726
:10700E0090000312949A7B031270DA90008E7480B3
:10701E00F07B041270DA90006EE475F0041250D01A
:10702E0090006CE090008EF07B051270E2A3E09071
:10703E00008EF07B071270E2E07E007802C333CE42
:10704E0033CED8F912709E1270ED20E7FA900066DA
:10705E00E025E025E0440812709E1270ED20E7FA5C
:10706E0090006CE004F090006BE02404F0026FD40A
:10707E00900065E090006CF0900067E004F0700600
:0F708E00900066E004F090006AE004F0026FC129
:10709D002290008EF07B097D02E4FF128E057B0AA3
:1070AD007D02E4FF128E67EF543F448090008EF016
:1070BD007B0A7D02E4FF128E05227D02E4FF128E13
:1070CD000590006DE0FBA3E0FAA3E0F9227D02E458
:1070DD00FF128E05227D02E4FF128E0590006622BE
:0B70ED007B0A7D02E4FF128E67EF2299
:0B8D3A0090005EEFF0A3EDF0A3EBF063
:108D4500A31294AB12000E900064EFF03395E0C3CC
:108D550064809480404590005EE054016401703366
:108D650090005FE0FFA3E0FD7C00A31294AB1250DE
:108D750066FB126F03900064E014F0900062E475E6
:108D8500F0011250D090005FE02402F01294C85018
:0B8D9500CF80051294C850FB129BBA5F
:018DA00022B0
:109985000500000600000700000800000900000AA5
:1099950000001F000020000B000C000D000E000F42
:0599A500101112120078
:039B6900012100D7
:10846E009000C1E075F003A42485F9749935F0FAF3
:10847E0090006174FFF0A32290005BE0FBA3E0FA92
:10848E00A3E0F9229000C1E0FF7E007401A8070866
:10849E00229000BDE0FD7C007B0122FF9000CEE02B
:1084AE00FDEF5D227499F07491A3F09000BDE0FB96
:1084BE00227499F0A374A4F02290000112507F54FC
:1084CE000264022290000112507F54016401229036
:1084DE00000112507F54106410227499F0A374910D
:1084EE00F0227499F0A374A2221250665402640210
:1084FE002212506654016401221250665410641008
:10850E0022125066540C1313543FF50A227B017D40
:10851E000F7C00227B017D127C0022EAF0A3E9F0A1
:10852E007B0F22EAF0A3E9F07B12229000BDE0FD62
:10853E007C007B02E422EAF0A3E9F07B01227D19A4
:10854E007B057C007F3A22EBF0A3EAF0A3E9F02250
:10855E007499F0A3749A22EAF0A3E9F0E4FB229056
:0C856E00000102507F7B017A0079C622D8
:10908200127EB5129BA97F04129BB47F03129BB779
:10909200E4F50AC3E50A9406748094805009AF0A85
:1090A2001290BE050A80EC7F011296B07FFF129BE0
:0B90B200B77F081290BEE49000BEF0F3
:1090BD00221299CD90005FE4F0A37426F07B5AE460
:0790CD00FDFCFF12881422D4
:1058900090005B1285557F02129BB47FFF129BB76D
:1058A0009000C0E01251F458D51158E921590E2248
:1058B000593331596F3359A83459E1415A38915A03
:1058C0004BA15A79A25AA0B15AE9B35B24B45B5CEC
:1058D000C100005BB81284861284F76003025BB8D3
:1058E00012846E128565025A741284861284F770CF
:1058F0000612846E125C131284861284C76003023F
:105900005BB89000C2128471128529025A74128405
:10591000861284F7700612846E125BB912848612A6
:1059200084C76003025BB89000C21284711285655F
:10593000025A9B1284861284F7700612846E125CDF
:10594000131284861284C7700C9000C212847112E4
:105950008529125C221284869000021284CA600398
:10596000025BB89000C3128471128529025A9B12FF
:1059700084861284F7700612846E125BB9128486D4
:105980001284C770099000C2128471125C041284E0
:10599000869000021284CA6003025BB89000C312B2
:1059A0008471128529025A9B1284861284F770062C
:1059B00012846E125BD71284861284C7700990001D
:1059C000C2128471125C041284869000021284CA8E
:1059D0006003025BB89000C3128471128529025BD8
:1059E000571284861284F7700612846E125BD712E7
:1059F00084861284C770109000C21284711285656B
:105A00007D3E7F01128D3A1284869000021284CA74
:105A1000700C9000C3128471128529125C221284CA
:105A2000869000031284CA6003025BB89000C4121F
:105A30008471128529025A9B1284861284F76003AE
:105A4000025BB812846E1285448029128486128407
:105A5000F7700D12846E1285447D297F01128D3AF4
:105A60001284861284C76003025BB89000C212845D
:105A7000711285317D29025BB31284861284F7701E
:105A80000612846E125BC81284861284C7600302F9
:105A90005BB89000C21284711285447D3E025BB3F4
:105AA0001284861284F7700D12846E1285447D294B
:105AB0007F01128D3A1284861284C770109000C242
:105AC0001284711285317D147F01128D3A12848601
:105AD0009000021284CA6003025BB89000C3128473
:105AE000711285317D3E025BB31284861284F77099
:105AF0000612846E125BC81284861284C7700990E5
:105B000000C2128471125BE6128486900002128435
:105B1000CA6003025BB89000C31284711285317DA4
:105B20003E025BB31284861284F7700612846E12F2
:105B30005BF51284861284C770099000C2128471CA
:105B4000125BE61284869000021284CA706A90008A
:105B5000C31284711285317D14025BB312848612E4
:105B600084F7700612846E125BF51284861284C765
:105B700070109000C21284711285447D3E7F011224
:105B80008D3A1284869000021284CA70109000C36D
:105B90001284711285317D147F01128D3A12848630
:105BA0009000031284CA70109000C4128471128590
:105BB000317D3E7F01128D3A22EAF0A3E9F0E4FB49
:105BC0007D147F01128D3A22EAF0A3E9F07B017D7A
:105BD000147F01128D3A22EAF0A3E9F0E4FB7D1470
:105BE0007F01128D3A22EAF0A3E9F07B017D3E7F2E
:105BF00001128D3A22EAF0A3E9F07B017D147F01C6
:105C0000128D3A22EAF0A3E9F0E4FB7D3E7F011217
:105C10008D3A22EAF0A3E9F0E4FB7D297F01128DA1
:0A5C20003A227D147F01128D3A2212
:089B99009000BFE04480F022BF
:109558007B787D01E4FF128E67EF540FFF9000CEF9
:10956800F09000BFE06F6024D2217B31E4FDFF1250
:109578008E67EF547F90008EF07B31E4FDFF128EF2
:0D95880005123CBC9000CEE09000BFF02228
:0665900090005B1285552E
:106596007F41129BB49000C0E01251F465CA1165A8
:1065A600F621665A2266C931672633677D3465CA85
:1065B6009165F6A1665AA266C9B16726B3677DB42E
:1065C600000067DB90005B12848912850F6003026E
:1065D60066D412849F12683512848912506630E59B
:1065E600030267049000BEE060030267DB02671ED9
:1065F60090005B12848912850F60101267DC12848A
:106606007DEAF0E91284B77D1C801D12849F126812
:106616002C12848912506630E5151267FA12847EB0
:1066260012855E1284B87D017F01128D3A800E902C
:1066360000BEE0700812849F7F0112874F90005BB6
:1066460012848912856D1285129000BD600302675F
:106656008E0266C190005B12848912850F6011124A
:1066660067DC12847DEAF0A3E91284B87D1C801DE4
:1066760012849F12682C12848912506630E5151216
:1066860067FA12847E12855E1284B87D017F01123C
:106696008D3A800E9000BEE0700812849F7F011232
:1066A600874F90005B12848912856D1285126008EF
:1066B6007B02E4FDFC0267919000BD1284A27F4636
:1066C6000267D890005B12848912850F60211268D8
:1066D60009E50A25E0FFE433FE749A2FF974993E22
:1066E60012847DEAF0A3E91284B87D310267C812EC
:1066F600849F12683512848912506630E51112683B
:106706000912847E12855E1284B87D010267C890E4
:1067160000BEE060030267DB12849F7F010267D838
:1067260090005B12848912850F60151285391268F4
:106736001812847DEAF0A3E91284B87D1C0267C8AA
:1067460012849F7F1C12874F90005B12848912501F
:106756006630E515128539FF12874F12847E128541
:106766005E1284B87D010267C89000BEE0706612B2
:10677600849F7F010267D890005B12848912856D21
:1067860012851260179000BD12853C12681812849B
:106796007DEAF0A3E91284B87D46802612849F7FA5
:1067A6004612874F90005B12848912506630E517B7
:1067B600128539FF12874F12847E12855E1284B8C5
:1067C6007D017F01028D3A9000BEE0700812849F21
:0567D6007F0112874F56
:1067DB00229000BDE0FD7C007B02E4FF12874FE5B9
:1067EB000A25E0FFE433FE749A2FF974993E229048
:1067FB0000BDE0FD7C007B02E4FF12874F2290007E
:10680B00BDE0FD7C007B02E4FF12874F22FF128765
:10681B004FE50A25E0FFE433FE749A2FF974993E95
:10682B00227F1C12874F90005B227F3112874F9083
:03683B00005B22DD
:1042360090005B1285557F0C129BB49000C0E01273
:1042460051F442761142932142C22242F831434848
:104256003343913443E341445E91447BA144B9A284
:1042660044FAB1455DB345BCB44622C1000046AC34
:1042760090005B1284891284FF700A12847E128475
:10428600E8E40244737B01E4FDFC0244B490005B65
:104296001284891284FF700D12847E1284E87D2CAC
:1042A60012470080031246EB90005B128489128449
:1042B600D270030244A412851B0244B490005B1220
:1042C60084891284FF700B12847E1284E81246AD34
:1042D60080031246C190005B1284891284D2700A50
:1042E60012847E1284E8E40244EC7B01E4FDFC02C5
:1042F60044F590005B1284891284FF700D12847E4F
:104306001284E8E4FB12471B80031246EB90005B25
:104316001284891284D2700B12847E1284E81246AB
:10432600E1800812851B7F1712874F90005B12846D
:10433600899000021284D5700302444D12851B0237
:1043460044F590005B1284891284FF700B12847E00
:104356001284E81246AD80031246C190005B1284B7
:10436600891284D2700B12847E1284E81246D7809A
:10437600031246CC90005B1284899000021284D509
:10438600700302444D12851B0244F590005B1284B3
:10439600891284FF700B12847E1284E81246B7805D
:1043A6000312470890005B1284891284D2700B12A4
:1043B600847E1284E81246D780031246CC90005BB6
:1043C6001284899000021284D5700B12847E1284A6
:1043D600E87B0F0246127B017D0F02461B90005BB5
:1043E6001284891284FF700B12847E1284E81246AE
:1043F600B7800312470890005B1284891284D2703A
:104406000D12847E1284E87D41124700800A7B01EA
:10441600E4FDFC7F4112874F90005B128489900077
:10442600021284D5700B12847E1284E81246E18053
:104436000812851B7F1712874F90005B12848990A4
:1044460000031284D5700B12847E1284E87B0F025F
:1044560044ED12851B0244F590005B128489128498
:10446600FF700D12847E1284E89000BDE0FB80365A
:1044760012849F803990005B1284891284FF700B2E
:1044860012847E1284B212471B800812849F7F2CEE
:1044960012874F90005B1284891284D2700D1284A9
:1044A6007E1284E87B0F7D2C02469F12851B7F2C93
:1044B6000246A990005B1284891284FF700B128455
:1044C6007E1284B2124713800812849F7F171287C8
:1044D6004F90005B1284891284D2701012847E126F
:1044E60084E89000BDE0FB7D4102469F12849F7FD9
:1044F600410246A990005B1284891284FF700F1254
:10450600847E1284B27D2C7F01128D3A800812843B
:104516009F7F2C12874F90005B1284891284D27081
:104526000B12847E1284E81246F680081285227FDA
:104536001712874F90005B1284899000021284D56F
:10454600700D12847E1284E87B127D4102469F1212
:1045560085227F410246A990005B1284891284FF5E
:10456600700B12847E1284B2124713800812849F45
:104576007F1712874F90005B1284891284D2700BCA
:1045860012847E1284B2124723800812849F7F41D0
:1045960012874F90005B1284899000021284D570B6
:1045A6000D12847E1284E87B127D4102469F12859D
:1045B600227F410246A990005B1284891284FF7013
:1045C6000F12847E1284B27D177F01128D3A800805
:1045D60012849F7F1712874F90005B128489128482
:1045E600D2700B12847E1284B21247238008128482
:1045F6009F7F4112874F90005B12848990000212C0
:1046060084D5700D12847E1284E87B127D170246D3
:104616009F7B017D127C007F170246A990005B12EA
:1046260084891284FF700F12847E1284B27D177FF4
:1046360001128D3A800812849F7F1712874F9000CF
:104646005B1284891284D2700F12847E1284B27D2A
:10465600417F01128D3A800812849F7F4112874F55
:1046660090005B1284899000021284D5700B12842C
:104676007E1284E81246F680081285227F1712877A
:104686004F90005B1284899000031284D5700F123C
:10469600847E1284E87B127D417F01028D3A128569
:1046A600227F4112874F22E4FB7D177F01128D3A4C
:1046B60022E4FB7D177F01128D3A227B01E4FDFC8B
:1046C6007F1712874F227B01E4FDFC7F4112874F43
:1046D60022E4FB7D417F01128D3A227B0F7D177FFD
:1046E60001128D3A227B01E4FDFC7F2C12874F22BA
:1046F6007B127D177F01128D3A22E4FB7F01128D1A
:104706003A227B01E4FDFC7F1712874F227D177F3B
:1047160001128D3A227D2C7F01128D3A227D417F36
:0547260001128D3A2292
:10472B0090005B1285557F02129BB49000C0E01283
:10473B0051F4476811477D2147B22247E63148348F
:10474B0033487A3448CD414940914964A249A9B1D3
:10475B004A10B34A7AB44ADFC100004B7090005B39
:10476B001284891285077002802C7B01E4FDFC0208
:10477B00495F90005B128489128507700B12847E4F
:10478B001284F0124BED8003124BB990005B128434
:10479B0089128507700B12847E1284F0F0E40249B3
:1047AB005612851B02495F90005B128489128507A4
:1047BB00700812847E124B718003124B8D90005B3C
:1047CB001284891284DD700B12847E1284F0F0E463
:1047DB0002499B7B01E4FDFC0249A490005B12841F
:1047EB0089128507700B12847E1284F0124BED80B8
:1047FB0003124BB990005B1284891284DD700B128B
:10480B00847E1284F0124BAE800812851B7F1F1220
:10481B00874F90005B1284899000021284E0700332
:10482B0002492E12851B0249A490005B1284891247
:10483B008507700812847E124B718003124B8D908A
:10484B00005B1284891284DD700B12847E1284F05B
:10485B00124BA38003124B9890005B12848990003B
:10486B00021284E0700302492E12851B0249A490A8
:10487B00005B128489128507700B12847E1284F000
:10488B00124B828003124BDA90005B1284891284E4
:10489B00DD700B12847E1284F0124BA38003124B3B
:1048AB009890005B1284899000021284E0700C12C5
:1048BB00847E1284F0F07B0F024ACF7B017D0F02C6
:1048CB004AD890005B128489128507700B12847E84
:1048DB001284F0124B828003124BDA90005B12842D
:1048EB00891284DD700B12847E1284F0124BC4800B
:1048FB0003124BF890005B1284899000021284E043
:10490B00700B12847E1284F0124BAE800812851B42
:10491B007F1F12874F90005B1284899000031284D3
:10492B00E0700C12847E1284F0F07B0F02499C1213
:10493B00851B0249A490005B1284891285077011B4
:10494B0012847E1284F0F09000BDE0FB7D34024BAC
:10495B006312849F7F34024B6D90005B128489122B
:10496B008507700E12847E1284F01284B8124BE508
:10497B00800812849F7F1F12874F90005B128489DF
:10498B001284DD701112847E1284F0F09000BDE071
:10499B00FB7D49024B6312849F7F49024B6D900054
:1049AB005B128489128507701212847E1284F012B6
:1049BB0084B87D347F01128D3A800812849F7F3436
:1049CB0012874F90005B1284891284DD700B128466
:1049DB007E1284F0124BCF80081285227F1F128724
:1049EB004F90005B1284899000021284E0700E12CB
:1049FB00847E1284F0F07B127D49024B6312852278
:104A0B007F49024B6D90005B128489128507700EF3
:104A1B0012847E1284F01284B8124BE58008128443
:104A2B009F7F1F12874F90005B1284891284DD7069
:104A3B001212847E1284F01284B87D497F01128D8C
:104A4B003A800812849F7F4912874F90005B128433
:104A5B00899000021284E0700E12847E1284F0F0B2
:104A6B007B127D49024B631285227F49024B6D906D
:104A7B00005B128489128507701212847E1284F0F7
:104A8B001284B87D1F7F01128D3A800812849F7F9C
:104A9B001F12874F90005B1284891284DD700B12FA
:104AAB00847E1284F0124BC48003124BF890005B8F
:104ABB001284899000021284E0700E12847E12849C
:104ACB00F0F07B127D1F024B637B017D127C007F1C
:104ADB001F024B6D90005B128489128507701212B6
:104AEB00847E1284F01284B87D1F7F01128D3A8070
:104AFB000812849F7F1F12874F90005B12848912CC
:104B0B0084DD701212847E1284F01284B87D497F8A
:104B1B0001128D3A800812849F7F4912874F9000B3
:104B2B005B1284899000021284E0700B12847E1257
:104B3B0084F0124BCF80081285227F1F12874F9073
:104B4B00005B1284899000031284E0701012847E43
:104B5B001284F0F07B127D497F01028D3A1285227F
:104B6B007F4912874F227499F0A374A2F0E4FB7D66
:104B7B001F7F01128D3A22F0E4FB7D1F7F01128D06
:104B8B003A227B01E4FDFC7F1F12874F227B01E45D
:104B9B00FDFC7F4912874F22F0E4FB7D497F011218
:104BAB008D3A22F07B0F7D1F7F01128D3A227B0104
:104BBB00E4FDFC7F3412874F22F0E4FB7D497F013B
:104BCB00128D3A22F07B127D1F7F01128D3A227BD0
:104BDB0001E4FDFC7F1F12874F227D1F7F01128D89
:104BEB003A22F0E4FB7D347F01128D3A227B01E403
:084BFB00FDFC7F4912874F22E7
:103CBC009000C0E01251F43CEB113D0E223D53310B
:103CCC003DC4333E2B343E99413F28913F51A23F96
:103CDC009EB1400EB34078B440F3C10000417F1256
:103CEC0084928005C333CE33CED8F91284A9600BED
:103CFC0012847E1284BF7B0D023F417B057D0D0239
:103D0C003F4A1284928005C333CE33CED8F9128445
:103D1C00A9600B12847E1284BF1241DC8003124115
:103D2C00989000C21284958005C333CE33CED8F957
:103D3C001284A9600B12847E1284BF7B0D023F8E0D
:103D4C007B057D0D023F971284928005C333CE33E1
:103D5C00CED8F91284A9601112847E1284BF7B071D
:103D6C007D257F01128D3A80057D0712422290003D
:103D7C00C21284958005C333CE33CED8F91284A9F0
:103D8C00600D12847E1284BF7B151241FC800312DD
:103D9C0041E69000C31284958005C333CE33CED850
:103DAC00F91284A9600B12847E1284BF7B15023F2A
:103DBC008E7B057D15023F971284928005C333CE0E
:103DCC0033CED8F91284A9600B12847E1284BF12F0
:103DDC0041DC80031241989000C21284958005C387
:103DEC0033CE33CED8F91284A9600B12847E1284A0
:103DFC00BF1241F280031241A49000C3128495803B
:103E0C0005C333CE33CED8F91284A9600B12847E4D
:103E1C001284BF7B15023F8E7B057D15023F9712E6
:103E2C0084928005C333CE33CED8F91284A9600BAB
:103E3C0012847E1284BF1241B08003124180900024
:103E4C00C21284958005C333CE33CED8F91284A91F
:103E5C00600D12847E1284BF7D3A12421A80087D56
:103E6C000D12854E12874F9000C31284958005C3A6
:103E7C0033CE33CED8F91284A9600B12847E12840F
:103E8C00BF7B150240E37B057D150240EC1284924A
:103E9C008005C333CE33CED8F91284A9600B1284BB
:103EAC007E1284BF1241B080031241809000C21276
:103EBC0084958005C333CE33CED8F91284A9600B18
:103ECC0012847E1284BF1241F280031241A490002E
:103EDC00C31284958005C333CE33CED8F91284A98E
:103EEC00601112847E1284BF7B157D107F01128DB0
:103EFC003A80031241E69000C41284958005C333C6
:103F0C00CE33CED8F91284A9600B12847E1284BFF2
:103F1C007B15023F8E7B057D15023F9712849280A4
:103F2C0005C333CE33CED8F91284A9600D12847E2A
:103F3C001284BF7B107D250241747B057D107C00B3
:103F4C007F2502417C1284928005C333CE33CED8B8
:103F5C00F91284A9600D12847E1284BF7B10124169
:103F6C00FC80031241BA9000C21284958005C333C1
:103F7C00CE33CED8F91284A9600D12847E1284BF80
:103F8C007B107D3A0241747B057D107C007F3A02E8
:103F9C00417C1284928005C333CE33CED8F912847F
:103FAC00A9601112847E1284BF7B087D257F0112CB
:103FBC008D3A80057D081242229000C212849580B1
:103FCC0005C333CE33CED8F91284A9600B12847E8C
:103FDC001284BF12422C80031242049000C312843C
:103FEC00958005C333CE33CED8F91284A9600D1257
:103FFC00847E1284BF7B197D3A02417412854C0277
:10400C00417C1284928005C333CE33CED8F912840E
:10401C00A9600D12847E1284BF7D1012421A800397
:10402C001241BA9000C21284958005C333CE33CEB0
:10403C00D8F91284A9600B12847E1284BF1242102C
:10404C0080031241D09000C31284958005C333CEF7
:10405C0033CED8F91284A9600D12847E1284BF7BF2
:10406C00197D3A02417412854C02417C1284928073
:10407C0005C333CE33CED8F91284A9600B12847EDB
:10408C001284BF1241C6800312418C9000C212846C
:10409C00958005C333CE33CED8F91284A9601112A2
:1040AC00847E1284BF7B107D3A7F01128D3A800B87
:1040BC007B057D107C007F3A12874F9000C31284E1
:1040CC00958005C333CE33CED8F91284A9600D1276
:1040DC00847E1284BF7B197D100241747B057D198F
:1040EC007C007F1002417C1284928005C333CE3356
:1040FC00CED8F91284A9600B12847E1284BF1241AF
:10410C00C6800312418C9000C21284958005C33383
:10411C00CE33CED8F91284A9600B12847E1284BFE0
:10412C0012421080031241D09000C3128495800576
:10413C00C333CE33CED8F91284A9600B12847E120D
:10414C0084BF12422C80031242049000C412849546
:10415C008005C333CE33CED8F91284A9600F1284F4
:10416C007E1284BF7B197D3A7F01028D3A12854CF9
:10417C0012874F227B057D077C007F1012874F2210
:10418C007B057D087C007F1012874F227B057D0DFF
:10419C007C007F1012874F227B057D077C007F3AC5
:1041AC0012874F227B077D107F01128D3A227B05EF
:1041BC007D107C007F1012874F227B087D107F01C1
:1041CC00128D3A227B057D087C007F3A12874F22A4
:1041DC007B0D7D107F01128D3A227B057D157C00B5
:1041EC007F1012874F227B077D3A7F01128D3A2276
:1041FC007D107F01128D3A227B057D197C007F108A
:10420C0012874F227B087D3A7F01128D3A227B0D5B
:10421C007F01128D3A227B057C007F2512874F226D
:0A422C007B197D107F01128D3A22EC
:10941100E4FF1299CD9000BEE024FE601104702992
:1094210012944B12847E7499F0A37494800C12945C
:109431004B12847E7499F0A374971284B87D017FD6
:1094410001128D3A7FFF129BB7227F03129BB77FD8
:0594510004129BB4228F
:1098E900E4FF1299CD9000C6E0540264027012128E
:1098F900857312423612857312472B1285731265CE
:0999090090129B99E4FF0296B054
:10250C0000000000000000000000000000000000BF
:10251C0000000000000000000000000000000000AF
:10252C00003E007E00FE01CE038E7F8E7F8E738E6A
:10253C00738E738E7F8E7F8E01CE00FE007E003EEA
:10254C0000000000020006000E001E003FFE7FFE91
:10255C007FFE3FFE1E000E00060002000000000081
:10256C000000000000400060007000787FFC7FFEDF
:10257C007FFE7FFC007800700060004000000000CF
:10258C00000003C003C003C003C003C003C003C0EA
:10259C0003C03FFC1FF80FF007E003C001800000F0
:1025AC0003C003C007E007E00E700E701C381C3827
:1025BC00381C381C7FFE7FFE700E700E700E700E75
:1025CC007FF87FFC383E381E381E381E383C3FF8EA
:1025DC003FF8383C381E381E381E383E7FFC7FF8DA
:1025EC000FF81FFC3C1C380E780E700E700070003B
:1025FC0070007000700E700E380E3C1C1FFC0FF833
:10260C007FF07FF07078703C703C703C70787FF09D
:10261C007FE0778073C071E070F07078703C701E52
:10262C0000006006700E781E7C3E7FFE77EE73CE47
:10263C00718E700E700E700E700E700E700E700E1D
:10264C0000001FF81FF800E000E000E000E000E0F0
:10265C0000E000E000E070E079E03FC01F800F0078
:10266C0000000000000003C007800F001E003FFCAC
:10267C003FFC1E000F00078003C00000000000009C
:10268C0000000000000003C001E000F000783FFCF7
:10269C003FFC007800F001E003C0000000000000E7
:1026AC0000000000018001800180018011881998D0
:1026BC001DB81FF80FF007E003C0018000000000F8
:1026CC00003E007E00FE01CE038E7F8E7F8E738EC9
:1026DC00738E738E7F8E7F8E01CE00FE007E003E49
:1026EC00700E700E700E700E700E700E781E381C00
:1026FC00381C1C381C380E700FF007E003C001802A
:10270C000000380038003800380038003800380035
:10271C0038003800380038063806380E3FFE3FFEC9
:10272C000000000000000000000003800FE01C709F
:10273C00183038383838383818301C700FE00380AF
