:030000000299D48E
:0C99D400787FE4F6D8FD758126029A1B0E
:10AC6600E004F0E0C394507480948022E02492F5CE
:07AC760082E43400F58322A3
:10AD3100D2BCD2AC758DF4D28EE49000E2F0A3F0D7
:01AD410022EF
:10AD42009000E2E0FFA3E0B507037F00227F01222B
:10AC4F00C2AC9000E212AC72E0FF9000E212AC6670
:06AC5F004002E4F0D2AC5B
:01AC650022CC
:080003003099FD8F99C299228A
:0300230002AA68C6
:10AA6800C0E0C083C082C0D0309815C2989000E37F
:10AA780012AC72E599F09000E312AC664002E4F083
:09AA8800D0D0D082D083D0E0329E
:10AA9100C2AF9001E1E0640122AE038E80D293C285
:10AAA10093229000F4E0FBA3E0FAA3E0F922759071
:09AAB100F69001E1E0FF640122CE
:10AB0A00E4900121F07EFFC2AF7590F6C2B6C2B7DB
:10AB1A0012AA9C8F80C291D2917590F6C2B6C2B722
:05AB2A007580FFD2AFB1
:01AB2F002203
:109EB50012AA917005AF0512AB0A12AAAF7006C2BD
:109EC500B6C2B78028EDF5827583007006C2B7C2A9
:109ED500B6801AE582640145837006C2B7D2B680A2
:109EE5000CE582640245837004D2B7C2B612AA9A01
:109EF500900120E0F580C291D2917590F6EF640152
:109F05007006C2B6C2B78004D2B6D2B77580FFD28A
:029F1500AF2279
:109A6000AC0312AA917005AF0512AB0A7590F612FD
:109A7000AA937006C2B6C2B78022EDFF7E007006C0
:109A8000C2B7C2B68016EF64014E7006C2B7D2B636
:109A9000800AEF64024E7004D2B7C2B6AF040C8FD6
:109AA00080D293C2939000F2E0FBA3E475F0011220
:109AB0003D3CA9F0FA123CBCF580C291D2919000D5
:109AC000F5E014F070D67590F612AA937006C2B63F
:0E9AD000C2B78004D2B6D2B77580FFD2AF22E3
:029F1700AC0795
:109F190012AA917005AF0512AB0A12AAAF7006C258
:109F2900B6C2B78028EDF5827583007006C2B7C244
:109F3900B6801AE582640145837006C2B7D2B6803D
:109F49000CE582640245837004D2B7C2B612AA9A9C
:109F59007580FFC292AE80D2927590F6EF6401705F
:0F9F690006C2B6C2B78004D2B6D2B7D2AFAF0627
:019F780022C6
:10A141009000F4EBF0A3EAF0A3E9F012AAA3123D08
:10A1510052F47003E5F0F46038123D52FBAAF0EAC4
:10A16100FDE4FF129F1712AAA3900002123CD5FC36
:10A171006F6012123D52FBAAF0EAFD900120ECF053
:10A18100E4FF129EB59000F5E475F003123D2680C0
:02A19100BA22F0
:01ADE8002248
:106BAE002562782025627820256278000A3C523EC4
:106BBE0025303262785B25303262785D3D25303289
:106BCE00627800256278202562780025627820257B
:106BDE00627820256278202562782000253162783F
:106BEE00202531627820253162782000526561645B
:106BFE004173696342797465203D3D20256278209A
:106C0E000A0063682562643A256264200063682581
:106C1E0062643A2562642063682562643A25626480
:106C2E00200063682562643A2562642063682562E9
:106C3E00643A2562642063682562643A25626420A2
:106C4E000063682562643A25626420636825626485
:106C5E003A2562642063682562643A256264206383
:106C6E00682562643A256264200063682562643A8E
:106C7E002562642063682562643A25626420636835
:106C8E002562643A2562642063682562643A25624F
:106C9E00642063682562643A25626420002562647C
:106CAE0020000A203D3D3D3D3D3D3D3D20504147AC
:106CBE00452025623278203D3D3D3D3D3D3D3D3DEB
:106CCE003D3D3D3D0A002562327809000A0025311E
:106CDE0062782025316278206368253162782063DE
:106CEE0068253162782063682531627820636825D3
:106CFE003162782000656E726563616C6C00656E42
:106D0E00667265657A6500656E686D6972726F721E
:106D1E0000656E766D6972726F7200656E656E6873
:106D2E00616E636500656E626C616E6B00656E62AE
:106D3E006F756E6400656E626C696E6B006469736C
:106D4E00726563616C6C00646973667265657A6501
:106D5E0000646973686D6972726F7200646973762C
:106D6E006D6972726F7200646973656E68616E63CD
:106D7E006500646973626C616E6B00646973626F47
:106D8E00756E6400646973626C696E6B003D3D3DA7
:106D9E003D3D20466F726D6174203A206368303D30
:106DAE005B2562785D206368313D5B2562785D20EE
:106DBE006368323D5B2562785D206368333D5B25F9
:106DCE0062785D203D3D3D3D3D0A002562782025DF
:106DDE0062782063682562783A2562782063682598
:106DEE0062783A2562782063682562783A2562785F
:106DFE002063682562783A256278200033333700A5
:106E0E002600280029006275737700627573720080
:106E1E00616D697800616D757465006164756D7082
:106E2E0000616761696E00616C69766500627573F9
:106E3E00727400766D697800766D6978657272008D
:106E4E0076617474720079766D697800696E697412
:106E5E00007664657400767365746600737374727D
:106E6E00006873636F6D006D6F64650064697373A2
:106E7E0063726F6C6C00766572000D0A4143434578
:106E8E0053533D30000D0A4143434553533D3100AA
:056E9E000102040810D0
:049ADE004101D10071
:10762200A3F0A3E4F0A37400F0A3740AF0A3E4F0BF
:10763200A37400F0A3740FF0A3E4F0A37400F0A30A
:10764200740BF0A3E4F0A37400F0A37410F0A3E4AD
:10765200F0A37400F0740CA3F0A3E4F0A322A3F04F
:10766200A3E4F0A37400F0A3740AF0A3E4F0A374FB
:1076720000F0A3740FF0A3E4F0A37400F0A3740B62
:10768200F0A3E4F0A37400F0A37410F0A3E4F0A359
:107692007400F0740CA3F0A3E4F0A3229000E7E0DE
:1076A200FBA3E0FAA3E0F922A3F0A3E4F0A37400A1
:1076B200F0A3740AF0A3E4F0A37400F0A3740EF034
:1076C200A3E4F0A37400F0740BA3F0A3E4F0A322EC
:1076D2009000F674FFF0A3746CF07410A3F0A3E4AE
:1076E200F0A3227400F0A37411F0A3E4F0A37400D9
:1076F200F0740DA3F0A3E4F0A3227400F0A37411BC
:10770200F0A3E4F0A37400F0740DA3F0A3E4F0A3DB
:10771200227400F0A3740FF0A3E4F0A37400F074D9
:107722000CA3F0A3E4F0A3229000F674FFF0A3747C
:107732006CF0741BA3F0A3E4F0A3229000F674FF94
:10774200F0A3746CF074ABA3F0A3E4F0A322740072
:10775200F0740AA3F0A3E4F0A3227400F0740AA365
:10776200F0A3E4F0A3229000F674FFF0A322EBF062
:10777200A3EAF0A3E9F09000F67401F0A322A3F0CB
:10778200A37401F0A37401F074BCA3F0A37401F01C
:10779200A322A3F0A3E4F0A322A3F0A3E4F0A32284
:1077A200A3F0A3E4F0A322A3F0A3E4F0A322A3F0A6
:1077B200A3E4F0A322FFE024C5F582E43401F583BB
:1077C200EFF022E0FF9000F17401F0A37401F0A346
:1077D20074C1F07B017A0179BC22A3F0A3E4F0A387
:1077E20022A3F0A3E4F0A322EBF0A3EAF0A3E9F0D2
:1077F20022900001E475F001023D7D7BFF7A6B79F6
:10780200BA9000F3F022A3F0A3E4F0A322E0540123
:10781200FB7D2022250DF50DA3E0540322E50B90FC
:107822006E9E93FFE50A932F22123F69023CBCA38E
:06783200F0A3E4F0A32224
:109C37009000F31277EAA31276A112782B7002FF35
:109C4700229000F61276A112782BB4200B9000F622
:109C57001276A11277F380E99000F61276A1123FEF
:109C670069C003C002C0019000F31276A1123F89B8
:109C770080239000F61276A112782BFEB42010E410
:109C8700123D029000F61276A11277F37F0122EEC1
:109C970070037F01229000F61276A11277F380D22B
:06A5DD009000F31277EA82
:10A5E300E4F514F5159000F31276A1123CBC602239
:10A5F3009000F3A3E475F001123D3CA9F0FA123C7C
:10A60300BCFF3395E0FEEF2515F515EE3514F51473
:06A6130080D3AE14AF1568
:01A61900221E
:0FAD52007F411200037F431200037F4B02000377
:10A36F00E4F50D9001BCE0540312781625E025E0CA
:10A37F00127816C454F0127816C4333354C0250D16
:10A38F00F50D9001BBE0B5070D9001C0E0B50D06CE
:10A39F00E49001CBF0229001CB7401F09001C0E565
:07A3AF000DF09001BBEFF07F
:01A3B6002284
:10A44700127768746BF074AE1276597400F0740A60
:10A457001276977400F0740B1276CB7400F0A37425
:10A467000CF0126915AB0BAD0AE4FF129F179000B1
:10A47700F5EFF0E50A1277FDA3E50BF012A9B50594
:06A487000BE50BB50CDF34
:01A48D0022AC
:10A70A00127768746BF074D11276DE7400F0740AF2
:10A71A001276F57400F0A3740BF0126915AB0BAD49
:10A72A000AE4FF129F179000F5EFF0E50A1277FD91
:07A73A00A3E50BF002A9B535
:10A8BC00127768746BF074AE12770C7400F0740A33
:10A8CC001277237400F0740B1277367400F0A374B3
:10A8DC000CF0126915900120E50CF0AB0BAD0AE4FD
:04A8EC00FF029EB514
:10A2D500E4F50AF50BF50CF50DC003C0021277681D
:10A2E500746BF074D91277497400F0740A127755BB
:10A2F5007400F0740B1277617400F0740C1277948B
:10A305007400F0A3740DF0D002D00312691590010A
:0DA3150020E50DF0AB0CAD0BE4FF029EB592
:10A3B700E4F50AF50BF50CF50D127768746BF0747C
:10A3C700EA1277947400F0740A12779B7400F074A1
:10A3D7000B12779B7400F0A3740CF0126915AB0C89
:10A3E700AD0BE4FF129F178F0D7BFF7A6B79FA9005
:08A3F70000F3E50DF002A9B529
:038155009000EDAA
:108158001277707400F0A374EDF07B017A0079F067
:10816800129C37E4FB7D1FFF12A7419000F01276A6
:10817800A11293F3EE6003028296EF24FE603E1490
:10818800606714700302821614700302823F24048D
:1081980060030282961276D21277507400F0A374AC
:1081A8000FF09000ED1276A1126915AB0FAD0AE43D
:1081B800FF129BC6E50A906E9E9302828E12772A62
:1081C8001277507400F0740F1277A27400F0740BD9
:1081D8001277A27400F0A37410F09000ED1276A14B
:1081E80012829712781F02828E127768746CF0746C
:1081F800301276227400F0A37411F09000ED12761C
:10820800A1128297AB11AD0C1282AD02828E127749
:1082180068746CF0744F1276221276E57400F0A33D
:108228007412F09000ED1276A11282C31282ADFF93
:10823800E50D932F02828E127768746CF0A3747820
:108248001276231276E57400F074121277A974007E
:10825800F0740E1277A97400F0A37413F09000ED77
:108268001276A11282C3E4FF129BC6AB13AD0EE4D3
:10827800FF129BC612781FFFE50C932FFFE50D93A5
:0E8288002FFFE50E932FFD7B01E4FF12A741AF
:1082960022126915AB0FAD0AE4FF129BC6AB10ADF7
:1082A6000BE4FF129BC622E4FF129BC6E50B906E01
:1082B6009E93FFE50A932FFFE50C932F2212691573
:1082C600AB0FAD0AE4FF129BC6AB10AD0BE4FF1279
:1082D6009BC6AB11AD0CE4FF129BC6AB12AD0D22D3
:0FAD6100E4FB7D1FFF12A7417DFFE4FF02AA1153
:038A01009000EDF5
:108A04001277707400F0A374EDF07B017A0079F0B2
:108A1400129C379000F01276A11293F3EE600302D9
:108A24008B0FEF24FE6030146056146071147003D1
:108A3400028AC624046003028B0F1276D212775C7A
:108A44007400F0A3740FF09000ED1276A112691572
:108A5400AB0FAD0A028B0A12772A12775C7400F00E
:108A6400740F1277B07400F0740B1277B07400F0C6
:108A7400A37410F09000ED1276A1128B2A028B0AD7
:108A8400127768746CF074301276607400F0A3741A
:108A940011F09000ED1276A1128B10028B0A12775E
:108AA40068746CF0744F1276601276FC7400F0A354
:108AB4007412F09000ED1276A1128B10128B3B020F
:108AC4008B0A127768746CF0A3747812766112764C
:108AD400FC7400F074121277DC7400F0740E1277D8
:108AE400DC7400F0A37413F09000ED1276A1128BE5
:108AF4002AE4FF129D7FAB11AD0C128B3BE4FF12F5
:0B8B04009D7FAB13AD0EE4FF129D7FC0
:108B0F0022126915AB0FAD0AE4FF129D7FAB10ADBA
:108B1F000BE4FF129D7FAB11AD0C22126915AB0F49
:108B2F00AD0AE4FF129D7FAB10AD0B22E4FF129D47
:068B3F007FAB12AD0D2218
:10ACAA0012773D7400F0A3740AF0126915AD0AE434
:04ACBA00FF02AA11DA
:10A1E500E4F50BC3E50B94037480948050427BFF28
:10A1F5007A6C79B09000F3E50BF012A9B5E4F50A95
:10A20500AB0AAD0BE4FF129F179000F3EFF07BFF55
:10A215007A6C79D412A9B5050AE50A540F70097B41
:10A22500FF7A6C79DA12A9B5E50A70D4050B80B30B
:01A235002206
:10A09700C003C002C001127768746CF074DC1277D9
:10A0A700E37400F0740A1277E37400F0740B12770C
:10A0B700807401F074BD12778C7401F0A374BE1222
:10A0C700778D7401F0A374BFF0D001D002D00312D2
:10A0D7006915E50AC454F0FFE50B540F2FF50A1272
:06A0E70077D5FF027FBEE9
:06740B009000ED1277EA8B
:10741100E4F5127B019000F604F0A37400F0A3746C
:10742100EDF07A0079F0129C379000F01276A112FB
:1074310093F38F131277781276039000F01276A1EE
:1074410012A5DD8E0A8F0B7A6D79031275E0B50BEB
:107451000AEEB50A06750C800274E07A6D790C1299
:1074610075E0B50B0AEEB50A06750C400274E07AB8
:107471006D79151275E7B50B09EEB50A05750C2086
:10748100805D7A6D791F1275E7B50B09EEB50A05B6
:10749100750C10804A7A6D79291275EEB50B09EEDB
:1074A100B50A05750C0880377A6D79331275EEB51A
:1074B1000B09EEB50A05750C0480247A6D793B122F
:1074C10075F5B50B09EEB50A05750C0280117A6DDB
:1074D10079431275F5B50B0DEEB50A09750C0175F9
:1074E1000D0102758A7A6D794B1275FCB50B0AEEA6
:1074F100B50A06750C8002756D7A6D79551275FCA9
:10750100B50B09EEB50A05750C4080607A6D795F9F
:10751100127614B50B09EEB50A05750C20804D7A6B
:107521006D796A127614B50B09EEB50A05750C1062
:10753100803A7A6D797512761BB50B09EEB50A059D
:10754100750C0880277A6D798012761BB50B09EED0
:10755100B50A05750C0480147BFF7A6D798912A533
:10756100DDEFB50B0CEEB50A08750C02E4F50D80E4
:10757100187BFF7A6D799212A5DDEF650B7003EE32
:10758100650A705A750C01F50D127778127603EFC2
:1075910060339000F01276A1123CBCB477EB9000FE
:1075A10001123CD5B469E2900002123CD5B46ED907
:1075B100E92403F9E43AFA1293F3740E2512F8A6BA
:1075C10007051280C4E5126015240DF8E6FFC39586
:0E75D100135007AB0DAD0C12A887151280E702
:1075DF00227BFF12A5DDEF227BFF12A5DDEF227BC1
:1075EF00FF12A5DDEF227BFF12A5DDEF227BFF123D
:1075FF00A5DDEF227400F0A374EDF07B017A007922
:10760F00F0129C37227BFF12A5DDEF227BFF12A524
:03761F00DDEF227A
:10AD0D0012773D7400F0A3740AF0126915AF0A02B0
:02AD1D00ACBECA
:10A6D000E4FF1298ADC0077F011298ADC0077F025A
:10A6E0001298ADC0077F031298AD9000F6EFF0907E
:10A6F00000F5D0E0F09000F4D0E0F09000F3D0E06E
:0AA70000F07BFF7A6D799B02A9B58A
:038ECF009000ED23
:108ED2001277707400F0A374EDF07B017A0079F0E0
:108EE200129C379000F01276A11293F3EE60030207
:108EF2008FC1EF24FE602B14605314607924036049
:108F020003028FC11276D27400F0740A12780874C8
:108F120000F0A3740EF09000ED1276A1128FE00221
:108F22008FBC127768746CF0741B1276AA7400F00E
:108F3200A3740FF09000ED1276A1128FE0E4FF12FD
:108F4200AA3EE50FC454F0FBAD0B028FBC1277684A
:108F5200746CF074301276AA1277137400F0A37452
:108F620010F09000ED1276A1128FC2E510C454F0F9
:108F7200FBAD0C028FBC127768746CF0A3744F12B5
:108F820076AB1277137400F074101278087400F044
:108F9200740D1278317400F0A37411F09000ED1288
:108FA20076A1128FC2E510C454F0FBAD0CE4FF129F
:0F8FB200AA3EE511C454F0FBAD0DE4FF12AA3E38
:108FC10022126915E50EC454F0FBAD0AE4FF12AAA2
:108FD1003EE50FC454F0FBAD0BE4FF12AA3E221292
:0B8FE1006915E50EC454F0FBAD0A2238
:039F79009000ED68
:109F7C00127770129FC61276A11293F38F0A127782
:109F8C0078129FC61276A11293F38F0B7F0412AD39
:109F9C00DF7F0312ADE27F0512ABE39000EDE0F939
:109FAC00A3E0FAA3E09000F6C91277EBAB0BAD0A75
:0A9FBC007F01129E517F0502A7E607
:109FC6007400F0A374EDF07B017A0079F0129C37EF
:049FD6009000F022E5
:10A32200750B01E4F50AC3E50A9404748094805025
:10A332002874C1250AF582E43401F583E030E4157E
:10A3420074BC250AF582E43401F583E0FDE4FF12D2
:10A35200AA11E4F50B050A80CDE50B600FE4FB7D45
:0CA362001FFF12A7417DFFE4FF12AA11AB
:01A36E0022CC
:10875E00C003C002C001127768746DF074D912782C
:10876E00317400F0A3740BF0A3E4F0A37400F07462
:10877E000C1277807401F0A374C112778D7401F01E
:10878E00A374BD12778D7401F0A374C212778D7429
:10879E0001F0A374BE12778D7401F0A374C3127727
:1087AE008D7401F0A374BF12778D7401F0A374C49D
:1087BE00F0D001D002D003126915E50BC454F0FFBE
:1087CE009001B8E0FEC433333354802FFFE50C54D0
:1087DE000F2F9001CAF09001C1E09001BC1277B743
:1087EE009001C2E09001BD1277B79001C3E0FF90F7
:1087FE0001BE1277B89001C4E0FF9001BF1277B8A6
:10880E009001C512780FE4FF12A6949001C612785B
:10881E000F7F0112A6949001C712780F7F0212A645
:10882E00949001C812780F7F0312A6947B017A01EF
:10883E0079C51282E69001CA1277C5125A7E90014E
:10884E00CAE0FF1277D5127FBEE4F50AC3E50A949B
:10885E000474809480501774C1250AF582E43401A3
:10886E00F58312780FAF0A12A887050A80DEE4F5A9
:10887E0019F51AF51B751C057F0112ADBB9001CAC7
:10888E00E0FF12A36F7F0812A8F0E4FF12AC1D12D6
:10889E00A4D37B017A0179C1125E3B9001CAE090AC
:0388AE0001D1F005
:0188B10022A4
:109B55007F031298ADEFFD3395E0FCED64024C7088
:109B650002C3229001B8E0B50702D3229001B8EFF5
:109B7500F0E0C43333335480FF9001BBE0547F4F92
:109B8500F07F0112A7E69001B8E0FF1297787B01FC
:109B95007A0179C51282E69001BB1277C5125A7E09
:109BA5009001BBE0FF1277D5127FBEE4FF12AC1D1A
:109BB50012A4D37B017A0179C1125E3B12AABAD3F2
:019BC500227D
:10AC9400127768746CF0A374AB12778D7401F0A30F
:06ACA40074B9F00269150D
:05ADDA007F0102A7E665
:10A48E00E49000EDF07F4D120003906E0A12A4C905
:10A49E00A312A4C9A3A3E493FF1200037F4E1200DC
:10A4AE00039001E1E064017F3370071200037F37F0
:0AA4BE0080051200037F3512000331
:0BA4C80022E493FF120003906E0A22B2
:036EA3009000E775
:106EA6001277707400F0A374E7F07B017A0079EA38
:106EB600129C379000EA1276A112A5DD8E088F0982
:106EC6007A6E790E127110B5090DEEB508091276B3
:106ED6009E12A44702710D7A6E7910127110B509CF
:106EE6000DEEB5080912769E12A70A02710D7A6E8A
:106EF6007912127117B5090DEEB5080912769E12B0
:106F0600A8BC02710D7A6E7914127117B5090DEECF
:106F1600B5080912769E12A2D502710D7A6E7919FC
:106F260012711EB5090DEEB5080912769E12A3B7A9
:106F360002710D7A6E791E12711EB5090DEEB50835
:106F46000912769E12815502710D7A6E792312719D
:106F560025B5090AEEB5080612AD6102710D7A6E05
:106F66007929127125B5090AEEB50806127C1B02AD
:106F7600710D7A6E792F12712CB5090DEEB50809CF
:106F860012769E128A0102710D7A6E793512712C73
:106F9600B5090DEEB5080912769E12ACAA02710D5E
:106FA6007A6E793B127133B5090AEEB5080612A15D
:106FB600E502710D7A6E7941127133B50915EEB598
:106FC60008117F4012A51812769E12A09712AD5294
:106FD60002710D7A6E794612713AB5090DEEB50851
:106FE6000912769E12A09702710D7A6E794E127171
:106FF6003AB5090DEEB5080912769E12740B0271A8
:107006000D7A6E7954127141B50910EEB5080C125D
:10701600AD5212769E12AD0D02710D7A6E795A122C
:107026007141B5090AEEB50806129FDA02710D7AAA
:107036006E795F127148B5090AEEB5080612A6D038
:1070460002710D7A6E7964127148B5090DEEB508B4
:107056000912769E128ECF02710D7A6E796A1271BE
:107066004FB5090DEEB5080912769E129F79027189
:107076000D7A6E796F12714FB50924EEB50820129C
:10708600AD5212769E12875E12A32212AABAE4FFAE
:1070960012ADBBE4F51BF51CF519751A0580687A67
:1070A6006E7975127156B5090FEEB5080B12AD5211
:1070B60012769E12AC94804F7A6E797A127156B51A
:1070C600090CEEB5080812AD5212ADDA80397BFF15
:1070D6007A6E798412A5DDEF65097003EE65087096
:1070E6002612AD5212A48E900160E064017009F080
:1070F6007BFF7A6E7988800C9001607401F07BFFCB
:097106007A6E799312A9B57F019C
:10710F00227BFF12A5DDEF227BFF12A5DDEF227B95
:10711F00FF12A5DDEF227BFF12A5DDEF227BFF1211
:10712F00A5DDEF227BFF12A5DDEF227BFF12A5DD90
:10713F00EF227BFF12A5DDEF227BFF12A5DDEF22F1
:0E714F007BFF12A5DDEF227BFF12A5DDEF22F4
:10AC7D000D0A0044656275672050726F6772616DD1
:07AC8D00203E00504354007B
:049AE20041016001DD
:0EAD8E0090015CE02433F582E43401F5832269
:10A2860012AD42EF6401704690015DE0704012AC81
:10A296004F8F08300003120003E50824F8601C24E1
:10A2A600FB701F12AD8EE4F090015D04F0FB7A01A5
:10A2B600793312A95730001602ADB290015CE01452
:0EA2C600F02212AD8EE508F090015CE004F08D
:01A2D4002267
:09ADB2007BFF7AAC797D02ABC194
:0BA852009000E7EBF0A3EAF0A3E9F0B0
:10A85D009000E7E0FBA3E0FAA3E0F9123CBC60191D
:10A86D009000E7A3E475F001123D3CA9F0FA123C0B
:09A87D00BCF508FF12000380D7AE
:01A8860022AF
:10AC37003000097BFF7AAC798012A852E490015C5E
:08AC4700F0A3F0900133F022AC
:09ADBB00EF6003C20122D2012263
:0CAD9C00C200C201C222E49001E0F022DB
:10A957009000E7EBF0A3EAF0A3E9F02000219000D4
:10A96700E7E0FBA3E0FAA3E0F8AC02AD037BFF7AD4
:10A97700AC799012417CEF3395E04F7002D2002200
:08A236009000EDEEF0A3EFF043
:10A23E009000EDE07002A3E0603DE49000EFF0A32B
:10A24E00F09000EFE0FEA3E0FFE4FCFD7BD8FAF90E
:10A25E00F8D3123EE740109000F0E004F070E29068
:10A26E0000EFE004F080DA9000EEE024FFF09000C2
:07A27E00EDE034FFF080B9B0
:01A2850022B6
:10994300E49000E4F0A374C8F0A37464F012AB7B5A
:1099530012AD9C12ADE8129FDA12AC37900160E0B1
:109963006401702112A28690015DE0640170097B9D
:10997300017A017933126EA390015DE064017010E6
:1099830012AC37800B12AD42EF60051261D580F542
:10999300302207129B555002C22212AD42EF6009DA
:1099A3009000E5E0751B00F51CE51C6401451B7088
:1099B3000DF51BF51C9000E6E0751900F51AE51A84
:1099C30064014519709612A61A751900751A148048
:0199D3008B08
:10AB7B00E4F5B8F5A8758780F5D0758921F588754A
:10AB8B009852F5B175B21012AD3112AB30D299D2D9
:03AB9B00AF0022E6
:100026001010FFFFFFFFFFFFFFFFFFFFFFFFFFFFB8
:10003600FFFFFFFFFFFFFFFFFFFFFFFFFFFFFFFFCA
:10004600FFFFFFFFFFFFFFFFFFFFFFFFFFFFFFFFBA
:10005600FFFFFFFFFFFFFFFFFFFFFFFFFFFFFFFFAA
:10006600FFFFFFFFFFFFFFFFFFFFFFFFFFFFFFFF9A
:10007600FFFFFFFFFFFFFFFFFFFFFFFFFFFFFFFF8A
:10008600FFFFFFFFFFFFFFFFFFFFFFFFFFFFFFFF7A
:10009600FFFFFFFFFFFFFFFFFFFFFFFFFFFFFFFF6A
:1000A600FFFFFFFFFFFFFFFFFFFFFFFFFFFFFFFF5A
:1000B600FFFFFFFFFFFFFFFFFFFFFFFFFFFFFFFF4A
:1000C600FFFFFFFFFFFFFFFFFFFFFFFFFFFFFFFF3A
:1000D600FFFFFFFFFFFFFFFFFFFFFFFFFFFFFFFF2A
:1000E600FFFFFFFFFFFFFFFFFFFFFFFFFFFFFFFF1A
:1000F600FFFFFFFFFFFFFFFFFFFFFFFFFFFFFFFF0A
:10010600FFFFFFFFFFFFFFFFFFFFFFFFFFFFFFFFF9
:10011600FFFFFFFFFFFFFFFFFFFFFFFFFFFFFFFFE9
:10012600FFFF1010FFFFFFFFFFFFFFFFFFFFFFFFB7
:10013600FFFFFFFFFFFFFFFFFFFFFFFFFFFFFFFFC9
:10014600FFFFFFFFFFFFFFFFFFFFFFFFFFFFFFFFB9
:10015600FFFFFFFFFFFFFFFFFFFFFFFFFFFFFFFFA9
:10016600FFFFFFFFFFFFFFFFFFFFFFFFFFFFFFFF99
:10017600FFFFFFFFFFFFFFFFFFFFFFFFFFFFFFFF89
:10018600FFFFFFFFFFFFFFFFFFFFFFFFFFFFFFFF79
:10019600FFFFFFFFFFFFFFFFFFFFFFFFFFFFFFFF69
:1001A600FFFFFFFFFFFFFFFFFFFFFFFFFFFFFFFF59
:1001B600FFFFFFFFFFFFFFFFFFFFFFFFFFFFFFFF49
:1001C600FFFFFFFFFFFFFFFFFFFFFFFFFFFFFFFF39
:1001D600FFFFFFFFFFFFFFFFFFFFFFFFFFFFFFFF29
:1001E600FFFFFFFFFFFFFFFFFFFFFFFFFFFFFFFF19
:1001F600FFFFFFFFFFFFFFFFFFFFFFFFFFFFFFFF09
:10020600FFFFFFFFFFFFFFFFFFFFFFFFFFFFFFFFF8
:10021600FFFFFFFFFFFFFFFFFFFFFFFFFFFFFFFFE8
:10022600FFFFFFFF1010FFFFFFFFFFFFFFFFFFFFB6
:10023600FFFFFFFFFFFFFFFFFFFFFFFFFFFFFFFFC8
:10024600FFFFFFFFFFFFFFFFFFFFFFFFFFFFFFFFB8
:10025600FFFFFFFFFFFFFFFFFFFFFFFFFFFFFFFFA8
:10026600FFFFFFFFFFFFFFFFFFFFFFFFFFFFFFFF98
:10027600FFFFFFFFFFFFFFFFFFFFFFFFFFFFFFFF88
:10028600FFFFFFFFFFFFFFFFFFFFFFFFFFFFFFFF78
:10029600FFFFFFFFFFFFFFFFFFFFFFFFFFFFFFFF68
:1002A600FFFFFFFFFFFFFFFFFFFFFFFFFFFFFFFF58
:1002B600FFFFFFFFFFFFFFFFFFFFFFFFFFFFFFFF48
:1002C600FFFFFFFFFFFFFFFFFFFFFFFFFFFFFFFF38
:1002D600FFFFFFFFFFFFFFFFFFFFFFFFFFFFFFFF28
:1002E600FFFFFFFFFFFFFFFFFFFFFFFFFFFFFFFF18
:1002F600FFFFFFFFFFFFFFFFFFFFFFFFFFFFFFFF08
:10030600FFFFFFFFFFFFFFFFFFFFFFFFFFFFFFFFF7
:10031600FFFFFFFFFFFFFFFFFFFFFFFFFFFFFFFFE7
:10032600FFFFFFFFFFFF1010FFFFFFFFFFFFFFFFB5
:10033600FFFFFFFFFFFFFFFFFFFFFFFFFFFFFFFFC7
:10034600FFFFFFFFFFFFFFFFFFFFFFFFFFFFFFFFB7
:10035600FFFFFFFFFFFFFFFFFFFFFFFFFFFFFFFFA7
:10036600FFFFFFFFFFFFFFFFFFFFFFFFFFFFFFFF97
:10037600FFFFFFFFFFFFFFFFFFFFFFFFFFFFFFFF87
:10038600FFFFFFFFFFFFFFFFFFFFFFFFFFFFFFFF77
:10039600FFFFFFFFFFFFFFFFFFFFFFFFFFFFFFFF67
:1003A600FFFFFFFFFFFFFFFFFFFFFFFFFFFFFFFF57
:1003B600FFFFFFFFFFFFFFFFFFFFFFFFFFFFFFFF47
:1003C600FFFFFFFFFFFFFFFFFFFFFFFFFFFFFFFF37
:1003D600FFFFFFFFFFFFFFFFFFFFFFFFFFFFFFFF27
:1003E600FFFFFFFFFFFFFFFFFFFFFFFFFFFFFFFF17
:1003F600FFFFFFFFFFFFFFFFFFFFFFFFFFFFFFFF07
:10040600FFFFFFFFFFFFFFFFFFFFFFFFFFFFFFFFF6
:10041600FFFFFFFFFFFFFFFFFFFFFFFFFFFFFFFFE6
:10042600FFFFFFFFFFFFFFFF1010FFFFFFFFFFFFB4
:10043600FFFFFFFFFFFFFFFFFFFFFFFFFFFFFFFFC6
:10044600FFFFFFFFFFFFFFFFFFFFFFFFFFFFFFFFB6
:10045600FFFFFFFFFFFFFFFFFFFFFFFFFFFFFFFFA6
:10046600FFFFFFFFFFFFFFFFFFFFFFFFFFFFFFFF96
:10047600FFFFFFFFFFFFFFFFFFFFFFFFFFFFFFFF86
:10048600FFFFFFFFFFFFFFFFFFFFFFFFFFFFFFFF76
:10049600FFFFFFFFFFFFFFFFFFFFFFFFFFFFFFFF66
:1004A600FFFFFFFFFFFFFFFFFFFFFFFFFFFFFFFF56
:1004B600FFFFFFFFFFFFFFFFFFFFFFFFFFFFFFFF46
:1004C600FFFFFFFFFFFFFFFFFFFFFFFFFFFFFFFF36
:1004D600FFFFFFFFFFFFFFFFFFFFFFFFFFFFFFFF26
:1004E600FFFFFFFFFFFFFFFFFFFFFFFFFFFFFFFF16
:1004F600FFFFFFFFFFFFFFFFFFFFFFFFFFFFFFFF06
:10050600FFFFFFFFFFFFFFFFFFFFFFFFFFFFFFFFF5
:10051600FFFFFFFFFFFFFFFFFFFFFFFFFFFFFFFFE5
:10052600FFFFFFFFFFFFFFFFFFFF1010FFFFFFFFB3
:10053600FFFF00000000FFFFFFFFFFFFFFFFFFFFC1
:10054600FF000000000000FFFFFFFFFFFFFFFFFFAF
:100556000000020202020000FFFFFFFFFFFFFFFF95
:100566000000020202020000FFFFFFFFFFFFFF0084
:10057600000202000002020000FFFFFFFFFFFF0073
:10058600000202000002020000FFFFFFFFFF000062
:1005960002020000000002020000FFFFFFFF000051
:1005A600020200FFFF0002020000FFFFFF00000240
:1005B600020000FFFF000002020000FFFF00000231
:1005C6000200000000000002020000FF000002021C
:1005D60002020202020202020202000000000202FD
:1005E60002020202020202020202000000000202ED
:1005F60000000000000000000202000000000202ED
:100606000000FFFFFFFF00000202000000000202E0
:100616000000FFFFFFFF00000202000000000000D4
:100626000000FFFFFFFF00000000000010100000A8
:10063600000000000000000000000000FFFF0002B4
:1006460002020202020202020202000000FF00028F
:10065600020202020202020202020200000000007E
:100666000002020000000000020202020000FF0079
:1006760000020200FFFFFF00000202020000FF006E
:1006860000020200FFFFFF00000202020000FF005E
:1006960000020200000000000202020000FFFF004C
:1006A600000202020202020202020000FFFFFF0035
:1006B600000202020202020202020000FFFFFF0025
:1006C60000020200000000000202020000FFFF001C
:1006D60000020200FFFFFF00000202020000FF000E
:1006E60000020200FFFFFF000002020200000000FD
:1006F60000020200000000000202020200000002E6
:1007060002020202020202020202020000000002CB
:1007160002020202020202020202000000FF0000C0
:10072600000000000000000000000000FFFF1010A5
:10073600FFFFFF00000000000000000000FFFFFFB9
:10074600FFFF00000202020202020202000000FF96
:10075600FF00000202020202020202020200000080
:100766000000000202000000000000020202000079
:1007760000000202020000FFFFFF0000020200006C
:10078600000002020000FFFFFFFFFF000202000060
:10079600000002020000FFFFFFFFFFFF0000000055
:1007A600000002020000FFFFFFFFFFFFFFFFFFFF49
:1007B600000002020000FFFFFFFFFFFFFFFFFFFF39
:1007C600000002020000FFFFFFFFFF000000000024
:1007D600000002020000FFFFFFFFFF000202000010
:1007E60000000202000000FFFFFF000002020000FE
:1007F60000000202020000000000000202020000E7
:10080600FF000002020202020202020202000000CF
:10081600FFFF00000202020202020202000000FFC5
:10082600FFFFFF0000000000000000000000FFFFC7
:100836001010000000000000000000000000FFFF94
:10084600FFFF00000202020202020202020000FF93
:10085600FFFF000002020202020202020202000080
:10086600FFFF00000202000000000002020200007A
:10087600FFFF000002020000FFFF0000020200006E
:10088600FFFF000002020000FFFF0000020200005E
:10089600FFFF00000202000000000002020200004A
:1008A600FFFF00000202020202020202020000FF33
:1008B600FFFF00000202020202020202000000FF25
:1008C600FFFF000002020000020202000000FFFF1C
:1008D600FFFF000002020000000202020000FFFF0C
:1008E600FFFF00000202000000000202020000FFFB
:1008F600FFFF000002020000FF00000202020000EB
:10090600FFFF000002020000FFFF000002020200DB
:1009160000FF000002020000FFFFFF0000020202CB
:1009260000FF000000000000FFFFFFFF00000000C6
:1009360000FF101000000000FFFFFFFFFFFFFFFF9A
:10094600000000000000000000FFFFFFFFFFFF00A7
:100956000000000000000C0C0000FFFFFFFF00007D
:100966000C0C000000000C0C0C0000000000000C39
:100976000C0C000000000C0C0C0C000000000C0C11
:100986000C0C000000000C0C0C0C0C0C0C0C0C0CD1
:100996000C0C000000000C0C0C0C0C0C0C0C0C0CC1
:1009A6000C0C000000000C0C0C000C0C0C0C000CC9
:1009B6000C0C000000000C0C0C00000C0C00000CD1
:1009C6000C0C000000000C0C0C0000000000000CD9
:1009D6000C0C000000000C0C0C0000000000000CC9
:1009E6000C0C000000000C0C0C0000FFFF00000CBB
:1009F6000C0C000000000C0C0C0000FFFF00000CAB
:100A06000C0C000000000C0C0C0000FFFF00000C9A
:100A16000C0C000000000C0C0C0000FFFF00000C8A
:100A26000C0C000000000000000000FFFF000000AA
:100A3600000000001010FF00000000000000000091
:100A46000000000000FFFF00000202020202020294
:100A56000202020000FFFF0000020202020202027E
:100A66000202020000FFFF00000000000000020278
:100A76000200000000FFFFFFFFFFFFFF0000020271
:100A8600020000FFFFFFFFFFFFFFFFFF0000020263
:100A9600020000FFFFFFFFFFFFFFFFFF0000020253
:100AA600020000FFFFFFFFFFFFFFFFFF0000020243
:100AB600020000FFFFFFFFFFFFFFFFFF0000020233
:100AC600020000FFFFFFFFFFFFFFFFFF0000020223
:100AD600020000FFFFFFFF00000000FF000002020F
:100AE600020000FFFFFFFF000202000000000202FA
:100AF600020000FFFFFFFF000202020000020202E6
:100B0600020000FFFFFFFF000002020202020202D3
:100B1600000000FFFFFFFFFF0000020202020200CA
:100B26000000FFFFFFFFFFFFFF00000000000000C6
:100B360000FFFFFFFFFF1010FFFFFFFFFFFFFFFF9C
:100B4600FFFFFFFFFFFFFFFFFFFFFFFFFF000000AC
:100B560000000000FFFFFFFFFFFFFFFF0000010195
:100B660001010000FFFFFFFFFFFFFF000001010181
:100B760001010000FFFFFFFFFFFF0000010101016F
:100B8600010000FFFFFFFFFFFF000001010101015F
:100B96000000000000000000000001010101010149
:100BA6000101010101010000000101010101010132
:100BB6000101010101010000000101010101010122
:100BC6000101010101010000000001010101010113
:100BD6000101010101010000FF0000010101010105
:100BE6000000000000000000FFFF000001010101FD
:100BF600010000FFFFFFFFFFFFFFFF0000010101F3
:100C060001010000FFFFFFFFFFFFFFFF00000101E2
:100C160001010000FFFFFFFFFFFFFFFFFF000000D5
:100C260000000000FFFFFFFFFFFFFFFFFFFFFFFFCA
:100C3600FFFFFFFFFFFFFFFF1010FFFFFFFFFFFF9C
:100C4600FFFFFFFFFFFFFFFFFFFFFFFFFFFF0000AC
:100C56000000000000FFFFFFFFFFFFFFFFFF000097
:100C6600010101010000FFFFFFFFFFFFFFFF000082
:100C760001010101010000FFFFFFFFFFFFFFFF0071
:100C86000001010101010000FFFF0000000000005B
:100C9600000001010101010000FF00000101010146
:100CA6000101010101010101000000000101010132
:100CB6000101010101010101010000000101010121
:100CC6000101010101010101010000000000000015
:100CD600000001010101010000FF0000000000000A
:100CE600000001010101010000FFFFFFFFFFFF00FF
:100CF6000001010101010000FFFFFFFFFFFF0000EF
:100D060001010101010000FFFFFFFFFFFFFF0000DF
:100D1600010101010000FFFFFFFFFFFFFFFF0000D1
:100D26000000000000FFFFFFFFFFFFFFFFFFFFFFC8
:100D3600FFFFFFFFFFFFFFFFFFFF1010FFFFFFFF9B
:100D46000000000000000000FFFFFFFFFFFFFFFFA5
:100D56000000010101010000FFFFFFFFFFFFFFFF91
:100D66000000010101010000FFFFFFFFFFFFFFFF81
:100D76000000010101010000FFFFFFFFFFFFFFFF71
:100D86000000010101010000FFFFFFFF000000005D
:100D96000000010101010000000000000000010147
:100DA6000000010101010000010100000000010135
:100DB6000100010101010001010100000000010123
:100DC6000101010101010101010100000000010111
:100DD600010101010101010101010000FF00000103
:100DE6000101010101010101010000FFFFFF0000F7
:100DF60001010101010101010000FFFFFFFFFF00EA
:100E0600000101010101010000FFFFFFFFFFFFFFDD
:100E16000000010101010000FFFFFFFFFFFFFFFFD0
:100E2600FF000001010000FFFFFFFFFFFFFFFFFFC4
:100E3600FFFF00000000FFFFFFFFFFFF1010FFFF96
:100E4600FFFFFFFFFFFF0000000000000000FFFFA4
:100E5600FFFFFFFFFF000002020202020000FFFF89
:100E6600FFFFFFFF00000202020202020000FFFF76
:100E7600FFFFFF0000020202000002020000000065
:100E86000000000002020200000002020000000052
:100E96000202020202020200FF000202000000003B
:100EA6000202020202020200FF000202000000002B
:100EB6000202000000020200FF0002020000000021
:100EC600020200FF00020200FF0002020000000012
:100ED6000202000000020200FF0002020000000001
:100EE6000202020202020200FF00020200000000EB
:100EF60002020202020202000000020200000000DA
:100F06000000000000020202000002020000FFFFD3
:100F1600FFFFFFFF00000202020202020000FFFFC5
:100F2600FFFFFFFFFF000002020202020000FFFFB8
:100F3600FFFFFFFFFFFF0000000000000000101091
:100F46000000000000FFFFFFFFFFFF0000000000A1
:100F56000004040400FFFFFFFFFFFF000404040079
:100F66000004040400FFFFFFFFFFFF000404040069
:100F76000004040400FFFFFFFFFFFF000404040059
:100F86000004040400FFFFFFFFFFFF000404040049
:100F9600000404040000FFFFFFFF00000404040037
:100FA600000404040400FFFFFFFF0004040404001F
:100FB600000004040400FFFFFFFF00040404000017
:100FC60000000404040000FFFF0000040404000005
:100FD600FF0000040404000000000404040000FFF5
:100FE600FFFF000004040400000404040000FFFFE7
:100FF600FFFF000000040400000404000000FFFFDF
:10100600FFFFFF00000404040404040000FFFFFFC8
:10101600FFFFFFFF0000040404040000FFFFFFFFC2
:10102600FFFFFFFFFF00000404000000FFFFFFFFBB
:10103600FFFFFFFFFFFF0000000000FFFFFFFFFFB5
:10104600101000000000000000FFFFFFFFFFFFFF81
:10105600FFFF00000404040000FFFFFFFFFFFFFF87
:10106600FFFF00000404040000FFFFFFFFFFFFFF77
:10107600FFFF00000404040000FFFFFFFFFFFFFF67
:10108600FFFF00000404040000FFFFFFFFFFFFFF57
:10109600FFFF00000404040000FFFFFFFFFFFFFF47
:1010A600FFFF00000404040000FFFFFFFFFFFFFF37
:1010B600FFFF00000404040000FFFFFFFFFFFFFF27
:1010C600FFFF00000404040000FFFFFFFFFFFFFF17
:1010D600FFFF00000404040000FFFFFFFFFF000005
:1010E600000000000404040000FFFFFFFFFF0000F3
:1010F600000000000404040000FFFFFFFF000004DE
:1011060000000000040404000000000000000404C5
:101116000000000004040404040404040404040499
:101126000000000004040404040404040404040489
:1011360000000000000000000000000000000000A9
:1011460000001010FFFFFFFFFFFFFFFFFFFFFFFF85
:10115600FFFFFFFFFFFFFFFFFFFFFFFFFFFFFFFF99
:10116600FFFFFFFFFFFFFFFFFFFFFFFFFFFFFFFF89
:10117600FFFFFFFFFFFFFFFF00000000000000FF72
:10118600FFFFFFFFFFFFFF00000004040400000054
:10119600FFFFFFFFFFFF0000040404040404040033
:1011A60000FFFFFFFF000004040400000004040425
:1011B6000000FFFF00000004040000FF000004041C
:1011C600000000FF00000404040000FF0000040407
:1011D600040000FF00000404040000FF00000404F3
:1011E600040000FF00000404040000FF00000404E3
:1011F600040000FF00000004040000FF00000404D7
:10120600000000FFFF0000040404000000040404C2
:101216000000FFFFFFFF00000404040404040400B0
:1012260000FFFFFFFFFFFF000000040404000000B2
:10123600FFFFFFFFFFFFFFFF00000000000000FFB1
:10124600FFFFFFFF1010FFFFFFFFFFFFFFFFFFFF86
:10125600FFFFFFFFFFFFFFFFFFFFFFFFFFFFFFFF98
:10126600FFFFFFFFFFFFFFFFFFFFFFFFFFFFFFFF88
:10127600FFFFFFFFFFFFFFFFFFFF00000000000072
:101286000000FFFFFFFFFFFF00000000040404044E
:10129600000000FFFFFFFF00000004040404040434
:1012A60004040000FFFFFF00000404040000000027
:1012B6000404040000FFFF00000404040000FF0013
:1012C6000000000000FFFF0000000404040400000A
:1012D6000000FFFFFFFFFFFFFF00000404040404FB
:1012E600040000FFFFFFFFFFFFFF000000000404F3
:1012F60004040000FFFFFF0000000000FFFF0000E5
:101306000404040000FFFF000004040400000000C1
:101316000404040000FFFF000000040404040404A5
:1013260004040000FFFFFFFFFF00000004040404A4
:10133600000000FFFFFFFFFFFFFFFF0000000000AF
:101346000000FFFFFFFF101004040FFFFFFFFFFF69
:10135600FFFF0404FFFFFFFF040404FFFFFFFFFF7E
:10136600FFFF0404FFFFFFFF0404040FFFFFFFFF5E
:10137600FFFF0404FFFFFFFF040404040FFFFFFF49
:10138600FFFF0404FFFFFFFF0404FF0404FFFFFF49
:10139600FFFF0404FFFFFF040404FF04040FFFFF24
:1013A600FFFF0404FFFFFF040404FFFF0404FFFF24
:1013B600FFFF0404FFFFFF040404FFFF04040FFF04
:1013C600FFFF0404FFFFFF040404FFFFFF04040FF4
:1013D600FFFF0404FFFFFF040404FFFFFFFF0404F4
:1013E600FFFF0404FFFFFF040404FFFFFFFF0404E4
:1013F6000FFF0404FFFFFF040404FFFFFFFFFF04C9
:1014060004FF0404FFFFFF040404FFFFFFFFFFFFC8
:1014160004040404FFFFFFFF0404FFFFFFFFFFFFB8
:1014260004040404FFFFFFFF0404FFFFFFFFFFFFA8
:10143600FF040404FFFFFFFF0404FFFFFFFFFFFF9D
:10144600FF040404FFFFFFFF1010FFFFFF04040466
:101456000404040FFFFFFFFFFFFFFFFF0404040463
:1014660004040404040FFFFFFFFFFF040404FFFF4E
:10147600FFFFFF0404040FFFFFFF04040FFFFFFF3D
:10148600FFFFFFFF040404FFFFFF0404FFFFFFFF4D
:10149600FFFFFFFFFF04040FFFFF040FFFFFFFFF27
:1014A600FFFFFFFFFF040404FFFF04FFFFFFFFFF32
:1014B600FFFFFFFFFFFF0404FFFF04FFFFFFFFFF27
:1014C600FFFFFFFFFFFF0404FFFF04FFFFFFFFFF17
:1014D600FFFFFFFFFFFF0404FFFF04FFFFFFFFFF07
:1014E600FFFFFFFFFFFF0404FFFF040FFFFFFFFFE7
:1014F600FFFFFFFFFF040404FFFF0404FFFFFFFFDD
:10150600FFFFFFFFFF04040FFFFF04040FFFFFFFB1
:10151600FFFFFFFF040404FFFFFFFF040404FFFFB7
:10152600FFFFFF0404040FFFFFFFFFFF0404040492
:1015360004040404040FFFFFFFFFFFFFFFFF040482
:101546000404040FFFFFFFFFFFFF1010FFFFFFFF64
:10155600FF04040FFFFFFFFFFFFFFFFFFFFFFFFF7B
:10156600FF040404FFFFFFFFFFFFFFFFFFFFFFFF76
:10157600FFFF0404FFFFFFFFFFFFFFFFFFFFFFFF6B
:10158600FFFF04040FFFFFFFFFFFFFFFFFFFFFFF4B
:10159600FFFFFF0404FFFFFFFFFFFFFFFFFFFFFF4B
:1015A600FFFFFF04040FFFFFFFFFFFFFFFFFFFFF2B
:1015B600FFFFFF040404FFFFFFFFFF04FFFFFFFF21
:1015C600FFFFFFFF0404FFFFFFFFFF04FFFFFFFF16
:1015D600FFFFFFFF04040FFFFFFFFF04FFFFFFFFF6
:1015E600FFFFFFFF040404FFFFFF0404FFFFFFFFEC
:1015F600FFFFFFFFFF04040FFFFF0404FFFFFFFFD1
:10160600FFFFFFFFFF04040FFFFF0404FFFFFFFFC0
:10161600FFFFFFFFFFFF0404FF04040FFFFFFFFFB0
:10162600FFFFFFFFFFFF04040F0404FFFFFFFFFFA0
:10163600FFFFFFFFFFFF0404040404FFFFFFFFFF9B
:10164600FFFFFFFFFFFFFF0404040FFF1010FFFF63
:101656000404FFFF04040FFFFFFF04040404FF0457
:101666000404FFFF04040FFFFFFF04040404FF0447
:10167600040FFFFF04040FFFFFFF04040FFFFF0426
:1016860004FFFFFF04040FFFFFFF04040FFF040421
:101696000FFFFFFF04040FFFFFFF04040FFF040406
:1016A6000FFFFFFF04040FFFFFFF04040FFF0404F6
:1016B600FFFFFFFF04040FFFFFFF04040FFF040FEB
:1016C600FFFFFFFF04040FFFFFFF04040FFF04FFEB
:1016D600FFFFFFFF04040FFFFFFF04040FFF04FFDB
:1016E600FFFFFFFF04040FFFFFFF04040FFF0FFFC0
:1016F600FFFFFFFF04040FFFFFFF04040FFFFFFFC0
:10170600FFFFFFFF04040FFFFFFF04040FFFFFFFAF
:10171600FFFFFFFF04040FFFFFFF04040FFFFFFF9F
:10172600FFFFFFFF04040FFFFFFF04040FFFFFFF8F
:10173600FFFFFFFF04040FFFFFFF04040404FFFF85
:10174600FFFFFFFF04040FFFFFFF04040404101053
:1017560004040404040FFFFFFFFFFFFF0404040456
:1017660004040404040404FFFFFFFFFF040404044C
:10177600FFFFFFFFFF040404FFFFFFFF04040FFF4A
:10178600FFFFFFFFFFFF04040FFFFFFF04040FFF2F
:10179600FFFFFFFFFFFF040404FFFFFF04040FFF2A
:1017A600FFFFFFFFFFFFFF0404FFFFFF04040FFF1F
:1017B600FFFFFFFFFFFFFF04040FFFFF04040FFFFF
:1017C600FFFFFFFFFFFFFF04040FFFFF04040404F5
:1017D600FFFFFFFFFFFFFF04040FFFFF04040404E5
:1017E600FFFFFFFFFFFFFF04040FFFFF04040FFFCF
:1017F600FFFFFFFFFFFFFF0404FFFFFF04040FFFCF
:10180600FFFFFFFFFFFF040404FFFFFF04040FFFB9
:10181600FFFFFFFFFFFF04040FFFFFFF04040FFF9E
:10182600FFFFFFFFFF040404FFFFFFFF04040FFF99
:1018360004040404040404FFFFFFFFFF040404047B
:1018460004040404040FFFFFFFFFFFFF0404040465
:10185600101004040404040404040FFFFFFFFFFF38
:10186600FF0404040404040404040FFFFFFFFF0440
:101876000404FFFFFFFFFFFFFFFFFFFFFFFF04045E
:10188600040FFFFFFFFFFFFFFFFFFFFFFF0404043E
:10189600FFFFFFFFFFFFFFFFFFFFFFFFFF04040F38
:1018A600FFFFFFFFFFFFFFFFFFFFFFFFFF0404FF38
:1018B600FFFFFFFFFFFFFFFFFFFFFFFF04040FFF18
:1018C600FFFF040404040404040FFFFF04040FFFD5
:1018D600FFFF040404040404040FFFFF04040FFFC5
:1018E600FFFFFFFFFFFFFFFFFFFFFFFF04040FFFE8
:1018F600FFFFFFFFFFFFFFFFFFFFFFFFFF0404FFE8
:10190600FFFFFFFFFFFFFFFFFFFFFFFFFF04040FC7
:10191600FFFFFFFFFFFFFFFFFFFFFFFFFF040404C2
:10192600FFFFFFFFFFFFFFFFFFFFFFFFFFFF0404B7
:10193600040F04040404040404040FFFFFFFFF045F
:10194600040404040404040404040FFFFFFFFFFF5F
:10195600FF0410100404040404FFFFFFFFFFFFFF51
:10196600FFFFFFFF0404040404040FFFFFFFFFFF53
:10197600FFFFFFFFFFFFFFFF0404040FFFFFFFFF52
:10198600FFFFFFFFFFFFFFFFFFFF04040FFFFFFF47
:10199600FFFFFFFFFFFFFFFFFFFF040404FFFFFF42
:1019A600FFFFFFFFFFFFFFFFFFFFFF04040FFFFF27
:1019B600FFFFFFFFFFFFFFFFFFFFFF04040FFFFF17
:1019C600FFFFFFFFFFFFFFFFFFFFFF04040FFFFF07
:1019D600FFFFFFFFFFFFFFFFFFFFFF04040FFFFFF7
:1019E600FFFFFFFFFFFFFFFFFFFFFF04040FFFFFE7
:1019F600FFFFFFFFFFFFFFFFFFFFFF04040FFFFFD7
:101A0600FFFFFFFFFFFFFFFFFFFF040404FFFFFFD1
:101A1600FFFFFFFFFFFFFFFFFFFF04040FFFFFFFB6
:101A2600FFFFFFFFFFFFFFFF04040404FFFFFFFFAC
:101A3600FFFFFFFF0404040404040FFFFFFFFFFF82
:101A4600FFFFFFFF0404040404FFFFFFFFFFFFFF87
:101A5600FFFFFFFF1010FFFFFFFFFF040404040455
:101A6600040FFFFFFFFFFFFFFFFF0404040404044D
:101A7600040404FFFFFFFFFFFF040404FFFFFFFF52
:101A8600FF040404FFFFFFFF040404FFFFFFFFFF42
:101A9600FFFF04040FFFFFFF04040FFFFFFFFFFF1C
:101AA600FFFF04040FFFFFFFFF0404FFFFFFFFFF1C
:101AB600FFFFFFFFFFFFFFFFFF0404040404FFFF17
:101AC600FFFFFFFFFFFFFFFFFFFF04040404040402
:101AD6000404FFFFFFFFFFFFFFFFFFFFFF040404F7
:101AE6000404040FFFFFFFFFFFFFFFFFFFFFFFFFE1
:101AF600FF0404040FFFFF04040FFFFFFFFFFFFFB7
:101B0600FFFF04040FFFFFFF0404FFFFFFFFFFFFBB
:101B1600FFFF04040FFFFFFF04040FFFFFFFFFFF9B
:101B2600FFFF04040FFFFFFF04040404FFFFFFFF91
:101B3600FF040404FFFFFFFFFF040404040404047D
:101B4600040404FFFFFFFFFFFFFFFF040404040477
:101B5600040FFFFFFFFF1010FF04040FFFFFFFFF3E
:101B6600FFFFFF0404040404FF04040FFFFFFFFF4C
:101B7600FF04040404040404FF04040FFFFFFFFF32
:101B860004040404FFFFFFFFFF04040FFFFFFFFF31
:101B960004040FFFFFFFFFFFFF04040FFFFFFF0416
:101BA600040FFFFFFFFFFFFFFF04040FFFFFFF040B
:101BB60004FFFFFFFFFFFFFFFF04040FFFFFFF040B
:101BC60004FFFFFFFFFFFFFFFF04040FFFFF0404F6
:101BD60004FFFFFFFFFFFFFFFF04040FFFFF0404E6
:101BE6000FFFFFFFFFFF0404FF04040FFFFFFF04C6
:101BF60004FFFFFFFFFF0404FF04040FFFFFFF04C1
:101C060004FFFFFFFFFFFFFFFF04040FFFFFFF04BA
:101C1600040FFFFFFFFFFFFFFF04040FFFFFFFFF9F
:101C260004040FFFFFFFFFFFFF04040FFFFFFFFF8A
:101C360004040404FFFFFFFFFF04040FFFFFFFFF80
:101C4600FF04040404040404FF04040FFFFFFFFF61
:101C5600FFFFFFFF0404040410100404FFFFFFFF4E
:101C6600FFFFFF04040FFFFFFFFF0404040FFFFF45
:101C7600FFFFFF040404FFFFFFFFFF0404040FFF40
:101C8600FFFFFF0404040FFFFFFFFFFFFF0404FF35
:101C9600FFFFFF04040404FFFFFFFFFFFF04040F20
:101CA600FFFFFF040404040FFFFFFFFFFFFFFFFF1A
:101CB600FFFFFF0404FF04040FFFFFFFFFFFFFFF0A
:101CC600FFFFFF0404FFFF0404FFFFFFFFFFFFFF0A
:101CD600FFFFFF0404FFFF04040F040404040404CC
:101CE600FFFFFF0404FFFFFF0404040404040404CC
:101CF600FFFFFF0404FFFFFF0404FFFFFF040404CB
:101D0600FFFFFF0404FFFFFFFF04FFFFFF040404BF
:101D1600FFFFFF0404FFFFFFFFFFFFFFFF040404B4
:101D2600FFFFFF0404FFFFFFFFFFFFFF040404049F
:101D3600FFFFFF0404FFFFFFFFFF040404040FFF7F
:101D4600FFFFFF0404FFFFFFFFFF0404FFFFFFFF89
:101D5600FFFFFF0404FFFFFFFFFF1010FFFFFF045C
:101D660004FFFFFFFFFFFFFFFF040404FFFFFF0464
:101D760004FFFFFFFFFFFFFF04040404FFFFFF044F
:101D860004FFFFFFFFFFFFFF04040404FFFFFF043F
:101D960004FFFFFFFFFFFF040404FF04FFFFFF042F
:101DA60004FFFFFFFFFFFF04040FFF04FFFFFF0414
:101DB60004FFFFFFFFFFFF0404FFFFFFFFFFFF0419
:101DC60004FFFFFFFFFF04040FFFFFFFFFFFFF04F9
:101DD60004FFFFFFFFFF04040FFFFFFFFFFFFF04E9
:101DE60004FFFFFFFF040404FFFFFFFF0FFFFF04D4
:101DF60004FFFFFFFF04040404040404040FFF04AB
:101E060004FFFFFFFF040404040404040404FF04A5
:101E160004FFFFFF04040FFFFFFFFFFF04040F048E
:101E260004FFFFFF0404FFFFFFFFFFFFFF0404049E
:101E360004FFFF040404FFFFFFFFFFFFFFFF04048E
:101E460004FFFF04040FFFFFFFFFFFFFFFFF040473
:101E560004FFFF0404FFFFFFFFFFFFFF1010FFFF5B
:101E6600FFFFFFFFFFFF0404FFFFFFFFFFFF0FFF62
:101E7600FFFFFFFFFFFF0404FFFFFFFFFFFF0FFF52
:101E8600FFFFFFFFFFFF0404FFFFFFFFFFFF04FF4D
:101E9600FFFFFFFFFFFF0404FFFFFFFFFFFF040F2D
:101EA600FFFFFFFFFFFF0404FFFFFFFFFFFF040428
:101EB600FFFFFFFFFFFF0404FFFFFFFFFFFF040418
:101EC6000FFFFFFFFFFF0404FFFFFFFFFFFF0404F8
:101ED6000FFFFFFFFFFF0404FFFFFFFFFFFFFF04ED
:101EE60004FFFFFFFFFF0404FFFFFFFFFFFF0404E3
:101EF600040FFFFFFFFF0404FFFFFFFFFFFF0404C3
:101F06000404FFFFFFFF0404FFFFFFFFFFFFFFFFC7
:101F160004040FFFFFFF0404FFFFFFFFFFFFFFFFA7
:101F260004040FFFFFFF0404FFFFFFFFFFFFFFFF97
:101F3600FF0404FFFFFF0404FFFFFFFFFFFFFFFF97
:101F4600FF04040FFFFF0404040404040404FFFF59
:101F5600FFFF0404FFFF0404040404040404101037
:101F6600FFFFFFFFFF000000000000FFFFFFFFFF75
:101F7600FFFFFF00000002020202000000FFFFFF59
:101F8600FFFF000002020202020202020000FFFF3F
:101F9600FF0000020202000000000002020000FF33
:101FA600FF0002020200FFFFFFFF0000020200FF27
:101FB600FF00020202020000FFFFFF00000000FF18
:101FC600FF000002020202020000FFFFFFFFFFFF08
:101FD600FFFF0000000002020202000000FFFFFFF8
:101FE600FFFFFFFFFF00000002020202020000FFE7
:101FF600FFFFFFFFFFFFFF0000000202020200FFDB
:10200600FF00000000FFFFFFFF000000020200FFCC
:10201600FF0002020000FFFFFFFF0000020200FFB8
:10202600FF0000020200000000000002020000FFA4
:10203600FFFF000002020202020202020000FFFF8E
:10204600FFFFFF00000002020202020000FFFFFF86
:10205600FFFFFFFFFF00000000000000FFFFFFFF83
:10206600101000000000000000000000000000004A
:10207600000000010101010101010101010101014D
:10208600010000010101010101010101010101013C
:10209600010000010101010101010101010101012C
:1020A6000100000000000000010101010000000025
:1020B6000000FFFFFFFFFF000101010100FFFFFF1E
:1020C600FFFFFFFFFFFFFF000101010100FFFFFF10
:1020D600FFFFFFFFFFFFFF000101010100FFFFFF00
:1020E600FFFFFFFFFFFFFF000101010100FFFFFFF0
:1020F600FFFFFFFFFFFFFF000101010100FFFFFFE0
:10210600FFFFFFFFFFFFFF000101010100FFFFFFCF
:10211600FFFFFFFFFFFFFF000101010100FFFFFFBF
:10212600FFFFFFFFFFFFFF000101010100FFFFFFAF
:10213600FFFFFFFFFFFFFF000101010100FFFFFF9F
:10214600FFFFFFFFFFFFFF000101010100FFFFFF8F
:10215600FFFFFFFFFFFFFF000000000000FFFFFF83
:10216600FFFF1010FFFFFFFFFFFFFFFFFFFFFFFF57
:10217600FFFFFFFFFFFFFFFFFFFFFFFFFFFFFFFF69
:10218600FFFFFFFFFFFFFFFFFFFFFFFFFFFFFFFF59
:10219600FFFFFFFFFFFFFFFFFFFFFFFFFFFFFFFF49
:1021A600FFFFFFFFFFFFFFFFFFFFFFFFFFFFFFFF39
:1021B600FFFFFFFFFFFFFFFFFFFFFFFFFFFFFFFF29
:1021C600FFFFFFFFFFFFFFFFFFFFFFFFFFFFFFFF19
:1021D600FFFFFFFFFFFFFFFFFFFFFFFFFFFFFFFF09
:1021E600FFFFFFFF1010FFFFFFFFFFFFFFFFFFFFD7
:1021F600FFFFFFFFFFFFFFFFFFFFFFFFFFFFFFFFE9
:10220600FFFFFFFFFFFFFFFFFFFFFFFFFFFFFFFFD8
:10221600FFFFFFFFFFFFFFFFFFFFFFFFFFFFFFFFC8
:10222600FFFFFFFFFFFFFFFFFFFFFFFFFFFFFFFFB8
:10223600FFFFFFFFFFFFFFFFFFFFFFFFFFFFFFFFA8
:10224600FFFFFFFFFFFFFFFFFFFFFFFFFFFFFFFF98
:10225600FFFFFFFFFFFFFFFFFFFFFFFFFFFFFFFF88
:10226600FFFFFFFFFFFF1010FFFFFFFFFFFFFFFF56
:10227600FFFFFFFFFFFFFFFFFFFFFFFFFFFFFFFF68
:10228600FFFFFFFFFFFFFFFFFFFFFFFFFFFFFFFF58
:10229600FFFFFFFFFFFFFFFFFFFFFFFFFFFFFFFF48
:1022A600FFFFFFFFFFFFFFFFFFFFFFFFFFFFFFFF38
:1022B600FFFFFFFFFFFFFFFFFFFFFFFFFFFFFFFF28
:1022C600FFFFFFFFFFFFFFFFFFFFFFFFFFFFFFFF18
:1022D600FFFFFFFFFFFFFFFFFFFFFFFFFFFFFFFF08
:1022E600FFFFFFFFFFFFFFFF1010FFFFFFFFFFFFD6
:1022F600FFFFFFFFFFFFFFFFFFFFFFFFFFFFFFFFE8
:10230600FFFFFFFFFFFFFFFFFFFFFFFFFFFFFFFFD7
:10231600FFFFFFFFFFFFFFFFFFFFFFFFFFFFFFFFC7
:10232600FFFFFFFFFFFFFFFFFFFFFFFFFFFFFFFFB7
:10233600FFFFFFFFFFFFFFFFFFFFFFFFFFFFFFFFA7
:10234600FFFFFFFFFFFFFFFFFFFFFFFFFFFFFFFF97
:10235600FFFFFFFFFFFFFFFFFFFFFFFFFFFFFFFF87
:10236600FFFFFFFFFFFFFFFFFFFF1010FFFFFFFF55
:10237600FFFFFFFFFFFFFFFFFFFFFFFFFFFFFFFF67
:10238600FFFFFFFFFFFFFFFFFFFFFFFFFFFFFFFF57
:10239600FFFFFFFFFFFFFFFFFFFFFFFFFFFFFFFF47
:1023A600FFFFFFFFFFFFFFFFFFFFFFFFFFFFFFFF37
:1023B600FFFFFFFFFFFFFFFFFFFFFFFFFFFFFFFF27
:1023C600FFFFFFFFFFFFFFFFFFFFFFFFFFFFFFFF17
:1023D600FFFFFFFFFFFFFFFFFFFFFFFFFFFFFFFF07
:1023E600FFFFFFFFFFFFFFFFFFFFFFFF1010FFFFD5
:1023F600FF0000FFFFFFFFFFF000000FFFFFFFFFE2
:1024060000222200FFFFFFFF00222200FFFFFFF055
:10241600022002200FFFFFF0022002200FFFFF0024
:102426002200002200FFFF00220FF02200FFF00230
:10243600200FF002200FF00220000002200F0022E1
:1024460022222222220000222222222222000022EE
:10245600000000002200002200FFFF0022000022F0
:1024660000FFFF002200000000FFFF000000101028
:1024760000000000000000FF022222222222000F9C
:102486000222222222222000000220000022220014
:10249600F00220FFF0022200F00220FFF0022200EC
:1024A600F00220000022200FF0022222222200FF4A
:1024B600F0022222222200FFF00220000022200F3A
:1024C600F00220FFF0022200F00220FFF0022200BC
:1024D60000022000002222000222222222222000C4
:1024E600022222222222000F00000000000000FF2C
:1024F60010101010101010101010101010101010D6
:062506001010101010106F
:10A55C00123CD5FF9001DFE02F900120F0229000FB
:10A56C00FFE0FBA3E0FAA3E0F922F09000FFE0FB90
:10A57C00A3E475F001123D3CA9F0FA023CBC90003A
:10A58C00F6E0FF3395E0FED3EF9400EE6480948008
:01A59C00229C
:06ADD400E49001DFF02213
:0B7838009000F7EFF0A3ECF0A3EDF0E0
:107843009000F7E0FF25E0F0E02408F09000FEF060
:107853009000F8E0FEA3E07803C333CE33CED8F92B
:10786300F0EE9000F8F09001E1E0640170499000BF
:10787300F8E0FEA3E0FF4E602EEF7803CEC313CEF5
:1078830013D8F9FF64074E601EEF640D4E6018EFC6
:1078930064154E6012EF64084E600CEF64104E6086
:1078A30006EF64194E70089000F9E0240A800E90E8
:1078B30000F9E0240680069000F9E02408F0900027
:1078C300F8E03400F0AF037E007C017D02123D142A
:1078D30074262FF974003EFA9000FF74FFF0A3EAB8
:1078E300F0A3E912A5769000FA12A5769000FBF0BA
:1078F300E4A3F09000FAE0FF9000FCE0C39F400394
:107903000279D2E4A3F09000FBE0FF9000FDE0C316
:107913009F40030279B312A56A123CBC12A55FE42F
:10792300FB7D02FF129EB512A56A90000112A55CB1
:107933007B011279FC90000212A55C7B021279FC98
:1079430090000312A55C7B03127A0F9001207480D0
:10795300F07B04127A0F900100E475F004123D26C7
:107963009000FEE0900120F07B05127A17A3E090CF
:107973000120F07B07127A17E07E007802C333CE32
:1079830033CED8F91279D3127A2220E7FA9000F88D
:10799300E025E025E044081279D3127A2220E7FAA1
:1079A3009000FEE004F09000FDE02404F002790969
:1079B3009000F7E09000FEF09000F9E004F070060C
:0F79C3009000F8E004F09000FCE004F00278F689
:1079D20022900120F07B097D02E4FF129EB57B0A12
:1079E2007D02E4FF129F17EF543F4480900120F084
:1079F2007B0A7D02E4FF129EB5227D02E4FF129E05
:107A0200B59000FFE0FBA3E0FAA3E0F9227D02E4D7
:107A1200FF129EB5227D02E4FF129EB59000F8226D
:0B7A22007B0A7D02E4FF129F17EF2299
:0B9DEA009000F0EFF0A3EDF0A3EBF011
:109DF500A312A56D12000E9000F6EFF03395E0C3A7
:109E05006480948040459000F0E054016401703313
:109E15009000F1E0FFA3E0FD7C00A312A56D123CCC
:109E2500BCFB1278389000F6E014F09000F4E4756D
:109E3500F001123D269000F1E02402F012A58A50AF
:0B9E4500CF800512A58A50FB12ADE88B
:019E500022EF
:10AB56000500000600000700000800000900000AC2
:10AB660000001F000020000B000C000D000E000F5F
:05AB7600101112120095
:039AE6000121005B
:108FEC009001BCE075F003A42456F974AB35F0FA8B
:108FFC009000F374FFF0A3229000EDE0FBA3E0FAE5
:10900C00A3E0F9229001BCE0FF7E007401A80708E0
:10901C00229001B8E0FD7C007B0122FF9001C9E0A9
:10902C00FDEF5D2274ABF07462A3F09001B8E0FB2D
:10903C002274ABF0A37475F022900001123CD5544D
:10904C0002640222900001123CD55401640122906A
:10905C000001123CD5541064102274ABF0A374625E
:10906C00F02274ABF0A3747322123CBC5402640261
:10907C0022123CBC5401640122123CBC54106410FA
:10908C0022123CBC540C1313543FF50A227B017D75
:10909C000F7C00227B017D127C0022EAF0A3E9F018
:1090AC007B0F22EAF0A3E9F07B12229001B8E0FDDD
:1090BC007C007B02E422EAF0A3E9F07B01227D191B
:1090CC007B057C007F3A22EBF0A3EAF0A3E9F022C7
:1090DC0074ABF0A3746B22EAF0A3E9F0E4FB2290EA
:0C90EC000001023CD57B017A0179C12211
:10A19300128B4512ADD47F0412ADDF7F0312ADE203
:10A1A300E4F50AC3E50A9406748094805009AF0A63
:10A1B30012A1CF050A80EC7F0112A7E67FFF12AD43
:0BA1C300E27F0812A1CFE49001B9F088
:10A1CE002212ABE39000F1E4F0A37426F07B5AE484
:07A1DE00FDFCFF1295932226
:105E3B009000ED1290D37F0212ADDF7FFF12ADE227
:105E4B009001BBE0123FD85E80115E94215EB922B7
:105E5B005EDE315F1A335F53345F8C415FE3915FDA
:105E6B00F6A16024A2604BB16094B360CFB461071C
:105E7B00C1000061631290041290756003026163AC
:105E8B00128FEC1290E302601F1290041290757047
:105E9B0006128FEC1261BE12900412904560030241
:105EAB0061639001BD128FEF1290A702601F1290D9
:105EBB00041290757006128FEC126164129004122A
:105ECB00904560030261639001BD128FEF1290E366
:105EDB000260461290041290757006128FEC1261DC
:105EEB00BE129004129045700C9001BD128FEF12F0
:105EFB0090A71261CD12900490000212904860039B
:105F0B000261639001BE128FEF1290A702604612DE
:105F1B0090041290757006128FEC1261641290044B
:105F2B0012904570099001BD128FEF1261AF129064
:105F3B000490000212904860030261639001BE124C
:105F4B008FEF1290A70260461290041290757006A4
:105F5B00128FEC126182129004129045700990011D
:105F6B00BD128FEF1261AF12900490000212904895
:105F7B0060030261639001BE128FEF1290A7026162
:105F8B00021290041290757006128FEC126182123D
:105F9B00900412904570109001BD128FEF1290E398
:105FAB007D3E7F01129DEA129004900002129048F0
:105FBB00700C9001BE128FEF1290A71261CD129050
:105FCB000490000312904860030261639001BF12BA
:105FDB008FEF1290A7026046129004129075600327
:105FEB00026163128FEC1290C280291290041290FE
:105FFB0075700D128FEC1290C27D297F01129DEAF4
:10600B0012900412904560030261639001BD128FE0
:10601B00EF1290AF7D2902615E12900412907570A1
:10602B0006128FEC126173129004129045600302FA
:10603B0061639001BD128FEF1290C27D3E02615ED3
:10604B00129004129075700D128FEC1290C27D2974
:10605B007F01129DEA12900412904570109001BDC1
:10606B00128FEF1290AF7D147F01129DEA129004F4
:10607B0090000212904860030261639001BE128F80
:10608B00EF1290AF7D3E02615E129004129075701C
:10609B0006128FEC126173129004129045700990E6
:1060AB0001BD128FEF1261911290049000021290B9
:1060BB004860030261639001BE128FEF1290AF7DB7
:1060CB003E02615E1290041290757006128FEC12F4
:1060DB0061A012900412904570099001BD128FEFD0
:1060EB00126191129004900002129048706A900114
:1060FB00BE128FEF1290AF7D1402615E12900412EC
:10610B0090757006128FEC1261A0129004129045DC
:10611B0070109001BD128FEF1290C27D3E7F011265
:10612B009DEA12900490000212904870109001BEEC
:10613B00128FEF1290AF7D147F01129DEA12900423
:10614B0090000312904870109001BF128FEF1290C5
:10615B00AF7D3E7F01129DEA22EAF0A3E9F0E4FB5A
:10616B007D147F01129DEA22EAF0A3E9F07B017D09
:10617B00147F01129DEA22EAF0A3E9F0E4FB7D14FF
:10618B007F01129DEA22EAF0A3E9F07B017D3E7FBD
:10619B0001129DEA22EAF0A3E9F07B017D147F0155
:1061AB00129DEA22EAF0A3E9F0E4FB7D3E7F0112A7
:1061BB009DEA22EAF0A3E9F0E4FB7D297F01129D21
:0A61CB00EA227D147F01129DEA22F2
:08ADC4009001BAE04480F02286
:10A61A007B787D01E4FF129F17EF540FFF9001C969
:10A62A00F09001BAE06F6024D2227B31E4FDFF1280
:10A63A009F17EF547F900120F07B31E4FDFF129EBB
:0DA64A00B512429C9001C9E09001BAF022C7
:06715D009000ED1290D33A
:107163007F4112ADDF9001BBE0123FD871971171DF
:10717300C32172272272963172F333734A347197A3
:107183009171C3A17227A27296B172F3B3734AB419
:10719300000073A89000ED12900712908D60030217
:1071A30072A112901D127402129007123CBC30E5BA
:1071B300030272D19001B9E060030273A80272EB7B
:1071C3009000ED12900712908D60101273A9128F28
:1071D300FBEAF0E91290357D1C801D12901D12739D
:1071E300F9129007123CBC30E5151273C7128FFCDD
:1071F3001290DC1290367D017F01129DEA800E9081
:1072030001B9E0700812901D7F011294CE9000ED39
:107213001290071290EB1290909001B860030273E2
:107223005B02728E9000ED12900712908D60111226
:1072330073A9128FFBEAF0A3E91290367D1C801D1F
:1072430012901D1273F9129007123CBC30E515120F
:1072530073C7128FFC1290DC1290367D017F0112EE
:107263009DEA800E9001B9E0700812901D7F011213
:1072730094CE9000ED1290071290EB12909060085C
:107283007B02E4FDFC02735E9001B81290207F46FE
:107293000273A59000ED12900712908D6021127376
:1072A300D6E50A25E0FFE433FE746B2FF974AB3E99
:1072B300128FFBEAF0A3E91290367D310273951227
:1072C300901D127402129007123CBC30E511127328
:1072D300D6128FFC1290DC1290367D0102739590CA
:1072E30001B9E060030273A812901D7F010273A528
:1072F3009000ED12900712908D60151290B71273E3
:10730300E5128FFBEAF0A3E91290367D1C02739518
:1073130012901D7F1C1294CE9000ED129007123C28
:10732300BC30E5151290B7FF1294CE128FFC129069
:10733300DC1290367D010273959001B9E0706612FC
:10734300901D7F010273A59000ED1290071290EB40
:1073530012909060179001B81290BA1273E5128FD1
:10736300FBEAF0A3E91290367D46802612901D7F3A
:10737300461294CE9000ED129007123CBC30E517F4
:107383001290B7FF1294CE128FFC1290DC1290363B
:107393007D017F01029DEA9001B9E0700812901D02
:0573A3007F011294CEF1
:1073A800229001B8E0FD7C007B02E4FF1294CEE558
:1073B8000A25E0FFE433FE746B2FF974AB3E22908C
:1073C80001B8E0FD7C007B02E4FF1294CE2290011C
:1073D800B8E0FD7C007B02E4FF1294CE22FF1294F9
:1073E800CEE50A25E0FFE433FE746B2FF974AB3E5B
:1073F800227F1C1294CE9000ED227F311294CE9001
:0374080000ED2272
:104816009000ED1290D37F0C12ADDF9001BBE01239
:104826003FD848561148732148A22248D831492812
:104836003349713449C3414A3E914A5BA14A99A220
:104846004ADAB14B3DB34B9CB44C02C100004C8CD0
:104856009000ED12900712907D700A128FFC129054
:1048660066E4024A537B01E4FDFC024A949000EDA3
:1048760012900712907D700D128FFC1290667D2C9F
:10488600124CE08003124CCB9000ED129007129070
:10489600507003024A84129099024A949000ED12D5
:1048A600900712907D700B128FFC129066124C8D41
:1048B6008003124CA19000ED129007129050700ADE
:1048C600128FFC129066E4024ACC7B01E4FDFC02E6
:1048D6004AD59000ED12900712907D700D128FFC54
:1048E600129066E4FB124CFB8003124CCB9000ED59
:1048F600129007129050700B128FFC129066124C99
:10490600C180081290997F171294CE9000ED1290F4
:10491600079000021290537003024A2D12909902DA
:104926004AD59000ED12900712907D700B128FFC05
:10493600129066124C8D8003124CA19000ED1290DD
:1049460007129050700B128FFC129066124CB780B3
:1049560003124CAC9000ED12900790000212905397
:104966007003024A2D129099024AD59000ED1290DA
:104976000712907D700B128FFC129066124C978076
:1049860003124CE89000ED129007129050700B1233
:104996008FFC129066124CB78003124CAC9000ED5F
:1049A600129007900002129053700B128FFC129017
:1049B600667B0F024BF27B017D0F024BFB9000EDF5
:1049C60012900712907D700B128FFC129066124C9B
:1049D600978003124CE89000ED12900712905070E9
:1049E6000D128FFC1290667D41124CE0800A7B010D
:1049F600E4FDFC7F411294CE9000ED1290079000EA
:104A060002129053700B128FFC129066124CC180EA
:104A1600081290997F171294CE9000ED129007908D
:104A26000003129053700B128FFC1290667B0F02DC
:104A36004ACD129099024AD59000ED129007129035
:104A46007D700D128FFC1290669001B8E0FB8036E7
:104A560012901D80399000ED12900712907D700B18
:104A6600128FFC129030124CFB800812901D7F2C86
:104A76001294CE9000ED129007129050700D128F86
:104A8600FC1290667B0F7D2C024C7F1290997F2C36
:104A9600024C899000ED12900712907D700B128FD8
:104AA600FC129030124CF3800812901D7F1712945E
:104AB600CE9000ED1290071290507010128FFC12DB
:104AC60090669001B8E0FB7D41024C7F12901D7FFD
:104AD60041024C899000ED12900712907D700F12E2
:104AE6008FFC1290307D2C7F01129DEA8008129077
:104AF6001D7F2C1294CE9000ED12900712905070EC
:104B06000B128FFC129066124CD680081290A07F72
:104B1600171294CE9000ED12900790000212905357
:104B2600700D128FFC1290667B127D41024C7F1233
:104B360090A07F41024C899000ED12900712907D63
:104B4600700B128FFC129030124CF3800812901DDD
:104B56007F171294CE9000ED129007129050700BB2
:104B6600128FFC129030124D03800812901D7F4167
:104B76001294CE9000ED129007900002129053709E
:104B86000D128FFC1290667B127D41024C7F1290B3
:104B9600A07F41024C899000ED12900712907D7023
:104BA6000F128FFC1290307D177F01129DEA80084C
:104BB60012901D7F171294CE9000ED12900712905E
:104BC60050700B128FFC129030124D038008129019
:104BD6001D7F411294CE9000ED12900790000212B4
:104BE6009053700D128FFC1290667B127D17024C4B
:104BF6007F7B017D127C007F17024C899000ED12AD
:104C0600900712907D700F128FFC1290307D177FE7
:104C160001129DEA800812901D7F171294CE900013
:104C2600ED129007129050700F128FFC1290307D8B
:104C3600417F01129DEA800812901D7F411294CE99
:104C46009000ED129007900002129053700B128F95
:104C5600FC129066124CD680081290A07F17129410
:104C6600CE9000ED129007900003129053700F1231
:104C76008FFC1290667B127D417F01029DEA1290A5
:104C8600A07F411294CE22E4FB7D177F01129DEA9C
:104C960022E4FB7D177F01129DEA227B01E4FDFCE5
:104CA6007F171294CE227B01E4FDFC7F411294CE45
:104CB60022E4FB7D417F01129DEA227B0F7D177F57
:104CC60001129DEA227B01E4FDFC7F2C1294CE2288
:104CD6007B127D177F01129DEA22E4FB7F01129D64
:104CE600EA227B01E4FDFC7F171294CE227D177F1A
:104CF60001129DEA227D2C7F01129DEA227D417FD1
:054D060001129DEA22EC
:104D0B009000ED1290D37F0212ADDF9001BBE01249
:104D1B003FD84D48114D5D214D92224DC6314E1459
:104D2B00334E5A344EAD414F20914F44A24F89B16F
:104D3B004FF0B3505AB450BFC1000051509000ED2A
:104D4B001290071290857002802C7B01E4FDFC020F
:104D5B004F3F9000ED129007129085700B128FFC55
:104D6B0012906E1251CD80031251999000ED12905A
:104D7B0007129085700B128FFC12906EF0E4024FAD
:104D8B0036129099024F3F9000ED129007129085CA
:104D9B007008128FFC125151800312516D9000ED6F
:104DAB0012900712905B700B128FFC12906EF0E456
:104DBB00024F7B7B01E4FDFC024F849000ED1290CF
:104DCB0007129085700B128FFC12906E1251CD80D2
:104DDB00031251999000ED12900712905B700B1219
:104DEB008FFC12906E12518E80081290997F1F12B9
:104DFB0094CE9000ED12900790000212905E70031B
:104E0B00024F0E129099024F849000ED12900712F0
:104E1B0090857008128FFC125151800312516D90C6
:104E2B0000ED12900712905B700B128FFC12906EBC
:104E3B0012518380031251789000ED12900790006D
:104E4B000212905E7003024F0E129099024F8490E3
:104E5B0000ED129007129085700B128FFC12906E62
:104E6B0012516280031251BA9000ED12900712900A
:104E7B005B700B128FFC12906E12518380031251D8
:104E8B00789000ED12900790000212905E700C1259
:104E9B008FFC12906EF07B0F0250AF7B017D0F02E7
:104EAB0050B89000ED129007129085700B128FFC8A
:104EBB0012906E12516280031251BA9000ED129053
:104ECB000712905B700B128FFC12906E1251A48024
:104EDB00031251D89000ED12900790000212905ED1
:104EEB00700B128FFC12906E12518E8008129099DB
:104EFB007F1F1294CE9000ED12900790000312903A
:104F0B005E700C128FFC12906EF07B0F024F7C12B6
:104F1B009099024F849000ED1290071290857011BA
:104F2B00128FFC12906EF09001B8E0FB7D340251B1
:104F3B004312901D7F3402514D9000ED12900712D9
:104F4B009085700E128FFC12906E1290361251C516
:104F5B00800812901D7F1F1294CE9000ED129007C7
:104F6B0012905B7011128FFC12906EF09001B8E0F2
:104F7B00FB7D4902514312901D7F4902514D900018
:104F8B00ED1290071290857012128FFC12906E1218
:104F9B0090367D347F01129DEA800812901D7F347C
:104FAB001294CE9000ED12900712905B700B128F43
:104FBB00FC12906E1251AF80081290A07F1F1294BA
:104FCB00CE9000ED12900790000212905E700E12C0
:104FDB008FFC12906EF07B127D490251431290A010
:104FEB007F4902514D9000ED129007129085700E83
:104FFB00128FFC12906E1290361251C580081290CF
:10500B001D7F1F1294CE9000ED12900712905B70D3
:10501B0012128FFC12906E1290367D497F01129DF9
:10502B00EA800812901D7F491294CE9000ED1290E9
:10503B000790000212905E700E128FFC12906EF0B1
:10504B007B127D490251431290A07F4902514D9032
:10505B0000ED1290071290857012128FFC12906E59
:10506B001290367D1F7F01129DEA800812901D7FE2
:10507B001F1294CE9000ED12900712905B700B12E2
:10508B008FFC12906E1251A480031251D89000ED38
:10509B0012900790000212905E700E128FFC12900D
:1050AB006EF07B127D1F0251437B017D127C007FD2
:1050BB001F02514D9000ED12900712908570121245
:1050CB008FFC12906E1290367D1F7F01129DEA802D
:1050DB000812901D7F1F1294CE9000ED12900712B4
:1050EB00905B7012128FFC12906E1290367D497F7E
:1050FB0001129DEA800812901D7F491294CE9000F8
:10510B00ED12900790000212905E700B128FFC1242
:10511B00906E1251AF80081290A07F1F1294CE9008
:10512B0000ED12900790000312905E7010128FFC2E
:10513B0012906EF07B127D497F01029DEA1290A0C6
:10514B007F491294CE2274ABF0A37473F0E4FB7D11
:10515B001F7F01129DEA22F0E4FB7D1F7F01129D50
:10516B00EA227B01E4FDFC7F1F1294CE227B01E43B
:10517B00FDFC7F491294CE22F0E4FB7D497F0112A6
:10518B009DEA22F07B0F7D1F7F01129DEA227B019E
:10519B00E4FDFC7F341294CE22F0E4FB7D497F01C9
:1051AB00129DEA22F07B127D1F7F01129DEA227B6A
:1051BB0001E4FDFC7F1F1294CE227D1F7F01129D07
:1051CB00EA22F0E4FB7D347F01129DEA227B01E4AD
:0851DB00FDFC7F491294CE2275
:10429C009001BBE0123FD842CB1142EE22433331A6
:1042AC0043A433440B344479414508914531A2452C
:1042BC007EB145EEB34658B446D3C10000475F12F9
:1042CC0090108005C333CE33CED8F9129027600BF3
:1042DC00128FFC12903D7B0D0245217B057D0D025A
:1042EC00452A1290108005C333CE33CED8F91290E4
:1042FC0027600B128FFC12903D1247BC80031247B3
:10430C00789001BD1290138005C333CE33CED8F90B
:10431C00129027600B128FFC12903D7B0D02456EA4
:10432C007B057D0D0245771290108005C333CE338B
:10433C00CED8F91290276011128FFC12903D7B079A
:10434C007D257F01129DEA80057D071248029001B0
:10435C00BD1290138005C333CE33CED8F9129027FB
:10436C00600D128FFC12903D7B151247DC800312FE
:10437C0047C69001BE1290138005C333CE33CED8FE
:10438C00F9129027600B128FFC12903D7B150245A1
:10439C006E7B057D150245771290108005C333CED8
:1043AC0033CED8F9129027600B128FFC12903D126D
:1043BC0047BC80031247789001BD1290138005C34F
:1043CC0033CE33CED8F9129027600B128FFC12909B
:1043DC003D1247D280031247849001BE1290138085
:1043EC0005C333CE33CED8F9129027600B128FFC55
:1043FC0012903D7B1502456E7B057D1502457712AB
:10440C0090108005C333CE33CED8F9129027600BB1
:10441C00128FFC12903D124790800312476090015E
:10442C00BD1290138005C333CE33CED8F91290272A
:10443C00600D128FFC12903D7D3A1247FA80087D78
:10444C000D1290CC1294CE9001BE1290138005C325
:10445C0033CE33CED8F9129027600B128FFC12900A
:10446C003D7B150246C37B057D150246CC12901090
:10447C008005C333CE33CED8F9129027600B128F40
:10448C00FC12903D12479080031247609001BD12C0
:10449C0090138005C333CE33CED8F9129027600B1E
:1044AC00128FFC12903D1247D28003124784900168
:1044BC00BE1290138005C333CE33CED8F912902799
:1044CC006011128FFC12903D7B157D107F01129DA7
:1044DC00EA80031247C69001BF1290138005C333C4
:1044EC00CE33CED8F9129027600B128FFC12903D70
:1044FC007B1502456E7B057D150245771290108069
:10450C0005C333CE33CED8F9129027600D128FFC31
:10451C0012903D7B107D250247547B057D107C005D
:10452C007F2502475C1290108005C333CE33CED862
:10453C00F9129027600D128FFC12903D7B101247E0
:10454C00DC800312479A9001BD1290138005C3338F
:10455C00CE33CED8F9129027600D128FFC12903DFD
:10456C007B107D3A0247547B057D107C007F3A021C
:10457C00475C1290108005C333CE33CED8F912901D
:10458C00276011128FFC12903D7B087D257F011254
:10459C009DEA80057D081248029001BD129013809F
:1045AC0005C333CE33CED8F9129027600B128FFC93
:1045BC0012903D12480C80031247E49001BE1290F9
:1045CC00138005C333CE33CED8F9129027600D1269
:1045DC008FFC12903D7B197D3A0247541290CA020F
:1045EC00475C1290108005C333CE33CED8F91290AD
:1045FC0027600D128FFC12903D7D101247FA80033C
:10460C0012479A9001BD1290138005C333CE33CE5E
:10461C00D8F9129027600B128FFC12903D1247F0C4
:10462C0080031247B09001BE1290138005C333CEA5
:10463C0033CED8F9129027600D128FFC12903D7B6F
:10464C00197D3A0247541290CA02475C12901080AE
:10465C0005C333CE33CED8F9129027600B128FFCE2
:10466C0012903D1247A6800312476C9001BD129028
:10467C00138005C333CE33CED8F9129027601112B4
:10468C008FFC12903D7B107D3A7F01129DEA800BCE
:10469C007B057D107C007F3A1294CE9001BE129067
:1046AC00138005C333CE33CED8F9129027600D1288
:1046BC008FFC12903D7B197D100247547B057D19B0
:1046CC007C007F1002475C1290108005C333CE3300
:1046DC00CED8F9129027600B128FFC12903D124726
:1046EC00A6800312476C9001BD1290138005C33352
:1046FC00CE33CED8F9129027600B128FFC12903D5E
:10470C001247F080031247B09001BE12901380053F
:10471C00C333CE33CED8F9129027600B128FFC1214
:10472C00903D12480C80031247E49001BF12901385
:10473C008005C333CE33CED8F9129027600F128F79
:10474C00FC12903D7B197D3A7F01029DEA1290CAC2
:10475C001294CE227B057D077C007F101294CE2212
:10476C007B057D087C007F101294CE227B057D0D8D
:10477C007C007F101294CE227B057D077C007F3A53
:10478C001294CE227B077D107F01129DEA227B05BD
:10479C007D107C007F101294CE227B087D107F014F
:1047AC00129DEA227B057D087C007F3A1294CE2272
:1047BC007B0D7D107F01129DEA227B057D157C000F
:1047CC007F101294CE227B077D3A7F01129DEA2244
:1047DC007D107F01129DEA227B057D197C007F10E4
:1047EC001294CE227B087D3A7F01129DEA227B0D2A
:1047FC007F01129DEA227B057C007F251294CE223C
:0A480C007B197D107F01129DEA2246
:10A4D300E4FF12ABE39001B9E024FE60110470299C
:10A4E30012A50D128FFC74ABF0A37465800C12A53A
:10A4F3000D128FFC74ABF0A374681290367D017F4C
:10A5030001129DEA7FFF12ADE2227F0312ADE27FCB
:05A513000412ADDF227F
:10AABA00E4FF12ABE39001C1E05402640270121287
:10AACA0090F11248161290F1124D0B1290F1127178
:09AADA005D12ADC4E4FF02A7E621
:10250C0000000000000000000000000000000000BF
:10251C0000000000000000000000000000000000AF
:10252C00003E007E00FE01CE038E7F8E7F8E738E6A
:10253C00738E738E7F8E7F8E01CE00FE007E003EEA
:10254C0000000000020006000E001E003FFE7FFE91
:10255C007FFE3FFE1E000E00060002000000000081
:10256C000000000000400060007000787FFC7FFEDF
:10257C007FFE7FFC007800700060004000000000CF
:10258C00000003C003C003C003C003C003C003C0EA
:10259C0003C03FFC1FF80FF007E003C001800000F0
:1025AC0003C003C007E007E00E700E701C381C3827
:1025BC00381C381C7FFE7FFE700E700E700E700E75
:1025CC007FF87FFC383E381E381E381E383C3FF8EA
:1025DC003FF8383C381E381E381E383E7FFC7FF8DA
:1025EC000FF81FFC3C1C380E780E700E700070003B
:1025FC0070007000700E700E380E3C1C1FFC0FF833
:10260C007FF07FF07078703C703C703C70787FF09D
:10261C007FE0778073C071E070F07078703C701E52
:10262C0000006006700E781E7C3E7FFE77EE73CE47
:10263C00718E700E700E700E700E700E700E700E1D
:10264C0000001FF81FF800E000E000E000E000E0F0
:10265C0000E000E000E070E079E03FC01F800F0078
:10266C0000000000000003C007800F001E003FFCAC
:10267C003FFC1E000F00078003C00000000000009C
:10268C0000000000000003C001E000F000783FFCF7
:10269C003FFC007800F001E003C0000000000000E7
:1026AC0000000000018001800180018011881998D0
:1026BC001DB81FF80FF007E003C0018000000000F8
:1026CC00003E007E00FE01CE038E7F8E7F8E738EC9
:1026DC00738E738E7F8E7F8E01CE00FE007E003E49
:1026EC00700E700E700E700E700E700E781E381C00
