:030000000285CEA8
:0C85CE00787FE4F6D8FD75812602861542
:1096B900E004F0E0C394507480948022E0248FF594
:0796C90082E43400F5832266
:10977200D2BCD2AC758DF4D28EE49000DFF0A3F0AF
:0197820022C4
:109783009000DFE0FFA3E0B507037F00227F012203
:1096A200C2AC9000DF1296C5E0FF9000DF1296B9BF
:0696B2004002E4F0D2AC1E
:0196B800228F
:080003003099FD8F99C299228A
:030023000294BB89
:1094BB00C0E0C083C082C0D0309815C2989000E045
:1094CB001296C5E599F09000E01296B94002E4F0CF
:0994DB00D0D0D082D083D0E03261
:1095A200C291D2917590F6C2B6C2B722AF038F8034
:1095B200D293C293229000F1E0FBA3E0FAA3E0F978
:0195C2002286
:10961E00E490011EF07EFFC2AF1295A68E80D2930B
:0C962E00C2938F801295A27580FFD2AF0E
:01963A00220D
:10963B00C2AFAF0512961E1295A61295AE90011DE4
:0C964B00E0F5801295A27580FFD2AF22DE
:10917100AC03C2AFAF0512961E1295A6AF040C1236
:1091810095B09000EFE0FBA3E475F00112342CA937
:10919100F0FA1233ACF580C291D2919000F2E01452
:0C91A100F070D91295A67580FFD2AF22A5
:0295E200AC07D4
:1095E400C2AFAF0512961E1295A61295AE7580FFF6
:0B95F400C292AF80D2921295A6D2AFB7
:0195FF002249
:108C17009000F1EBF0A3EAF0A3E9F01295B7123454
:108C270042F47003E5F0F46038123442FBAAF0EA2C
:108C3700FDE4FF1295E21295B79000021233C5FCCE
:108C47006F6012123442FBAAF0EAFD90011DECF0AE
:108C5700E4FF12963B9000F2E475F003123416809D
:028C6700BA222F
:01981700222E
:105FBE002562782025627820256278000A3C523EC0
:105FCE0025303262785B25303262785D3D25303285
:105FDE006278002562782025627800256278202577
:105FEE00627820256278202562782000253162783B
:105FFE002025316278202531627820005265616457
:10600E004173696342797465203D3D202562782095
:10601E000A0063682562643A25626420006368257D
:10602E0062643A2562642063682562643A2562647C
:10603E00200063682562643A2562642063682562E5
:10604E00643A2562642063682562643A256264209E
:10605E000063682562643A25626420636825626481
:10606E003A2562642063682562643A25626420637F
:10607E00682562643A256264200063682562643A8A
:10608E002562642063682562643A25626420636831
:10609E002562643A2562642063682562643A25624B
:1060AE00642063682562643A256264200025626478
:1060BE0020000A203D3D3D3D3D3D3D3D20504147A8
:1060CE00452025623278203D3D3D3D3D3D3D3D3DE7
:1060DE003D3D3D3D0A002562327809000A0025311A
:1060EE0062782025316278206368253162782063DA
:1060FE0068253162782063682531627820636825CF
:10610E003162782000656E726563616C6C00656E3D
:10611E00667265657A6500656E686D6972726F721A
:10612E0000656E766D6972726F7200656E656E686F
:10613E00616E636500656E626C616E6B00656E62AA
:10614E006F756E6400656E626C696E6B0064697368
:10615E00726563616C6C00646973667265657A65FD
:10616E0000646973686D6972726F72006469737628
:10617E006D6972726F7200646973656E68616E63C9
:10618E006500646973626C616E6B00646973626F43
:10619E00756E6400646973626C696E6B003D3D3DA3
:1061AE003D3D20466F726D6174203A206368303D2C
:1061BE005B2562785D206368313D5B2562785D20EA
:1061CE006368323D5B2562785D206368333D5B25F5
:1061DE0062785D203D3D3D3D3D0A002562782025DB
:1061EE0062782063682562783A2562782063682594
:1061FE0062783A2562782063682562783A2562785B
:10620E002063682562783A256278200033333200A5
:10621E00260028002900627573770062757372007C
:10622E00616D697800616D757465006164756D707E
:10623E0000616761696E00616C69766500627573F5
:10624E00727400766D697800766D69786572720089
:10625E0076617474720079766D697800696E69740E
:10626E000076646574007673657466007373747279
:10627E00006873636F6D006D6F646500646973739E
:0F628E0063726F6C6C0076657200010204081079
:048A4D0041019C0047
:106A0E00A3F0A3E4F0A37400F0A3740AF0A3E4F0DF
:106A1E00A37400F0A3740FF0A3E4F0A37400F0A32A
:106A2E00740BF0A3E4F0A37400F0A37410F0A3E4CD
:106A3E00F0A37400F0740CA3F0A3E4F0A322A3F06F
:106A4E00A3E4F0A37400F0A3740AF0A3E4F0A3741B
:106A5E0000F0A3740FF0A3E4F0A37400F0A3740B82
:106A6E00F0A3E4F0A37400F0A37410F0A3E4F0A379
:106A7E007400F0740CA3F0A3E4F0A3229000E4E001
:106A8E00FBA3E0FAA3E0F922A3F0A3E4F0A37400C1
:106A9E00F0A3740AF0A3E4F0A37400F0A3740EF054
:106AAE00A3E4F0A37400F0740BA3F0A3E4F0A3220C
:106ABE009000F374FFF0A37460F07420A3F0A3E4CD
:106ACE00F0A3227400F0A37411F0A3E4F0A37400F9
:106ADE00F0740DA3F0A3E4F0A3227400F0A37411DC
:106AEE00F0A3E4F0A37400F0740DA3F0A3E4F0A3FC
:106AFE00227400F0A3740FF0A3E4F0A37400F074FA
:106B0E000CA3F0A3E4F0A3229000F374FFF0A3749F
:106B1E0060F0742BA3F0A3E4F0A3229000F374FFB3
:106B2E00F0A37460F074BBA3F0A3E4F0A32274008E
:106B3E00F0740AA3F0A3E4F0A3227400F0740AA385
:106B4E00F0A3E4F0A3229000F374FFF0A322EBF085
:106B5E00A3EAF0A3E9F09000F37401F0A322A3F0EE
:106B6E00A37401F0A37401F07487A3F0A37401F071
:106B7E00A322A3F0A3E4F0A322A3F0A3E4F0A322A4
:106B8E00A3F0A3E4F0A322A3F0A3E4F0A322A3F0C6
:106B9E00A3E4F0A322FFE02490F582E43401F58310
:106BAE00EFF022E0FF9000EE7401F0A37401F0A369
:106BBE00748CF07B017A01798722A3F0A3E4F0A311
:106BCE0022A3F0A3E4F0A322EBF0A3EAF0A3E9F0F2
:106BDE0022900001E475F00102346D7BFF7A5F793B
:106BEE00CA9000EDF022A3F0A3E4F0A322E054013A
:106BFE00FB7D2022250DF50DA3E0540322E50B901D
:106C0E00629893FFE50A932F221236590233ACA3F2
:066C1E00F0A3E4F0A32244
:108843009000F0126BD6A3126A8D126C177002FFA0
:10885300229000F3126A8D126C17B4200B9000F370
:10886300126A8D126BDF80E99000F3126A8D123663
:1088730059C003C002C0019000F0126A8D1236790C
:1088830080239000F3126A8D126C17FEB42010E45B
:108893001233F29000F3126A8D126BDF7F0122EE26
:1088A30070037F01229000F3126A8D126BDF80D276
:0690BA009000F0126BD6DD
:1090C000E4F514F5159000F0126A8D1233AC6022AD
:1090D0009000F0A3E475F00112342CA9F0FA1233D9
:1090E000ACFF3395E0FEEF2515F515EE3514F514BC
:0690F00080D3AE14AF15A1
:0190F6002257
:0F9793007F411200037F431200037F4B0200034C
:108E9500E4F50D900187E05403126C0225E025E00E
:108EA500126C02C454F0126C02C4333354C0250D45
:108EB500F50D900186E0B5070D90018BE0B50D0627
:108EC500E4900196F0229001967401F090018BE5F3
:078ED5000DF0900186EFF0A3
:018EDC002273
:108F2500126B54745FF074BE126A457400F0740AD3
:108F3500126A837400F0740B126AB77400F0A3749C
:108F45000CF0125D25AB0BAD0AE4FF1295E2900023
:108F5500EFEFF0E50A126BE9A3E50BF0129223059A
:068F65000BE50BB50CDF6B
:018F6B0022E3
:10925C00126B54745FF074E1126ACA7400F0740AF1
:10926C00126AE17400F0A3740BF0125D25AB0BAD28
:10927C000AE4FF1295E29000EFEFF0E50A126BE9B9
:07928C00A3E50BF0029223A1
:1093A100126B54745FF074BE126AF87400F0740AA0
:1093B100126B0F7400F0740B126B227400F0A37423
:1093C1000CF0125D2590011DE50CF0AB0BAD0AE42C
:0493D100FF02963BC6
:108DFB00E4F50AF50BF50CF50DC003C002126B542C
:108E0B00745FF074E9126B357400F0740A126B41E5
:108E1B007400F0740B126B4D7400F0740C126B80B9
:108E2B007400F0A3740DF0D002D003125D259001F5
:0D8E3B001DE50DF0AB0CAD0BE4FF02963B06
:108EDD00E4F50AF50BF50CF50D126B54745FF07497
:108EED00FA126B807400F0740A126B877400F074C0
:108EFD000B126B877400F0A3740CF0125D25AB0C94
:108F0D00AD0BE4FF1295E28F0D7BFF7A60790A902D
:088F1D0000EDE50DF0029223C6
:0372E0009000EA31
:1072E300126B5C7400F0A374EAF07B017A0079ED11
:1072F300128843E4FB7D1FFF1292939000ED126A04
:107303008D1282F6EE6003027421EF24FE603E14B8
:1073130060671470030273A11470030273CA240418
:107323006003027421126ABE126B3C7400F0A374F2
:107333000FF09000EA126A8D125D25AB0FAD0AE4DF
:10734300FF1287D2E50A90629893027419126B16A2
:10735300126B3C7400F0740F126B8E7400F0740B9C
:10736300126B8E7400F0A37410F09000EA126A8D11
:10737300127422126C0B027419126B547460F07441
:1073830040126A0E7400F0A37411F09000EA126ABE
:107393008D127422AB11AD0C127438027419126B76
:1073A300547460F0745F126A0E126AD17400F0A311
:1073B3007412F09000EA126A8D12744E127438FF40
:1073C300E50D932F027419126B547460F0A3748843
:1073D300126A0F126AD17400F07412126B95740062
:1073E300F0740E126B957400F0A37413F09000EA1E
:1073F300126A8D12744EE4FF1287D2AB13AD0EE402
:10740300FF1287D2126C0BFFE50C932FFFE50D9350
:0E7413002FFFE50E932FFD7B01E4FF129293F5
:1074210022125D25AB0FAD0AE4FF1287D2AB10AD7E
:107431000BE4FF1287D222E4FF1287D2E50B9062A0
:107441009893FFE50A932FFFE50C932F22125D25F8
:10745100AB0FAD0AE4FF1287D2AB10AD0BE4FF1204
:1074610087D2AB11AD0CE4FF1287D2AB12AD0D2266
:0F97A200E4FB7D1FFF1292937DFFE4FF029439D9
:0379FB009000EA0F
:1079FE00126B5C7400F0A374EAF07B017A0079EDEF
:107A0E001288439000ED126A8D1282F6EE60030228
:107A1E007B09EF24FE6030146056146071147003FD
:107A2E00027AC024046003027B09126ABE126B48FC
:107A3E007400F0A3740FF09000EA126A8D125D25A7
:107A4E00AB0FAD0A027B04126B16126B487400F07A
:107A5E00740F126B9C7400F0740B126B9C7400F01C
:107A6E00A37410F09000EA126A8D127B24027B043C
:107A7E00126B547460F07440126A4C7400F0A3746C
:107A8E0011F09000EA126A8D127B0A027B04126BCF
:107A9E00547460F0745F126A4C126AE87400F0A3BA
:107AAE007412F09000EA126A8D127B0A127B350274
:107ABE007B04126B547460F0A37488126A4D126AC0
:107ACE00E87400F07412126BC87400F0740E126B2E
:107ADE00C87400F0A37413F09000EA126A8D127B42
:107AEE0024E4FF1288B3AB11AD0C127B35E4FF1208
:0B7AFE0088B3AB13AD0EE4FF1288B399
:107B090022125D25AB0FAD0AE4FF1288B3AB10ADAD
:107B19000BE4FF1288B3AB11AD0C22125D25AB0F3C
:107B2900AD0AE4FF1288B3AB10AD0B22E4FF128853
:067B3900B3AB12AD0D22FA
:1096FD00126B297400F0A3740AF0125D25AD0AE413
:04970D00FF0294398A
:108CBB00E4F50BC3E50B94037480948050427BFF67
:108CCB007A6079C09000EDE50BF0129223E4F50A7F
:108CDB00AB0AAD0BE4FF1295E29000EDEFF07BFFDA
:108CEB007A6079E4129223050AE50A540F70097B26
:108CFB00FF7A6079EA129223E50A70D4050B80B3F0
:018D0B002245
:108B6D00C003C002C001126B547460F074EC126B40
:108B7D00CF7400F0740A126BCF7400F0740B126B8B
:108B8D006C7401F07488126B787401F0A3748912FF
:108B9D006B797401F0A3748AF0D001D002D0031266
:108BAD005D25E50AC454F0FFE50B540F2FF50A12AD
:068BBD006BC1FF027149CB
:0667F7009000EA126BD6CF
:1067FD00E4F5127B019000F304F0A37400F0A37490
:10680D00EAF07A0079ED1288439000ED126A8D124C
:10681D0082F68F13126B641269EF9000ED126A8D80
:10682D001290BA8E0A8F0B7A6179131269CCB50B5F
:10683D000AEEB50A06750C800268CC7A61791C12D5
:10684D0069CCB50B0AEEB50A06750C400268CC7A18
:10685D006179251269D3B50B09EEB50A05750C20C2
:10686D00805D7A61792F1269D3B50B09EEB50A05F2
:10687D00750C10804A7A6179391269DAB50B09EE17
:10688D00B50A05750C0880377A6179431269DAB556
:10689D000B09EEB50A05750C0480247A61794B124B
:1068AD0069E1B50B09EEB50A05750C0280117A6127
:1068BD0079531269E1B50B0DEEB50A09750C017529
:1068CD000D010269767A61795B1269E8B50B0AEE02
:1068DD00B50A06750C800269597A6179651269E805
:1068ED00B50B09EEB50A05750C4080607A61796FBC
:1068FD00126A00B50B09EEB50A05750C20804D7AAC
:10690D0061797A126A00B50B09EEB50A05750C109E
:10691D00803A7A617985126A07B50B09EEB50A05D9
:10692D00750C0880277A617990126A07B50B09EE0C
:10693D00B50A05750C0480147BFF7A617999129064
:10694D00BAEFB50B0CEEB50A08750C02E4F50D8027
:10695D00187BFF7A6179A21290BAEF650B7003EE86
:10696D00650A705A750C01F50D126B641269EFEF23
:10697D0060339000ED126A8D1233ACB477EB90005A
:10698D00011233C5B469E29000021233C5B46ED959
:10699D00E92403F9E43AFA1282F6740E2512F8A6E8
:1069AD0007051280C4E5126015240DF8E6FFC395A6
:0E69BD00135007AB0DAD0C12936C151280E752
:1069CB00227BFF1290BAEF227BFF1290BAEF227B51
:1069DB00FF1290BAEF227BFF1290BAEF227BFF12CD
:1069EB0090BAEF227400F0A374EAF07B017A00797D
:1069FB00ED128843227BFF1290BAEF227BFF12909D
:036A0B00BAEF22BD
:10976000126B297400F0A3740AF0125D25AF0A028F
:0297700097114F
:1091E900E4FF128D5CC0077F01128D5CC0077F020E
:1091F900128D5CC0077F03128D5C9000F0EFF09038
:1092090000EFD0E0F09000EED0E0F09000EDD0E07B
:0A921900F07BFF7A6179AB0292232B
:037EC9009000EA3C
:107ECC00126B5C7400F0A374EAF07B017A0079ED1C
:107EDC001288439000ED126A8D1282F6EE60030256
:107EEC007FBBEF24FE602B14605314607924036075
:107EFC0003027FBB126ABE7400F0740A126BF47436
:107F0C0000F0A3740EF09000EA126A8D127FDA0270
:107F1C007FB6126B547460F0742B126A967400F076
:107F2C00A3740FF09000EA126A8D127FDAE4FF124C
:107F3C009491E50FC454F0FBAD0B027FB6126B5459
:107F4C007460F07440126A96126AFF7400F0A374A5
:107F5C0010F09000EA126A8D127FBCE510C454F048
:107F6C00FBAD0C027FB6126B547460F0A3745F12FD
:107F7C006A97126AFF7400F07410126BF47400F0BC
:107F8C00740D126C1D7400F0A37411F09000EA12C1
:107F9C006A8D127FBCE510C454F0FBAD0CE4FF12EB
:0F7FAC009491E511C454F0FBAD0DE4FF129491D4
:107FBB0022125D25E50EC454F0FBAD0AE4FF1294CA
:107FCB0091E50FC454F0FBAD0BE4FF129491221218
:0B7FDB005D25E50EC454F0FBAD0A224A
:038AB0009000EA49
:108AB300126B5C128AFD126A8D1282F68F0A126B98
:108AC30064128AFD126A8D1282F68F0B7F0412984C
:108AD300117F031298147F051295C39000EAE0F901
:108AE300A3E0FAA3E09000F3C9126BD7AB0BAD0A76
:0A8AF3007F011289857F05029301BF
:108AFD007400F0A374EAF07B017A0079ED128843DB
:048B0D009000ED22C5
:108E4800750B01E4F50AC3E50A9404748094805014
:108E580028748C250AF582E43401F583E030E415A2
:108E68007487250AF582E43401F583E0FDE4FF12F6
:108E78009439E4F50B050A80CDE50B600FE4FB7D22
:0C8E88001FFF1292937DFFE4FF1294394B
:018E940022BB
:10776000C003C002C001126B547461F074E9126C62
:107770001D7400F0A3740BF0A3E4F0A37400F07484
:107780000C126B6C7401F0A3748C126B797401F0A1
:10779000A37488126B797401F0A3748D126B7974E1
:1077A00001F0A37489126B797401F0A3748E126BCB
:1077B000797401F0A3748A126B797401F0A3748F49
:1077C000F0D001D002D003125D25E50BC454F0FFC8
:1077D000900183E0FEC433333354802FFFE50C5413
:1077E0000F2F900195F090018CE0900187126BA310
:1077F00090018DE0900188126BA390018EE0FF90C4
:107800000189126BA490018FE0FF90018A126BA492
:10781000900190126BFBE4FF1291AD900191126BFD
:10782000FB7F011291AD900192126BFB7F021291CE
:10783000AD900193126BFB7F031291AD7B017A0136
:1078400079901278B4900195126BB11255D09001D5
:1078500095E0FF126BC1127149E4F50AC3E50A9481
:1078600004748094805017748C250AF582E43401E6
:10787000F583126BFBAF0A12936C050A80DEE4F508
:1078800019F51AF51B751C057F011297ED900195EE
:10789000E0FF128E957F081293D5E4FF12965712DF
:1078A0008F6C7B017A01798C125236900195E090B1
:0378B000019CF048
:0178B30022B2
:108761007F03128D5CEFFD3395E0FCED64024C70EC
:1087710002C322900183E0B50702D322900183EF67
:10878100F0E0C43333335480FF900186E0547F4FCF
:10879100F07F01129301900183E0FF1289E97B01CF
:1087A1007A0179901278B4900186126BB11255D08A
:1087B100900186E0FF126BC1127149E4FF129657D6
:1087C100128F6C7B017A01798C1252361294E4D3A8
:0187D1002285
:1096E700126B547460F0A374BB126B797401F0A30E
:0696F7007484F0025D2501
:05980C007F0102930141
:10946600E49000EAF07F4D12000390621A1294878E
:10947600A3129487A3A3E493FF1200037F4E020076
:0194860003E2
:0A948700E493FF12000390621A2222
:03655F009000E4C5
:10656200126B5C7400F0A374E4F07B017A0079E7AB
:106572001288439000E7126A8D1290BA8E088F0932
:106582007A62791E1267AAB5090DEEB50809126A78
:106592008A128F250267A77A6279201267AAB50943
:1065A2000DEEB50809126A8A12925C0267A77A6236
:1065B20079221267B1B5090DEEB50809126A8A127D
:1065C20093A10267A77A6279241267B1B5090DEE29
:1065D200B50809126A8A128DFB0267A77A627929C5
:1065E2001267B8B5090DEEB50809126A8A128EDD76
:1065F2000267A77A62792E1267B8B5090DEEB5085F
:1066020009126A8A1272E00267A77A627933126704
:10661200BFB5090AEEB508061297A20267A77A6209
:1066220079391267BFB5090AEEB50806126C240261
:1066320067A77A62793F1267C6B5090DEEB50809F8
:10664200126A8A1279FB0267A77A6279451267C6D3
:10665200B5090DEEB50809126A8A1296FD0267A7FE
:106662007A62794B1267CDB5090AEEB50806128C2B
:10667200BB0267A77A6279511267CDB50915EEB5EB
:1066820008117F40128FB1126A8A128B6D12979392
:106692000267A77A6279561267D4B5090DEEB5087A
:1066A20009126A8A128B6D0267A77A62795E126793
:1066B200D4B5090DEEB50809126A8A1267F70267A6
:1066C200A77A6279641267DBB50910EEB5080C127D
:1066D2009793126A8A1297600267A77A62796A129E
:1066E20067DBB5090AEEB50806128FF50267A77ACD
:1066F20062796F1267E2B5090AEEB508061291E9EE
:106702000267A77A6279741267E2B5090DEEB508DD
:1067120009126A8A127EC90267A77A62797A1267B7
:10672200E9B5090DEEB50809126A8A128AB0026744
:10673200A77A62797F1267E9B50924EEB5082012BB
:106742009793126A8A127760128E481294E4E4FFD9
:106752001297EDE4F51BF51CF519751A0580467ABA
:106762006279851267F0B5090FEEB5080B1297939F
:10677200126A8A1296E7802D7A62798A1267F0B5D8
:10678200090CEEB5080812979312980C80177BFF3C
:106792007A6279941290BAEFB5090AEEB508061238
:0767A20097931294667F013A
:1067A900227BFF1290BAEF227BFF1290BAEF227B75
:1067B900FF1290BAEF227BFF1290BAEF227BFF12F1
:1067C90090BAEF227BFF1290BAEF227BFF1290BAA8
:1067D900EF227BFF1290BAEF227BFF1290BAEF22D1
:0E67E9007BFF1290BAEF227BFF1290BAEF22D4
:1096D0000D0A0044656275672050726F6772616D94
:0796E000203E00504354003E
:0E97C000900156E0242DF582E43401F5832259
:108DAC00129783EF64017046900157E07040129661
:108DBC00A28F08300003120003E50824F8601C247D
:108DCC00FB701F1297C0E4F090015704F0FB7A017E
:108DDC00792D1294093000160297E4900156E01494
:0E8DEC00F0221297C0E508F0900156E004F066
:018DFA002256
:0997E4007BFF7A9679D002960011
:0B9337009000E4EBF0A3EAF0A3E9F0E3
:109342009000E4E0FBA3E0FAA3E0F91233AC601969
:109352009000E4A3E475F00112342CA9F0FA123360
:09936200ACF508FF12000380D7EE
:01936B0022DF
:10968A003000097BFF7A9679D3129337E49001561A
:08969A00F0A3F090012DF02275
:0997ED00EF6003C20122D2012247
:0C97CE00C200C201C222E490019EF02201
:109409009000E4EBF0A3EAF0A3E9F020002190003A
:10941900E4E0FBA3E0FAA3E0F8AC02AD037BFF7A3A
:109429009679E312386CEF3395E04F7002D200223F
:088D0C009000EAEEF0A3EFF085
:108D14009000EAE07002A3E0603DE49000ECF0A370
:108D2400F09000ECE0FEA3E0FFE4FCFD7BD8FAF950
:108D3400F8D31235D740109000EDE004F070E290C3
:108D440000ECE004F080DA9000EBE024FFF0900007
:078D5400EAE034FFF080B9F2
:018D5B0022F5
:1086E500E49000E1F0A374C8F0A37464F012957FE0
:1086F5001297CE129817128FF512968A128DAC909A
:108705000157E0640170097B017A01792D12655FDB
:10871500900157E06401700312968A302207128790
:10872500615002C222129783EF60099000E2E07562
:108735001B00F51CE51C6401451B700DF51BF51CA4
:108745009000E3E0751900F51AE51A640145197002
:0C875500AB1290F7751900751A1480A083
:10957F00E4F5B8F5A8758780F5D0758921F588755C
:10958F009852F5B175B210129772129534D299D2D2
:03959F00AF0022F8
:100026001010FFFFFFFFFFFFFFFFFFFFFFFFFFFFB8
:10003600FFFFFFFFFFFFFFFFFFFFFFFFFFFFFFFFCA
:10004600FFFFFFFFFFFFFFFFFFFFFFFFFFFFFFFFBA
:10005600FFFFFFFFFFFFFFFFFFFFFFFFFFFFFFFFAA
:10006600FFFFFFFFFFFFFFFFFFFFFFFFFFFFFFFF9A
:10007600FFFFFFFFFFFFFFFFFFFFFFFFFFFFFFFF8A
:10008600FFFFFFFFFFFFFFFFFFFFFFFFFFFFFFFF7A
:10009600FFFFFFFFFFFFFFFFFFFFFFFFFFFFFFFF6A
:1000A600FFFFFFFFFFFFFFFFFFFFFFFFFFFFFFFF5A
:1000B600FFFFFFFFFFFFFFFFFFFFFFFFFFFFFFFF4A
:1000C600FFFFFFFFFFFFFFFFFFFFFFFFFFFFFFFF3A
:1000D600FFFFFFFFFFFFFFFFFFFFFFFFFFFFFFFF2A
:1000E600FFFFFFFFFFFFFFFFFFFFFFFFFFFFFFFF1A
:1000F600FFFFFFFFFFFFFFFFFFFFFFFFFFFFFFFF0A
:10010600FFFFFFFFFFFFFFFFFFFFFFFFFFFFFFFFF9
:10011600FFFFFFFFFFFFFFFFFFFFFFFFFFFFFFFFE9
:10012600FFFF1010FFFFFFFFFFFFFFFFFFFFFFFFB7
:10013600FFFFFFFFFFFFFFFFFFFFFFFFFFFFFFFFC9
:10014600FFFFFFFFFFFFFFFFFFFFFFFFFFFFFFFFB9
:10015600FFFFFFFFFFFFFFFFFFFFFFFFFFFFFFFFA9
:10016600FFFFFFFFFFFFFFFFFFFFFFFFFFFFFFFF99
:10017600FFFFFFFFFFFFFFFFFFFFFFFFFFFFFFFF89
:10018600FFFFFFFFFFFFFFFFFFFFFFFFFFFFFFFF79
:10019600FFFFFFFFFFFFFFFFFFFFFFFFFFFFFFFF69
:1001A600FFFFFFFFFFFFFFFFFFFFFFFFFFFFFFFF59
:1001B600FFFFFFFFFFFFFFFFFFFFFFFFFFFFFFFF49
:1001C600FFFFFFFFFFFFFFFFFFFFFFFFFFFFFFFF39
:1001D600FFFFFFFFFFFFFFFFFFFFFFFFFFFFFFFF29
:1001E600FFFFFFFFFFFFFFFFFFFFFFFFFFFFFFFF19
:1001F600FFFFFFFFFFFFFFFFFFFFFFFFFFFFFFFF09
:10020600FFFFFFFFFFFFFFFFFFFFFFFFFFFFFFFFF8
:10021600FFFFFFFFFFFFFFFFFFFFFFFFFFFFFFFFE8
:10022600FFFFFFFF1010FFFFFFFFFFFFFFFFFFFFB6
:10023600FFFFFFFFFFFFFFFFFFFFFFFFFFFFFFFFC8
:10024600FFFFFFFFFFFFFFFFFFFFFFFFFFFFFFFFB8
:10025600FFFFFFFFFFFFFFFFFFFFFFFFFFFFFFFFA8
:10026600FFFFFFFFFFFFFFFFFFFFFFFFFFFFFFFF98
:10027600FFFFFFFFFFFFFFFFFFFFFFFFFFFFFFFF88
:10028600FFFFFFFFFFFFFFFFFFFFFFFFFFFFFFFF78
:10029600FFFFFFFFFFFFFFFFFFFFFFFFFFFFFFFF68
:1002A600FFFFFFFFFFFFFFFFFFFFFFFFFFFFFFFF58
:1002B600FFFFFFFFFFFFFFFFFFFFFFFFFFFFFFFF48
:1002C600FFFFFFFFFFFFFFFFFFFFFFFFFFFFFFFF38
:1002D600FFFFFFFFFFFFFFFFFFFFFFFFFFFFFFFF28
:1002E600FFFFFFFFFFFFFFFFFFFFFFFFFFFFFFFF18
:1002F600FFFFFFFFFFFFFFFFFFFFFFFFFFFFFFFF08
:10030600FFFFFFFFFFFFFFFFFFFFFFFFFFFFFFFFF7
:10031600FFFFFFFFFFFFFFFFFFFFFFFFFFFFFFFFE7
:10032600FFFFFFFFFFFF1010FFFFFFFFFFFFFFFFB5
:10033600FFFFFFFFFFFFFFFFFFFFFFFFFFFFFFFFC7
:10034600FFFFFFFFFFFFFFFFFFFFFFFFFFFFFFFFB7
:10035600FFFFFFFFFFFFFFFFFFFFFFFFFFFFFFFFA7
:10036600FFFFFFFFFFFFFFFFFFFFFFFFFFFFFFFF97
:10037600FFFFFFFFFFFFFFFFFFFFFFFFFFFFFFFF87
:10038600FFFFFFFFFFFFFFFFFFFFFFFFFFFFFFFF77
:10039600FFFFFFFFFFFFFFFFFFFFFFFFFFFFFFFF67
:1003A600FFFFFFFFFFFFFFFFFFFFFFFFFFFFFFFF57
:1003B600FFFFFFFFFFFFFFFFFFFFFFFFFFFFFFFF47
:1003C600FFFFFFFFFFFFFFFFFFFFFFFFFFFFFFFF37
:1003D600FFFFFFFFFFFFFFFFFFFFFFFFFFFFFFFF27
:1003E600FFFFFFFFFFFFFFFFFFFFFFFFFFFFFFFF17
:1003F600FFFFFFFFFFFFFFFFFFFFFFFFFFFFFFFF07
:10040600FFFFFFFFFFFFFFFFFFFFFFFFFFFFFFFFF6
:10041600FFFFFFFFFFFFFFFFFFFFFFFFFFFFFFFFE6
:10042600FFFFFFFFFFFFFFFF1010FFFFFFFFFFFFB4
:10043600FFFFFFFFFFFFFFFFFFFFFFFFFFFFFFFFC6
:10044600FFFFFFFFFFFFFFFFFFFFFFFFFFFFFFFFB6
:10045600FFFFFFFFFFFFFFFFFFFFFFFFFFFFFFFFA6
:10046600FFFFFFFFFFFFFFFFFFFFFFFFFFFFFFFF96
:10047600FFFFFFFFFFFFFFFFFFFFFFFFFFFFFFFF86
:10048600FFFFFFFFFFFFFFFFFFFFFFFFFFFFFFFF76
:10049600FFFFFFFFFFFFFFFFFFFFFFFFFFFFFFFF66
:1004A600FFFFFFFFFFFFFFFFFFFFFFFFFFFFFFFF56
:1004B600FFFFFFFFFFFFFFFFFFFFFFFFFFFFFFFF46
:1004C600FFFFFFFFFFFFFFFFFFFFFFFFFFFFFFFF36
:1004D600FFFFFFFFFFFFFFFFFFFFFFFFFFFFFFFF26
:1004E600FFFFFFFFFFFFFFFFFFFFFFFFFFFFFFFF16
:1004F600FFFFFFFFFFFFFFFFFFFFFFFFFFFFFFFF06
:10050600FFFFFFFFFFFFFFFFFFFFFFFFFFFFFFFFF5
:10051600FFFFFFFFFFFFFFFFFFFFFFFFFFFFFFFFE5
:10052600FFFFFFFFFFFFFFFFFFFF1010FFFFFFFFB3
:10053600FFFF00000000FFFFFFFFFFFFFFFFFFFFC1
:10054600FF000000000000FFFFFFFFFFFFFFFFFFAF
:100556000000020202020000FFFFFFFFFFFFFFFF95
:100566000000020202020000FFFFFFFFFFFFFF0084
:10057600000202000002020000FFFFFFFFFFFF0073
:10058600000202000002020000FFFFFFFFFF000062
:1005960002020000000002020000FFFFFFFF000051
:1005A600020200FFFF0002020000FFFFFF00000240
:1005B600020000FFFF000002020000FFFF00000231
:1005C6000200000000000002020000FF000002021C
:1005D60002020202020202020202000000000202FD
:1005E60002020202020202020202000000000202ED
:1005F60000000000000000000202000000000202ED
:100606000000FFFFFFFF00000202000000000202E0
:100616000000FFFFFFFF00000202000000000000D4
:100626000000FFFFFFFF00000000000010100000A8
:10063600000000000000000000000000FFFF0002B4
:1006460002020202020202020202000000FF00028F
:10065600020202020202020202020200000000007E
:100666000002020000000000020202020000FF0079
:1006760000020200FFFFFF00000202020000FF006E
:1006860000020200FFFFFF00000202020000FF005E
:1006960000020200000000000202020000FFFF004C
:1006A600000202020202020202020000FFFFFF0035
:1006B600000202020202020202020000FFFFFF0025
:1006C60000020200000000000202020000FFFF001C
:1006D60000020200FFFFFF00000202020000FF000E
:1006E60000020200FFFFFF000002020200000000FD
:1006F60000020200000000000202020200000002E6
:1007060002020202020202020202020000000002CB
:1007160002020202020202020202000000FF0000C0
:10072600000000000000000000000000FFFF1010A5
:10073600FFFFFF00000000000000000000FFFFFFB9
:10074600FFFF00000202020202020202000000FF96
:10075600FF00000202020202020202020200000080
:100766000000000202000000000000020202000079
:1007760000000202020000FFFFFF0000020200006C
:10078600000002020000FFFFFFFFFF000202000060
:10079600000002020000FFFFFFFFFFFF0000000055
:1007A600000002020000FFFFFFFFFFFFFFFFFFFF49
:1007B600000002020000FFFFFFFFFFFFFFFFFFFF39
:1007C600000002020000FFFFFFFFFF000000000024
:1007D600000002020000FFFFFFFFFF000202000010
:1007E60000000202000000FFFFFF000002020000FE
:1007F60000000202020000000000000202020000E7
:10080600FF000002020202020202020202000000CF
:10081600FFFF00000202020202020202000000FFC5
:10082600FFFFFF0000000000000000000000FFFFC7
:100836001010000000000000000000000000FFFF94
:10084600FFFF00000202020202020202020000FF93
:10085600FFFF000002020202020202020202000080
:10086600FFFF00000202000000000002020200007A
:10087600FFFF000002020000FFFF0000020200006E
:10088600FFFF000002020000FFFF0000020200005E
:10089600FFFF00000202000000000002020200004A
:1008A600FFFF00000202020202020202020000FF33
:1008B600FFFF00000202020202020202000000FF25
:1008C600FFFF000002020000020202000000FFFF1C
:1008D600FFFF000002020000000202020000FFFF0C
:1008E600FFFF00000202000000000202020000FFFB
:1008F600FFFF000002020000FF00000202020000EB
:10090600FFFF000002020000FFFF000002020200DB
:1009160000FF000002020000FFFFFF0000020202CB
:1009260000FF000000000000FFFFFFFF00000000C6
:1009360000FF101000000000FFFFFFFFFFFFFFFF9A
:10094600000000000000000000FFFFFFFFFFFF00A7
:100956000000000000000C0C0000FFFFFFFF00007D
:100966000C0C000000000C0C0C0000000000000C39
:100976000C0C000000000C0C0C0C000000000C0C11
:100986000C0C000000000C0C0C0C0C0C0C0C0C0CD1
:100996000C0C000000000C0C0C0C0C0C0C0C0C0CC1
:1009A6000C0C000000000C0C0C000C0C0C0C000CC9
:1009B6000C0C000000000C0C0C00000C0C00000CD1
:1009C6000C0C000000000C0C0C0000000000000CD9
:1009D6000C0C000000000C0C0C0000000000000CC9
:1009E6000C0C000000000C0C0C0000FFFF00000CBB
:1009F6000C0C000000000C0C0C0000FFFF00000CAB
:100A06000C0C000000000C0C0C0000FFFF00000C9A
:100A16000C0C000000000C0C0C0000FFFF00000C8A
:100A26000C0C000000000000000000FFFF000000AA
:100A3600000000001010FF00000000000000000091
:100A46000000000000FFFF00000202020202020294
:100A56000202020000FFFF0000020202020202027E
:100A66000202020000FFFF00000000000000020278
:100A76000200000000FFFFFFFFFFFFFF0000020271
:100A8600020000FFFFFFFFFFFFFFFFFF0000020263
:100A9600020000FFFFFFFFFFFFFFFFFF0000020253
:100AA600020000FFFFFFFFFFFFFFFFFF0000020243
:100AB600020000FFFFFFFFFFFFFFFFFF0000020233
:100AC600020000FFFFFFFFFFFFFFFFFF0000020223
:100AD600020000FFFFFFFF00000000FF000002020F
:100AE600020000FFFFFFFF000202000000000202FA
:100AF600020000FFFFFFFF000202020000020202E6
:100B0600020000FFFFFFFF000002020202020202D3
:100B1600000000FFFFFFFFFF0000020202020200CA
:100B26000000FFFFFFFFFFFFFF00000000000000C6
:100B360000FFFFFFFFFF1010FFFFFFFFFFFFFFFF9C
:100B4600FFFFFFFFFFFFFFFFFFFFFFFFFF000000AC
:100B560000000000FFFFFFFFFFFFFFFF0000010195
:100B660001010000FFFFFFFFFFFFFF000001010181
:100B760001010000FFFFFFFFFFFF0000010101016F
:100B8600010000FFFFFFFFFFFF000001010101015F
:100B96000000000000000000000001010101010149
:100BA6000101010101010000000101010101010132
:100BB6000101010101010000000101010101010122
:100BC6000101010101010000000001010101010113
:100BD6000101010101010000FF0000010101010105
:100BE6000000000000000000FFFF000001010101FD
:100BF600010000FFFFFFFFFFFFFFFF0000010101F3
:100C060001010000FFFFFFFFFFFFFFFF00000101E2
:100C160001010000FFFFFFFFFFFFFFFFFF000000D5
:100C260000000000FFFFFFFFFFFFFFFFFFFFFFFFCA
:100C3600FFFFFFFFFFFFFFFF1010FFFFFFFFFFFF9C
:100C4600FFFFFFFFFFFFFFFFFFFFFFFFFFFF0000AC
:100C56000000000000FFFFFFFFFFFFFFFFFF000097
:100C6600010101010000FFFFFFFFFFFFFFFF000082
:100C760001010101010000FFFFFFFFFFFFFFFF0071
:100C86000001010101010000FFFF0000000000005B
:100C9600000001010101010000FF00000101010146
:100CA6000101010101010101000000000101010132
:100CB6000101010101010101010000000101010121
:100CC6000101010101010101010000000000000015
:100CD600000001010101010000FF0000000000000A
:100CE600000001010101010000FFFFFFFFFFFF00FF
:100CF6000001010101010000FFFFFFFFFFFF0000EF
:100D060001010101010000FFFFFFFFFFFFFF0000DF
:100D1600010101010000FFFFFFFFFFFFFFFF0000D1
:100D26000000000000FFFFFFFFFFFFFFFFFFFFFFC8
:100D3600FFFFFFFFFFFFFFFFFFFF1010FFFFFFFF9B
:100D46000000000000000000FFFFFFFFFFFFFFFFA5
:100D56000000010101010000FFFFFFFFFFFFFFFF91
:100D66000000010101010000FFFFFFFFFFFFFFFF81
:100D76000000010101010000FFFFFFFFFFFFFFFF71
:100D86000000010101010000FFFFFFFF000000005D
:100D96000000010101010000000000000000010147
:100DA6000000010101010000010100000000010135
:100DB6000100010101010001010100000000010123
:100DC6000101010101010101010100000000010111
:100DD600010101010101010101010000FF00000103
:100DE6000101010101010101010000FFFFFF0000F7
:100DF60001010101010101010000FFFFFFFFFF00EA
:100E0600000101010101010000FFFFFFFFFFFFFFDD
:100E16000000010101010000FFFFFFFFFFFFFFFFD0
:100E2600FF000001010000FFFFFFFFFFFFFFFFFFC4
:100E3600FFFF00000000FFFFFFFFFFFF1010FFFF96
:100E4600FFFFFFFFFFFF0000000000000000FFFFA4
:100E5600FFFFFFFFFF000002020202020000FFFF89
:100E6600FFFFFFFF00000202020202020000FFFF76
:100E7600FFFFFF0000020202000002020000000065
:100E86000000000002020200000002020000000052
:100E96000202020202020200FF000202000000003B
:100EA6000202020202020200FF000202000000002B
:100EB6000202000000020200FF0002020000000021
:100EC600020200FF00020200FF0002020000000012
:100ED6000202000000020200FF0002020000000001
:100EE6000202020202020200FF00020200000000EB
:100EF60002020202020202000000020200000000DA
:100F06000000000000020202000002020000FFFFD3
:100F1600FFFFFFFF00000202020202020000FFFFC5
:100F2600FFFFFFFFFF000002020202020000FFFFB8
:100F3600FFFFFFFFFFFF0000000000000000101091
:100F46000000000000FFFFFFFFFFFF0000000000A1
:100F56000004040400FFFFFFFFFFFF000404040079
:100F66000004040400FFFFFFFFFFFF000404040069
:100F76000004040400FFFFFFFFFFFF000404040059
:100F86000004040400FFFFFFFFFFFF000404040049
:100F9600000404040000FFFFFFFF00000404040037
:100FA600000404040400FFFFFFFF0004040404001F
:100FB600000004040400FFFFFFFF00040404000017
:100FC60000000404040000FFFF0000040404000005
:100FD600FF0000040404000000000404040000FFF5
:100FE600FFFF000004040400000404040000FFFFE7
:100FF600FFFF000000040400000404000000FFFFDF
:10100600FFFFFF00000404040404040000FFFFFFC8
:10101600FFFFFFFF0000040404040000FFFFFFFFC2
:10102600FFFFFFFFFF00000404000000FFFFFFFFBB
:10103600FFFFFFFFFFFF0000000000FFFFFFFFFFB5
:10104600101000000000000000FFFFFFFFFFFFFF81
:10105600FFFF00000404040000FFFFFFFFFFFFFF87
:10106600FFFF00000404040000FFFFFFFFFFFFFF77
:10107600FFFF00000404040000FFFFFFFFFFFFFF67
:10108600FFFF00000404040000FFFFFFFFFFFFFF57
:10109600FFFF00000404040000FFFFFFFFFFFFFF47
:1010A600FFFF00000404040000FFFFFFFFFFFFFF37
:1010B600FFFF00000404040000FFFFFFFFFFFFFF27
:1010C600FFFF00000404040000FFFFFFFFFFFFFF17
:1010D600FFFF00000404040000FFFFFFFFFF000005
:1010E600000000000404040000FFFFFFFFFF0000F3
:1010F600000000000404040000FFFFFFFF000004DE
:1011060000000000040404000000000000000404C5
:101116000000000004040404040404040404040499
:101126000000000004040404040404040404040489
:1011360000000000000000000000000000000000A9
:1011460000001010FFFFFFFFFFFFFFFFFFFFFFFF85
:10115600FFFFFFFFFFFFFFFFFFFFFFFFFFFFFFFF99
:10116600FFFFFFFFFFFFFFFFFFFFFFFFFFFFFFFF89
:10117600FFFFFFFFFFFFFFFF00000000000000FF72
:10118600FFFFFFFFFFFFFF00000004040400000054
:10119600FFFFFFFFFFFF0000040404040404040033
:1011A60000FFFFFFFF000004040400000004040425
:1011B6000000FFFF00000004040000FF000004041C
:1011C600000000FF00000404040000FF0000040407
:1011D600040000FF00000404040000FF00000404F3
:1011E600040000FF00000404040000FF00000404E3
:1011F600040000FF00000004040000FF00000404D7
:10120600000000FFFF0000040404000000040404C2
:101216000000FFFFFFFF00000404040404040400B0
:1012260000FFFFFFFFFFFF000000040404000000B2
:10123600FFFFFFFFFFFFFFFF00000000000000FFB1
:10124600FFFFFFFF1010FFFFFFFFFFFFFFFFFFFF86
:10125600FFFFFFFFFFFFFFFFFFFFFFFFFFFFFFFF98
:10126600FFFFFFFFFFFFFFFFFFFFFFFFFFFFFFFF88
:10127600FFFFFFFFFFFFFFFFFFFF00000000000072
:101286000000FFFFFFFFFFFF00000000040404044E
:10129600000000FFFFFFFF00000004040404040434
:1012A60004040000FFFFFF00000404040000000027
:1012B6000404040000FFFF00000404040000FF0013
:1012C6000000000000FFFF0000000404040400000A
:1012D6000000FFFFFFFFFFFFFF00000404040404FB
:1012E600040000FFFFFFFFFFFFFF000000000404F3
:1012F60004040000FFFFFF0000000000FFFF0000E5
:101306000404040000FFFF000004040400000000C1
:101316000404040000FFFF000000040404040404A5
:1013260004040000FFFFFFFFFF00000004040404A4
:10133600000000FFFFFFFFFFFFFFFF0000000000AF
:101346000000FFFFFFFF101004040FFFFFFFFFFF69
:10135600FFFF0404FFFFFFFF040404FFFFFFFFFF7E
:10136600FFFF0404FFFFFFFF0404040FFFFFFFFF5E
:10137600FFFF0404FFFFFFFF040404040FFFFFFF49
:10138600FFFF0404FFFFFFFF0404FF0404FFFFFF49
:10139600FFFF0404FFFFFF040404FF04040FFFFF24
:1013A600FFFF0404FFFFFF040404FFFF0404FFFF24
:1013B600FFFF0404FFFFFF040404FFFF04040FFF04
:1013C600FFFF0404FFFFFF040404FFFFFF04040FF4
:1013D600FFFF0404FFFFFF040404FFFFFFFF0404F4
:1013E600FFFF0404FFFFFF040404FFFFFFFF0404E4
:1013F6000FFF0404FFFFFF040404FFFFFFFFFF04C9
:1014060004FF0404FFFFFF040404FFFFFFFFFFFFC8
:1014160004040404FFFFFFFF0404FFFFFFFFFFFFB8
:1014260004040404FFFFFFFF0404FFFFFFFFFFFFA8
:10143600FF040404FFFFFFFF0404FFFFFFFFFFFF9D
:10144600FF040404FFFFFFFF1010FFFFFF04040466
:101456000404040FFFFFFFFFFFFFFFFF0404040463
:1014660004040404040FFFFFFFFFFF040404FFFF4E
:10147600FFFFFF0404040FFFFFFF04040FFFFFFF3D
:10148600FFFFFFFF040404FFFFFF0404FFFFFFFF4D
:10149600FFFFFFFFFF04040FFFFF040FFFFFFFFF27
:1014A600FFFFFFFFFF040404FFFF04FFFFFFFFFF32
:1014B600FFFFFFFFFFFF0404FFFF04FFFFFFFFFF27
:1014C600FFFFFFFFFFFF0404FFFF04FFFFFFFFFF17
:1014D600FFFFFFFFFFFF0404FFFF04FFFFFFFFFF07
:1014E600FFFFFFFFFFFF0404FFFF040FFFFFFFFFE7
:1014F600FFFFFFFFFF040404FFFF0404FFFFFFFFDD
:10150600FFFFFFFFFF04040FFFFF04040FFFFFFFB1
:10151600FFFFFFFF040404FFFFFFFF040404FFFFB7
:10152600FFFFFF0404040FFFFFFFFFFF0404040492
:1015360004040404040FFFFFFFFFFFFFFFFF040482
:101546000404040FFFFFFFFFFFFF1010FFFFFFFF64
:10155600FF04040FFFFFFFFFFFFFFFFFFFFFFFFF7B
:10156600FF040404FFFFFFFFFFFFFFFFFFFFFFFF76
:10157600FFFF0404FFFFFFFFFFFFFFFFFFFFFFFF6B
:10158600FFFF04040FFFFFFFFFFFFFFFFFFFFFFF4B
:10159600FFFFFF0404FFFFFFFFFFFFFFFFFFFFFF4B
:1015A600FFFFFF04040FFFFFFFFFFFFFFFFFFFFF2B
:1015B600FFFFFF040404FFFFFFFFFF04FFFFFFFF21
:1015C600FFFFFFFF0404FFFFFFFFFF04FFFFFFFF16
:1015D600FFFFFFFF04040FFFFFFFFF04FFFFFFFFF6
:1015E600FFFFFFFF040404FFFFFF0404FFFFFFFFEC
:1015F600FFFFFFFFFF04040FFFFF0404FFFFFFFFD1
:10160600FFFFFFFFFF04040FFFFF0404FFFFFFFFC0
:10161600FFFFFFFFFFFF0404FF04040FFFFFFFFFB0
:10162600FFFFFFFFFFFF04040F0404FFFFFFFFFFA0
:10163600FFFFFFFFFFFF0404040404FFFFFFFFFF9B
:10164600FFFFFFFFFFFFFF0404040FFF1010FFFF63
:101656000404FFFF04040FFFFFFF04040404FF0457
:101666000404FFFF04040FFFFFFF04040404FF0447
:10167600040FFFFF04040FFFFFFF04040FFFFF0426
:1016860004FFFFFF04040FFFFFFF04040FFF040421
:101696000FFFFFFF04040FFFFFFF04040FFF040406
:1016A6000FFFFFFF04040FFFFFFF04040FFF0404F6
:1016B600FFFFFFFF04040FFFFFFF04040FFF040FEB
:1016C600FFFFFFFF04040FFFFFFF04040FFF04FFEB
:1016D600FFFFFFFF04040FFFFFFF04040FFF04FFDB
:1016E600FFFFFFFF04040FFFFFFF04040FFF0FFFC0
:1016F600FFFFFFFF04040FFFFFFF04040FFFFFFFC0
:10170600FFFFFFFF04040FFFFFFF04040FFFFFFFAF
:10171600FFFFFFFF04040FFFFFFF04040FFFFFFF9F
:10172600FFFFFFFF04040FFFFFFF04040FFFFFFF8F
:10173600FFFFFFFF04040FFFFFFF04040404FFFF85
:10174600FFFFFFFF04040FFFFFFF04040404101053
:1017560004040404040FFFFFFFFFFFFF0404040456
:1017660004040404040404FFFFFFFFFF040404044C
:10177600FFFFFFFFFF040404FFFFFFFF04040FFF4A
:10178600FFFFFFFFFFFF04040FFFFFFF04040FFF2F
:10179600FFFFFFFFFFFF040404FFFFFF04040FFF2A
:1017A600FFFFFFFFFFFFFF0404FFFFFF04040FFF1F
:1017B600FFFFFFFFFFFFFF04040FFFFF04040FFFFF
:1017C600FFFFFFFFFFFFFF04040FFFFF04040404F5
:1017D600FFFFFFFFFFFFFF04040FFFFF04040404E5
:1017E600FFFFFFFFFFFFFF04040FFFFF04040FFFCF
:1017F600FFFFFFFFFFFFFF0404FFFFFF04040FFFCF
:10180600FFFFFFFFFFFF040404FFFFFF04040FFFB9
:10181600FFFFFFFFFFFF04040FFFFFFF04040FFF9E
:10182600FFFFFFFFFF040404FFFFFFFF04040FFF99
:1018360004040404040404FFFFFFFFFF040404047B
:1018460004040404040FFFFFFFFFFFFF0404040465
:10185600101004040404040404040FFFFFFFFFFF38
:10186600FF0404040404040404040FFFFFFFFF0440
:101876000404FFFFFFFFFFFFFFFFFFFFFFFF04045E
:10188600040FFFFFFFFFFFFFFFFFFFFFFF0404043E
:10189600FFFFFFFFFFFFFFFFFFFFFFFFFF04040F38
:1018A600FFFFFFFFFFFFFFFFFFFFFFFFFF0404FF38
:1018B600FFFFFFFFFFFFFFFFFFFFFFFF04040FFF18
:1018C600FFFF040404040404040FFFFF04040FFFD5
:1018D600FFFF040404040404040FFFFF04040FFFC5
:1018E600FFFFFFFFFFFFFFFFFFFFFFFF04040FFFE8
:1018F600FFFFFFFFFFFFFFFFFFFFFFFFFF0404FFE8
:10190600FFFFFFFFFFFFFFFFFFFFFFFFFF04040FC7
:10191600FFFFFFFFFFFFFFFFFFFFFFFFFF040404C2
:10192600FFFFFFFFFFFFFFFFFFFFFFFFFFFF0404B7
:10193600040F04040404040404040FFFFFFFFF045F
:10194600040404040404040404040FFFFFFFFFFF5F
:10195600FF0410100404040404FFFFFFFFFFFFFF51
:10196600FFFFFFFF0404040404040FFFFFFFFFFF53
:10197600FFFFFFFFFFFFFFFF0404040FFFFFFFFF52
:10198600FFFFFFFFFFFFFFFFFFFF04040FFFFFFF47
:10199600FFFFFFFFFFFFFFFFFFFF040404FFFFFF42
:1019A600FFFFFFFFFFFFFFFFFFFFFF04040FFFFF27
:1019B600FFFFFFFFFFFFFFFFFFFFFF04040FFFFF17
:1019C600FFFFFFFFFFFFFFFFFFFFFF04040FFFFF07
:1019D600FFFFFFFFFFFFFFFFFFFFFF04040FFFFFF7
:1019E600FFFFFFFFFFFFFFFFFFFFFF04040FFFFFE7
:1019F600FFFFFFFFFFFFFFFFFFFFFF04040FFFFFD7
:101A0600FFFFFFFFFFFFFFFFFFFF040404FFFFFFD1
:101A1600FFFFFFFFFFFFFFFFFFFF04040FFFFFFFB6
:101A2600FFFFFFFFFFFFFFFF04040404FFFFFFFFAC
:101A3600FFFFFFFF0404040404040FFFFFFFFFFF82
:101A4600FFFFFFFF0404040404FFFFFFFFFFFFFF87
:101A5600FFFFFFFF1010FFFFFFFFFF040404040455
:101A6600040FFFFFFFFFFFFFFFFF0404040404044D
:101A7600040404FFFFFFFFFFFF040404FFFFFFFF52
:101A8600FF040404FFFFFFFF040404FFFFFFFFFF42
:101A9600FFFF04040FFFFFFF04040FFFFFFFFFFF1C
:101AA600FFFF04040FFFFFFFFF0404FFFFFFFFFF1C
:101AB600FFFFFFFFFFFFFFFFFF0404040404FFFF17
:101AC600FFFFFFFFFFFFFFFFFFFF04040404040402
:101AD6000404FFFFFFFFFFFFFFFFFFFFFF040404F7
:101AE6000404040FFFFFFFFFFFFFFFFFFFFFFFFFE1
:101AF600FF0404040FFFFF04040FFFFFFFFFFFFFB7
:101B0600FFFF04040FFFFFFF0404FFFFFFFFFFFFBB
:101B1600FFFF04040FFFFFFF04040FFFFFFFFFFF9B
:101B2600FFFF04040FFFFFFF04040404FFFFFFFF91
:101B3600FF040404FFFFFFFFFF040404040404047D
:101B4600040404FFFFFFFFFFFFFFFF040404040477
:101B5600040FFFFFFFFF1010FF04040FFFFFFFFF3E
:101B6600FFFFFF0404040404FF04040FFFFFFFFF4C
:101B7600FF04040404040404FF04040FFFFFFFFF32
:101B860004040404FFFFFFFFFF04040FFFFFFFFF31
:101B960004040FFFFFFFFFFFFF04040FFFFFFF0416
:101BA600040FFFFFFFFFFFFFFF04040FFFFFFF040B
:101BB60004FFFFFFFFFFFFFFFF04040FFFFFFF040B
:101BC60004FFFFFFFFFFFFFFFF04040FFFFF0404F6
:101BD60004FFFFFFFFFFFFFFFF04040FFFFF0404E6
:101BE6000FFFFFFFFFFF0404FF04040FFFFFFF04C6
:101BF60004FFFFFFFFFF0404FF04040FFFFFFF04C1
:101C060004FFFFFFFFFFFFFFFF04040FFFFFFF04BA
:101C1600040FFFFFFFFFFFFFFF04040FFFFFFFFF9F
:101C260004040FFFFFFFFFFFFF04040FFFFFFFFF8A
:101C360004040404FFFFFFFFFF04040FFFFFFFFF80
:101C4600FF04040404040404FF04040FFFFFFFFF61
:101C5600FFFFFFFF0404040410100404FFFFFFFF4E
:101C6600FFFFFF04040FFFFFFFFF0404040FFFFF45
:101C7600FFFFFF040404FFFFFFFFFF0404040FFF40
:101C8600FFFFFF0404040FFFFFFFFFFFFF0404FF35
:101C9600FFFFFF04040404FFFFFFFFFFFF04040F20
:101CA600FFFFFF040404040FFFFFFFFFFFFFFFFF1A
:101CB600FFFFFF0404FF04040FFFFFFFFFFFFFFF0A
:101CC600FFFFFF0404FFFF0404FFFFFFFFFFFFFF0A
:101CD600FFFFFF0404FFFF04040F040404040404CC
:101CE600FFFFFF0404FFFFFF0404040404040404CC
:101CF600FFFFFF0404FFFFFF0404FFFFFF040404CB
:101D0600FFFFFF0404FFFFFFFF04FFFFFF040404BF
:101D1600FFFFFF0404FFFFFFFFFFFFFFFF040404B4
:101D2600FFFFFF0404FFFFFFFFFFFFFF040404049F
:101D3600FFFFFF0404FFFFFFFFFF040404040FFF7F
:101D4600FFFFFF0404FFFFFFFFFF0404FFFFFFFF89
:101D5600FFFFFF0404FFFFFFFFFF1010FFFFFF045C
:101D660004FFFFFFFFFFFFFFFF040404FFFFFF0464
:101D760004FFFFFFFFFFFFFF04040404FFFFFF044F
:101D860004FFFFFFFFFFFFFF04040404FFFFFF043F
:101D960004FFFFFFFFFFFF040404FF04FFFFFF042F
:101DA60004FFFFFFFFFFFF04040FFF04FFFFFF0414
:101DB60004FFFFFFFFFFFF0404FFFFFFFFFFFF0419
:101DC60004FFFFFFFFFF04040FFFFFFFFFFFFF04F9
:101DD60004FFFFFFFFFF04040FFFFFFFFFFFFF04E9
:101DE60004FFFFFFFF040404FFFFFFFF0FFFFF04D4
:101DF60004FFFFFFFF04040404040404040FFF04AB
:101E060004FFFFFFFF040404040404040404FF04A5
:101E160004FFFFFF04040FFFFFFFFFFF04040F048E
:101E260004FFFFFF0404FFFFFFFFFFFFFF0404049E
:101E360004FFFF040404FFFFFFFFFFFFFFFF04048E
:101E460004FFFF04040FFFFFFFFFFFFFFFFF040473
:101E560004FFFF0404FFFFFFFFFFFFFF1010FFFF5B
:101E6600FFFFFFFFFFFF0404FFFFFFFFFFFF0FFF62
:101E7600FFFFFFFFFFFF0404FFFFFFFFFFFF0FFF52
:101E8600FFFFFFFFFFFF0404FFFFFFFFFFFF04FF4D
:101E9600FFFFFFFFFFFF0404FFFFFFFFFFFF040F2D
:101EA600FFFFFFFFFFFF0404FFFFFFFFFFFF040428
:101EB600FFFFFFFFFFFF0404FFFFFFFFFFFF040418
:101EC6000FFFFFFFFFFF0404FFFFFFFFFFFF0404F8
:101ED6000FFFFFFFFFFF0404FFFFFFFFFFFFFF04ED
:101EE60004FFFFFFFFFF0404FFFFFFFFFFFF0404E3
:101EF600040FFFFFFFFF0404FFFFFFFFFFFF0404C3
:101F06000404FFFFFFFF0404FFFFFFFFFFFFFFFFC7
:101F160004040FFFFFFF0404FFFFFFFFFFFFFFFFA7
:101F260004040FFFFFFF0404FFFFFFFFFFFFFFFF97
:101F3600FF0404FFFFFF0404FFFFFFFFFFFFFFFF97
:101F4600FF04040FFFFF0404040404040404FFFF59
:101F5600FFFF0404FFFF0404040404040404101037
:101F6600FFFFFFFFFF000000000000FFFFFFFFFF75
:101F7600FFFFFF00000002020202000000FFFFFF59
:101F8600FFFF000002020202020202020000FFFF3F
:101F9600FF0000020202000000000002020000FF33
:101FA600FF0002020200FFFFFFFF0000020200FF27
:101FB600FF00020202020000FFFFFF00000000FF18
:101FC600FF000002020202020000FFFFFFFFFFFF08
:101FD600FFFF0000000002020202000000FFFFFFF8
:101FE600FFFFFFFFFF00000002020202020000FFE7
:101FF600FFFFFFFFFFFFFF0000000202020200FFDB
:10200600FF00000000FFFFFFFF000000020200FFCC
:10201600FF0002020000FFFFFFFF0000020200FFB8
:10202600FF0000020200000000000002020000FFA4
:10203600FFFF000002020202020202020000FFFF8E
:10204600FFFFFF00000002020202020000FFFFFF86
:10205600FFFFFFFFFF00000000000000FFFFFFFF83
:10206600101000000000000000000000000000004A
:10207600000000010101010101010101010101014D
:10208600010000010101010101010101010101013C
:10209600010000010101010101010101010101012C
:1020A6000100000000000000010101010000000025
:1020B6000000FFFFFFFFFF000101010100FFFFFF1E
:1020C600FFFFFFFFFFFFFF000101010100FFFFFF10
:1020D600FFFFFFFFFFFFFF000101010100FFFFFF00
:1020E600FFFFFFFFFFFFFF000101010100FFFFFFF0
:1020F600FFFFFFFFFFFFFF000101010100FFFFFFE0
:10210600FFFFFFFFFFFFFF000101010100FFFFFFCF
:10211600FFFFFFFFFFFFFF000101010100FFFFFFBF
:10212600FFFFFFFFFFFFFF000101010100FFFFFFAF
:10213600FFFFFFFFFFFFFF000101010100FFFFFF9F
:10214600FFFFFFFFFFFFFF000101010100FFFFFF8F
:10215600FFFFFFFFFFFFFF000000000000FFFFFF83
:10216600FFFF1010FFFFFFFFFFFFFFFFFFFFFFFF57
:10217600FFFFFFFFFFFFFFFFFFFFFFFFFFFFFFFF69
:10218600FFFFFFFFFFFFFFFFFFFFFFFFFFFFFFFF59
:10219600FFFFFFFFFFFFFFFFFFFFFFFFFFFFFFFF49
:1021A600FFFFFFFFFFFFFFFFFFFFFFFFFFFFFFFF39
:1021B600FFFFFFFFFFFFFFFFFFFFFFFFFFFFFFFF29
:1021C600FFFFFFFFFFFFFFFFFFFFFFFFFFFFFFFF19
:1021D600FFFFFFFFFFFFFFFFFFFFFFFFFFFFFFFF09
:1021E600FFFFFFFF1010FFFFFFFFFFFFFFFFFFFFD7
:1021F600FFFFFFFFFFFFFFFFFFFFFFFFFFFFFFFFE9
:10220600FFFFFFFFFFFFFFFFFFFFFFFFFFFFFFFFD8
:10221600FFFFFFFFFFFFFFFFFFFFFFFFFFFFFFFFC8
:10222600FFFFFFFFFFFFFFFFFFFFFFFFFFFFFFFFB8
:10223600FFFFFFFFFFFFFFFFFFFFFFFFFFFFFFFFA8
:10224600FFFFFFFFFFFFFFFFFFFFFFFFFFFFFFFF98
:10225600FFFFFFFFFFFFFFFFFFFFFFFFFFFFFFFF88
:10226600FFFFFFFFFFFF1010FFFFFFFFFFFFFFFF56
:10227600FFFFFFFFFFFFFFFFFFFFFFFFFFFFFFFF68
:10228600FFFFFFFFFFFFFFFFFFFFFFFFFFFFFFFF58
:10229600FFFFFFFFFFFFFFFFFFFFFFFFFFFFFFFF48
:1022A600FFFFFFFFFFFFFFFFFFFFFFFFFFFFFFFF38
:1022B600FFFFFFFFFFFFFFFFFFFFFFFFFFFFFFFF28
:1022C600FFFFFFFFFFFFFFFFFFFFFFFFFFFFFFFF18
:1022D600FFFFFFFFFFFFFFFFFFFFFFFFFFFFFFFF08
:1022E600FFFFFFFFFFFFFFFF1010FFFFFFFFFFFFD6
:1022F600FFFFFFFFFFFFFFFFFFFFFFFFFFFFFFFFE8
:10230600FFFFFFFFFFFFFFFFFFFFFFFFFFFFFFFFD7
:10231600FFFFFFFFFFFFFFFFFFFFFFFFFFFFFFFFC7
:10232600FFFFFFFFFFFFFFFFFFFFFFFFFFFFFFFFB7
:10233600FFFFFFFFFFFFFFFFFFFFFFFFFFFFFFFFA7
:10234600FFFFFFFFFFFFFFFFFFFFFFFFFFFFFFFF97
:10235600FFFFFFFFFFFFFFFFFFFFFFFFFFFFFFFF87
:10236600FFFFFFFFFFFFFFFFFFFF1010FFFFFFFF55
:10237600FFFFFFFFFFFFFFFFFFFFFFFFFFFFFFFF67
:10238600FFFFFFFFFFFFFFFFFFFFFFFFFFFFFFFF57
:10239600FFFFFFFFFFFFFFFFFFFFFFFFFFFFFFFF47
:1023A600FFFFFFFFFFFFFFFFFFFFFFFFFFFFFFFF37
:1023B600FFFFFFFFFFFFFFFFFFFFFFFFFFFFFFFF27
:1023C600FFFFFFFFFFFFFFFFFFFFFFFFFFFFFFFF17
:1023D600FFFFFFFFFFFFFFFFFFFFFFFFFFFFFFFF07
:1023E600FFFFFFFFFFFFFFFFFFFFFFFF1010FFFFD5
:1023F600FF0000FFFFFFFFFFF000000FFFFFFFFFE2
:1024060000222200FFFFFFFF00222200FFFFFFF055
:10241600022002200FFFFFF0022002200FFFFF0024
:102426002200002200FFFF00220FF02200FFF00230
:10243600200FF002200FF00220000002200F0022E1
:1024460022222222220000222222222222000022EE
:10245600000000002200002200FFFF0022000022F0
:1024660000FFFF002200000000FFFF000000101028
:1024760000000000000000FF022222222222000F9C
:102486000222222222222000000220000022220014
:10249600F00220FFF0022200F00220FFF0022200EC
:1024A600F00220000022200FF0022222222200FF4A
:1024B600F0022222222200FFF00220000022200F3A
:1024C600F00220FFF0022200F00220FFF0022200BC
:1024D60000022000002222000222222222222000C4
:1024E600022222222222000F00000000000000FF2C
:1024F60010101010101010101010101010101010D6
:062506001010101010106F
:109039001233C5FF90019DE02F90011DF022900091
:10904900FCE0FBA3E0FAA3E0F922F09000FCE0FBCE
:10905900A3E475F00112342CA9F0FA0233AC9000A4
:10906900F3E0FF3395E0FED3EF9400EE6480948043
:0190790022D4
:06980600E490019DF02238
:0B6DFD009000F4EFF0A3ECF0A3EDF029
:106E08009000F4E0FF25E0F0E02408F09000FBF0AB
:106E18009000F5E0FEA3E07803C333CE33CED8F973
:106E2800FF9000F5EEF0A3EFF04E7005E0240A8025
:106E3800069000F6E02406F09000F5E03400F0AF8C
:106E4800037E007C017D0212340474262FF974003D
:106E58003EFA9000FC74FFF0A3EAF0A3E912905305
:106E68009000F71290539000F8F0E4A3F09000F728
:106E7800E0FF9000F9E0C39F4003026F51E4A3F0E4
:106E88009000F8E0FF9000FAE0C39F4003026F32E1
:106E98001290471233AC12903CE4FB7D02FF12962D
:106EA8003B1290479000011290397B01126F7B9042
:106EB80000021290397B02126F7B90000312903906
:106EC8007B03126F8E90011D7480F07B04126F8E0D
:106ED8009000FDE475F0041234169000FBE0900178
:106EE8001DF07B05126F96A3E090011DF07B071241
:106EF8006F96E07E007802C333CE33CED8F9126F96
:106F080052126FA120E7FA9000F5E025E025E04451
:106F180008126F52126FA120E7FA9000FBE004F00C
:106F28009000FAE02404F0026E889000F4E09000EB
:106F3800FBF09000F6E004F070069000F5E004F035
:096F48009000F9E004F0026E75FE
:106F51002290011DF07B097D02E4FF12963B7B0A22
:106F61007D02E4FF1295E2EF543F448090011DF051
:106F71007B0A7D02E4FF12963B227D02E4FF12961A
:106F81003B9000FCE0FBA3E0FAA3E0F9227D02E4E0
:106F9100FF12963B227D02E4FF12963B9000F52200
:0B6FA1007B0A7D02E4FF1295E2EF2264
:0B891E009000EDEFF0A3EDF0A3EBF0F4
:10892900A312904A12000E9000F3EFF03395E0C3C2
:108939006480948040459000EDE0540164017033F7
:108949009000EEE0FFA3E0FD7C00A312904A1233F1
:10895900ACFB126DFD9000F3E014F09000F1E475AA
:10896900F0011234169000EEE02402F012906750E4
:0B897900CF800512906750FB1298178A
:0189840022D0
:10955A000500000600000700000800000900000AD4
:10956A0000001F000020000B000C000D000E000F71
:05957A001011121200A7
:038A510001210000
:107FE600900187E075F003A4245AF9749535F0FAE8
:107FF6009000F074FFF0A3229000EAE0FBA3E0FA01
:10800600A3E0F922900187E0FF7E007401A807082B
:1080160022900183E0FD7C007B0122FF900194E029
:10802600FDEF5D227495F07466A3F0900183E0FB8A
:10803600227495F0A37479F0229000011233C5548E
:10804600026402229000011233C554016401229099
:1080560000011233C554106410227495F0A374669F
:10806600F0227495F0A37477221233AC54026402A2
:10807600221233AC54016401221233AC5410641042
:10808600221233AC540C1313543FF50A227B017DA4
:108096000F7C00227B017D127C0022EAF0A3E9F02E
:1080A6007B0F22EAF0A3E9F07B1222900183E0FD28
:1080B6007C007B02E422EAF0A3E9F07B01227D1931
:1080C6007B057C007F3A22EBF0A3EAF0A3E9F022DD
:1080D6007495F0A3746F22EAF0A3E9F0E4FB229012
:0C80E60000010233C57B017A01798C2275
:108C6900127B3F1298067F041298117F0312981401
:108C7900E4F50AC3E50A9406748094805009AF0AA2
:108C8900128CA5050A80EC7F011293017FFF1298CF
:0B8C9900147F08128CA5E4900184F009
:108CA400221295C39000EEE4F0A37426F07B5AE4FC
:078CB400FDFCFF1284872282
:105236009000EA1280CD7F021298117FFF12981417
:10524600900186E01236C8527B11528F2152B42249
:1052560052D931531533534E3453874153DE91534C
:10526600F1A1541FA25446B1548FB354CAB4550287
:10527600C10000555E127FFE12806F600302555E0C
:10528600127FE61280DD02541A127FFE12806F70C2
:1052960006127FE61255B9127FFE12803F600302A6
:1052A600555E900188127FE91280A102541A127F7E
:1052B600FE12806F7006127FE612555F127FFE1295
:1052C600803F600302555E900188127FE91280DDFF
:1052D600025441127FFE12806F7006127FE612554D
:1052E600B9127FFE12803F700C900188127FE9127E
:1052F60080A11255C8127FFE900002128042600300
:1053060002555E900189127FE91280A10254411272
:105316007FFE12806F7006127FE612555F127FFEC7
:1053260012803F7009900188127FE91255AA127FF8
:10533600FE900002128042600302555E90018912BF
:105346007FE91280A1025441127FFE12806F70061F
:10535600127FE612557D127FFE12803F7009900182
:1053660088127FE91255AA127FFE9000021280422F
:10537600600302555E900189127FE91280A10254F2
:10538600FD127FFE12806F7006127FE612557D12A7
:105396007FFE12803F7010900188127FE91280DD37
:1053A6007D3E7F0112891E127FFE9000021280420E
:1053B600700C900189127FE91280A11255C8127FE4
:1053C600FE900003128042600302555E90018A122D
:1053D6007FE91280A1025441127FFE12806F6003A2
:1053E60002555E127FE61280BC8029127FFE128073
:1053F6006F700D127FE61280BC7D297F0112891E17
:10540600127FFE12803F600302555E900188127F74
:10541600E91280A97D29025559127FFE12806F700C
:1054260006127FE612556E127FFE12803F6003025F
:10543600555E900188127FE91280BC7D3E02555967
:10544600127FFE12806F700D127FE61280BC7D29DE
:105456007F0112891E127FFE12803F701090018814
:10546600127FE91280A97D147F0112891E127FFE28
:10547600900002128042600302555E900189127FFD
:10548600E91280A97D3E025559127FFE12806F7087
:1054960006127FE612556E127FFE12803F7009904B
:1054A6000188127FE912558C127FFE90000212804D
:1054B60042600302555E900189127FE91280A97D40
:1054C6003E025559127FFE12806F7006127FE61259
:1054D600559B127FFE12803F7009900188127FE96A
:1054E60012558C127FFE900002128042706A900163
:1054F60089127FE91280A97D14025559127FFE1286
:10550600806F7006127FE612559B127FFE12803F57
:105516007010900188127FE91280BC7D3E7F0112D7
:10552600891E127FFE90000212804270109001893F
:10553600127FE91280A97D147F0112891E127FFE57
:10554600900003128042701090018A127FE9128047
:10555600A97D3E7F0112891E22EAF0A3E9F0E4FB51
:105566007D147F0112891E22EAF0A3E9F07B017DFA
:10557600147F0112891E22EAF0A3E9F0E4FB7D14F0
:105586007F0112891E22EAF0A3E9F07B017D3E7FAE
:105596000112891E22EAF0A3E9F07B017D147F0146
:1055A60012891E22EAF0A3E9F0E4FB7D3E7F011298
:1055B600891E22EAF0A3E9F0E4FB7D297F01128926
:0A55C6001E227D147F0112891E22AF
:0897F600900185E04480F0229F
:1090F7007B787D01E4FF1295E2EF540FFF90019416
:10910700F0900185E06F6024D2227B31E4FDFF12ED
:1091170095E2EF547F90011DF07B31E4FDFF12963D
:0D9127003B12398C900194E0900185F022FC
:06629D009000EA1280CD22
:1062A3007F41129811900186E01236C862D71163BC
:1062B3000321636B2263DE31643F33649A3462D714
:1062C300916303A1636BA263DEB1643FB3649AB4C9
:1062D300000064FC9000EA128001128087600302D0
:1062E30063E91280171265561280011233AC30E550
:1062F30003026419900184E060030264FC026437C2
:106303009000EA12800112808760101264FD127FF0
:10631300F5EAF0E912802F7D1C80211280171265A7
:106323004D1280011233AC30E51912651B7A957951
:106333006F127FF61280D61280307D017F011289A1
:106343001E800E900184E070081280177F01128373
:10635300D19000EA1280011280E512808A900183B5
:1063630060030264AB0263D69000EA1280011280DC
:106373008760111264FD127FF5EAF0A3E912803001
:106383007D1C802112801712654D1280011233ACDF
:1063930030E51912651B7A95796F127FF61280D654
:1063A3001280307D017F0112891E800E900184E0EE
:1063B30070081280177F011283D19000EA128001C6
:1063C3001280E512808A60087B02E4FDFC0264AE61
:1063D30090018312801A7F460264F99000EA1280CA
:1063E30001128087602112652AE50A25E0FFE43364
:1063F300FE746F2FF974953E127FF5EAF0A3E9124C
:1064030080307D310264E9128017126556128001D3
:106413001233AC30E51512652A7A95796F127FF63F
:106423001280D61280307D010264E9900184E0601D
:10643300030264FC1280177F010264F99000EA12E0
:10644300800112808760151280B1126539127FF5C1
:10645300EAF0A3E91280307D1C0264E91280177F01
:106463001C1283D19000EA1280011233AC30E5197B
:106473001280B1FF1283D17A95796F127FF6128061
:10648300D61280307D010264E9900184E0706A12C3
:1064930080177F010264F99000EA1280011280E5FF
:1064A30012808A60179001831280B4126539127FBB
:1064B300F5EAF0A3E91280307D46802A1280177F27
:1064C300461283D19000EA1280011233AC30E51BEF
:1064D3001280B1FF1283D17A95796F127FF6128001
:1064E300D61280307D017F0102891E900184E07005
:0964F300081280177F011283D109
:1064FC0022900183E0FD7C007B02E4FF1283D1E556
:10650C000A25E0FFE433FE746F2FF974953E229058
:10651C000183E0FD7C007B02E4FF1283D122900119
:10652C0083E0FD7C007B02E4FF1283D122FF128307
:10653C00D1E50A25E0FFE433FE746F2FF974953E24
:10654C00227F1C1283D19000EA227F311283D190DA
:03655C0000EA2230
:104416009000EA1280CD7F0C129811900186E0126E
:1044260036C844561144732144A22244D831452843
:104436003345713445C341463E91465BA14699A238
:1044460046DAB1473DB3479CB44802C10000488CE8
:104456009000EA128001128077700A127FF61280AD
:1044660060E40246537B01E4FDFC0246949000EAB8
:10447600128001128077700D127FF61280607D2CFB
:104486001248E080031248CB9000EA1280011280A5
:104496004A70030246841280930246949000EA1200
:1044A6008001128077700B127FF612806012488DA1
:1044B60080031248A19000EA12800112804A700A15
:1044C600127FF6128060E40246CC7B01E4FDFC021A
:1044D60046D59000EA128001128077700D127FF6A1
:1044E600128060E4FB1248FB80031248CB9000EA7E
:1044F60012800112804A700B127FF61280601248F9
:10450600C180081280937F171283D19000EA12802F
:104516000190000212804D700302462D1280930214
:1045260046D59000EA128001128077700B127FF652
:1045360012806012488D80031248A19000EA128012
:104546000112804A700B127FF61280601248B78003
:10455600031248AC9000EA12800190000212804DCE
:10456600700302462D1280930246D59000EA12800F
:1045760001128077700B127FF612806012489780C6
:10458600031248E89000EA12800112804A700B126A
:104596007FF61280601248B780031248AC9000EA9A
:1045A60012800190000212804D700B127FF612806D
:1045B600607B0F0247F27B017D0F0247FB9000EA0A
:1045C600128001128077700B127FF61280601248FB
:1045D6009780031248E89000EA12800112804A7020
:1045E6000D127FF61280607D411248E0800A7B0141
:1045F600E4FDFC7F411283D19000EA128001900015
:104606000212804D700B127FF61280601248C18034
:10461600081280937F171283D19000EA12800190CE
:10462600000312804D700B127FF61280607B0F0222
:1046360046CD1280930246D59000EA128001128080
:1046460077700D127FF6128060900183E0FB803652
:1046560012801780399000EA128001128077700B61
:10466600127FF612802A1248FB80081280177F2CD0
:104676001283D19000EA12800112804A700D127FD7
:10468600F61280607B0F7D2C02487F1280937F2C70
:104696000248899000EA128001128077700B127F1F
:1046A600F612802A1248F380081280177F171283A9
:1046B600D19000EA12800112804A7010127FF61221
:1046C6008060900183E0FB7D4102487F1280177F66
:1046D600410248899000EA128001128077700F1219
:1046E6007FF612802A7D2C7F0112891E8008128097
:1046F600177F2C1283D19000EA12800112804A7033
:104706000B127FF61280601248D6800812809A7FBC
:10471600171283D19000EA12800190000212804D98
:10472600700D127FF61280607B127D4102487F1267
:10473600809A7F410248899000EA128001128077B0
:10474600700B127FF612802A1248F3800812801727
:104756007F171283D19000EA12800112804A700BF3
:10476600127FF612802A12490380081280177F41B1
:104776001283D19000EA12800190000212804D70DF
:104786000D127FF61280607B127D4102487F1280F7
:104796009A7F410248899000EA1280011280777060
:1047A6000F127FF612802A7D177F0112891E80085C
:1047B6001280177F171283D19000EA1280011280AF
:1047C6004A700B127FF612802A1249038008128063
:1047D600177F411283D19000EA12800190000212E5
:1047E600804D700D127FF61280607B127D17024895
:1047F6007F7B017D127C007F170248899000EA12B8
:104806008001128077700F127FF612802A7D177F43
:104816000112891E80081280177F171283D190001B
:10482600EA12800112804A700F127FF612802A7DEA
:10483600417F0112891E80081280177F411283D1A1
:104846009000EA12800190000212804D700B127FD8
:10485600F61280601248D6800812809A7F1712835B
:10486600D19000EA12800190000312804D700F1261
:104876007FF61280607B127D417F0102891E1280C5
:104886009A7F411283D122E4FB7D177F0112891E94
:1048960022E4FB7D177F0112891E227B01E4FDFCC9
:1048A6007F171283D1227B01E4FDFC7F411283D165
:1048B60022E4FB7D417F0112891E227B0F7D177F3B
:1048C6000112891E227B01E4FDFC7F2C1283D1227A
:1048D6007B127D177F0112891E22E4FB7F0112895C
:1048E6001E227B01E4FDFC7F171283D1227D177FF8
:1048F6000112891E227D2C7F0112891E227D417F95
:054906000112891E22D0
:10490B009000EA1280CD7F02129811900186E0127E
:10491B0036C8494811495D2149922249C6314A148A
:10492B00334A5A344AAD414B20914B44A24B89B187
:10493B004BF0B34C5AB44CBFC100004D509000EA41
:10494B0012800112807F7002802C7B01E4FDFC023F
:10495B004B3F9000EA12800112807F700B127FF6A2
:10496B00128068124DCD8003124D999000EA12808F
:10497B000112807F700B127FF6128068F0E4024BFD
:10498B0036128093024B3F9000EA12800112807F17
:10499B007008127FF6124D518003124D6D9000EA94
:1049AB00128001128055700B127FF6128068F0E4B2
:1049BB00024B7B7B01E4FDFC024B849000EA1280EE
:1049CB000112807F700B127FF6128068124DCD8022
:1049DB0003124D999000EA128001128055700B1250
:1049EB007FF6128068124D8E80081280937F1F1203
:1049FB0083D19000EA12800190000212805870035C
:104A0B00024B0E128093024B849000EA128001122B
:104A1B00807F7008127FF6124D518003124D6D90FE
:104A2B0000EA128001128055700B127FF61280681B
:104A3B00124D838003124D789000EA128001900092
:104A4B00021280587003024B0E128093024B84901B
:104A5B0000EA12800112807F700B127FF6128068C1
:104A6B00124D628003124DBA9000EA12800112803F
:104A7B0055700B127FF6128068124D838003124D16
:104A8B00789000EA128001900002128058700C128C
:104A9B007FF6128068F07B0F024CAF7B017D0F021B
:104AAB004CB89000EA12800112807F700B127FF6D7
:104ABB00128068124D628003124DBA9000EA128088
:104ACB0001128055700B127FF6128068124DA48074
:104ADB0003124DD89000EA12800190000212805808
:104AEB00700B127FF6128068124D8E800812809325
:104AFB007F1F1283D19000EA128001900003128075
:104B0B0058700C127FF6128068F07B0F024B7C12F0
:104B1B008093024B849000EA12800112807F701107
:104B2B00127FF6128068F0900183E0FB7D34024D1A
:104B3B00431280177F34024D4D9000EA1280011210
:104B4B00807F700E127FF6128068128030124DC576
:104B5B0080081280177F1F1283D19000EA12800108
:104B6B001280557011127FF6128068F0900183E06D
:104B7B00FB7D49024D431280177F49024D4D90003A
:104B8B00EA12800112807F7012127FF61280681277
:104B9B0080307D347F0112891E80081280177F348C
:104BAB001283D19000EA128001128055700B127F94
:104BBB00F6128068124DAF800812809A7F1F128305
:104BCB00D19000EA128001900002128058700E12F0
:104BDB007FF6128068F07B127D49024D4312809A5A
:104BEB007F49024D4D9000EA12800112807F700EBA
:104BFB00127FF6128068128030124DC58008128029
:104C0B00177F1F1283D19000EA128001128055701A
:104C1B0012127FF61280681280307D497F01128953
:104C2B001E80081280177F491283D19000EA1280F0
:104C3B0001900002128058700E127FF6128068F0FD
:104C4B007B127D49024D4312809A7F49024D4D9054
:104C5B0000EA12800112807F7012127FF6128068B8
:104C6B001280307D1F7F0112891E80081280177FF2
:104C7B001F1283D19000EA128001128055700B1223
:104C8B007FF6128068124DA48003124DD89000EA73
:104C9B00128001900002128058700E127FF6128063
:104CAB0068F07B127D1F024D437B017D127C007FE0
:104CBB001F024D4D9000EA12800112807F7012127C
:104CCB007FF61280681280307D1F7F0112891E8053
:104CDB00081280177F1F1283D19000EA12800112F5
:104CEB0080557012127FF61280681280307D497FDA
:104CFB000112891E80081280177F491283D1900000
:104D0B00EA128001900002128058700B127FF6128B
:104D1B008068124DAF800812809A7F1F1283D1904A
:104D2B0000EA1280019000031280587010127FF677
:104D3B00128068F07B127D497F0102891E12809AD6
:104D4B007F491283D1227495F0A37477F0E4FB7D35
:104D5B001F7F0112891E22F0E4FB7D1F7F01128948
:104D6B001E227B01E4FDFC7F1F1283D1227B01E419
:104D7B00FDFC7F491283D122F0E4FB7D497F0112B8
:104D8B00891E22F07B0F7D1F7F0112891E227B0162
:104D9B00E4FDFC7F341283D122F0E4FB7D497F01DB
:104DAB0012891E22F07B127D1F7F0112891E227B2E
:104DBB0001E4FDFC7F1F1283D1227D1F7F0112892D
:104DCB001E22F0E4FB7D347F0112891E227B01E45D
:084DDB00FDFC7F491283D12287
:10398C00900186E01236C839BB1139DE223A233158
:10399C003A94333AFB343B69413BF8913C21A23CCD
:1039AC006EB13CDEB33D48B43DC3C100003E4F1286
:1039BC00800A8005C333CE33CED8F9128021600B38
:1039CC00127FF61280377B0D023C117B057D0D02B8
:1039DC003C1A12800A8005C333CE33CED8F912803C
:1039EC0021600B127FF6128037123EAC8003123E20
:1039FC006890018812800D8005C333CE33CED8F980
:103A0C00128021600B127FF61280377B0D023C5E18
:103A1C007B057D0D023C6712800A8005C333CE33D3
:103A2C00CED8F91280216011127FF61280377B07F5
:103A3C007D257F0112891E80057D07123EF29001C3
:103A4C008812800D8005C333CE33CED8F912802175
:103A5C00600D127FF61280377B15123ECC8003125C
:103A6C003EB690018912800D8005C333CE33CED87B
:103A7C00F9128021600B127FF61280377B15023C05
:103A8C005E7B057D15023C6712800A8005C333CE30
:103A9C0033CED8F9128021600B127FF612803712C8
:103AAC003EAC8003123E6890018812800D8005C3E5
:103ABC0033CE33CED8F9128021600B127FF61280F0
:103ACC0037123EC28003123E7490018912800D8021
:103ADC0005C333CE33CED8F9128021600B127FF69A
:103AEC001280377B15023C5E7B057D15023C67120C
:103AFC00800A8005C333CE33CED8F9128021600BF7
:103B0C00127FF6128037123E808003123E509001D5
:103B1C008812800D8005C333CE33CED8F9128021A4
:103B2C00600D127FF61280377D3A123EEA80087DD6
:103B3C000D1280C61283D190018912800D8005C3AD
:103B4C0033CE33CED8F9128021600B127FF612805F
:103B5C00377B15023DB37B057D15023DBC12800AF7
:103B6C008005C333CE33CED8F9128021600B127F7F
:103B7C00F6128037123E808003123E50900188125C
:103B8C00800D8005C333CE33CED8F9128021600B63
:103B9C00127FF6128037123EC28003123E749001DF
:103BAC008912800D8005C333CE33CED8F912802113
:103BBC006011127FF61280377B157D107F01128900
:103BCC001E8003123EB690018A12800D8005C3330D
:103BDC00CE33CED8F9128021600B127FF6128037CB
:103BEC007B15023C5E7B057D15023C6712800A80CA
:103BFC0005C333CE33CED8F9128021600D127FF677
:103C0C001280377B107D25023E447B057D107C00A5
:103C1C007F25023E4C12800A8005C333CE33CED8AA
:103C2C00F9128021600D127FF61280377B10123E44
:103C3C00CC8003123E8A90018812800D8005C3331C
:103C4C00CE33CED8F9128021600D127FF612803758
:103C5C007B107D3A023E447B057D107C007F3A024E
:103C6C003E4C12800A8005C333CE33CED8F9128075
:103C7C00216011127FF61280377B087D257F01129F
:103C8C00891E80057D08123EF290018812800D80FD
:103C9C0005C333CE33CED8F9128021600B127FF6D8
:103CAC00128037123EFC8003123ED49001891280A0
:103CBC000D8005C333CE33CED8F9128021600D129E
:103CCC007FF61280377B197D3A023E441280C40283
:103CDC003E4C12800A8005C333CE33CED8F9128005
:103CEC0021600D127FF61280377D10123EEA8003A0
:103CFC00123E8A90018812800D8005C333CE33CEDC
:103D0C00D8F9128021600B127FF6128037123EE038
:103D1C008003123EA090018912800D8005C333CE22
:103D2C0033CED8F9128021600D127FF61280377BCA
:103D3C00197D3A023E441280C4023E4C12800A8025
:103D4C0005C333CE33CED8F9128021600B127FF627
:103D5C00128037123E968003123E5C9001881280CE
:103D6C000D8005C333CE33CED8F9128021601112E9
:103D7C007FF61280377B107D3A7F0112891E800BF3
:103D8C007B057D107C007F3A1283D19001891280D3
:103D9C000D8005C333CE33CED8F9128021600D12BD
:103DAC007FF61280377B197D10023E447B057D190E
:103DBC007C007F10023E4C12800A8005C333CE3348
:103DCC00CED8F9128021600B127FF6128037123E8A
:103DDC00968003123E5C90018812800D8005C333DF
:103DEC00CE33CED8F9128021600B127FF6128037B9
:103DFC00123EE08003123EA090018912800D8005D6
:103E0C00C333CE33CED8F9128021600B127FF61259
:103E1C008037123EFC8003123ED490018A12800D32
:103E2C008005C333CE33CED8F9128021600F127FB8
:103E3C00F61280377B197D3A7F0102891E1280C4ED
:103E4C001283D1227B057D077C007F101283D12247
:103E5C007B057D087C007F101283D1227B057D0DB4
:103E6C007C007F101283D1227B057D077C007F3A7A
:103E7C001283D1227B077D107F0112891E227B05C4
:103E8C007D107C007F101283D1227B087D107F0176
:103E9C0012891E227B057D087C007F3A1283D12279
:103EAC007B0D7D107F0112891E227B057D157C0008
:103EBC007F101283D1227B077D3A7F0112891E224B
:103ECC007D107F0112891E227B057D197C007F10DD
:103EDC001283D1227B087D3A7F0112891E227B0D31
:103EEC007F0112891E227B057C007F251283D12243
:0A3EFC007B197D107F0112891E2240
:108F6C00E4FF1295C3900184E024FE601104702983
:108F7C00128FA6127FF67495F0A37469800C128F71
:108F8C00A6127FF67495F0A3746C1280307D017F6D
:108F9C000112891E7FFF129814227F031298147FEE
:058FAC000412981122DF
:1094E400E4FF1295C390018CE054026402701212DE
:1094F40080EB1244161280EB12490B1280EB1262BD
:099504009D1297F6E4FF029301A9
:10250C0000000000000000000000000000000000BF
:10251C0000000000000000000000000000000000AF
:10252C00003E007E00FE01CE038E7F8E7F8E738E6A
:10253C00738E738E7F8E7F8E01CE00FE007E003EEA
:10254C0000000000020006000E001E003FFE7FFE91
:10255C007FFE3FFE1E000E00060002000000000081
:10256C000000000000400060007000787FFC7FFEDF
:10257C007FFE7FFC007800700060004000000000CF
:10258C00000003C003C003C003C003C003C003C0EA
:10259C0003C03FFC1FF80FF007E003C001800000F0
:1025AC0003C003C007E007E00E700E701C381C3827
:1025BC00381C381C7FFE7FFE700E700E700E700E75
:1025CC007FF87FFC383E381E381E381E383C3FF8EA
:1025DC003FF8383C381E381E381E383E7FFC7FF8DA
:1025EC000FF81FFC3C1C380E780E700E700070003B
:1025FC0070007000700E700E380E3C1C1FFC0FF833
:10260C007FF07FF07078703C703C703C70787FF09D
:10261C007FE0778073C071E070F07078703C701E52
:10262C0000006006700E781E7C3E7FFE77EE73CE47
:10263C00718E700E700E700E700E700E700E700E1D
:10264C0000001FF81FF800E000E000E000E000E0F0
:10265C0000E000E000E070E079E03FC01F800F0078
:10266C0000000000000003C007800F001E003FFCAC
:10267C003FFC1E000F00078003C00000000000009C
:10268C0000000000000003C001E000F000783FFCF7
:10269C003FFC007800F001E003C0000000000000E7
:1026AC0000000000018001800180018011881998D0
:1026BC001DB81FF80FF007E003C0018000000000F8
:1026CC00003E007E00FE01CE038E7F8E7F8E738EC9
:1026DC00738E738E7F8E7F8E01CE00FE007E003E49
:1026EC00700E700E700E700E700E700E781E381C00
:1026FC00381C1C381C380E700FF007E003C001802A
:10270C000000380038003800380038003800380035
:10271C0038003800380038063806380E3FFE3FFEC9
:10272C000000000000000000000003800FE01C709F
:10273C00183038383838383818301C700FE00380AF
:10274C000000000000000000000003C00FF01C3867
:10275C001C000F0007E000F000381C380FF003C01D
:10276C00000000000000000000000000000000005D
:10277C00000000000000000000000000000000004D
:10278C00000000000000000000000000000000003D
:10279C00000000000000000000000000000000002D
:1027AC00000000000000000000000000000000001D
:1027BC00000000000000000000000000000000000D
:1027CC0000000000000000000000000000000000FD
:1027DC0000000000000000000000000000000000ED
:1027EC0000000000000000000000000000000000DD
:1027FC0000000000000000000000000000000000CD
:10280C0000000000000000000000000000000000BC
:10281C0000000000000000000000000000000000AC
:10282C00000000000000000000000000000000009C
:10283C00000000000000000000000000000000008C
:10284C00000000000000000000000000000000007C
:10285C00000000000000000000000000000000006C
:10286C00000000000000000000000000000000005C
