:0300000002844532
:0C844500787FE4F6D8FD75812602848C57
:1093E200E004F0E0C394507480948022E02400F5FD
:0793F20082E43400F5832240
:10949B00D2BCD2AC758DF4D28EE4900050F0A3F018
:0194AB00229E
:1094AC00900050E0FFA3E0B507037F00227F01226C
:1093CB00C2AC9000501293EEE0FF9000501293E26B
:0693DB004002E4F0D2ACF8
:0193E1002269
:080003003099FD8F99C299228A
:0300230002920244
:10920200C0E0C083C082C0D0309815C2989000518F
:109212001293EEE599F09000511293E24002E4F0CD
:09922200D0D0D082D083D0E0321C
:1092E900C291D2917590F6C2B6C2B722AF038F80F0
:1092F900D293C29322900062E0FBA3E0FAA3E0F9C3
:019309002241
:10934700E490008FF07EFFC2AF1292ED8E80D29331
:0C935700C2938F801292E97580FFD2AFA4
:0193630022E7
:10936400C2AFAF051293471292ED1292F590008EA0
:0C937400E0F5801292E97580FFD2AF2274
:108EC700AC03C2AFAF051293471292EDAF040C1279
:108ED70092F7900060E0FBA3E475F001124CD6A96D
:108EE700F0FA124C56F580C291D291900063E014CB
:0C8EF700F070D91292ED7580FFD2AF220E
:02932900AC078F
:10932B00C2AFAF051293471292ED1292F57580FF03
:0B933B00C292AF80D2921292EDD2AF2E
:019346002204
:1089A000900062EBF0A3EAF0A3E9F01292FE124C01
:1089B000ECF47003E5F0F46038124CECFBAAF0EA3A
:1089C000FDE4FF1293291292FE900002124C6FFCFC
:1089D0006F6012124CECFBAAF0EAFD90008EECF0F6
:1089E000E4FF129364900063E475F003124CC080BE
:0289F000BA22A9
:019548002200
:105E1E002562782025627820256278000A3C523E61
:105E2E0025303262785B25303262785D3D25303226
:105E3E006278002562782025627800256278202518
:105E4E0062782025627820256278200025316278DC
:105E5E0020253162782025316278200052656164F8
:105E6E004173696342797465203D3D202562782037
:105E7E000A0063682562643A25626420006368251F
:105E8E0062643A2562642063682562643A2562641E
:105E9E00200063682562643A256264206368256287
:105EAE00643A2562642063682562643A2562642040
:105EBE000063682562643A25626420636825626423
:105ECE003A2562642063682562643A256264206321
:105EDE00682562643A256264200063682562643A2C
:105EEE002562642063682562643A256264206368D3
:105EFE002562643A2562642063682562643A2562ED
:105F0E00642063682562643A256264200025626419
:105F1E0020000A203D3D3D3D3D3D3D3D2050414749
:105F2E00452025623278203D3D3D3D3D3D3D3D3D88
:105F3E003D3D3D3D0A002562327809000A002531BB
:105F4E00627820253162782063682531627820637B
:105F5E006825316278206368253162782063682570
:105F6E003162782000656E726563616C6C00656EDF
:105F7E00667265657A6500656E686D6972726F72BC
:105F8E0000656E766D6972726F7200656E656E6811
:105F9E00616E636500656E626C616E6B00656E624C
:105FAE006F756E6400656E626C696E6B006469730A
:105FBE00726563616C6C00646973667265657A659F
:105FCE0000646973686D6972726F720064697376CA
:105FDE006D6972726F7200646973656E68616E636B
:105FEE006500646973626C616E6B00646973626FE5
:105FFE00756E6400646973626C696E6B003D3D3D45
:10600E003D3D20466F726D6174203A206368303DCD
:10601E005B2562785D206368313D5B2562785D208B
:10602E006368323D5B2562785D206368333D5B2596
:10603E0062785D203D3D3D3D3D0A0025627820257C
:10604E0062782063682562783A2562782063682535
:10605E0062783A2562782063682562783A256278FC
:10606E002063682562783A25627820003333320047
:10607E00260028002900627573770062757372001E
:10608E00616D697800616D757465006164756D7020
:10609E0000616761696E00616C6976650062757397
:1060AE00727400766D697800766D6978657272002B
:1060BE0076617474720079766D697800696E6974B0
:1060CE00007664657400767365746600737374721B
:1060DE00006873636F6D006D6F6465006469737340
:0F60EE0063726F6C6C007665720001020408101B
:04951F004100D60031
:10685A00A3F0A3E4F0A37400F0A3740AF0A3E4F095
:10686A00A37400F0A3740FF0A3E4F0A37400F0A3E0
:10687A00740BF0A3E4F0A37400F0A37410F0A3E483
:10688A00F0A37400F0740CA3F0A3E4F0A322A3F025
:10689A00A3E4F0A37400F0A3740AF0A3E4F0A374D1
:1068AA0000F0A3740FF0A3E4F0A37400F0A3740B38
:1068BA00F0A3E4F0A37400F0A37410F0A3E4F0A32F
:1068CA007400F0740CA3F0A3E4F0A322900055E046
:1068DA00FBA3E0FAA3E0F922A3F0A3E4F0A3740077
:1068EA00F0A3740AF0A3E4F0A37400F0A3740EF00A
:1068FA00A3E4F0A37400F0740BA3F0A3E4F0A322C2
:10690A0090006474FFF0A3745EF07480A3F0A3E4B3
:10691A00F0A3227400F0A37411F0A3E4F0A37400AE
:10692A00F0740DA3F0A3E4F0A3227400F0A3741191
:10693A00F0A3E4F0A37400F0740DA3F0A3E4F0A3B1
:10694A00227400F0A3740FF0A3E4F0A37400F074AF
:10695A000CA3F0A3E4F0A32290006474FFF0A374E4
:10696A005EF0748BA3F0A3E4F0A32290006474FF9A
:10697A00F0A3745FF0741BA3F0A3E4F0A3227400E5
:10698A00F0740AA3F0A3E4F0A3227400F0740AA33B
:10699A00F0A3E4F0A32290006474FFF0A322EBF0CA
:1069AA00A3EAF0A3E9F09000647401F0A322A3F033
:1069BA00A37401F0A37400F074C1A3F0A37401F0EE
:1069CA00A322A3F0A3E4F0A322A3F0A3E4F0A3225A
:1069DA00A3F0A3E4F0A322A3F0A3E4F0A322A3F07C
:1069EA00A3E4F0A322FFE024CAF582E43400F5838D
:1069FA00EFF022E0FF90005F7401F0A37400F0A3AF
:106A0A0074C6F07B017A0079C122A3F0A3E4F0A353
:106A1A0022A3F0A3E4F0A322EBF0A3EAF0A3E9F0A7
:106A2A0022900001E475F001024D177BFF7A5E792E
:106A3A002A90005EF022A3F0A3E4F0A322E054011E
:106A4A00FB7D2022250DF50DA3E0540322E50B90D2
:106A5A0060F893FFE50A932F22124D75024C56A354
:066A6A00F0A3E4F0A322FA
:10862F00900061126A22A31268D9126A637002FF66
:10863F00229000641268D9126A63B4200B90006410
:10864F001268D9126A2B80E99000641268D9124D12
:10865F0075C003C002C0019000611268D9124D9518
:10866F0080239000641268D9126A63FEB42010E46C
:10867F00124C9C9000641268D9126A2B7F0122EE73
:10868F0070037F01229000641268D9126A2B80D286
:068E4D00900061126A2290
:108E5300E4F514F5159000611268D9124C5660229E
:108E6300900061A3E475F001124CD6A9F0FA124CFC
:108E730056FF3395E0FEEF2515F515EE3514F51481
:068E830080D3AE14AF1510
:018E890022C6
:0F94BC007F411200037F431200037F4B02000326
:108C6900E4F50D9000C1E05403126A4E25E025E0B9
:108C7900126A4EC454F0126A4EC4333354C0250DDF
:108C8900F50D9000C0E0B5070D9000C5E0B50D06E3
:108C9900E49000D0F0229000D07401F09000C5E576
:078CA9000DF09000C0EFF098
:018CB00022A1
:108CF9001269A0745EF0741E1268917400F0740A0F
:108D09001268CF7400F0740B1269037400F0A37435
:108D19000CF0125B85AB0BAD0AE4FF1293299000AE
:108D290060EFF0E50A126A35A3E50BF01258020567
:068D39000BE50BB50CDF99
:018D3F002211
:108F79001269A0745EF074411269167400F0740AE3
:108F890012692D7400F0A3740BF0125B85AB0BAD65
:108F99000AE4FF129329900060EFF0E50A126A359E
:078FA900A3E50BF0025802E2
:1090BE001269A0745EF0741E1269447400F0740A92
:1090CE0012695B7400F0740B12696E7400F0A37475
:1090DE000CF0125B8590008EE50CF0AB0BAD0AE444
:0490EE00FF02936486
:108B8400E4F50AF50BF50CF50DC003C0021269A05B
:108B9400745EF074491269817400F0740A12698D6C
:108BA4007400F0740B1269997400F0740C1269CC9F
:108BB4007400F0A3740DF0D002D003125B85900012
:0D8BC4008EE50DF0AB0CAD0BE4FF029364E9
:108CB100E4F50AF50BF50CF50D1269A0745EF0747C
:108CC1005A1269CC7400F0740A1269D37400F074FA
:108CD1000B1269D37400F0A3740CF0125B85AB0C1A
:108CE100AD0BE4FF1293298F0D7BFF7A5E796A90B9
:088CF100005EE50DF0025802DF
:0371570090005B4A
:10715A001269A87400F0A3745BF07B017A00795E6F
:10716A0012862FE4FB7D1FFF128FB090005E12681B
:10717A00D912816DEE6003027298EF24FE603E140C
:10718A0060671470030272181470030272412404B7
:10719A00600302729812690A1269887400F0A37473
:1071AA000FF090005B1268D9125B85AB0FAD0AE451
:1071BA00FF1285BEE50A9060F89302729012696226
:1071CA001269887400F0740F1269DA7400F0740B93
:1071DA001269DA7400F0A37410F090005B1268D997
:1071EA00127299126A570272901269A0745EF07450
:1071FA00A012685A7400F0A37411F090005B126830
:10720A00D9127299AB11AD0C1272AF027290126957
:10721A00A0745EF074BF12685A12691D7400F0A35C
:10722A007412F090005B1268D91272C51272AFFF25
:10723A00E50D932F0272901269A0745EF0A374E8B0
:10724A0012685B12691D7400F074121269E174000D
:10725A00F0740E1269E17400F0A37413F090005BED
:10726A001268D91272C5E4FF1285BEAB13AD0EE4E3
:10727A00FF1285BE126A57FFE50C932FFFE50D93A7
:0E728A002FFFE50E932FFD7B01E4FF128FB066
:1072980022125B85AB0FAD0AE4FF1285BEAB10ADC1
:1072A8000BE4FF1285BE22E4FF1285BEE50B906059
:1072B800F893FFE50A932FFFE50C932F22125B85C5
:1072C800AB0FAD0AE4FF1285BEAB10AD0BE4FF12A5
:1072D80085BEAB11AD0CE4FF1285BEAB12AD0D221D
:0F94CB00E4FB7D1FFF128FB07DFFE4FF0291567F
:0378720090005B28
:107875001269A87400F0A3745BF07B017A00795E4D
:1078850012862F90005E1268D912816DEE60030298
:107895007980EF24FE603014605614607114700313
:1078A5000279372404600302798012690A12699407
:1078B5007400F0A3740FF090005B1268D9125B8519
:1078C500AB0FAD0A02797B1269621269947400F0FC
:1078D500740F1269E87400F0740B1269E87400F013
:1078E500A37410F090005B1268D912799B02797B22
:1078F5001269A0745EF074A01268987400F0A37405
:1079050011F090005B1268D912798102797B1269B6
:10791500A0745EF074BF1268981269347400F0A305
:107925007412F090005B1268D91279811279AC0259
:10793500797B1269A0745EF0A374E81268991269E4
:10794500347400F07412126A147400F0740E126A22
:10795500147400F0A37413F090005B1268D91279C7
:107965009BE4FF12869FAB11AD0C1279ACE4FF12BC
:0B797500869FAB13AD0EE4FF12869F4F
:1079800022125B85AB0FAD0AE4FF12869FAB10ADF0
:107990000BE4FF12869FAB11AD0C22125B85AB0F7F
:1079A000AD0AE4FF12869FAB10AD0B22E4FF1286F6
:0679B0009FAB12AD0D2299
:109426001269757400F0A3740AF0125B85AD0AE444
:04943600FF0291564A
:108A4400E4F50BC3E50B94037480948050427BFFE0
:108A54007A5F792090005EE50BF0125802E4F50A83
:108A6400AB0AAD0BE4FF12932990005EEFF07BFF9D
:108A74007A5F7944125802050AE50A540F70097B9B
:108A8400FF7A5F794A125802E50A70D4050B80B365
:018A940022BF
:1088F600C003C002C0011269A0745FF0744C126A12
:108906001B7400F0740A126A1B7400F0740B12696F
:10891600B87400F074C21269C47400F0A374C31270
:1089260069C57400F0A374C4F0D001D002D003125C
:108936005B85E50AC454F0FFE50B540F2FF50A12C8
:068946006A0DFF026FC084
:0666430090005B126A22C8
:10664900E4F5127B0190006404F0A37400F0A374D4
:106659005BF07A00795E12862F90005E1268D9127B
:10666900816D8F131269B012683B90005E1268D970
:10667900128E4D8E0A8F0B7A5F7973126818B50BDB
:106689000AEEB50A06750C800267187A5F797C12E2
:106699006818B50B0AEEB50A06750C400267187A38
:1066A9005F798512681FB50B09EEB50A05750C20CF
:1066B900805D7A5F798F12681FB50B09EEB50A05FF
:1066C900750C10804A7A5F7999126826B50B09EE24
:1066D900B50A05750C0880377A5F79A3126826B563
:1066E9000B09EEB50A05750C0480247A5F79AB12A3
:1066F900682DB50B09EEB50A05750C0280117A5F94
:1067090079B312682DB50B0DEEB50A09750C017533
:106719000D010267C27A5F79BB126834B50B0AEEC4
:10672900B50A06750C800267A57A5F79C5126834C7
:10673900B50B09EEB50A05750C4080607A5F79CF13
:1067490012684CB50B09EEB50A05750C20804D7A17
:106759005F79DA12684CB50B09EEB50A05750C10AC
:10676900803A7A5F79E5126853B50B09EEB50A05E7
:10677900750C0880277A5F79F0126853B50B09EE1A
:10678900B50A05750C0480147BFF7A5F79F9128EBE
:106799004DEFB50B0CEEB50A08750C02E4F50D804A
:1067A900187BFF7A607902128E4DEF650B7003EE4C
:1067B900650A705A750C01F50D1269B012683BEF44
:1067C900603390005E1268D9124C56B477EB900092
:1067D90001124C6FB469E2900002124C6FB46ED989
:1067E900E92403F9E43AFA12816D740E2512F8A628
:1067F90007051280C4E5126015240DF8E6FFC3955C
:0E680900135007AB0DAD0C129089151280E7ED
:10681700227BFF128E4DEF227BFF128E4DEF227BE4
:10682700FF128E4DEF227BFF128E4DEF227BFF1260
:106837008E4DEF227400F0A3745BF07B017A007930
:106847005E12862F227BFF128E4DEF227BFF128E68
:036857004DEF22E0
:109489001269757400F0A3740AF0125B85AF0A02C1
:02949900943A03
:108F3F00E4FF128AE5C0077F01128AE5C0077F02AE
:108F4F00128AE5C0077F03128AE5900061EFF09067
:108F5F000060D0E0F090005FD0E0F090005ED0E0D5
:0A8F6F00F07BFF7A60790B025802D4
:037D400090005B55
:107D43001269A87400F0A3745BF07B017A00795E7A
:107D530012862F90005E1268D912816DEE600302C5
:107D63007E32EF24FE602B14605314607924036089
:107D730003027E3212690A7400F0740A126A4074B4
:107D830000F0A3740EF090005B1268D9127E5102CA
:107D93007E2D1269A0745EF0748B1268E27400F099
:107DA300A3740FF090005B1268D9127E51E4FF12A6
:107DB30091AEE50FC454F0FBAD0B027E2D1269A00A
:107DC300745EF074A01268E212694B7400F0A3743D
:107DD30010F090005B1268D9127E33E510C454F0A2
:107DE300FBAD0C027E2D1269A0745EF0A374BF126A
:107DF30068E312694B7400F07410126A407400F067
:107E0300740D126A697400F0A37411F090005B1290
:107E130068D9127E33E510C454F0FBAD0CE4FF12B5
:0F7E230091AEE511C454F0FBAD0DE4FF1291AE2A
:107E320022125B85E50EC454F0FBAD0AE4FF1291F9
:107E4200AEE50FC454F0FBAD0BE4FF1291AE22126B
:0B7E52005B85E50EC454F0FBAD0A2276
:0388390090005B51
:10883C001269A81288861268D912816D8F0A126982
:10884C00B01288861268D912816D8F0B7F04129535
:10885C00427F031295457F0512930A90005BE0F965
:10886C00A3E0FAA3E0900064C9126A23AB0BAD0A33
:0A887C007F011287717F0502901E34
:108886007400F0A3745BF07B017A00795E12862F88
:0488960090005E22CE
:108BD100750B01E4F50AC3E50A940474809480508E
:108BE1002874C6250AF582E43400F583E030E415E3
:108BF10074C1250AF582E43400F583E0FDE4FF1237
:108C01009156E4F50B050A80CDE50B600FE4FB7D81
:0C8C11001FFF128FB07DFFE4FF12915690
:018C1D002234
:1075D700C003C002C0011269A07460F07449126A46
:1075E700697400F0A3740BF0A3E4F0A37400F074C3
:1075F7000C1269B87400F0A374C61269C57400F060
:10760700A374C21269C57400F0A374C71269C57464
:1076170000F0A374C31269C57400F0A374C812699B
:10762700C57400F0A374C41269C57400F0A374C9CB
:10763700F0D001D002D003125B85E50BC454F0FFF4
:107647009000BDE0FEC433333354802FFFE50C5464
:107657000F2F9000CFF09000C6E09000C11269EFA5
:107667009000C7E09000C21269EF9000C8E0FF9059
:1076770000C31269F09000C9E0FF9000C41269F0DE
:107687009000CA126A47E4FF128F039000CB126A78
:10769700477F01128F039000CC126A477F02128F37
:1076A700039000CD126A477F03128F037B017A0094
:1076B70079CA12772B9000CF1269FD12541A9000E5
:1076C700CFE0FF126A0D126FC0E4F50AC3E50A9412
:1076D7000474809480501774C6250AF582E4340038
:1076E700F583126A47AF0A129089050A80DEE4F52E
:1076F70019F51AF51B751C057F011295169000CF19
:10770700E0FF128C697F081290F2E4FF1293801257
:107717008D407B017A0079C61250809000CFE090AF
:0377270000D6F099
:01772A00223C
:10854D007F03128AE5EFFD3395E0FCED64024C707C
:10855D0002C3229000BDE0B50702D3229000BDEF0B
:10856D00F0E0C43333335480FF9000C0E0547F4FAC
:10857D00F07F0112901E9000BDE0FF1287D57B01A8
:10858D007A0079CA12772B9000C01269FD12541A25
:10859D009000C0E0FF126A0D126FC0E4FF129380CD
:1085AD00128D407B017A0079C612508012922BD326
:0185BD00229B
:109410001269A0745FF0A3741B1269C57400F0A3F5
:0694200074BEF0025B8542
:05953D007F0102901EF9
:10918300E490005BF07F4D12000390607A1291A48B
:10919300A31291A4A3A3E493FF1200037F4E020042
:0191A30003C8
:0A91A400E493FF12000390607A22AA
:0363AB009000550A
:1063AE001269A87400F0A37455F07B017A00795835
:1063BE0012862F9000581268D9128E4D8E088F09B2
:1063CE007A60797E1265F6B5090DEEB50809126888
:1063DE00D6128CF90265F37A6079801265F6B509EA
:1063EE000DEEB508091268D6128F790265F37A6040
:1063FE0079821265FDB5090DEEB508091268D6123F
:10640E0090BE0265F37A6079841265FDB5090DEED2
:10641E00B508091268D6128B840265F37A60798901
:10642E00126604B5090DEEB508091268D6128CB1C4
:10643E000265F37A60798E126604B5090DEEB50821
:10644E00091268D61271570265F37A607993126653
:10645E000BB5090AEEB508061294CB0265F37A6005
:10646E00799912660BB5090AEEB50806126C4A0246
:10647E0065F37A60799F126612B5090DEEB50809BB
:10648E001268D61278720265F37A6079A5126612D6
:10649E00B5090DEEB508091268D61294260265F3F9
:1064AE007A6079AB126619B5090AEEB50806128A3A
:1064BE00440265F37A6079B1126619B50915EEB525
:1064CE0008117F40128D851268D61288F61294BC80
:1064DE000265F37A6079B6126620B5090DEEB5083D
:1064EE00091268D61288F60265F37A6079BE1266D2
:1064FE0020B5090DEEB508091268D612664302657D
:10650E00F37A6079C4126627B50910EEB5080C123D
:10651E0094BC1268D61294890265F37A6079CA1215
:10652E006627B5090AEEB50806128DC90265F37A1B
:10653E006079CF12662EB5090AEEB50806128F3FA6
:10654E000265F37A6079D412662EB5090DEEB508A0
:10655E00091268D6127D400265F37A6079DA126606
:10656E0035B5090DEEB508091268D61288390265DF
:10657E00F37A6079DF126635B50924EEB50820127C
:10658E0094BC1268D61275D7128BD112922BE4FFDF
:10659E00129516E4F51BF51CF519751A0580467A49
:1065AE006079E512663CB5090FEEB5080B1294BC86
:1065BE001268D6129410802D7A6079EA12663CB574
:1065CE00090CEEB508081294BC12953D80177BFF9E
:1065DE007A6079F4128E4DEFB5090AEEB5080612FF
:0765EE0094BC1291837F01B0
:1065F500227BFF128E4DEF227BFF128E4DEF227B09
:10660500FF128E4DEF227BFF128E4DEF227BFF1284
:106615008E4DEF227BFF128E4DEF227BFF128E4DAA
:10662500EF227BFF128E4DEF227BFF128E4DEF2264
:0E6635007BFF128E4DEF227BFF128E4DEF2267
:1093F9000D0A0044656275672050726F6772616D6E
:07940900203E005043540017
:0E94E9009000B9E02490F582E43400F583226F
:108B35001294ACEF640170469000BAE07040129355
:108B4500CB8F08300003120003E50824F8601C24CD
:108B5500FB701F1294E9E4F09000BA04F0FB7A0070
:108B6500799012912630001602950D9000B9E01407
:0E8B7500F0221294E9E508F09000B9E004F057
:018B830022CF
:09950D007BFF7A9379F90291D8F1
:0B905400900055EBF0A3EAF0A3E9F058
:10905F00900055E0FBA3E0FAA3E0F9124C5660191B
:10906F00900055A3E475F001124CD6A9F0FA124CFA
:09907F0056F508FF12000380D72A
:0190880022C5
:1093B3003000097BFF7A9379FC129054E49000B952
:0893C300F0A3F0900090F022ED
:09951600EF6003C20122D2012220
:0C94F700C200C201C221E49000D8F022A3
:10912600900055EBF0A3EAF0A3E9F02000219000AF
:1091360055E0FBA3E0FAA3E0F8AC02AD037BFF7AAF
:1091460094790C124F88EF3395E04F7002D20022CB
:088A950090005BEEF0A3EFF08E
:108A9D0090005BE07002A3E0603DE490005DF0A308
:108AAD00F090005DE0FEA3E0FFE4FCFD7BD8FAF959
:108ABD00F8D3124D64401090005EE004F070E29027
:108ACD00005DE004F080DA90005CE024FFF090009F
:078ADD005BE034FFF080B9FB
:018AE400226F
:1084D100E4900052F0A374C8F0A37464F01292C641
:1084E1001294F7129548128DC91293B3128B3590DD
:1084F10000BAE0640170097B017A0079901263ABE4
:108501009000BAE0640170031293B3302107128521
:108511004D5002C2211294ACEF6009900053E075F6
:108521001B00F51CE51C6401451B700DF51BF51CBA
:10853100900054E0751900F51AE51A6401451970A7
:0C854100AB128E8A751900751A1480A008
:1092C600E4F5B8F5A8758780F5D0758921F5887518
:1092D6009852F5B175B21012949B12927BD299D224
:0392E600AF0022B4
:100026001010FFFFFFFFFFFFFFFFFFFFFFFFFFFFB8
:10003600FFFFFFFFFFFFFFFFFFFFFFFFFFFFFFFFCA
:10004600FFFFFFFFFFFFFFFFFFFFFFFFFFFFFFFFBA
:10005600FFFFFFFFFFFFFFFFFFFFFFFFFFFFFFFFAA
:10006600FFFFFFFFFFFFFFFFFFFFFFFFFFFFFFFF9A
:10007600FFFFFFFFFFFFFFFFFFFFFFFFFFFFFFFF8A
:10008600FFFFFFFFFFFFFFFFFFFFFFFFFFFFFFFF7A
:10009600FFFFFFFFFFFFFFFFFFFFFFFFFFFFFFFF6A
:1000A600FFFFFFFFFFFFFFFFFFFFFFFFFFFFFFFF5A
:1000B600FFFFFFFFFFFFFFFFFFFFFFFFFFFFFFFF4A
:1000C600FFFFFFFFFFFFFFFFFFFFFFFFFFFFFFFF3A
:1000D600FFFFFFFFFFFFFFFFFFFFFFFFFFFFFFFF2A
:1000E600FFFFFFFFFFFFFFFFFFFFFFFFFFFFFFFF1A
:1000F600FFFFFFFFFFFFFFFFFFFFFFFFFFFFFFFF0A
:10010600FFFFFFFFFFFFFFFFFFFFFFFFFFFFFFFFF9
:10011600FFFFFFFFFFFFFFFFFFFFFFFFFFFFFFFFE9
:10012600FFFF1010FFFFFFFFFFFFFFFFFFFFFFFFB7
:10013600FFFFFFFFFFFFFFFFFFFFFFFFFFFFFFFFC9
:10014600FFFFFFFFFFFFFFFFFFFFFFFFFFFFFFFFB9
:10015600FFFFFFFFFFFFFFFFFFFFFFFFFFFFFFFFA9
:10016600FFFFFFFFFFFFFFFFFFFFFFFFFFFFFFFF99
:10017600FFFFFFFFFFFFFFFFFFFFFFFFFFFFFFFF89
:10018600FFFFFFFFFFFFFFFFFFFFFFFFFFFFFFFF79
:10019600FFFFFFFFFFFFFFFFFFFFFFFFFFFFFFFF69
:1001A600FFFFFFFFFFFFFFFFFFFFFFFFFFFFFFFF59
:1001B600FFFFFFFFFFFFFFFFFFFFFFFFFFFFFFFF49
:1001C600FFFFFFFFFFFFFFFFFFFFFFFFFFFFFFFF39
:1001D600FFFFFFFFFFFFFFFFFFFFFFFFFFFFFFFF29
:1001E600FFFFFFFFFFFFFFFFFFFFFFFFFFFFFFFF19
:1001F600FFFFFFFFFFFFFFFFFFFFFFFFFFFFFFFF09
:10020600FFFFFFFFFFFFFFFFFFFFFFFFFFFFFFFFF8
:10021600FFFFFFFFFFFFFFFFFFFFFFFFFFFFFFFFE8
:10022600FFFFFFFF1010FFFFFFFFFFFFFFFFFFFFB6
:10023600FFFFFFFFFFFFFFFFFFFFFFFFFFFFFFFFC8
:10024600FFFFFFFFFFFFFFFFFFFFFFFFFFFFFFFFB8
:10025600FFFFFFFFFFFFFFFFFFFFFFFFFFFFFFFFA8
:10026600FFFFFFFFFFFFFFFFFFFFFFFFFFFFFFFF98
:10027600FFFFFFFFFFFFFFFFFFFFFFFFFFFFFFFF88
:10028600FFFFFFFFFFFFFFFFFFFFFFFFFFFFFFFF78
:10029600FFFFFFFFFFFFFFFFFFFFFFFFFFFFFFFF68
:1002A600FFFFFFFFFFFFFFFFFFFFFFFFFFFFFFFF58
:1002B600FFFFFFFFFFFFFFFFFFFFFFFFFFFFFFFF48
:1002C600FFFFFFFFFFFFFFFFFFFFFFFFFFFFFFFF38
:1002D600FFFFFFFFFFFFFFFFFFFFFFFFFFFFFFFF28
:1002E600FFFFFFFFFFFFFFFFFFFFFFFFFFFFFFFF18
:1002F600FFFFFFFFFFFFFFFFFFFFFFFFFFFFFFFF08
:10030600FFFFFFFFFFFFFFFFFFFFFFFFFFFFFFFFF7
:10031600FFFFFFFFFFFFFFFFFFFFFFFFFFFFFFFFE7
:10032600FFFFFFFFFFFF1010FFFFFFFFFFFFFFFFB5
:10033600FFFFFFFFFFFFFFFFFFFFFFFFFFFFFFFFC7
:10034600FFFFFFFFFFFFFFFFFFFFFFFFFFFFFFFFB7
:10035600FFFFFFFFFFFFFFFFFFFFFFFFFFFFFFFFA7
:10036600FFFFFFFFFFFFFFFFFFFFFFFFFFFFFFFF97
:10037600FFFFFFFFFFFFFFFFFFFFFFFFFFFFFFFF87
:10038600FFFFFFFFFFFFFFFFFFFFFFFFFFFFFFFF77
:10039600FFFFFFFFFFFFFFFFFFFFFFFFFFFFFFFF67
:1003A600FFFFFFFFFFFFFFFFFFFFFFFFFFFFFFFF57
:1003B600FFFFFFFFFFFFFFFFFFFFFFFFFFFFFFFF47
:1003C600FFFFFFFFFFFFFFFFFFFFFFFFFFFFFFFF37
:1003D600FFFFFFFFFFFFFFFFFFFFFFFFFFFFFFFF27
:1003E600FFFFFFFFFFFFFFFFFFFFFFFFFFFFFFFF17
:1003F600FFFFFFFFFFFFFFFFFFFFFFFFFFFFFFFF07
:10040600FFFFFFFFFFFFFFFFFFFFFFFFFFFFFFFFF6
:10041600FFFFFFFFFFFFFFFFFFFFFFFFFFFFFFFFE6
:10042600FFFFFFFFFFFFFFFF1010FFFFFFFFFFFFB4
:10043600FFFFFFFFFFFFFFFFFFFFFFFFFFFFFFFFC6
:10044600FFFFFFFFFFFFFFFFFFFFFFFFFFFFFFFFB6
:10045600FFFFFFFFFFFFFFFFFFFFFFFFFFFFFFFFA6
:10046600FFFFFFFFFFFFFFFFFFFFFFFFFFFFFFFF96
:10047600FFFFFFFFFFFFFFFFFFFFFFFFFFFFFFFF86
:10048600FFFFFFFFFFFFFFFFFFFFFFFFFFFFFFFF76
:10049600FFFFFFFFFFFFFFFFFFFFFFFFFFFFFFFF66
:1004A600FFFFFFFFFFFFFFFFFFFFFFFFFFFFFFFF56
:1004B600FFFFFFFFFFFFFFFFFFFFFFFFFFFFFFFF46
:1004C600FFFFFFFFFFFFFFFFFFFFFFFFFFFFFFFF36
:1004D600FFFFFFFFFFFFFFFFFFFFFFFFFFFFFFFF26
:1004E600FFFFFFFFFFFFFFFFFFFFFFFFFFFFFFFF16
:1004F600FFFFFFFFFFFFFFFFFFFFFFFFFFFFFFFF06
:10050600FFFFFFFFFFFFFFFFFFFFFFFFFFFFFFFFF5
:10051600FFFFFFFFFFFFFFFFFFFFFFFFFFFFFFFFE5
:10052600FFFFFFFFFFFFFFFFFFFF1010FFFFFFFFB3
:10053600FFFF00000000FFFFFFFFFFFFFFFFFFFFC1
:10054600FF000000000000FFFFFFFFFFFFFFFFFFAF
:100556000000020202020000FFFFFFFFFFFFFFFF95
:100566000000020202020000FFFFFFFFFFFFFF0084
:10057600000202000002020000FFFFFFFFFFFF0073
:10058600000202000002020000FFFFFFFFFF000062
:1005960002020000000002020000FFFFFFFF000051
:1005A600020200FFFF0002020000FFFFFF00000240
:1005B600020000FFFF000002020000FFFF00000231
:1005C6000200000000000002020000FF000002021C
:1005D60002020202020202020202000000000202FD
:1005E60002020202020202020202000000000202ED
:1005F60000000000000000000202000000000202ED
:100606000000FFFFFFFF00000202000000000202E0
:100616000000FFFFFFFF00000202000000000000D4
:100626000000FFFFFFFF00000000000010100000A8
:10063600000000000000000000000000FFFF0002B4
:1006460002020202020202020202000000FF00028F
:10065600020202020202020202020200000000007E
:100666000002020000000000020202020000FF0079
:1006760000020200FFFFFF00000202020000FF006E
:1006860000020200FFFFFF00000202020000FF005E
:1006960000020200000000000202020000FFFF004C
:1006A600000202020202020202020000FFFFFF0035
:1006B600000202020202020202020000FFFFFF0025
:1006C60000020200000000000202020000FFFF001C
:1006D60000020200FFFFFF00000202020000FF000E
:1006E60000020200FFFFFF000002020200000000FD
:1006F60000020200000000000202020200000002E6
:1007060002020202020202020202020000000002CB
:1007160002020202020202020202000000FF0000C0
:10072600000000000000000000000000FFFF1010A5
:10073600FFFFFF00000000000000000000FFFFFFB9
:10074600FFFF00000202020202020202000000FF96
:10075600FF00000202020202020202020200000080
:100766000000000202000000000000020202000079
:1007760000000202020000FFFFFF0000020200006C
:10078600000002020000FFFFFFFFFF000202000060
:10079600000002020000FFFFFFFFFFFF0000000055
:1007A600000002020000FFFFFFFFFFFFFFFFFFFF49
:1007B600000002020000FFFFFFFFFFFFFFFFFFFF39
:1007C600000002020000FFFFFFFFFF000000000024
:1007D600000002020000FFFFFFFFFF000202000010
:1007E60000000202000000FFFFFF000002020000FE
:1007F60000000202020000000000000202020000E7
:10080600FF000002020202020202020202000000CF
:10081600FFFF00000202020202020202000000FFC5
:10082600FFFFFF0000000000000000000000FFFFC7
:100836001010000000000000000000000000FFFF94
:10084600FFFF00000202020202020202020000FF93
:10085600FFFF000002020202020202020202000080
:10086600FFFF00000202000000000002020200007A
:10087600FFFF000002020000FFFF0000020200006E
:10088600FFFF000002020000FFFF0000020200005E
:10089600FFFF00000202000000000002020200004A
:1008A600FFFF00000202020202020202020000FF33
:1008B600FFFF00000202020202020202000000FF25
:1008C600FFFF000002020000020202000000FFFF1C
:1008D600FFFF000002020000000202020000FFFF0C
:1008E600FFFF00000202000000000202020000FFFB
:1008F600FFFF000002020000FF00000202020000EB
:10090600FFFF000002020000FFFF000002020200DB
:1009160000FF000002020000FFFFFF0000020202CB
:1009260000FF000000000000FFFFFFFF00000000C6
:1009360000FF101000000000FFFFFFFFFFFFFFFF9A
:10094600000000000000000000FFFFFFFFFFFF00A7
:100956000000000000000C0C0000FFFFFFFF00007D
:100966000C0C000000000C0C0C0000000000000C39
:100976000C0C000000000C0C0C0C000000000C0C11
:100986000C0C000000000C0C0C0C0C0C0C0C0C0CD1
:100996000C0C000000000C0C0C0C0C0C0C0C0C0CC1
:1009A6000C0C000000000C0C0C000C0C0C0C000CC9
:1009B6000C0C000000000C0C0C00000C0C00000CD1
:1009C6000C0C000000000C0C0C0000000000000CD9
:1009D6000C0C000000000C0C0C0000000000000CC9
:1009E6000C0C000000000C0C0C0000FFFF00000CBB
:1009F6000C0C000000000C0C0C0000FFFF00000CAB
:100A06000C0C000000000C0C0C0000FFFF00000C9A
:100A16000C0C000000000C0C0C0000FFFF00000C8A
:100A26000C0C000000000000000000FFFF000000AA
:100A3600000000001010FF00000000000000000091
:100A46000000000000FFFF00000202020202020294
:100A56000202020000FFFF0000020202020202027E
:100A66000202020000FFFF00000000000000020278
:100A76000200000000FFFFFFFFFFFFFF0000020271
:100A8600020000FFFFFFFFFFFFFFFFFF0000020263
:100A9600020000FFFFFFFFFFFFFFFFFF0000020253
:100AA600020000FFFFFFFFFFFFFFFFFF0000020243
:100AB600020000FFFFFFFFFFFFFFFFFF0000020233
:100AC600020000FFFFFFFFFFFFFFFFFF0000020223
:100AD600020000FFFFFFFF00000000FF000002020F
:100AE600020000FFFFFFFF000202000000000202FA
:100AF600020000FFFFFFFF000202020000020202E6
:100B0600020000FFFFFFFF000002020202020202D3
:100B1600000000FFFFFFFFFF0000020202020200CA
:100B26000000FFFFFFFFFFFFFF00000000000000C6
:100B360000FFFFFFFFFF1010FFFFFFFFFFFFFFFF9C
:100B4600FFFFFFFFFFFFFFFFFFFFFFFFFF000000AC
:100B560000000000FFFFFFFFFFFFFFFF0000010195
:100B660001010000FFFFFFFFFFFFFF000001010181
:100B760001010000FFFFFFFFFFFF0000010101016F
:100B8600010000FFFFFFFFFFFF000001010101015F
:100B96000000000000000000000001010101010149
:100BA6000101010101010000000101010101010132
:100BB6000101010101010000000101010101010122
:100BC6000101010101010000000001010101010113
:100BD6000101010101010000FF0000010101010105
:100BE6000000000000000000FFFF000001010101FD
:100BF600010000FFFFFFFFFFFFFFFF0000010101F3
:100C060001010000FFFFFFFFFFFFFFFF00000101E2
:100C160001010000FFFFFFFFFFFFFFFFFF000000D5
:100C260000000000FFFFFFFFFFFFFFFFFFFFFFFFCA
:100C3600FFFFFFFFFFFFFFFF1010FFFFFFFFFFFF9C
:100C4600FFFFFFFFFFFFFFFFFFFFFFFFFFFF0000AC
:100C56000000000000FFFFFFFFFFFFFFFFFF000097
:100C6600010101010000FFFFFFFFFFFFFFFF000082
:100C760001010101010000FFFFFFFFFFFFFFFF0071
:100C86000001010101010000FFFF0000000000005B
:100C9600000001010101010000FF00000101010146
:100CA6000101010101010101000000000101010132
:100CB6000101010101010101010000000101010121
:100CC6000101010101010101010000000000000015
:100CD600000001010101010000FF0000000000000A
:100CE600000001010101010000FFFFFFFFFFFF00FF
:100CF6000001010101010000FFFFFFFFFFFF0000EF
:100D060001010101010000FFFFFFFFFFFFFF0000DF
:100D1600010101010000FFFFFFFFFFFFFFFF0000D1
:100D26000000000000FFFFFFFFFFFFFFFFFFFFFFC8
:100D3600FFFFFFFFFFFFFFFFFFFF1010FFFFFFFF9B
:100D46000000000000000000FFFFFFFFFFFFFFFFA5
:100D56000000010101010000FFFFFFFFFFFFFFFF91
:100D66000000010101010000FFFFFFFFFFFFFFFF81
:100D76000000010101010000FFFFFFFFFFFFFFFF71
:100D86000000010101010000FFFFFFFF000000005D
:100D96000000010101010000000000000000010147
:100DA6000000010101010000010100000000010135
:100DB6000100010101010001010100000000010123
:100DC6000101010101010101010100000000010111
:100DD600010101010101010101010000FF00000103
:100DE6000101010101010101010000FFFFFF0000F7
:100DF60001010101010101010000FFFFFFFFFF00EA
:100E0600000101010101010000FFFFFFFFFFFFFFDD
:100E16000000010101010000FFFFFFFFFFFFFFFFD0
:100E2600FF000001010000FFFFFFFFFFFFFFFFFFC4
:100E3600FFFF00000000FFFFFFFFFFFF1010FFFF96
:100E4600FFFFFFFFFFFF0000000000000000FFFFA4
:100E5600FFFFFFFFFF000002020202020000FFFF89
:100E6600FFFFFFFF00000202020202020000FFFF76
:100E7600FFFFFF0000020202000002020000000065
:100E86000000000002020200000002020000000052
:100E96000202020202020200FF000202000000003B
:100EA6000202020202020200FF000202000000002B
:100EB6000202000000020200FF0002020000000021
:100EC600020200FF00020200FF0002020000000012
:100ED6000202000000020200FF0002020000000001
:100EE6000202020202020200FF00020200000000EB
:100EF60002020202020202000000020200000000DA
:100F06000000000000020202000002020000FFFFD3
:100F1600FFFFFFFF00000202020202020000FFFFC5
:100F2600FFFFFFFFFF000002020202020000FFFFB8
:100F3600FFFFFFFFFFFF0000000000000000101091
:100F46000000000000FFFFFFFFFFFF0000000000A1
:100F56000004040400FFFFFFFFFFFF000404040079
:100F66000004040400FFFFFFFFFFFF000404040069
:100F76000004040400FFFFFFFFFFFF000404040059
:100F86000004040400FFFFFFFFFFFF000404040049
:100F9600000404040000FFFFFFFF00000404040037
:100FA600000404040400FFFFFFFF0004040404001F
:100FB600000004040400FFFFFFFF00040404000017
:100FC60000000404040000FFFF0000040404000005
:100FD600FF0000040404000000000404040000FFF5
:100FE600FFFF000004040400000404040000FFFFE7
:100FF600FFFF000000040400000404000000FFFFDF
:10100600FFFFFF00000404040404040000FFFFFFC8
:10101600FFFFFFFF0000040404040000FFFFFFFFC2
:10102600FFFFFFFFFF00000404000000FFFFFFFFBB
:10103600FFFFFFFFFFFF0000000000FFFFFFFFFFB5
:10104600101000000000000000FFFFFFFFFFFFFF81
:10105600FFFF00000404040000FFFFFFFFFFFFFF87
:10106600FFFF00000404040000FFFFFFFFFFFFFF77
:10107600FFFF00000404040000FFFFFFFFFFFFFF67
:10108600FFFF00000404040000FFFFFFFFFFFFFF57
:10109600FFFF00000404040000FFFFFFFFFFFFFF47
:1010A600FFFF00000404040000FFFFFFFFFFFFFF37
:1010B600FFFF00000404040000FFFFFFFFFFFFFF27
:1010C600FFFF00000404040000FFFFFFFFFFFFFF17
:1010D600FFFF00000404040000FFFFFFFFFF000005
:1010E600000000000404040000FFFFFFFFFF0000F3
:1010F600000000000404040000FFFFFFFF000004DE
:1011060000000000040404000000000000000404C5
:101116000000000004040404040404040404040499
:101126000000000004040404040404040404040489
:1011360000000000000000000000000000000000A9
:1011460000001010FFFFFFFFFFFFFFFFFFFFFFFF85
:10115600FFFFFFFFFFFFFFFFFFFFFFFFFFFFFFFF99
:10116600FFFFFFFFFFFFFFFFFFFFFFFFFFFFFFFF89
:10117600FFFFFFFFFFFFFFFF00000000000000FF72
:10118600FFFFFFFFFFFFFF00000004040400000054
:10119600FFFFFFFFFFFF0000040404040404040033
:1011A60000FFFFFFFF000004040400000004040425
:1011B6000000FFFF00000004040000FF000004041C
:1011C600000000FF00000404040000FF0000040407
:1011D600040000FF00000404040000FF00000404F3
:1011E600040000FF00000404040000FF00000404E3
:1011F600040000FF00000004040000FF00000404D7
:10120600000000FFFF0000040404000000040404C2
:101216000000FFFFFFFF00000404040404040400B0
:1012260000FFFFFFFFFFFF000000040404000000B2
:10123600FFFFFFFFFFFFFFFF00000000000000FFB1
:10124600FFFFFFFF1010FFFFFFFFFFFFFFFFFFFF86
:10125600FFFFFFFFFFFFFFFFFFFFFFFFFFFFFFFF98
:10126600FFFFFFFFFFFFFFFFFFFFFFFFFFFFFFFF88
:10127600FFFFFFFFFFFFFFFFFFFF00000000000072
:101286000000FFFFFFFFFFFF00000000040404044E
:10129600000000FFFFFFFF00000004040404040434
:1012A60004040000FFFFFF00000404040000000027
:1012B6000404040000FFFF00000404040000FF0013
:1012C6000000000000FFFF0000000404040400000A
:1012D6000000FFFFFFFFFFFFFF00000404040404FB
:1012E600040000FFFFFFFFFFFFFF000000000404F3
:1012F60004040000FFFFFF0000000000FFFF0000E5
:101306000404040000FFFF000004040400000000C1
:101316000404040000FFFF000000040404040404A5
:1013260004040000FFFFFFFFFF00000004040404A4
:10133600000000FFFFFFFFFFFFFFFF0000000000AF
:101346000000FFFFFFFF101004040FFFFFFFFFFF69
:10135600FFFF0404FFFFFFFF040404FFFFFFFFFF7E
:10136600FFFF0404FFFFFFFF0404040FFFFFFFFF5E
:10137600FFFF0404FFFFFFFF040404040FFFFFFF49
:10138600FFFF0404FFFFFFFF0404FF0404FFFFFF49
:10139600FFFF0404FFFFFF040404FF04040FFFFF24
:1013A600FFFF0404FFFFFF040404FFFF0404FFFF24
:1013B600FFFF0404FFFFFF040404FFFF04040FFF04
:1013C600FFFF0404FFFFFF040404FFFFFF04040FF4
:1013D600FFFF0404FFFFFF040404FFFFFFFF0404F4
:1013E600FFFF0404FFFFFF040404FFFFFFFF0404E4
:1013F6000FFF0404FFFFFF040404FFFFFFFFFF04C9
:1014060004FF0404FFFFFF040404FFFFFFFFFFFFC8
:1014160004040404FFFFFFFF0404FFFFFFFFFFFFB8
:1014260004040404FFFFFFFF0404FFFFFFFFFFFFA8
:10143600FF040404FFFFFFFF0404FFFFFFFFFFFF9D
:10144600FF040404FFFFFFFF1010FFFFFF04040466
:101456000404040FFFFFFFFFFFFFFFFF0404040463
:1014660004040404040FFFFFFFFFFF040404FFFF4E
:10147600FFFFFF0404040FFFFFFF04040FFFFFFF3D
:10148600FFFFFFFF040404FFFFFF0404FFFFFFFF4D
:10149600FFFFFFFFFF04040FFFFF040FFFFFFFFF27
:1014A600FFFFFFFFFF040404FFFF04FFFFFFFFFF32
:1014B600FFFFFFFFFFFF0404FFFF04FFFFFFFFFF27
:1014C600FFFFFFFFFFFF0404FFFF04FFFFFFFFFF17
:1014D600FFFFFFFFFFFF0404FFFF04FFFFFFFFFF07
:1014E600FFFFFFFFFFFF0404FFFF040FFFFFFFFFE7
:1014F600FFFFFFFFFF040404FFFF0404FFFFFFFFDD
:10150600FFFFFFFFFF04040FFFFF04040FFFFFFFB1
:10151600FFFFFFFF040404FFFFFFFF040404FFFFB7
:10152600FFFFFF0404040FFFFFFFFFFF0404040492
:1015360004040404040FFFFFFFFFFFFFFFFF040482
:101546000404040FFFFFFFFFFFFF1010FFFFFFFF64
:10155600FF04040FFFFFFFFFFFFFFFFFFFFFFFFF7B
:10156600FF040404FFFFFFFFFFFFFFFFFFFFFFFF76
:10157600FFFF0404FFFFFFFFFFFFFFFFFFFFFFFF6B
:10158600FFFF04040FFFFFFFFFFFFFFFFFFFFFFF4B
:10159600FFFFFF0404FFFFFFFFFFFFFFFFFFFFFF4B
:1015A600FFFFFF04040FFFFFFFFFFFFFFFFFFFFF2B
:1015B600FFFFFF040404FFFFFFFFFF04FFFFFFFF21
:1015C600FFFFFFFF0404FFFFFFFFFF04FFFFFFFF16
:1015D600FFFFFFFF04040FFFFFFFFF04FFFFFFFFF6
:1015E600FFFFFFFF040404FFFFFF0404FFFFFFFFEC
:1015F600FFFFFFFFFF04040FFFFF0404FFFFFFFFD1
:10160600FFFFFFFFFF04040FFFFF0404FFFFFFFFC0
:10161600FFFFFFFFFFFF0404FF04040FFFFFFFFFB0
:10162600FFFFFFFFFFFF04040F0404FFFFFFFFFFA0
:10163600FFFFFFFFFFFF0404040404FFFFFFFFFF9B
:10164600FFFFFFFFFFFFFF0404040FFF1010FFFF63
:101656000404FFFF04040FFFFFFF04040404FF0457
:101666000404FFFF04040FFFFFFF04040404FF0447
:10167600040FFFFF04040FFFFFFF04040FFFFF0426
:1016860004FFFFFF04040FFFFFFF04040FFF040421
:101696000FFFFFFF04040FFFFFFF04040FFF040406
:1016A6000FFFFFFF04040FFFFFFF04040FFF0404F6
:1016B600FFFFFFFF04040FFFFFFF04040FFF040FEB
:1016C600FFFFFFFF04040FFFFFFF04040FFF04FFEB
:1016D600FFFFFFFF04040FFFFFFF04040FFF04FFDB
:1016E600FFFFFFFF04040FFFFFFF04040FFF0FFFC0
:1016F600FFFFFFFF04040FFFFFFF04040FFFFFFFC0
:10170600FFFFFFFF04040FFFFFFF04040FFFFFFFAF
:10171600FFFFFFFF04040FFFFFFF04040FFFFFFF9F
:10172600FFFFFFFF04040FFFFFFF04040FFFFFFF8F
:10173600FFFFFFFF04040FFFFFFF04040404FFFF85
:10174600FFFFFFFF04040FFFFFFF04040404101053
:1017560004040404040FFFFFFFFFFFFF0404040456
:1017660004040404040404FFFFFFFFFF040404044C
:10177600FFFFFFFFFF040404FFFFFFFF04040FFF4A
:10178600FFFFFFFFFFFF04040FFFFFFF04040FFF2F
:10179600FFFFFFFFFFFF040404FFFFFF04040FFF2A
:1017A600FFFFFFFFFFFFFF0404FFFFFF04040FFF1F
:1017B600FFFFFFFFFFFFFF04040FFFFF04040FFFFF
:1017C600FFFFFFFFFFFFFF04040FFFFF04040404F5
:1017D600FFFFFFFFFFFFFF04040FFFFF04040404E5
:1017E600FFFFFFFFFFFFFF04040FFFFF04040FFFCF
:1017F600FFFFFFFFFFFFFF0404FFFFFF04040FFFCF
:10180600FFFFFFFFFFFF040404FFFFFF04040FFFB9
:10181600FFFFFFFFFFFF04040FFFFFFF04040FFF9E
:10182600FFFFFFFFFF040404FFFFFFFF04040FFF99
:1018360004040404040404FFFFFFFFFF040404047B
:1018460004040404040FFFFFFFFFFFFF0404040465
:10185600101004040404040404040FFFFFFFFFFF38
:10186600FF0404040404040404040FFFFFFFFF0440
:101876000404FFFFFFFFFFFFFFFFFFFFFFFF04045E
:10188600040FFFFFFFFFFFFFFFFFFFFFFF0404043E
:10189600FFFFFFFFFFFFFFFFFFFFFFFFFF04040F38
:1018A600FFFFFFFFFFFFFFFFFFFFFFFFFF0404FF38
:1018B600FFFFFFFFFFFFFFFFFFFFFFFF04040FFF18
:1018C600FFFF040404040404040FFFFF04040FFFD5
:1018D600FFFF040404040404040FFFFF04040FFFC5
:1018E600FFFFFFFFFFFFFFFFFFFFFFFF04040FFFE8
:1018F600FFFFFFFFFFFFFFFFFFFFFFFFFF0404FFE8
:10190600FFFFFFFFFFFFFFFFFFFFFFFFFF04040FC7
:10191600FFFFFFFFFFFFFFFFFFFFFFFFFF040404C2
:10192600FFFFFFFFFFFFFFFFFFFFFFFFFFFF0404B7
:10193600040F04040404040404040FFFFFFFFF045F
:10194600040404040404040404040FFFFFFFFFFF5F
:10195600FF0410100404040404FFFFFFFFFFFFFF51
:10196600FFFFFFFF0404040404040FFFFFFFFFFF53
:10197600FFFFFFFFFFFFFFFF0404040FFFFFFFFF52
:10198600FFFFFFFFFFFFFFFFFFFF04040FFFFFFF47
:10199600FFFFFFFFFFFFFFFFFFFF040404FFFFFF42
:1019A600FFFFFFFFFFFFFFFFFFFFFF04040FFFFF27
:1019B600FFFFFFFFFFFFFFFFFFFFFF04040FFFFF17
:1019C600FFFFFFFFFFFFFFFFFFFFFF04040FFFFF07
:1019D600FFFFFFFFFFFFFFFFFFFFFF04040FFFFFF7
:1019E600FFFFFFFFFFFFFFFFFFFFFF04040FFFFFE7
:1019F600FFFFFFFFFFFFFFFFFFFFFF04040FFFFFD7
:101A0600FFFFFFFFFFFFFFFFFFFF040404FFFFFFD1
:101A1600FFFFFFFFFFFFFFFFFFFF04040FFFFFFFB6
:101A2600FFFFFFFFFFFFFFFF04040404FFFFFFFFAC
:101A3600FFFFFFFF0404040404040FFFFFFFFFFF82
:101A4600FFFFFFFF0404040404FFFFFFFFFFFFFF87
:101A5600FFFFFFFF1010FFFFFFFFFF040404040455
:101A6600040FFFFFFFFFFFFFFFFF0404040404044D
:101A7600040404FFFFFFFFFFFF040404FFFFFFFF52
:101A8600FF040404FFFFFFFF040404FFFFFFFFFF42
:101A9600FFFF04040FFFFFFF04040FFFFFFFFFFF1C
:101AA600FFFF04040FFFFFFFFF0404FFFFFFFFFF1C
:101AB600FFFFFFFFFFFFFFFFFF0404040404FFFF17
:101AC600FFFFFFFFFFFFFFFFFFFF04040404040402
:101AD6000404FFFFFFFFFFFFFFFFFFFFFF040404F7
:101AE6000404040FFFFFFFFFFFFFFFFFFFFFFFFFE1
:101AF600FF0404040FFFFF04040FFFFFFFFFFFFFB7
:101B0600FFFF04040FFFFFFF0404FFFFFFFFFFFFBB
:101B1600FFFF04040FFFFFFF04040FFFFFFFFFFF9B
:101B2600FFFF04040FFFFFFF04040404FFFFFFFF91
:101B3600FF040404FFFFFFFFFF040404040404047D
:101B4600040404FFFFFFFFFFFFFFFF040404040477
:101B5600040FFFFFFFFF1010FF04040FFFFFFFFF3E
:101B6600FFFFFF0404040404FF04040FFFFFFFFF4C
:101B7600FF04040404040404FF04040FFFFFFFFF32
:101B860004040404FFFFFFFFFF04040FFFFFFFFF31
:101B960004040FFFFFFFFFFFFF04040FFFFFFF0416
:101BA600040FFFFFFFFFFFFFFF04040FFFFFFF040B
:101BB60004FFFFFFFFFFFFFFFF04040FFFFFFF040B
:101BC60004FFFFFFFFFFFFFFFF04040FFFFF0404F6
:101BD60004FFFFFFFFFFFFFFFF04040FFFFF0404E6
:101BE6000FFFFFFFFFFF0404FF04040FFFFFFF04C6
:101BF60004FFFFFFFFFF0404FF04040FFFFFFF04C1
:101C060004FFFFFFFFFFFFFFFF04040FFFFFFF04BA
:101C1600040FFFFFFFFFFFFFFF04040FFFFFFFFF9F
:101C260004040FFFFFFFFFFFFF04040FFFFFFFFF8A
:101C360004040404FFFFFFFFFF04040FFFFFFFFF80
:101C4600FF04040404040404FF04040FFFFFFFFF61
:101C5600FFFFFFFF0404040410100404FFFFFFFF4E
:101C6600FFFFFF04040FFFFFFFFF0404040FFFFF45
:101C7600FFFFFF040404FFFFFFFFFF0404040FFF40
:101C8600FFFFFF0404040FFFFFFFFFFFFF0404FF35
:101C9600FFFFFF04040404FFFFFFFFFFFF04040F20
:101CA600FFFFFF040404040FFFFFFFFFFFFFFFFF1A
:101CB600FFFFFF0404FF04040FFFFFFFFFFFFFFF0A
:101CC600FFFFFF0404FFFF0404FFFFFFFFFFFFFF0A
:101CD600FFFFFF0404FFFF04040F040404040404CC
:101CE600FFFFFF0404FFFFFF0404040404040404CC
:101CF600FFFFFF0404FFFFFF0404FFFFFF040404CB
:101D0600FFFFFF0404FFFFFFFF04FFFFFF040404BF
:101D1600FFFFFF0404FFFFFFFFFFFFFFFF040404B4
:101D2600FFFFFF0404FFFFFFFFFFFFFF040404049F
:101D3600FFFFFF0404FFFFFFFFFF040404040FFF7F
:101D4600FFFFFF0404FFFFFFFFFF0404FFFFFFFF89
:101D5600FFFFFF0404FFFFFFFFFF1010FFFFFF045C
:101D660004FFFFFFFFFFFFFFFF040404FFFFFF0464
:101D760004FFFFFFFFFFFFFF04040404FFFFFF044F
:101D860004FFFFFFFFFFFFFF04040404FFFFFF043F
:101D960004FFFFFFFFFFFF040404FF04FFFFFF042F
:101DA60004FFFFFFFFFFFF04040FFF04FFFFFF0414
:101DB60004FFFFFFFFFFFF0404FFFFFFFFFFFF0419
:101DC60004FFFFFFFFFF04040FFFFFFFFFFFFF04F9
:101DD60004FFFFFFFFFF04040FFFFFFFFFFFFF04E9
:101DE60004FFFFFFFF040404FFFFFFFF0FFFFF04D4
:101DF60004FFFFFFFF04040404040404040FFF04AB
:101E060004FFFFFFFF040404040404040404FF04A5
:101E160004FFFFFF04040FFFFFFFFFFF04040F048E
:101E260004FFFFFF0404FFFFFFFFFFFFFF0404049E
:101E360004FFFF040404FFFFFFFFFFFFFFFF04048E
:101E460004FFFF04040FFFFFFFFFFFFFFFFF040473
:101E560004FFFF0404FFFFFFFFFFFFFF1010FFFF5B
:101E6600FFFFFFFFFFFF0404FFFFFFFFFFFF0FFF62
:101E7600FFFFFFFFFFFF0404FFFFFFFFFFFF0FFF52
:101E8600FFFFFFFFFFFF0404FFFFFFFFFFFF04FF4D
:101E9600FFFFFFFFFFFF0404FFFFFFFFFFFF040F2D
:101EA600FFFFFFFFFFFF0404FFFFFFFFFFFF040428
:101EB600FFFFFFFFFFFF0404FFFFFFFFFFFF040418
:101EC6000FFFFFFFFFFF0404FFFFFFFFFFFF0404F8
:101ED6000FFFFFFFFFFF0404FFFFFFFFFFFFFF04ED
:101EE60004FFFFFFFFFF0404FFFFFFFFFFFF0404E3
:101EF600040FFFFFFFFF0404FFFFFFFFFFFF0404C3
:101F06000404FFFFFFFF0404FFFFFFFFFFFFFFFFC7
:101F160004040FFFFFFF0404FFFFFFFFFFFFFFFFA7
:101F260004040FFFFFFF0404FFFFFFFFFFFFFFFF97
:101F3600FF0404FFFFFF0404FFFFFFFFFFFFFFFF97
:101F4600FF04040FFFFF0404040404040404FFFF59
:101F5600FFFF0404FFFF0404040404040404101037
:101F6600FFFFFFFFFF000000000000FFFFFFFFFF75
:101F7600FFFFFF00000002020202000000FFFFFF59
:101F8600FFFF000002020202020202020000FFFF3F
:101F9600FF0000020202000000000002020000FF33
:101FA600FF0002020200FFFFFFFF0000020200FF27
:101FB600FF00020202020000FFFFFF00000000FF18
:101FC600FF000002020202020000FFFFFFFFFFFF08
:101FD600FFFF0000000002020202000000FFFFFFF8
:101FE600FFFFFFFFFF00000002020202020000FFE7
:101FF600FFFFFFFFFFFFFF0000000202020200FFDB
:10200600FF00000000FFFFFFFF000000020200FFCC
:10201600FF0002020000FFFFFFFF0000020200FFB8
:10202600FF0000020200000000000002020000FFA4
:10203600FFFF000002020202020202020000FFFF8E
:10204600FFFFFF00000002020202020000FFFFFF86
:10205600FFFFFFFFFF00000000000000FFFFFFFF83
:10206600101000000000000000000000000000004A
:10207600000000010101010101010101010101014D
:10208600010000010101010101010101010101013C
:10209600010000010101010101010101010101012C
:1020A6000100000000000000010101010000000025
:1020B6000000FFFFFFFFFF000101010100FFFFFF1E
:1020C600FFFFFFFFFFFFFF000101010100FFFFFF10
:1020D600FFFFFFFFFFFFFF000101010100FFFFFF00
:1020E600FFFFFFFFFFFFFF000101010100FFFFFFF0
:1020F600FFFFFFFFFFFFFF000101010100FFFFFFE0
:10210600FFFFFFFFFFFFFF000101010100FFFFFFCF
:10211600FFFFFFFFFFFFFF000101010100FFFFFFBF
:10212600FFFFFFFFFFFFFF000101010100FFFFFFAF
:10213600FFFFFFFFFFFFFF000101010100FFFFFF9F
:10214600FFFFFFFFFFFFFF000101010100FFFFFF8F
:10215600FFFFFFFFFFFFFF000000000000FFFFFF83
:10216600FFFF1010FFFFFFFFFFFFFFFFFFFFFFFF57
:10217600FFFFFFFFFFFFFFFFFFFFFFFFFFFFFFFF69
:10218600FFFFFFFFFFFFFFFFFFFFFFFFFFFFFFFF59
:10219600FFFFFFFFFFFFFFFFFFFFFFFFFFFFFFFF49
:1021A600FFFFFFFFFFFFFFFFFFFFFFFFFFFFFFFF39
:1021B600FFFFFFFFFFFFFFFFFFFFFFFFFFFFFFFF29
:1021C600FFFFFFFFFFFFFFFFFFFFFFFFFFFFFFFF19
:1021D600FFFFFFFFFFFFFFFFFFFFFFFFFFFFFFFF09
:1021E600FFFFFFFF1010FFFFFFFFFFFFFFFFFFFFD7
:1021F600FFFFFFFFFFFFFFFFFFFFFFFFFFFFFFFFE9
:10220600FFFFFFFFFFFFFFFFFFFFFFFFFFFFFFFFD8
:10221600FFFFFFFFFFFFFFFFFFFFFFFFFFFFFFFFC8
:10222600FFFFFFFFFFFFFFFFFFFFFFFFFFFFFFFFB8
:10223600FFFFFFFFFFFFFFFFFFFFFFFFFFFFFFFFA8
:10224600FFFFFFFFFFFFFFFFFFFFFFFFFFFFFFFF98
:10225600FFFFFFFFFFFFFFFFFFFFFFFFFFFFFFFF88
:10226600FFFFFFFFFFFF1010FFFFFFFFFFFFFFFF56
:10227600FFFFFFFFFFFFFFFFFFFFFFFFFFFFFFFF68
:10228600FFFFFFFFFFFFFFFFFFFFFFFFFFFFFFFF58
:10229600FFFFFFFFFFFFFFFFFFFFFFFFFFFFFFFF48
:1022A600FFFFFFFFFFFFFFFFFFFFFFFFFFFFFFFF38
:1022B600FFFFFFFFFFFFFFFFFFFFFFFFFFFFFFFF28
:1022C600FFFFFFFFFFFFFFFFFFFFFFFFFFFFFFFF18
:1022D600FFFFFFFFFFFFFFFFFFFFFFFFFFFFFFFF08
:1022E600FFFFFFFFFFFFFFFF1010FFFFFFFFFFFFD6
:1022F600FFFFFFFFFFFFFFFFFFFFFFFFFFFFFFFFE8
:10230600FFFFFFFFFFFFFFFFFFFFFFFFFFFFFFFFD7
:10231600FFFFFFFFFFFFFFFFFFFFFFFFFFFFFFFFC7
:10232600FFFFFFFFFFFFFFFFFFFFFFFFFFFFFFFFB7
:10233600FFFFFFFFFFFFFFFFFFFFFFFFFFFFFFFFA7
:10234600FFFFFFFFFFFFFFFFFFFFFFFFFFFFFFFF97
:10235600FFFFFFFFFFFFFFFFFFFFFFFFFFFFFFFF87
:10236600FFFFFFFFFFFFFFFFFFFF1010FFFFFFFF55
:10237600FFFFFFFFFFFFFFFFFFFFFFFFFFFFFFFF67
:10238600FFFFFFFFFFFFFFFFFFFFFFFFFFFFFFFF57
:10239600FFFFFFFFFFFFFFFFFFFFFFFFFFFFFFFF47
:1023A600FFFFFFFFFFFFFFFFFFFFFFFFFFFFFFFF37
:1023B600FFFFFFFFFFFFFFFFFFFFFFFFFFFFFFFF27
:1023C600FFFFFFFFFFFFFFFFFFFFFFFFFFFFFFFF17
:1023D600FFFFFFFFFFFFFFFFFFFFFFFFFFFFFFFF07
:1023E600FFFFFFFFFFFFFFFFFFFFFFFF1010FFFFD5
:1023F600FF0000FFFFFFFFFFF000000FFFFFFFFFE2
:1024060000222200FFFFFFFF00222200FFFFFFF055
:10241600022002200FFFFFF0022002200FFFFF0024
:102426002200002200FFFF00220FF02200FFF00230
:10243600200FF002200FF00220000002200F0022E1
:1024460022222222220000222222222222000022EE
:10245600000000002200002200FFFF0022000022F0
:1024660000FFFF002200000000FFFF000000101028
:1024760000000000000000FF022222222222000F9C
:102486000222222222222000000220000022220014
:10249600F00220FFF0022200F00220FFF0022200EC
:1024A600F00220000022200FF0022222222200FF4A
:1024B600F0022222222200FFF00220000022200F3A
:1024C600F00220FFF0022200F00220FFF0022200BC
:1024D60000022000002222000222222222222000C4
:1024E600022222222222000F00000000000000FF2C
:1024F60010101010101010101010101010101010D6
:062506001010101010106F
:108C1E00124C6FFF9000D7E02F90008EF022900044
:108C2E006DE0FBA3E0FAA3E0F922F090006DE0FB0B
:108C3E00A3E475F001124CD6A9F0FA024C5690003E
:108C4E0064E0FF3395E0FED3EF9400EE64809480F1
:0B8C5E0022900066E0FEA3E0780322F5
:06953700E49000D7F022D1
:0B6A7000900065EFF0A3ECF0A3EDF048
:106A7B00900065E0FF25E0F0E02408F090006CF05A
:106A8B00128C5FC333CE33CED8F9FF900066EEF095
:106A9B00A3EFF04E602E128C5FCEC313CE13D8F93A
:106AAB00FF64074E601EEF640D4E6018EF64154EC9
:106ABB006012EF64084E600CEF64104E6006EF64DA
:106ACB00194E7008900067E0240A8006900067E07A
:106ADB002406F0900066E03400F0AF037E007C01EA
:106AEB007D02124CAE74262FF974003EFA90006DA5
:106AFB0074FFF0A3EAF0A3E9128C38900068128CB3
:106B0B0038900069F0E4A3F0900068E0FF90006A11
:106B1B00E0C39F4003026BEFE4A3F0900069E0FF3A
:106B2B0090006BE0C39F4003026BD0128C2C124C75
:106B3B0056128C21E4FB7D02FF129364128C2C9075
:106B4B000001128C1E7B01126C19900002128C1E1C
:106B5B007B02126C19900003128C1E7B03126C2C9F
:106B6B0090008E7480F07B04126C2C90006EE47598
:106B7B00F004124CC090006CE090008EF07B05127C
:106B8B006C34A3E090008EF07B07126C34E07E0037
:106B9B007802C333CE33CED8F9126BF0126C3F2090
:106BAB00E7FA900066E025E025E04408126BF0124E
:106BBB006C3F20E7FA90006CE004F090006BE0244F
:106BCB0004F0026B26900065E090006CF09000677B
:106BDB00E004F07006900066E004F090006AE004B8
:046BEB00F0026B1336
:106BEF002290008EF07B097D02E4FF1293647B0AF2
:106BFF007D02E4FF129329EF543F448090008EF002
:106C0F007B0A7D02E4FF129364227D02E4FF12935C
:106C1F006490006DE0FBA3E0FAA3E0F9227D02E4AB
:106C2F00FF129364227D02E4FF12936490006622A8
:0B6C3F007B0A7D02E4FF129329EF2284
:0B870A0090005EEFF0A3EDF0A3EBF099
:10871500A3128C2F12000E900064EFF03395E0C386
:1087250064809480404590005EE05401640170339C
:1087350090005FE0FFA3E0FD7C00A3128C2F124C9C
:1087450056FB126A70900064E014F0900062E475C4
:10875500F001124CC090005FE02402F0128C4C50E6
:0B876500CF8005128C4C50FB12954891
:0187700022E6
:1092A1000500000600000700000800000900000A90
:1092B10000001F000020000B000C000D000E000F2D
:0592C100101112120063
:0395230001210023
:107E5D009000C1E075F003A424A1F9749235F0FAF5
:107E6D0090006174FFF0A32290005BE0FBA3E0FAA9
:107E7D00A3E0F9229000C1E0FF7E007401A807087D
:107E8D00229000BDE0FD7C007B0122FF9000CEE042
:107E9D00FDEF5D227492F074ADA3F09000BDE0FB98
:107EAD00227492F0A374C0F022900001124C6F5412
:107EBD0002640222900001124C6F54016401229061
:107ECD000001124C6F54106410227492F0A374AD23
:107EDD00F0227492F0A374BE22124C565402640226
:107EED0022124C565401640122124C565410641047
:107EFD0022124C56540C1313543FF50A227B017D6C
:107F0D000F7C00227B017D127C0022EAF0A3E9F0B8
:107F1D007B0F22EAF0A3E9F07B12229000BDE0FD79
:107F2D007C007B02E422EAF0A3E9F07B01227D19BB
:107F3D007B057C007F3A22EBF0A3EAF0A3E9F02267
:107F4D007492F0A374B622EAF0A3E9F0E4FB229058
:0C7F5D000001024C6F7B017A0079C62203
:1089F2001279B61295377F041295427F031295457C
:108A0200E4F50AC3E50A9406748094805009AF0A1B
:108A1200128A2E050A80EC7F0112901E7FFF1295AA
:0B8A2200457F08128A2EE49000BEF091
:108A2D002212930A90005FE4F0A37426F07B5AE4BF
:078A3D00FDFCFF1282FE2286
:1050800090005B127F447F021295427FFF1295458C
:105090009000C0E0124DE450C51150D92150FE22BD
:1050A000512331515F3351983451D141522891529B
:1050B0003BA15269A25290B152D9B35314B4534C8C
:1050C000C1000053A8127E75127EE660030253A849
:1050D000127E5D127F54025264127E75127EE6705B
:1050E00006127E5D125403127E75127EB6600302B4
:1050F00053A89000C2127E60127F18025264127E82
:1051000075127EE67006127E5D1253A9127E75122C
:105110007EB660030253A89000C2127E60127F54D4
:1051200002528B127E75127EE67006127E5D12545C
:1051300003127E75127EB6700C9000C2127E601251
:105140007F18125412127E75900002127EB960030D
:105150000253A89000C3127E60127F1802528B1275
:105160007E75127EE67006127E5D1253A9127E7560
:10517000127EB670099000C2127E601253F4127E45
:1051800075900002127EB960030253A89000C3120A
:105190007E60127F1802528B127E75127EE67006B8
:1051A000127E5D1253C7127E75127EB67009900092
:1051B000C2127E601253F4127E75900002127EB904
:1051C00060030253A89000C3127E60127F1802533E
:1051D00047127E75127EE67006127E5D1253C7126C
:1051E0007E75127EB670109000C2127E60127F54DF
:1051F0007D3E7F0112870A127E75900002127EB9F1
:10520000700C9000C3127E60127F18125412127E2E
:1052100075900003127EB960030253A89000C41277
:105220007E60127F1802528B127E75127EE660033A
:105230000253A8127E5D127F338029127E75127E82
:10524000E6700D127E5D127F337D297F0112870A81
:10525000127E75127EB660030253A89000C2127EC1
:1052600060127F207D290253A3127E75127EE670A4
:1052700006127E5D1253B8127E75127EB66003026E
:1052800053A89000C2127E60127F337D3E0253A36A
:10529000127E75127EE6700D127E5D127F337D29BF
:1052A0007F0112870A127E75127EB670109000C2BE
:1052B000127E60127F207D147F0112870A127E7594
:1052C000900002127EB960030253A89000C3127EC0
:1052D00060127F207D3E0253A3127E75127EE6701F
:1052E00006127E5D1253B8127E75127EB67009905A
:1052F00000C2127E601253D6127E75900002127E9A
:10530000B960030253A89000C3127E60127F207D13
:105310003E0253A3127E75127EE67006127E5D1267
:1053200053E5127E75127EB670099000C2127E603F
:105330001253D6127E75900002127EB9706A9000E8
:10534000C3127E60127F207D140253A3127E751259
:105350007EE67006127E5D1253E5127E75127EB6F1
:1053600070109000C2127E60127F337D3E7F01126A
:10537000870A127E75900002127EB970109000C3E9
:10538000127E60127F207D147F0112870A127E75C3
:10539000900003127EB970109000C4127E60127FDC
:1053A000207D3E7F0112870A22EAF0A3E9F0E4FBA8
:1053B0007D147F0112870A22EAF0A3E9F07B017DC8
:1053C000147F0112870A22EAF0A3E9F0E4FB7D14BE
:1053D0007F0112870A22EAF0A3E9F07B017D3E7F7C
:1053E0000112870A22EAF0A3E9F07B017D147F0114
:1053F00012870A22EAF0A3E9F0E4FB7D3E7F011266
:10540000870A22EAF0A3E9F0E4FB7D297F011287F5
:0A5410000A227D147F0112870A2290
:089527009000BFE04480F02237
:108E8A007B787D01E4FF129329EF540FFF9000CE07
:108E9A00F09000BFE06F6024D2217B31E4FDFF1225
:108EAA009329EF547F90008EF07B31E4FDFF1293FB
:0D8EBA00641233AC9000CEE09000BFF022B7
:0660FD0090005B127F44DD
:106103007F411295429000C0E0124DE46137116166
:10611300632161C72262363162933362EA346137A5
:10612300916163A161C7A26236B16293B362EAB4BB
:106133000000634890005B127E78127EFE600302CB
:106143006241127E8E1263A2127E78124C5630E5A3
:10615300030262719000BEE0600302634802628B37
:1061630090005B127E78127EFE6010126349127EED
:106173006CEAF0E9127EA67D1C801D127E8E1263EE
:1061830099127E78124C5630E515126367127E6DB4
:10619300127F4D127EA77D017F0112870A800E9028
:1061A30000BEE07008127E8E7F0112824890005B71
:1061B300127E78127F5C127F019000BD6003026241
:1061C300FB02622E90005B127E78127EFE6011123B
:1061D3006349127E6CEAF0A3E9127EA77D1C801D41
:1061E300127E8E126399127E78124C5630E5151288
:1061F3006367127E6D127F4D127EA77D017F0112B0
:10620300870A800E9000BEE07008127E8E7F011216
:10621300824890005B127E78127F5C127F016008D7
:106223007B02E4FDFC0262FE9000BD127E917F467C
:1062330002634590005B127E78127EFE602112633A
:1062430076E50A25E0FFE433FE74B62FF974923E37
:10625300127E6CEAF0A3E9127EA77D310263351248
:106263007E8E1263A2127E78124C5630E5111263B1
:1062730076127E6D127F4D127EA77D0102633590EB
:1062830000BEE06003026348127E8E7F0102634515
:1062930090005B127E78127EFE6015127F281263D7
:1062A30085127E6CEAF0A3E9127EA77D1C0263359A
:1062B300127E8E7F1C12824890005B127E78124CF5
:1062C3005630E515127F28FF128248127E6D127F29
:1062D3004D127EA77D010263359000BEE070661209
:1062E3007E8E7F0102634590005B127E78127F5C95
:1062F300127F0160179000BD127F2B126385127EFF
:106303006CEAF0A3E9127EA77D468026127E8E7F7B
:106313004612824890005B127E78124C5630E51785
:10632300127F28FF128248127E6D127F4D127EA7C4
:106333007D017F0102870A9000BEE07008127E8E05
:056343007F01128248F9
:10634800229000BDE0FD7C007B02E4FF128248E55C
:106358000A25E0FFE433FE74B62FF974923E2290CA
:1063680000BDE0FD7C007B02E4FF12824822900021
:10637800BDE0FD7C007B02E4FF12824822FF12820E
:1063880048E50A25E0FFE433FE74B62FF974923E1F
:10639800227F1C12824890005B227F311282489033
:0363A800005B2275
:103E360090005B127F447F0C1295429000C0E01206
:103E46004DE43E76113E93213EC2223EF8313F4874
:103E5600333F91343FE341405E91407BA140B9A29C
:103E660040FAB1415DB341BCB44222C1000042AC4C
:103E760090005B127E78127EEE700A127E6D127EC4
:103E8600D7E40240737B01E4FDFC0240B490005B82
:103E9600127E78127EEE700D127E6D127ED77D2C0C
:103EA60012430080031242EB90005B127E78127E72
:103EB600C170030240A4127F0A0240B490005B1254
:103EC6007E78127EEE700B127E6D127ED71242AD98
:103ED60080031242C190005B127E78127EC1700A86
:103EE600127E6D127ED7E40240EC7B01E4FDFC02FB
:103EF60040F590005B127E78127EEE700D127E6D9C
:103F0600127ED7E4FB12431B80031242EB90005B48
:103F1600127E78127EC1700B127E6D127ED712420F
:103F2600E18008127F0A7F1712824890005B127E9A
:103F360078900002127EC4700302404D127F0A027E
:103F460040F590005B127E78127EEE700B127E6D4D
:103F5600127ED71242AD80031242C190005B127EE0
:103F660078127EC1700B127E6D127ED71242D780F8
:103F7600031242CC90005B127E78900002127EC43F
:103F8600700302404D127F0A0240F590005B127EDC
:103F960078127EEE700B127E6D127ED71242B780BB
:103FA6000312430890005B127E78127EC1700B12DA
:103FB6007E6D127ED71242D780031242CC90005BF0
:103FC600127E78900002127EC4700B127E6D127EF5
:103FD600D77B0F0242127B017D0F02421B90005BD2
:103FE600127E78127EEE700B127E6D127ED7124212
:103FF600B7800312430890005B127E78127EC17070
:104006000D127E6D127ED77D41124300800A7B0120
:10401600E4FDFC7F4112824890005B127E7890009E
:1040260002127EC4700B127E6D127ED71242E180A0
:1040360008127F0A7F1712824890005B127E7890E2
:104046000003127EC4700B127E6D127ED77B0F02A8
:1040560040ED127F0A0240F590005B127E78127ED8
:10406600EE700D127E6D127ED79000BDE0FB80369D
:10407600127E8E803990005B127E78127EEE700B77
:10408600127E6D127EA112431B8008127E8E7F2C3B
:1040960012824890005B127E78127EC1700D127EED
:1040A6006D127ED77B0F7D2C02429F127F0A7F2CDA
:1040B6000242A990005B127E78127EEE700B127E91
:1040C6006D127EA11243138008127E8E7F17128214
:1040D6004890005B127E78127EC17010127E6D12BF
:1040E6007ED79000BDE0FB7D4102429F127E8E7F0F
:1040F600410242A990005B127E78127EEE700F128A
:104106007E6D127EA17D2C7F0112870A8008127EA9
:104116008E7F2C12824890005B127E78127EC170D0
:104126000B127E6D127ED71242F68008127F117F27
:104136001712824890005B127E78900002127EC4AD
:10414600700D127E6D127ED77B127D4102429F1248
:104156007F117F410242A990005B127E78127EEEAB
:10416600700B127E6D127EA11243138008127E8E92
:104176007F1712824890005B127E78127EC1700B08
:10418600127E6D127EA11243238008127E8E7F411D
:1041960012824890005B127E78900002127EC470F4
:1041A6000D127E6D127ED77B127D4102429F127FD9
:1041B600117F410242A990005B127E78127EEE705A
:1041C6000F127E6D127EA17D177F0112870A80086D
:1041D600127E8E7F1712824890005B127E78127EC6
:1041E600C1700B127E6D127EA11243238008127ECF
:1041F6008E7F4112824890005B127E7890000212F8
:104206007EC4700D127E6D127ED77B127D17024220
:104216009F7B017D127C007F170242A990005B12F2
:104226007E78127EEE700F127E6D127EA17D177F54
:104236000112870A8008127E8E7F1712824890002C
:104246005B127E78127EC1700F127E6D127EA17D8A
:10425600417F0112870A8008127E8E7F41128248B2
:1042660090005B127E78900002127EC4700B127E64
:104276006D127ED71242F68008127F117F171282C6
:104286004890005B127E78900003127EC4700F1275
:104296007E6D127ED77B127D417F0102870A127FD7
:1042A600117F4112824822E4FB7D177F0112870AA3
:1042B60022E4FB7D177F0112870A227B01E4FDFCC5
:1042C6007F17128248227B01E4FDFC7F411282485F
:1042D60022E4FB7D417F0112870A227B0F7D177F37
:1042E6000112870A227B01E4FDFC7F2C1282482200
:1042F6007B127D177F0112870A22E4FB7F0112875A
:104306000A227B01E4FDFC7F17128248227D177F7B
:104316000112870A227D2C7F0112870A227D417FA6
:054326000112870A22CC
:10432B0090005B127F447F021295429000C0E01216
:10433B004DE4436811437D2143B22243E6314434BB
:10434B0033447A3444CD414540914564A245A9B1EB
:10435B004610B3467AB446DFC10000477090005B4D
:10436B00127E78127EF67002802C7B01E4FDFC023B
:10437B00455F90005B127E78127EF6700B127E6D9D
:10438B00127EDF1247ED80031247B990005B127E5D
:10439B0078127EF6700B127E6D127EDFF0E4024512
:1043AB0056127F0A02455F90005B127E78127EF6F2
:1043BB007008127E6D124771800312478D90005B5F
:1043CB00127E78127ECC700B127E6D127EDFF0E4C3
:1043DB0002459B7B01E4FDFC0245A490005B127E31
:1043EB0078127EF6700B127E6D127EDF1247ED8017
:1043FB00031247B990005B127E78127ECC700B12C1
:10440B007E6D127EDF1247AE8008127F0A7F1F126D
:10441B00824890005B127E78900002127ECF700370
:10442B0002452E127F0A0245A490005B127E781281
:10443B007EF67008127E6D124771800312478D90C5
:10444B00005B127E78127ECC700B127E6D127EDFBB
:10445B001247A3800312479890005B127E7890005E
:10446B0002127ECF700302452E127F0A0245A490E2
:10447B00005B127E78127EF6700B127E6D127EDF61
:10448B0012478280031247DA90005B127E78127E0D
:10449B00CC700B127E6D127EDF1247A38003124786
:1044AB009890005B127E78900002127ECF700C12F7
:1044BB007E6D127EDFF07B0F0246CF7B017D0F02FC
:1044CB0046D890005B127E78127EF6700B127E6DD2
:1044DB00127EDF12478280031247DA90005B127E56
:1044EB0078127ECC700B127E6D127EDF1247C48069
:1044FB00031247F890005B127E78900002127ECF79
:10450B00700B127E6D127EDF1247AE8008127F0A8F
:10451B007F1F12824890005B127E78900003127E00
:10452B00CF700C127E6D127EDFF07B0F02459C125A
:10453B007F0A0245A490005B127E78127EF6701102
:10454B00127E6D127EDFF09000BDE0FB7D340247E2
:10455B0063127E8E7F3402476D90005B127E781261
:10456B007EF6700E127E6D127EDF127EA71247E56D
:10457B008008127E8E7F1F12824890005B127E781D
:10458B00127ECC7011127E6D127EDFF09000BDE0BA
:10459B00FB7D49024763127E8E7F4902476D900077
:1045AB005B127E78127EF67012127E6D127EDF1217
:1045BB007EA77D347F0112870A8008127E8E7F349E
:1045CB0012824890005B127E78127ECC700B127EAA
:1045DB006D127EDF1247CF8008127F117F1F128270
:1045EB004890005B127E78900002127ECF700E1204
:1045FB007E6D127EDFF07B127D49024763127F11C5
:10460B007F4902476D90005B127E78127EF6700E2A
:10461B00127E6D127EDF127EA71247E58008127E96
:10462B008E7F1F12824890005B127E78127ECC70B8
:10463B0012127E6D127EDF127EA77D497F011287DB
:10464B000A8008127E8E7F4912824890005B127E90
:10465B0078900002127ECF700E127E6D127EDFF00C
:10466B007B127D49024763127F117F4902476D9090
:10467B00005B127E78127EF67012127E6D127EDF58
:10468B00127EA77D1F7F0112870A8008127E8E7F04
:10469B001F12824890005B127E78127ECC700B1238
:1046AB007E6D127EDF1247C480031247F890005BC9
:1046BB00127E78900002127ECF700E127E6D127EEB
:1046CB00DFF07B127D1F0247637B017D127C007F35
:1046DB001F02476D90005B127E78127EF6701212ED
:1046EB007E6D127EDF127EA77D1F7F0112870A80EF
:1046FB0008127E8E7F1F12824890005B127E78120A
:10470B007ECC7012127E6D127EDF127EA77D497FEA
:10471B000112870A8008127E8E7F49128248900010
:10472B005B127E78900002127ECF700B127E6D12A0
:10473B007EDF1247CF8008127F117F1F12824890B5
:10474B00005B127E78900003127ECF7010127E6D8C
:10475B00127EDFF07B127D497F0102870A127F11E7
:10476B007F49128248227492F0A374BEF0E4FB7D61
:10477B001F7F0112870A22F0E4FB7D1F7F01128746
:10478B000A227B01E4FDFC7F1F128248227B01E49D
:10479B00FDFC7F4912824822F0E4FB7D497F011228
:1047AB00870A22F07B0F7D1F7F0112870A227B0174
:1047BB00E4FDFC7F3412824822F0E4FB7D497F014B
:1047CB0012870A22F07B127D1F7F0112870A227B40
:1047DB0001E4FDFC7F1F128248227D1F7F0112879F
:1047EB000A22F0E4FB7D347F0112870A227B01E46D
:0847FB00FDFC7F4912824822F7
:1033AC009000C0E0124DE433DB1133FE2234433184
:1033BC0034B433351B343589413618913641A23635
:1033CC008EB136FEB33768B437E3C10000386F12E4
:1033DC007E818005C333CE33CED8F9127E98600B34
:1033EC00127E6D127EAE7B0D0236317B057D0D0299
:1033FC00363A127E818005C333CE33CED8F9127E95
:10340C0098600B127E6D127EAE1238CC800312388F
:10341C00889000C2127E848005C333CE33CED8F997
:10342C00127E98600B127E6D127EAE7B0D02367E84
:10343C007B057D0D023687127E818005C333CE332A
:10344C00CED8F9127E986011127E6D127EAE7B077B
:10345C007D257F0112870A80057D071239129000A5
:10346C00C2127E848005C333CE33CED8F9127E9837
:10347C00600D127E6D127EAE7B151238EC8003123D
:10348C0038D69000C3127E848005C333CE33CED899
:10349C00F9127E98600B127E6D127EAE7B15023691
:1034AC007E7B057D15023687127E818005C333CE67
:1034BC0033CED8F9127E98600B127E6D127EAE124E
:1034CC0038CC80031238889000C2127E848005C3E9
:1034DC0033CE33CED8F9127E98600B127E6D127EED
:1034EC00AE1238E280031238949000C3127E8480AE
:1034FC0005C333CE33CED8F9127E98600B127E6D95
:10350C00127EAE7B1502367E7B057D150236871248
:10351C007E818005C333CE33CED8F9127E98600BF2
:10352C00127E6D127EAE1238A0800312387090009D
:10353C00C2127E848005C333CE33CED8F9127E9866
:10354C00600D127E6D127EAE7D3A12390A80087DB6
:10355C000D127F3D1282489000C3127E848005C3F9
:10356C0033CE33CED8F9127E98600B127E6D127E5C
:10357C00AE7B150237D37B057D150237DC127E81BD
:10358C008005C333CE33CED8F9127E98600B127EF1
:10359C006D127EAE1238A080031238709000C212E9
:1035AC007E848005C333CE33CED8F9127E98600B5F
:1035BC00127E6D127EAE1238E280031238949000A7
:1035CC00C3127E848005C333CE33CED8F9127E98D5
:1035DC006011127E6D127EAE7B157D107F011287FD
:1035EC000A80031238D69000C4127E848005C3333F
:1035FC00CE33CED8F9127E98600B127E6D127EAE51
:10360C007B1502367E7B057D15023687127E818006
:10361C0005C333CE33CED8F9127E98600D127E6D71
:10362C00127EAE7B107D250238647B057D107C00FC
:10363C007F2502386C127E818005C333CE33CED801
:10364C00F9127E98600D127E6D127EAE7B101238D0
:10365C00EC80031238AA9000C2127E848005C3331A
:10366C00CE33CED8F9127E98600D127E6D127EAEDE
:10367C007B107D3A0238647B057D107C007F3A021A
:10368C00386C127E818005C333CE33CED8F9127ECE
:10369C00986011127E6D127EAE7B087D257F011223
:1036AC00870A80057D081239129000C2127E848030
:1036BC0005C333CE33CED8F9127E98600B127E6DD3
:1036CC00127EAE12391C80031238F49000C3127EA5
:1036DC00848005C333CE33CED8F9127E98600D1298
:1036EC007E6D127EAE7B197D3A023864127F3B02EE
:1036FC00386C127E818005C333CE33CED8F9127E5E
:10370C0098600D127E6D127EAE7D1012390A800308
:10371C001238AA9000C2127E848005C333CE33CEF9
:10372C00D8F9127E98600B127E6D127EAE123900A3
:10373C0080031238C09000C3127E848005C333CE40
:10374C0033CED8F9127E98600D127E6D127EAE7B50
:10375C00197D3A023864127F3B02386C127E8180EC
:10376C0005C333CE33CED8F9127E98600B127E6D22
:10377C00127EAE1238B6800312387C9000C2127ED4
:10378C00848005C333CE33CED8F9127E98601112E3
:10379C007E6D127EAE7B107D3A7F0112870A800B04
:1037AC007B057D107C007F3A1282489000C3127E0C
:1037BC00848005C333CE33CED8F9127E98600D12B7
:1037CC007E6D127EAE7B197D100238647B057D19EF
:1037DC007C007F1002386C127E818005C333CE339F
:1037EC00CED8F9127E98600B127E6D127EAE123816
:1037FC00B6800312387C9000C2127E848005C333DD
:10380C00CE33CED8F9127E98600B127E6D127EAE3E
:10381C0012390080031238C09000C3127E848005D8
:10382C00C333CE33CED8F9127E98600B127E6D1254
:10383C007EAE12391C80031238F49000C4127E84C0
:10384C008005C333CE33CED8F9127E98600F127E2A
:10385C006D127EAE7B197D3A7F0102870A127F3B87
:10386C00128248227B057D077C007F101282482241
:10387C007B057D087C007F10128248227B057D0D24
:10388C007C007F10128248227B057D077C007F3AEA
:10389C00128248227B077D107F0112870A227B054A
:1038AC007D107C007F10128248227B087D107F01E6
:1038BC0012870A227B057D087C007F3A12824822FF
:1038CC007B0D7D107F0112870A227B057D157C0004
:1038DC007F10128248227B077D3A7F0112870A22D1
:1038EC007D107F0112870A227B057D197C007F10D9
:1038FC00128248227B087D3A7F0112870A227B0DB7
:10390C007F0112870A227B057C007F2512824822C8
:0A391C007B197D107F0112870A223B
:108D4000E4FF12930A9000BEE024FE601104702933
:108D5000128D7A127E6D7492F0A374B0800C128D15
:108D60007A127E6D7492F0A374B3127EA77D017F98
:108D70000112870A7FFF129545227F031295457FD6
:058D80000412954222DF
:10922B00E4FF12930A9000C6E0540264027012121B
:10923B007F62123E36127F6212432B127F621260E4
:09924B00FD129527E4FF02901EBC
:10250C0000000000000000000000000000000000BF
:10251C0000000000000000000000000000000000AF
:10252C00003E007E00FE01CE038E7F8E7F8E738E6A
:10253C00738E738E7F8E7F8E01CE00FE007E003EEA
:10254C0000000000020006000E001E003FFE7FFE91
:10255C007FFE3FFE1E000E00060002000000000081
:10256C000000000000400060007000787FFC7FFEDF
:10257C007FFE7FFC007800700060004000000000CF
:10258C00000003C003C003C003C003C003C003C0EA
:10259C0003C03FFC1FF80FF007E003C001800000F0
:1025AC0003C003C007E007E00E700E701C381C3827
:1025BC00381C381C7FFE7FFE700E700E700E700E75
:1025CC007FF87FFC383E381E381E381E383C3FF8EA
:1025DC003FF8383C381E381E381E383E7FFC7FF8DA
:1025EC000FF81FFC3C1C380E780E700E700070003B
:1025FC0070007000700E700E380E3C1C1FFC0FF833
:10260C007FF07FF07078703C703C703C70787FF09D
:10261C007FE0778073C071E070F07078703C701E52
:10262C0000006006700E781E7C3E7FFE77EE73CE47
:10263C00718E700E700E700E700E700E700E700E1D
:10264C0000001FF81FF800E000E000E000E000E0F0
:10265C0000E000E000E070E079E03FC01F800F0078
:10266C0000000000000003C007800F001E003FFCAC
:10267C003FFC1E000F00078003C00000000000009C
:10268C0000000000000003C001E000F000783FFCF7
:10269C003FFC007800F001E003C0000000000000E7
:1026AC0000000000018001800180018011881998D0
:1026BC001DB81FF80FF007E003C0018000000000F8
:1026CC00003E007E00FE01CE038E7F8E7F8E738EC9
:1026DC00738E738E7F8E7F8E01CE00FE007E003E49
:1026EC00700E700E700E700E700E700E781E381C00
:1026FC00381C1C381C380E700FF007E003C001802A
:10270C000000380038003800380038003800380035
:10271C0038003800380038063806380E3FFE3FFEC9
:10272C000000000000000000000003800FE01C709F
:10273C00183038383838383818301C700FE00380AF
:10274C000000000000000000000003C00FF01C3867
:10275C001C000F0007E000F000381C380FF003C01D
:10276C00000000000000000000000000000000005D
:10277C00000000000000000000000000000000004D
:10278C00000000000000000000000000000000003D
:10279C00000000000000000000000000000000002D
:1027AC00000000000000000000000000000000001D
:1027BC00000000000000000000000000000000000D
:1027CC0000000000000000000000000000000000FD
:1027DC0000000000000000000000000000000000ED
:1027EC0000000000000000000000000000000000DD
:1027FC0000000000000000000000000000000000CD
:10280C0000000000000000000000000000000000BC
:10281C0000000000000000000000000000000000AC
:10282C00000000000000000000000000000000009C
:10283C00000000000000000000000000000000008C
:10284C00000000000000000000000000000000007C
